{
	"compilerInput": "{\"language\":\"Solidity\",\"sources\":{\"contracts/ItemRegistry.sol\":{\"content\":\"// SPDX-License-Identifier: MIT\\npragma solidity ^0.8.0;\\n\\ncontract ItemRegistry {\\n    struct MedicalItem {\\n        string name;\\n        uint256 quantity;\\n        uint256 price;\\n    }\\n\\n    mapping(uint256 => MedicalItem) public items;\\n    mapping(string => uint256) public itemIdsByName;\\n    uint256 public itemCount;\\n    address public owner;\\n\\n    event ItemAdded(uint256 itemId, string name, uint256 quantity, uint256 price);\\n\\n    constructor() {\\n        owner = msg.sender;\\n    }\\n\\n    modifier onlyOwner() {\\n        require(msg.sender == owner, \\\"Only the owner can perform this action\\\");\\n        _;\\n    }\\n\\n    function addItem(string memory _name, uint256 _quantity, uint256 _price) public onlyOwner {\\n        require(_quantity > 0, \\\"Quantity must be greater than 0\\\");\\n        require(itemIdsByName[_name] == 0, \\\"Item with the same name already exists\\\");\\n        itemCount++;\\n        uint256 itemId = itemCount;\\n        items[itemId] = MedicalItem(_name, _quantity, _price);\\n        itemIdsByName[_name] = itemId;\\n        emit ItemAdded(itemId, _name, _quantity, _price);\\n    }\\n    function getItemIdByName(string memory _name)\\n        public\\n        view\\n        returns (uint256)\\n    {\\n        uint256 itemId = itemIdsByName[_name];\\n        require(itemId > 0, \\\"Item not found\\\");\\n        return itemId;\\n    }\\n    function getItemData(uint256 _itemId)\\n        external\\n        view\\n        returns (\\n            string memory name,\\n            uint256 quantity,\\n            uint256 price\\n        )\\n    {\\n        require(_itemId > 0 && _itemId <= itemCount, \\\"Invalid item ID\\\");\\n        MedicalItem storage item = items[_itemId];\\n        return (item.name, item.quantity, item.price);\\n    }\\n\\n    function getAllItems()\\n        public\\n        view\\n        returns (\\n            uint256[] memory,\\n            string[] memory,\\n            uint256[] memory,\\n            uint256[] memory\\n        )\\n    {\\n        uint256[] memory ids = new uint256[](itemCount);\\n        string[] memory names = new string[](itemCount);\\n        uint256[] memory quantities = new uint256[](itemCount);\\n        uint256[] memory prices = new uint256[](itemCount);\\n\\n        for (uint256 i = 1; i <= itemCount; i++) {\\n            ids[i - 1] = i;\\n            names[i - 1] = items[i].name;\\n            quantities[i - 1] = items[i].quantity;\\n            prices[i - 1] = items[i].price;\\n        }\\n\\n        return (ids, names, quantities, prices);\\n    }\\n}\\n\"}},\"settings\":{\"optimizer\":{\"enabled\":false,\"runs\":200},\"outputSelection\":{\"*\":{\"\":[\"ast\"],\"*\":[\"abi\",\"metadata\",\"devdoc\",\"userdoc\",\"storageLayout\",\"evm.legacyAssembly\",\"evm.bytecode\",\"evm.deployedBytecode\",\"evm.methodIdentifiers\",\"evm.gasEstimates\",\"evm.assembly\"]}}}}",
	"name": "ItemRegistry",
	"bytecode": {
		"linkReferences": {},
		"object": "608060405234801561001057600080fd5b5033600360006101000a81548173ffffffffffffffffffffffffffffffffffffffff021916908373ffffffffffffffffffffffffffffffffffffffff1602179055506114e2806100616000396000f3fe608060405234801561001057600080fd5b50600436106100885760003560e01c80638da5cb5b1161005b5780638da5cb5b1461012e578063bfb231d21461014c578063c14d307f1461017e578063d5e6c333146101ae57610088565b80632f4e3faa1461008d5780634ba1d6aa146100bd5780636bfb0d01146100de5780638bc6976e146100fc575b600080fd5b6100a760048036038101906100a29190610bbb565b6101ca565b6040516100b49190611158565b60405180910390f35b6100c561023a565b6040516100d59493929190611019565b60405180910390f35b6100e6610661565b6040516100f39190611158565b60405180910390f35b61011660048036038101906101119190610c63565b610667565b6040516101259392919061107a565b60405180910390f35b61013661077b565b6040516101439190610ffe565b60405180910390f35b61016660048036038101906101619190610c63565b6107a1565b6040516101759392919061107a565b60405180910390f35b61019860048036038101906101939190610bbb565b610853565b6040516101a59190611158565b60405180910390f35b6101c860048036038101906101c39190610bfc565b610881565b005b6000806001836040516101dd9190610fe7565b908152602001604051809103902054905060008111610231576040517f08c379a000000000000000000000000000000000000000000000000000000000815260040161022890611138565b60405180910390fd5b80915050919050565b606080606080600060025467ffffffffffffffff811115610284577f4e487b7100000000000000000000000000000000000000000000000000000000600052604160045260246000fd5b6040519080825280602002602001820160405280156102b25781602001602082028036833780820191505090505b509050600060025467ffffffffffffffff8111156102f9577f4e487b7100000000000000000000000000000000000000000000000000000000600052604160045260246000fd5b60405190808252806020026020018201604052801561032c57816020015b60608152602001906001900390816103175790505b509050600060025467ffffffffffffffff811115610373577f4e487b7100000000000000000000000000000000000000000000000000000000600052604160045260246000fd5b6040519080825280602002602001820160405280156103a15781602001602082028036833780820191505090505b509050600060025467ffffffffffffffff8111156103e8577f4e487b7100000000000000000000000000000000000000000000000000000000600052604160045260246000fd5b6040519080825280602002602001820160405280156104165781602001602082028036833780820191505090505b5090506000600190505b600254811161064a57808560018361043891906112ca565b8151811061046f577f4e487b7100000000000000000000000000000000000000000000000000000000600052603260045260246000fd5b602002602001018181525050600080828152602001908152602001600020600001805461049b9061137c565b80601f01602080910402602001604051908101604052809291908181526020018280546104c79061137c565b80156105145780601f106104e957610100808354040283529160200191610514565b820191906000526020600020905b8154815290600101906020018083116104f757829003601f168201915b50505050508460018361052791906112ca565b8151811061055e577f4e487b7100000000000000000000000000000000000000000000000000000000600052603260045260246000fd5b6020026020010181905250600080828152602001908152602001600020600101548360018361058d91906112ca565b815181106105c4577f4e487b7100000000000000000000000000000000000000000000000000000000600052603260045260246000fd5b60200260200101818152505060008082815260200190815260200160002060020154826001836105f491906112ca565b8151811061062b577f4e487b7100000000000000000000000000000000000000000000000000000000600052603260045260246000fd5b6020026020010181815250508080610642906113ae565b915050610420565b508383838397509750975097505050505090919293565b60025481565b606060008060008411801561067e57506002548411155b6106bd576040517f08c379a00000000000000000000000000000000000000000000000000000000081526004016106b4906110f8565b60405180910390fd5b6000806000868152602001908152602001600020905080600001816001015482600201548280546106ed9061137c565b80601f01602080910402602001604051908101604052809291908181526020018280546107199061137c565b80156107665780601f1061073b57610100808354040283529160200191610766565b820191906000526020600020905b81548152906001019060200180831161074957829003601f168201915b50505050509250935093509350509193909250565b600360009054906101000a900473ffffffffffffffffffffffffffffffffffffffff1681565b60006020528060005260406000206000915090508060000180546107c49061137c565b80601f01602080910402602001604051908101604052809291908181526020018280546107f09061137c565b801561083d5780601f106108125761010080835404028352916020019161083d565b820191906000526020600020905b81548152906001019060200180831161082057829003601f168201915b5050505050908060010154908060020154905083565b6001818051602081018201805184825260208301602085012081835280955050505050506000915090505481565b600360009054906101000a900473ffffffffffffffffffffffffffffffffffffffff1673ffffffffffffffffffffffffffffffffffffffff163373ffffffffffffffffffffffffffffffffffffffff1614610911576040517f08c379a000000000000000000000000000000000000000000000000000000000815260040161090890611118565b60405180910390fd5b60008211610954576040517f08c379a000000000000000000000000000000000000000000000000000000000815260040161094b906110b8565b60405180910390fd5b60006001846040516109669190610fe7565b908152602001604051809103902054146109b5576040517f08c379a00000000000000000000000000000000000000000000000000000000081526004016109ac906110d8565b60405180910390fd5b600260008154809291906109c8906113ae565b9190505550600060025490506040518060600160405280858152602001848152602001838152506000808381526020019081526020016000206000820151816000019080519060200190610a1d929190610a9b565b50602082015181600101556040820151816002015590505080600185604051610a469190610fe7565b9081526020016040518091039020819055507f665e452eb624a7f9bf54abd5d404d4f4da7360a1e40698893fe2cc447a51af9c81858585604051610a8d9493929190611173565b60405180910390a150505050565b828054610aa79061137c565b90600052602060002090601f016020900481019282610ac95760008555610b10565b82601f10610ae257805160ff1916838001178555610b10565b82800160010185558215610b10579182015b82811115610b0f578251825591602001919060010190610af4565b5b509050610b1d9190610b21565b5090565b5b80821115610b3a576000816000905550600101610b22565b5090565b6000610b51610b4c846111f0565b6111bf565b905082815260208101848484011115610b6957600080fd5b610b7484828561133a565b509392505050565b600082601f830112610b8d57600080fd5b8135610b9d848260208601610b3e565b91505092915050565b600081359050610bb581611495565b92915050565b600060208284031215610bcd57600080fd5b600082013567ffffffffffffffff811115610be757600080fd5b610bf384828501610b7c565b91505092915050565b600080600060608486031215610c1157600080fd5b600084013567ffffffffffffffff811115610c2b57600080fd5b610c3786828701610b7c565b9350506020610c4886828701610ba6565b9250506040610c5986828701610ba6565b9150509250925092565b600060208284031215610c7557600080fd5b6000610c8384828501610ba6565b91505092915050565b6000610c988383610d9a565b905092915050565b6000610cac8383610fc9565b60208301905092915050565b610cc1816112fe565b82525050565b6000610cd282611240565b610cdc818561127b565b935083602082028501610cee85611220565b8060005b85811015610d2a5784840389528151610d0b8582610c8c565b9450610d1683611261565b925060208a01995050600181019050610cf2565b50829750879550505050505092915050565b6000610d478261124b565b610d51818561128c565b9350610d5c83611230565b8060005b83811015610d8d578151610d748882610ca0565b9750610d7f8361126e565b925050600181019050610d60565b5085935050505092915050565b6000610da582611256565b610daf818561129d565b9350610dbf818560208601611349565b610dc881611484565b840191505092915050565b6000610dde82611256565b610de881856112ae565b9350610df8818560208601611349565b610e0181611484565b840191505092915050565b6000610e1782611256565b610e2181856112bf565b9350610e31818560208601611349565b80840191505092915050565b6000610e4a601f836112ae565b91507f5175616e74697479206d7573742062652067726561746572207468616e2030006000830152602082019050919050565b6000610e8a6026836112ae565b91507f4974656d2077697468207468652073616d65206e616d6520616c72656164792060008301527f65786973747300000000000000000000000000000000000000000000000000006020830152604082019050919050565b6000610ef0600f836112ae565b91507f496e76616c6964206974656d20494400000000000000000000000000000000006000830152602082019050919050565b6000610f306026836112ae565b91507f4f6e6c7920746865206f776e65722063616e20706572666f726d20746869732060008301527f616374696f6e00000000000000000000000000000000000000000000000000006020830152604082019050919050565b6000610f96600e836112ae565b91507f4974656d206e6f7420666f756e640000000000000000000000000000000000006000830152602082019050919050565b610fd281611330565b82525050565b610fe181611330565b82525050565b6000610ff38284610e0c565b915081905092915050565b60006020820190506110136000830184610cb8565b92915050565b600060808201905081810360008301526110338187610d3c565b905081810360208301526110478186610cc7565b9050818103604083015261105b8185610d3c565b9050818103606083015261106f8184610d3c565b905095945050505050565b600060608201905081810360008301526110948186610dd3565b90506110a36020830185610fd8565b6110b06040830184610fd8565b949350505050565b600060208201905081810360008301526110d181610e3d565b9050919050565b600060208201905081810360008301526110f181610e7d565b9050919050565b6000602082019050818103600083015261111181610ee3565b9050919050565b6000602082019050818103600083015261113181610f23565b9050919050565b6000602082019050818103600083015261115181610f89565b9050919050565b600060208201905061116d6000830184610fd8565b92915050565b60006080820190506111886000830187610fd8565b818103602083015261119a8186610dd3565b90506111a96040830185610fd8565b6111b66060830184610fd8565b95945050505050565b6000604051905081810181811067ffffffffffffffff821117156111e6576111e5611455565b5b8060405250919050565b600067ffffffffffffffff82111561120b5761120a611455565b5b601f19601f8301169050602081019050919050565b6000819050602082019050919050565b6000819050602082019050919050565b600081519050919050565b600081519050919050565b600081519050919050565b6000602082019050919050565b6000602082019050919050565b600082825260208201905092915050565b600082825260208201905092915050565b600082825260208201905092915050565b600082825260208201905092915050565b600081905092915050565b60006112d582611330565b91506112e083611330565b9250828210156112f3576112f26113f7565b5b828203905092915050565b600061130982611310565b9050919050565b600073ffffffffffffffffffffffffffffffffffffffff82169050919050565b6000819050919050565b82818337600083830152505050565b60005b8381101561136757808201518184015260208101905061134c565b83811115611376576000848401525b50505050565b6000600282049050600182168061139457607f821691505b602082108114156113a8576113a7611426565b5b50919050565b60006113b982611330565b91507fffffffffffffffffffffffffffffffffffffffffffffffffffffffffffffffff8214156113ec576113eb6113f7565b5b600182019050919050565b7f4e487b7100000000000000000000000000000000000000000000000000000000600052601160045260246000fd5b7f4e487b7100000000000000000000000000000000000000000000000000000000600052602260045260246000fd5b7f4e487b7100000000000000000000000000000000000000000000000000000000600052604160045260246000fd5b6000601f19601f8301169050919050565b61149e81611330565b81146114a957600080fd5b5056fea2646970667358221220ba13def4c04775d489402aa684055958c7887c665fe24149b29929a6e09dac5164736f6c63430008000033",
		"opcodes": "PUSH1 0x80 PUSH1 0x40 MSTORE CALLVALUE DUP1 ISZERO PUSH2 0x10 JUMPI PUSH1 0x0 DUP1 REVERT JUMPDEST POP CALLER PUSH1 0x3 PUSH1 0x0 PUSH2 0x100 EXP DUP2 SLOAD DUP2 PUSH20 0xFFFFFFFFFFFFFFFFFFFFFFFFFFFFFFFFFFFFFFFF MUL NOT AND SWAP1 DUP4 PUSH20 0xFFFFFFFFFFFFFFFFFFFFFFFFFFFFFFFFFFFFFFFF AND MUL OR SWAP1 SSTORE POP PUSH2 0x14E2 DUP1 PUSH2 0x61 PUSH1 0x0 CODECOPY PUSH1 0x0 RETURN INVALID PUSH1 0x80 PUSH1 0x40 MSTORE CALLVALUE DUP1 ISZERO PUSH2 0x10 JUMPI PUSH1 0x0 DUP1 REVERT JUMPDEST POP PUSH1 0x4 CALLDATASIZE LT PUSH2 0x88 JUMPI PUSH1 0x0 CALLDATALOAD PUSH1 0xE0 SHR DUP1 PUSH4 0x8DA5CB5B GT PUSH2 0x5B JUMPI DUP1 PUSH4 0x8DA5CB5B EQ PUSH2 0x12E JUMPI DUP1 PUSH4 0xBFB231D2 EQ PUSH2 0x14C JUMPI DUP1 PUSH4 0xC14D307F EQ PUSH2 0x17E JUMPI DUP1 PUSH4 0xD5E6C333 EQ PUSH2 0x1AE JUMPI PUSH2 0x88 JUMP JUMPDEST DUP1 PUSH4 0x2F4E3FAA EQ PUSH2 0x8D JUMPI DUP1 PUSH4 0x4BA1D6AA EQ PUSH2 0xBD JUMPI DUP1 PUSH4 0x6BFB0D01 EQ PUSH2 0xDE JUMPI DUP1 PUSH4 0x8BC6976E EQ PUSH2 0xFC JUMPI JUMPDEST PUSH1 0x0 DUP1 REVERT JUMPDEST PUSH2 0xA7 PUSH1 0x4 DUP1 CALLDATASIZE SUB DUP2 ADD SWAP1 PUSH2 0xA2 SWAP2 SWAP1 PUSH2 0xBBB JUMP JUMPDEST PUSH2 0x1CA JUMP JUMPDEST PUSH1 0x40 MLOAD PUSH2 0xB4 SWAP2 SWAP1 PUSH2 0x1158 JUMP JUMPDEST PUSH1 0x40 MLOAD DUP1 SWAP2 SUB SWAP1 RETURN JUMPDEST PUSH2 0xC5 PUSH2 0x23A JUMP JUMPDEST PUSH1 0x40 MLOAD PUSH2 0xD5 SWAP5 SWAP4 SWAP3 SWAP2 SWAP1 PUSH2 0x1019 JUMP JUMPDEST PUSH1 0x40 MLOAD DUP1 SWAP2 SUB SWAP1 RETURN JUMPDEST PUSH2 0xE6 PUSH2 0x661 JUMP JUMPDEST PUSH1 0x40 MLOAD PUSH2 0xF3 SWAP2 SWAP1 PUSH2 0x1158 JUMP JUMPDEST PUSH1 0x40 MLOAD DUP1 SWAP2 SUB SWAP1 RETURN JUMPDEST PUSH2 0x116 PUSH1 0x4 DUP1 CALLDATASIZE SUB DUP2 ADD SWAP1 PUSH2 0x111 SWAP2 SWAP1 PUSH2 0xC63 JUMP JUMPDEST PUSH2 0x667 JUMP JUMPDEST PUSH1 0x40 MLOAD PUSH2 0x125 SWAP4 SWAP3 SWAP2 SWAP1 PUSH2 0x107A JUMP JUMPDEST PUSH1 0x40 MLOAD DUP1 SWAP2 SUB SWAP1 RETURN JUMPDEST PUSH2 0x136 PUSH2 0x77B JUMP JUMPDEST PUSH1 0x40 MLOAD PUSH2 0x143 SWAP2 SWAP1 PUSH2 0xFFE JUMP JUMPDEST PUSH1 0x40 MLOAD DUP1 SWAP2 SUB SWAP1 RETURN JUMPDEST PUSH2 0x166 PUSH1 0x4 DUP1 CALLDATASIZE SUB DUP2 ADD SWAP1 PUSH2 0x161 SWAP2 SWAP1 PUSH2 0xC63 JUMP JUMPDEST PUSH2 0x7A1 JUMP JUMPDEST PUSH1 0x40 MLOAD PUSH2 0x175 SWAP4 SWAP3 SWAP2 SWAP1 PUSH2 0x107A JUMP JUMPDEST PUSH1 0x40 MLOAD DUP1 SWAP2 SUB SWAP1 RETURN JUMPDEST PUSH2 0x198 PUSH1 0x4 DUP1 CALLDATASIZE SUB DUP2 ADD SWAP1 PUSH2 0x193 SWAP2 SWAP1 PUSH2 0xBBB JUMP JUMPDEST PUSH2 0x853 JUMP JUMPDEST PUSH1 0x40 MLOAD PUSH2 0x1A5 SWAP2 SWAP1 PUSH2 0x1158 JUMP JUMPDEST PUSH1 0x40 MLOAD DUP1 SWAP2 SUB SWAP1 RETURN JUMPDEST PUSH2 0x1C8 PUSH1 0x4 DUP1 CALLDATASIZE SUB DUP2 ADD SWAP1 PUSH2 0x1C3 SWAP2 SWAP1 PUSH2 0xBFC JUMP JUMPDEST PUSH2 0x881 JUMP JUMPDEST STOP JUMPDEST PUSH1 0x0 DUP1 PUSH1 0x1 DUP4 PUSH1 0x40 MLOAD PUSH2 0x1DD SWAP2 SWAP1 PUSH2 0xFE7 JUMP JUMPDEST SWAP1 DUP2 MSTORE PUSH1 0x20 ADD PUSH1 0x40 MLOAD DUP1 SWAP2 SUB SWAP1 KECCAK256 SLOAD SWAP1 POP PUSH1 0x0 DUP2 GT PUSH2 0x231 JUMPI PUSH1 0x40 MLOAD PUSH32 0x8C379A000000000000000000000000000000000000000000000000000000000 DUP2 MSTORE PUSH1 0x4 ADD PUSH2 0x228 SWAP1 PUSH2 0x1138 JUMP JUMPDEST PUSH1 0x40 MLOAD DUP1 SWAP2 SUB SWAP1 REVERT JUMPDEST DUP1 SWAP2 POP POP SWAP2 SWAP1 POP JUMP JUMPDEST PUSH1 0x60 DUP1 PUSH1 0x60 DUP1 PUSH1 0x0 PUSH1 0x2 SLOAD PUSH8 0xFFFFFFFFFFFFFFFF DUP2 GT ISZERO PUSH2 0x284 JUMPI PUSH32 0x4E487B7100000000000000000000000000000000000000000000000000000000 PUSH1 0x0 MSTORE PUSH1 0x41 PUSH1 0x4 MSTORE PUSH1 0x24 PUSH1 0x0 REVERT JUMPDEST PUSH1 0x40 MLOAD SWAP1 DUP1 DUP3 MSTORE DUP1 PUSH1 0x20 MUL PUSH1 0x20 ADD DUP3 ADD PUSH1 0x40 MSTORE DUP1 ISZERO PUSH2 0x2B2 JUMPI DUP2 PUSH1 0x20 ADD PUSH1 0x20 DUP3 MUL DUP1 CALLDATASIZE DUP4 CALLDATACOPY DUP1 DUP3 ADD SWAP2 POP POP SWAP1 POP JUMPDEST POP SWAP1 POP PUSH1 0x0 PUSH1 0x2 SLOAD PUSH8 0xFFFFFFFFFFFFFFFF DUP2 GT ISZERO PUSH2 0x2F9 JUMPI PUSH32 0x4E487B7100000000000000000000000000000000000000000000000000000000 PUSH1 0x0 MSTORE PUSH1 0x41 PUSH1 0x4 MSTORE PUSH1 0x24 PUSH1 0x0 REVERT JUMPDEST PUSH1 0x40 MLOAD SWAP1 DUP1 DUP3 MSTORE DUP1 PUSH1 0x20 MUL PUSH1 0x20 ADD DUP3 ADD PUSH1 0x40 MSTORE DUP1 ISZERO PUSH2 0x32C JUMPI DUP2 PUSH1 0x20 ADD JUMPDEST PUSH1 0x60 DUP2 MSTORE PUSH1 0x20 ADD SWAP1 PUSH1 0x1 SWAP1 SUB SWAP1 DUP2 PUSH2 0x317 JUMPI SWAP1 POP JUMPDEST POP SWAP1 POP PUSH1 0x0 PUSH1 0x2 SLOAD PUSH8 0xFFFFFFFFFFFFFFFF DUP2 GT ISZERO PUSH2 0x373 JUMPI PUSH32 0x4E487B7100000000000000000000000000000000000000000000000000000000 PUSH1 0x0 MSTORE PUSH1 0x41 PUSH1 0x4 MSTORE PUSH1 0x24 PUSH1 0x0 REVERT JUMPDEST PUSH1 0x40 MLOAD SWAP1 DUP1 DUP3 MSTORE DUP1 PUSH1 0x20 MUL PUSH1 0x20 ADD DUP3 ADD PUSH1 0x40 MSTORE DUP1 ISZERO PUSH2 0x3A1 JUMPI DUP2 PUSH1 0x20 ADD PUSH1 0x20 DUP3 MUL DUP1 CALLDATASIZE DUP4 CALLDATACOPY DUP1 DUP3 ADD SWAP2 POP POP SWAP1 POP JUMPDEST POP SWAP1 POP PUSH1 0x0 PUSH1 0x2 SLOAD PUSH8 0xFFFFFFFFFFFFFFFF DUP2 GT ISZERO PUSH2 0x3E8 JUMPI PUSH32 0x4E487B7100000000000000000000000000000000000000000000000000000000 PUSH1 0x0 MSTORE PUSH1 0x41 PUSH1 0x4 MSTORE PUSH1 0x24 PUSH1 0x0 REVERT JUMPDEST PUSH1 0x40 MLOAD SWAP1 DUP1 DUP3 MSTORE DUP1 PUSH1 0x20 MUL PUSH1 0x20 ADD DUP3 ADD PUSH1 0x40 MSTORE DUP1 ISZERO PUSH2 0x416 JUMPI DUP2 PUSH1 0x20 ADD PUSH1 0x20 DUP3 MUL DUP1 CALLDATASIZE DUP4 CALLDATACOPY DUP1 DUP3 ADD SWAP2 POP POP SWAP1 POP JUMPDEST POP SWAP1 POP PUSH1 0x0 PUSH1 0x1 SWAP1 POP JUMPDEST PUSH1 0x2 SLOAD DUP2 GT PUSH2 0x64A JUMPI DUP1 DUP6 PUSH1 0x1 DUP4 PUSH2 0x438 SWAP2 SWAP1 PUSH2 0x12CA JUMP JUMPDEST DUP2 MLOAD DUP2 LT PUSH2 0x46F JUMPI PUSH32 0x4E487B7100000000000000000000000000000000000000000000000000000000 PUSH1 0x0 MSTORE PUSH1 0x32 PUSH1 0x4 MSTORE PUSH1 0x24 PUSH1 0x0 REVERT JUMPDEST PUSH1 0x20 MUL PUSH1 0x20 ADD ADD DUP2 DUP2 MSTORE POP POP PUSH1 0x0 DUP1 DUP3 DUP2 MSTORE PUSH1 0x20 ADD SWAP1 DUP2 MSTORE PUSH1 0x20 ADD PUSH1 0x0 KECCAK256 PUSH1 0x0 ADD DUP1 SLOAD PUSH2 0x49B SWAP1 PUSH2 0x137C JUMP JUMPDEST DUP1 PUSH1 0x1F ADD PUSH1 0x20 DUP1 SWAP2 DIV MUL PUSH1 0x20 ADD PUSH1 0x40 MLOAD SWAP1 DUP2 ADD PUSH1 0x40 MSTORE DUP1 SWAP3 SWAP2 SWAP1 DUP2 DUP2 MSTORE PUSH1 0x20 ADD DUP3 DUP1 SLOAD PUSH2 0x4C7 SWAP1 PUSH2 0x137C JUMP JUMPDEST DUP1 ISZERO PUSH2 0x514 JUMPI DUP1 PUSH1 0x1F LT PUSH2 0x4E9 JUMPI PUSH2 0x100 DUP1 DUP4 SLOAD DIV MUL DUP4 MSTORE SWAP2 PUSH1 0x20 ADD SWAP2 PUSH2 0x514 JUMP JUMPDEST DUP3 ADD SWAP2 SWAP1 PUSH1 0x0 MSTORE PUSH1 0x20 PUSH1 0x0 KECCAK256 SWAP1 JUMPDEST DUP2 SLOAD DUP2 MSTORE SWAP1 PUSH1 0x1 ADD SWAP1 PUSH1 0x20 ADD DUP1 DUP4 GT PUSH2 0x4F7 JUMPI DUP3 SWAP1 SUB PUSH1 0x1F AND DUP3 ADD SWAP2 JUMPDEST POP POP POP POP POP DUP5 PUSH1 0x1 DUP4 PUSH2 0x527 SWAP2 SWAP1 PUSH2 0x12CA JUMP JUMPDEST DUP2 MLOAD DUP2 LT PUSH2 0x55E JUMPI PUSH32 0x4E487B7100000000000000000000000000000000000000000000000000000000 PUSH1 0x0 MSTORE PUSH1 0x32 PUSH1 0x4 MSTORE PUSH1 0x24 PUSH1 0x0 REVERT JUMPDEST PUSH1 0x20 MUL PUSH1 0x20 ADD ADD DUP2 SWAP1 MSTORE POP PUSH1 0x0 DUP1 DUP3 DUP2 MSTORE PUSH1 0x20 ADD SWAP1 DUP2 MSTORE PUSH1 0x20 ADD PUSH1 0x0 KECCAK256 PUSH1 0x1 ADD SLOAD DUP4 PUSH1 0x1 DUP4 PUSH2 0x58D SWAP2 SWAP1 PUSH2 0x12CA JUMP JUMPDEST DUP2 MLOAD DUP2 LT PUSH2 0x5C4 JUMPI PUSH32 0x4E487B7100000000000000000000000000000000000000000000000000000000 PUSH1 0x0 MSTORE PUSH1 0x32 PUSH1 0x4 MSTORE PUSH1 0x24 PUSH1 0x0 REVERT JUMPDEST PUSH1 0x20 MUL PUSH1 0x20 ADD ADD DUP2 DUP2 MSTORE POP POP PUSH1 0x0 DUP1 DUP3 DUP2 MSTORE PUSH1 0x20 ADD SWAP1 DUP2 MSTORE PUSH1 0x20 ADD PUSH1 0x0 KECCAK256 PUSH1 0x2 ADD SLOAD DUP3 PUSH1 0x1 DUP4 PUSH2 0x5F4 SWAP2 SWAP1 PUSH2 0x12CA JUMP JUMPDEST DUP2 MLOAD DUP2 LT PUSH2 0x62B JUMPI PUSH32 0x4E487B7100000000000000000000000000000000000000000000000000000000 PUSH1 0x0 MSTORE PUSH1 0x32 PUSH1 0x4 MSTORE PUSH1 0x24 PUSH1 0x0 REVERT JUMPDEST PUSH1 0x20 MUL PUSH1 0x20 ADD ADD DUP2 DUP2 MSTORE POP POP DUP1 DUP1 PUSH2 0x642 SWAP1 PUSH2 0x13AE JUMP JUMPDEST SWAP2 POP POP PUSH2 0x420 JUMP JUMPDEST POP DUP4 DUP4 DUP4 DUP4 SWAP8 POP SWAP8 POP SWAP8 POP SWAP8 POP POP POP POP POP SWAP1 SWAP2 SWAP3 SWAP4 JUMP JUMPDEST PUSH1 0x2 SLOAD DUP2 JUMP JUMPDEST PUSH1 0x60 PUSH1 0x0 DUP1 PUSH1 0x0 DUP5 GT DUP1 ISZERO PUSH2 0x67E JUMPI POP PUSH1 0x2 SLOAD DUP5 GT ISZERO JUMPDEST PUSH2 0x6BD JUMPI PUSH1 0x40 MLOAD PUSH32 0x8C379A000000000000000000000000000000000000000000000000000000000 DUP2 MSTORE PUSH1 0x4 ADD PUSH2 0x6B4 SWAP1 PUSH2 0x10F8 JUMP JUMPDEST PUSH1 0x40 MLOAD DUP1 SWAP2 SUB SWAP1 REVERT JUMPDEST PUSH1 0x0 DUP1 PUSH1 0x0 DUP7 DUP2 MSTORE PUSH1 0x20 ADD SWAP1 DUP2 MSTORE PUSH1 0x20 ADD PUSH1 0x0 KECCAK256 SWAP1 POP DUP1 PUSH1 0x0 ADD DUP2 PUSH1 0x1 ADD SLOAD DUP3 PUSH1 0x2 ADD SLOAD DUP3 DUP1 SLOAD PUSH2 0x6ED SWAP1 PUSH2 0x137C JUMP JUMPDEST DUP1 PUSH1 0x1F ADD PUSH1 0x20 DUP1 SWAP2 DIV MUL PUSH1 0x20 ADD PUSH1 0x40 MLOAD SWAP1 DUP2 ADD PUSH1 0x40 MSTORE DUP1 SWAP3 SWAP2 SWAP1 DUP2 DUP2 MSTORE PUSH1 0x20 ADD DUP3 DUP1 SLOAD PUSH2 0x719 SWAP1 PUSH2 0x137C JUMP JUMPDEST DUP1 ISZERO PUSH2 0x766 JUMPI DUP1 PUSH1 0x1F LT PUSH2 0x73B JUMPI PUSH2 0x100 DUP1 DUP4 SLOAD DIV MUL DUP4 MSTORE SWAP2 PUSH1 0x20 ADD SWAP2 PUSH2 0x766 JUMP JUMPDEST DUP3 ADD SWAP2 SWAP1 PUSH1 0x0 MSTORE PUSH1 0x20 PUSH1 0x0 KECCAK256 SWAP1 JUMPDEST DUP2 SLOAD DUP2 MSTORE SWAP1 PUSH1 0x1 ADD SWAP1 PUSH1 0x20 ADD DUP1 DUP4 GT PUSH2 0x749 JUMPI DUP3 SWAP1 SUB PUSH1 0x1F AND DUP3 ADD SWAP2 JUMPDEST POP POP POP POP POP SWAP3 POP SWAP4 POP SWAP4 POP SWAP4 POP POP SWAP2 SWAP4 SWAP1 SWAP3 POP JUMP JUMPDEST PUSH1 0x3 PUSH1 0x0 SWAP1 SLOAD SWAP1 PUSH2 0x100 EXP SWAP1 DIV PUSH20 0xFFFFFFFFFFFFFFFFFFFFFFFFFFFFFFFFFFFFFFFF AND DUP2 JUMP JUMPDEST PUSH1 0x0 PUSH1 0x20 MSTORE DUP1 PUSH1 0x0 MSTORE PUSH1 0x40 PUSH1 0x0 KECCAK256 PUSH1 0x0 SWAP2 POP SWAP1 POP DUP1 PUSH1 0x0 ADD DUP1 SLOAD PUSH2 0x7C4 SWAP1 PUSH2 0x137C JUMP JUMPDEST DUP1 PUSH1 0x1F ADD PUSH1 0x20 DUP1 SWAP2 DIV MUL PUSH1 0x20 ADD PUSH1 0x40 MLOAD SWAP1 DUP2 ADD PUSH1 0x40 MSTORE DUP1 SWAP3 SWAP2 SWAP1 DUP2 DUP2 MSTORE PUSH1 0x20 ADD DUP3 DUP1 SLOAD PUSH2 0x7F0 SWAP1 PUSH2 0x137C JUMP JUMPDEST DUP1 ISZERO PUSH2 0x83D JUMPI DUP1 PUSH1 0x1F LT PUSH2 0x812 JUMPI PUSH2 0x100 DUP1 DUP4 SLOAD DIV MUL DUP4 MSTORE SWAP2 PUSH1 0x20 ADD SWAP2 PUSH2 0x83D JUMP JUMPDEST DUP3 ADD SWAP2 SWAP1 PUSH1 0x0 MSTORE PUSH1 0x20 PUSH1 0x0 KECCAK256 SWAP1 JUMPDEST DUP2 SLOAD DUP2 MSTORE SWAP1 PUSH1 0x1 ADD SWAP1 PUSH1 0x20 ADD DUP1 DUP4 GT PUSH2 0x820 JUMPI DUP3 SWAP1 SUB PUSH1 0x1F AND DUP3 ADD SWAP2 JUMPDEST POP POP POP POP POP SWAP1 DUP1 PUSH1 0x1 ADD SLOAD SWAP1 DUP1 PUSH1 0x2 ADD SLOAD SWAP1 POP DUP4 JUMP JUMPDEST PUSH1 0x1 DUP2 DUP1 MLOAD PUSH1 0x20 DUP2 ADD DUP3 ADD DUP1 MLOAD DUP5 DUP3 MSTORE PUSH1 0x20 DUP4 ADD PUSH1 0x20 DUP6 ADD KECCAK256 DUP2 DUP4 MSTORE DUP1 SWAP6 POP POP POP POP POP POP PUSH1 0x0 SWAP2 POP SWAP1 POP SLOAD DUP2 JUMP JUMPDEST PUSH1 0x3 PUSH1 0x0 SWAP1 SLOAD SWAP1 PUSH2 0x100 EXP SWAP1 DIV PUSH20 0xFFFFFFFFFFFFFFFFFFFFFFFFFFFFFFFFFFFFFFFF AND PUSH20 0xFFFFFFFFFFFFFFFFFFFFFFFFFFFFFFFFFFFFFFFF AND CALLER PUSH20 0xFFFFFFFFFFFFFFFFFFFFFFFFFFFFFFFFFFFFFFFF AND EQ PUSH2 0x911 JUMPI PUSH1 0x40 MLOAD PUSH32 0x8C379A000000000000000000000000000000000000000000000000000000000 DUP2 MSTORE PUSH1 0x4 ADD PUSH2 0x908 SWAP1 PUSH2 0x1118 JUMP JUMPDEST PUSH1 0x40 MLOAD DUP1 SWAP2 SUB SWAP1 REVERT JUMPDEST PUSH1 0x0 DUP3 GT PUSH2 0x954 JUMPI PUSH1 0x40 MLOAD PUSH32 0x8C379A000000000000000000000000000000000000000000000000000000000 DUP2 MSTORE PUSH1 0x4 ADD PUSH2 0x94B SWAP1 PUSH2 0x10B8 JUMP JUMPDEST PUSH1 0x40 MLOAD DUP1 SWAP2 SUB SWAP1 REVERT JUMPDEST PUSH1 0x0 PUSH1 0x1 DUP5 PUSH1 0x40 MLOAD PUSH2 0x966 SWAP2 SWAP1 PUSH2 0xFE7 JUMP JUMPDEST SWAP1 DUP2 MSTORE PUSH1 0x20 ADD PUSH1 0x40 MLOAD DUP1 SWAP2 SUB SWAP1 KECCAK256 SLOAD EQ PUSH2 0x9B5 JUMPI PUSH1 0x40 MLOAD PUSH32 0x8C379A000000000000000000000000000000000000000000000000000000000 DUP2 MSTORE PUSH1 0x4 ADD PUSH2 0x9AC SWAP1 PUSH2 0x10D8 JUMP JUMPDEST PUSH1 0x40 MLOAD DUP1 SWAP2 SUB SWAP1 REVERT JUMPDEST PUSH1 0x2 PUSH1 0x0 DUP2 SLOAD DUP1 SWAP3 SWAP2 SWAP1 PUSH2 0x9C8 SWAP1 PUSH2 0x13AE JUMP JUMPDEST SWAP2 SWAP1 POP SSTORE POP PUSH1 0x0 PUSH1 0x2 SLOAD SWAP1 POP PUSH1 0x40 MLOAD DUP1 PUSH1 0x60 ADD PUSH1 0x40 MSTORE DUP1 DUP6 DUP2 MSTORE PUSH1 0x20 ADD DUP5 DUP2 MSTORE PUSH1 0x20 ADD DUP4 DUP2 MSTORE POP PUSH1 0x0 DUP1 DUP4 DUP2 MSTORE PUSH1 0x20 ADD SWAP1 DUP2 MSTORE PUSH1 0x20 ADD PUSH1 0x0 KECCAK256 PUSH1 0x0 DUP3 ADD MLOAD DUP2 PUSH1 0x0 ADD SWAP1 DUP1 MLOAD SWAP1 PUSH1 0x20 ADD SWAP1 PUSH2 0xA1D SWAP3 SWAP2 SWAP1 PUSH2 0xA9B JUMP JUMPDEST POP PUSH1 0x20 DUP3 ADD MLOAD DUP2 PUSH1 0x1 ADD SSTORE PUSH1 0x40 DUP3 ADD MLOAD DUP2 PUSH1 0x2 ADD SSTORE SWAP1 POP POP DUP1 PUSH1 0x1 DUP6 PUSH1 0x40 MLOAD PUSH2 0xA46 SWAP2 SWAP1 PUSH2 0xFE7 JUMP JUMPDEST SWAP1 DUP2 MSTORE PUSH1 0x20 ADD PUSH1 0x40 MLOAD DUP1 SWAP2 SUB SWAP1 KECCAK256 DUP2 SWAP1 SSTORE POP PUSH32 0x665E452EB624A7F9BF54ABD5D404D4F4DA7360A1E40698893FE2CC447A51AF9C DUP2 DUP6 DUP6 DUP6 PUSH1 0x40 MLOAD PUSH2 0xA8D SWAP5 SWAP4 SWAP3 SWAP2 SWAP1 PUSH2 0x1173 JUMP JUMPDEST PUSH1 0x40 MLOAD DUP1 SWAP2 SUB SWAP1 LOG1 POP POP POP POP JUMP JUMPDEST DUP3 DUP1 SLOAD PUSH2 0xAA7 SWAP1 PUSH2 0x137C JUMP JUMPDEST SWAP1 PUSH1 0x0 MSTORE PUSH1 0x20 PUSH1 0x0 KECCAK256 SWAP1 PUSH1 0x1F ADD PUSH1 0x20 SWAP1 DIV DUP2 ADD SWAP3 DUP3 PUSH2 0xAC9 JUMPI PUSH1 0x0 DUP6 SSTORE PUSH2 0xB10 JUMP JUMPDEST DUP3 PUSH1 0x1F LT PUSH2 0xAE2 JUMPI DUP1 MLOAD PUSH1 0xFF NOT AND DUP4 DUP1 ADD OR DUP6 SSTORE PUSH2 0xB10 JUMP JUMPDEST DUP3 DUP1 ADD PUSH1 0x1 ADD DUP6 SSTORE DUP3 ISZERO PUSH2 0xB10 JUMPI SWAP2 DUP3 ADD JUMPDEST DUP3 DUP2 GT ISZERO PUSH2 0xB0F JUMPI DUP3 MLOAD DUP3 SSTORE SWAP2 PUSH1 0x20 ADD SWAP2 SWAP1 PUSH1 0x1 ADD SWAP1 PUSH2 0xAF4 JUMP JUMPDEST JUMPDEST POP SWAP1 POP PUSH2 0xB1D SWAP2 SWAP1 PUSH2 0xB21 JUMP JUMPDEST POP SWAP1 JUMP JUMPDEST JUMPDEST DUP1 DUP3 GT ISZERO PUSH2 0xB3A JUMPI PUSH1 0x0 DUP2 PUSH1 0x0 SWAP1 SSTORE POP PUSH1 0x1 ADD PUSH2 0xB22 JUMP JUMPDEST POP SWAP1 JUMP JUMPDEST PUSH1 0x0 PUSH2 0xB51 PUSH2 0xB4C DUP5 PUSH2 0x11F0 JUMP JUMPDEST PUSH2 0x11BF JUMP JUMPDEST SWAP1 POP DUP3 DUP2 MSTORE PUSH1 0x20 DUP2 ADD DUP5 DUP5 DUP5 ADD GT ISZERO PUSH2 0xB69 JUMPI PUSH1 0x0 DUP1 REVERT JUMPDEST PUSH2 0xB74 DUP5 DUP3 DUP6 PUSH2 0x133A JUMP JUMPDEST POP SWAP4 SWAP3 POP POP POP JUMP JUMPDEST PUSH1 0x0 DUP3 PUSH1 0x1F DUP4 ADD SLT PUSH2 0xB8D JUMPI PUSH1 0x0 DUP1 REVERT JUMPDEST DUP2 CALLDATALOAD PUSH2 0xB9D DUP5 DUP3 PUSH1 0x20 DUP7 ADD PUSH2 0xB3E JUMP JUMPDEST SWAP2 POP POP SWAP3 SWAP2 POP POP JUMP JUMPDEST PUSH1 0x0 DUP2 CALLDATALOAD SWAP1 POP PUSH2 0xBB5 DUP2 PUSH2 0x1495 JUMP JUMPDEST SWAP3 SWAP2 POP POP JUMP JUMPDEST PUSH1 0x0 PUSH1 0x20 DUP3 DUP5 SUB SLT ISZERO PUSH2 0xBCD JUMPI PUSH1 0x0 DUP1 REVERT JUMPDEST PUSH1 0x0 DUP3 ADD CALLDATALOAD PUSH8 0xFFFFFFFFFFFFFFFF DUP2 GT ISZERO PUSH2 0xBE7 JUMPI PUSH1 0x0 DUP1 REVERT JUMPDEST PUSH2 0xBF3 DUP5 DUP3 DUP6 ADD PUSH2 0xB7C JUMP JUMPDEST SWAP2 POP POP SWAP3 SWAP2 POP POP JUMP JUMPDEST PUSH1 0x0 DUP1 PUSH1 0x0 PUSH1 0x60 DUP5 DUP7 SUB SLT ISZERO PUSH2 0xC11 JUMPI PUSH1 0x0 DUP1 REVERT JUMPDEST PUSH1 0x0 DUP5 ADD CALLDATALOAD PUSH8 0xFFFFFFFFFFFFFFFF DUP2 GT ISZERO PUSH2 0xC2B JUMPI PUSH1 0x0 DUP1 REVERT JUMPDEST PUSH2 0xC37 DUP7 DUP3 DUP8 ADD PUSH2 0xB7C JUMP JUMPDEST SWAP4 POP POP PUSH1 0x20 PUSH2 0xC48 DUP7 DUP3 DUP8 ADD PUSH2 0xBA6 JUMP JUMPDEST SWAP3 POP POP PUSH1 0x40 PUSH2 0xC59 DUP7 DUP3 DUP8 ADD PUSH2 0xBA6 JUMP JUMPDEST SWAP2 POP POP SWAP3 POP SWAP3 POP SWAP3 JUMP JUMPDEST PUSH1 0x0 PUSH1 0x20 DUP3 DUP5 SUB SLT ISZERO PUSH2 0xC75 JUMPI PUSH1 0x0 DUP1 REVERT JUMPDEST PUSH1 0x0 PUSH2 0xC83 DUP5 DUP3 DUP6 ADD PUSH2 0xBA6 JUMP JUMPDEST SWAP2 POP POP SWAP3 SWAP2 POP POP JUMP JUMPDEST PUSH1 0x0 PUSH2 0xC98 DUP4 DUP4 PUSH2 0xD9A JUMP JUMPDEST SWAP1 POP SWAP3 SWAP2 POP POP JUMP JUMPDEST PUSH1 0x0 PUSH2 0xCAC DUP4 DUP4 PUSH2 0xFC9 JUMP JUMPDEST PUSH1 0x20 DUP4 ADD SWAP1 POP SWAP3 SWAP2 POP POP JUMP JUMPDEST PUSH2 0xCC1 DUP2 PUSH2 0x12FE JUMP JUMPDEST DUP3 MSTORE POP POP JUMP JUMPDEST PUSH1 0x0 PUSH2 0xCD2 DUP3 PUSH2 0x1240 JUMP JUMPDEST PUSH2 0xCDC DUP2 DUP6 PUSH2 0x127B JUMP JUMPDEST SWAP4 POP DUP4 PUSH1 0x20 DUP3 MUL DUP6 ADD PUSH2 0xCEE DUP6 PUSH2 0x1220 JUMP JUMPDEST DUP1 PUSH1 0x0 JUMPDEST DUP6 DUP2 LT ISZERO PUSH2 0xD2A JUMPI DUP5 DUP5 SUB DUP10 MSTORE DUP2 MLOAD PUSH2 0xD0B DUP6 DUP3 PUSH2 0xC8C JUMP JUMPDEST SWAP5 POP PUSH2 0xD16 DUP4 PUSH2 0x1261 JUMP JUMPDEST SWAP3 POP PUSH1 0x20 DUP11 ADD SWAP10 POP POP PUSH1 0x1 DUP2 ADD SWAP1 POP PUSH2 0xCF2 JUMP JUMPDEST POP DUP3 SWAP8 POP DUP8 SWAP6 POP POP POP POP POP POP SWAP3 SWAP2 POP POP JUMP JUMPDEST PUSH1 0x0 PUSH2 0xD47 DUP3 PUSH2 0x124B JUMP JUMPDEST PUSH2 0xD51 DUP2 DUP6 PUSH2 0x128C JUMP JUMPDEST SWAP4 POP PUSH2 0xD5C DUP4 PUSH2 0x1230 JUMP JUMPDEST DUP1 PUSH1 0x0 JUMPDEST DUP4 DUP2 LT ISZERO PUSH2 0xD8D JUMPI DUP2 MLOAD PUSH2 0xD74 DUP9 DUP3 PUSH2 0xCA0 JUMP JUMPDEST SWAP8 POP PUSH2 0xD7F DUP4 PUSH2 0x126E JUMP JUMPDEST SWAP3 POP POP PUSH1 0x1 DUP2 ADD SWAP1 POP PUSH2 0xD60 JUMP JUMPDEST POP DUP6 SWAP4 POP POP POP POP SWAP3 SWAP2 POP POP JUMP JUMPDEST PUSH1 0x0 PUSH2 0xDA5 DUP3 PUSH2 0x1256 JUMP JUMPDEST PUSH2 0xDAF DUP2 DUP6 PUSH2 0x129D JUMP JUMPDEST SWAP4 POP PUSH2 0xDBF DUP2 DUP6 PUSH1 0x20 DUP7 ADD PUSH2 0x1349 JUMP JUMPDEST PUSH2 0xDC8 DUP2 PUSH2 0x1484 JUMP JUMPDEST DUP5 ADD SWAP2 POP POP SWAP3 SWAP2 POP POP JUMP JUMPDEST PUSH1 0x0 PUSH2 0xDDE DUP3 PUSH2 0x1256 JUMP JUMPDEST PUSH2 0xDE8 DUP2 DUP6 PUSH2 0x12AE JUMP JUMPDEST SWAP4 POP PUSH2 0xDF8 DUP2 DUP6 PUSH1 0x20 DUP7 ADD PUSH2 0x1349 JUMP JUMPDEST PUSH2 0xE01 DUP2 PUSH2 0x1484 JUMP JUMPDEST DUP5 ADD SWAP2 POP POP SWAP3 SWAP2 POP POP JUMP JUMPDEST PUSH1 0x0 PUSH2 0xE17 DUP3 PUSH2 0x1256 JUMP JUMPDEST PUSH2 0xE21 DUP2 DUP6 PUSH2 0x12BF JUMP JUMPDEST SWAP4 POP PUSH2 0xE31 DUP2 DUP6 PUSH1 0x20 DUP7 ADD PUSH2 0x1349 JUMP JUMPDEST DUP1 DUP5 ADD SWAP2 POP POP SWAP3 SWAP2 POP POP JUMP JUMPDEST PUSH1 0x0 PUSH2 0xE4A PUSH1 0x1F DUP4 PUSH2 0x12AE JUMP JUMPDEST SWAP2 POP PUSH32 0x5175616E74697479206D7573742062652067726561746572207468616E203000 PUSH1 0x0 DUP4 ADD MSTORE PUSH1 0x20 DUP3 ADD SWAP1 POP SWAP2 SWAP1 POP JUMP JUMPDEST PUSH1 0x0 PUSH2 0xE8A PUSH1 0x26 DUP4 PUSH2 0x12AE JUMP JUMPDEST SWAP2 POP PUSH32 0x4974656D2077697468207468652073616D65206E616D6520616C726561647920 PUSH1 0x0 DUP4 ADD MSTORE PUSH32 0x6578697374730000000000000000000000000000000000000000000000000000 PUSH1 0x20 DUP4 ADD MSTORE PUSH1 0x40 DUP3 ADD SWAP1 POP SWAP2 SWAP1 POP JUMP JUMPDEST PUSH1 0x0 PUSH2 0xEF0 PUSH1 0xF DUP4 PUSH2 0x12AE JUMP JUMPDEST SWAP2 POP PUSH32 0x496E76616C6964206974656D2049440000000000000000000000000000000000 PUSH1 0x0 DUP4 ADD MSTORE PUSH1 0x20 DUP3 ADD SWAP1 POP SWAP2 SWAP1 POP JUMP JUMPDEST PUSH1 0x0 PUSH2 0xF30 PUSH1 0x26 DUP4 PUSH2 0x12AE JUMP JUMPDEST SWAP2 POP PUSH32 0x4F6E6C7920746865206F776E65722063616E20706572666F726D207468697320 PUSH1 0x0 DUP4 ADD MSTORE PUSH32 0x616374696F6E0000000000000000000000000000000000000000000000000000 PUSH1 0x20 DUP4 ADD MSTORE PUSH1 0x40 DUP3 ADD SWAP1 POP SWAP2 SWAP1 POP JUMP JUMPDEST PUSH1 0x0 PUSH2 0xF96 PUSH1 0xE DUP4 PUSH2 0x12AE JUMP JUMPDEST SWAP2 POP PUSH32 0x4974656D206E6F7420666F756E64000000000000000000000000000000000000 PUSH1 0x0 DUP4 ADD MSTORE PUSH1 0x20 DUP3 ADD SWAP1 POP SWAP2 SWAP1 POP JUMP JUMPDEST PUSH2 0xFD2 DUP2 PUSH2 0x1330 JUMP JUMPDEST DUP3 MSTORE POP POP JUMP JUMPDEST PUSH2 0xFE1 DUP2 PUSH2 0x1330 JUMP JUMPDEST DUP3 MSTORE POP POP JUMP JUMPDEST PUSH1 0x0 PUSH2 0xFF3 DUP3 DUP5 PUSH2 0xE0C JUMP JUMPDEST SWAP2 POP DUP2 SWAP1 POP SWAP3 SWAP2 POP POP JUMP JUMPDEST PUSH1 0x0 PUSH1 0x20 DUP3 ADD SWAP1 POP PUSH2 0x1013 PUSH1 0x0 DUP4 ADD DUP5 PUSH2 0xCB8 JUMP JUMPDEST SWAP3 SWAP2 POP POP JUMP JUMPDEST PUSH1 0x0 PUSH1 0x80 DUP3 ADD SWAP1 POP DUP2 DUP2 SUB PUSH1 0x0 DUP4 ADD MSTORE PUSH2 0x1033 DUP2 DUP8 PUSH2 0xD3C JUMP JUMPDEST SWAP1 POP DUP2 DUP2 SUB PUSH1 0x20 DUP4 ADD MSTORE PUSH2 0x1047 DUP2 DUP7 PUSH2 0xCC7 JUMP JUMPDEST SWAP1 POP DUP2 DUP2 SUB PUSH1 0x40 DUP4 ADD MSTORE PUSH2 0x105B DUP2 DUP6 PUSH2 0xD3C JUMP JUMPDEST SWAP1 POP DUP2 DUP2 SUB PUSH1 0x60 DUP4 ADD MSTORE PUSH2 0x106F DUP2 DUP5 PUSH2 0xD3C JUMP JUMPDEST SWAP1 POP SWAP6 SWAP5 POP POP POP POP POP JUMP JUMPDEST PUSH1 0x0 PUSH1 0x60 DUP3 ADD SWAP1 POP DUP2 DUP2 SUB PUSH1 0x0 DUP4 ADD MSTORE PUSH2 0x1094 DUP2 DUP7 PUSH2 0xDD3 JUMP JUMPDEST SWAP1 POP PUSH2 0x10A3 PUSH1 0x20 DUP4 ADD DUP6 PUSH2 0xFD8 JUMP JUMPDEST PUSH2 0x10B0 PUSH1 0x40 DUP4 ADD DUP5 PUSH2 0xFD8 JUMP JUMPDEST SWAP5 SWAP4 POP POP POP POP JUMP JUMPDEST PUSH1 0x0 PUSH1 0x20 DUP3 ADD SWAP1 POP DUP2 DUP2 SUB PUSH1 0x0 DUP4 ADD MSTORE PUSH2 0x10D1 DUP2 PUSH2 0xE3D JUMP JUMPDEST SWAP1 POP SWAP2 SWAP1 POP JUMP JUMPDEST PUSH1 0x0 PUSH1 0x20 DUP3 ADD SWAP1 POP DUP2 DUP2 SUB PUSH1 0x0 DUP4 ADD MSTORE PUSH2 0x10F1 DUP2 PUSH2 0xE7D JUMP JUMPDEST SWAP1 POP SWAP2 SWAP1 POP JUMP JUMPDEST PUSH1 0x0 PUSH1 0x20 DUP3 ADD SWAP1 POP DUP2 DUP2 SUB PUSH1 0x0 DUP4 ADD MSTORE PUSH2 0x1111 DUP2 PUSH2 0xEE3 JUMP JUMPDEST SWAP1 POP SWAP2 SWAP1 POP JUMP JUMPDEST PUSH1 0x0 PUSH1 0x20 DUP3 ADD SWAP1 POP DUP2 DUP2 SUB PUSH1 0x0 DUP4 ADD MSTORE PUSH2 0x1131 DUP2 PUSH2 0xF23 JUMP JUMPDEST SWAP1 POP SWAP2 SWAP1 POP JUMP JUMPDEST PUSH1 0x0 PUSH1 0x20 DUP3 ADD SWAP1 POP DUP2 DUP2 SUB PUSH1 0x0 DUP4 ADD MSTORE PUSH2 0x1151 DUP2 PUSH2 0xF89 JUMP JUMPDEST SWAP1 POP SWAP2 SWAP1 POP JUMP JUMPDEST PUSH1 0x0 PUSH1 0x20 DUP3 ADD SWAP1 POP PUSH2 0x116D PUSH1 0x0 DUP4 ADD DUP5 PUSH2 0xFD8 JUMP JUMPDEST SWAP3 SWAP2 POP POP JUMP JUMPDEST PUSH1 0x0 PUSH1 0x80 DUP3 ADD SWAP1 POP PUSH2 0x1188 PUSH1 0x0 DUP4 ADD DUP8 PUSH2 0xFD8 JUMP JUMPDEST DUP2 DUP2 SUB PUSH1 0x20 DUP4 ADD MSTORE PUSH2 0x119A DUP2 DUP7 PUSH2 0xDD3 JUMP JUMPDEST SWAP1 POP PUSH2 0x11A9 PUSH1 0x40 DUP4 ADD DUP6 PUSH2 0xFD8 JUMP JUMPDEST PUSH2 0x11B6 PUSH1 0x60 DUP4 ADD DUP5 PUSH2 0xFD8 JUMP JUMPDEST SWAP6 SWAP5 POP POP POP POP POP JUMP JUMPDEST PUSH1 0x0 PUSH1 0x40 MLOAD SWAP1 POP DUP2 DUP2 ADD DUP2 DUP2 LT PUSH8 0xFFFFFFFFFFFFFFFF DUP3 GT OR ISZERO PUSH2 0x11E6 JUMPI PUSH2 0x11E5 PUSH2 0x1455 JUMP JUMPDEST JUMPDEST DUP1 PUSH1 0x40 MSTORE POP SWAP2 SWAP1 POP JUMP JUMPDEST PUSH1 0x0 PUSH8 0xFFFFFFFFFFFFFFFF DUP3 GT ISZERO PUSH2 0x120B JUMPI PUSH2 0x120A PUSH2 0x1455 JUMP JUMPDEST JUMPDEST PUSH1 0x1F NOT PUSH1 0x1F DUP4 ADD AND SWAP1 POP PUSH1 0x20 DUP2 ADD SWAP1 POP SWAP2 SWAP1 POP JUMP JUMPDEST PUSH1 0x0 DUP2 SWAP1 POP PUSH1 0x20 DUP3 ADD SWAP1 POP SWAP2 SWAP1 POP JUMP JUMPDEST PUSH1 0x0 DUP2 SWAP1 POP PUSH1 0x20 DUP3 ADD SWAP1 POP SWAP2 SWAP1 POP JUMP JUMPDEST PUSH1 0x0 DUP2 MLOAD SWAP1 POP SWAP2 SWAP1 POP JUMP JUMPDEST PUSH1 0x0 DUP2 MLOAD SWAP1 POP SWAP2 SWAP1 POP JUMP JUMPDEST PUSH1 0x0 DUP2 MLOAD SWAP1 POP SWAP2 SWAP1 POP JUMP JUMPDEST PUSH1 0x0 PUSH1 0x20 DUP3 ADD SWAP1 POP SWAP2 SWAP1 POP JUMP JUMPDEST PUSH1 0x0 PUSH1 0x20 DUP3 ADD SWAP1 POP SWAP2 SWAP1 POP JUMP JUMPDEST PUSH1 0x0 DUP3 DUP3 MSTORE PUSH1 0x20 DUP3 ADD SWAP1 POP SWAP3 SWAP2 POP POP JUMP JUMPDEST PUSH1 0x0 DUP3 DUP3 MSTORE PUSH1 0x20 DUP3 ADD SWAP1 POP SWAP3 SWAP2 POP POP JUMP JUMPDEST PUSH1 0x0 DUP3 DUP3 MSTORE PUSH1 0x20 DUP3 ADD SWAP1 POP SWAP3 SWAP2 POP POP JUMP JUMPDEST PUSH1 0x0 DUP3 DUP3 MSTORE PUSH1 0x20 DUP3 ADD SWAP1 POP SWAP3 SWAP2 POP POP JUMP JUMPDEST PUSH1 0x0 DUP2 SWAP1 POP SWAP3 SWAP2 POP POP JUMP JUMPDEST PUSH1 0x0 PUSH2 0x12D5 DUP3 PUSH2 0x1330 JUMP JUMPDEST SWAP2 POP PUSH2 0x12E0 DUP4 PUSH2 0x1330 JUMP JUMPDEST SWAP3 POP DUP3 DUP3 LT ISZERO PUSH2 0x12F3 JUMPI PUSH2 0x12F2 PUSH2 0x13F7 JUMP JUMPDEST JUMPDEST DUP3 DUP3 SUB SWAP1 POP SWAP3 SWAP2 POP POP JUMP JUMPDEST PUSH1 0x0 PUSH2 0x1309 DUP3 PUSH2 0x1310 JUMP JUMPDEST SWAP1 POP SWAP2 SWAP1 POP JUMP JUMPDEST PUSH1 0x0 PUSH20 0xFFFFFFFFFFFFFFFFFFFFFFFFFFFFFFFFFFFFFFFF DUP3 AND SWAP1 POP SWAP2 SWAP1 POP JUMP JUMPDEST PUSH1 0x0 DUP2 SWAP1 POP SWAP2 SWAP1 POP JUMP JUMPDEST DUP3 DUP2 DUP4 CALLDATACOPY PUSH1 0x0 DUP4 DUP4 ADD MSTORE POP POP POP JUMP JUMPDEST PUSH1 0x0 JUMPDEST DUP4 DUP2 LT ISZERO PUSH2 0x1367 JUMPI DUP1 DUP3 ADD MLOAD DUP2 DUP5 ADD MSTORE PUSH1 0x20 DUP2 ADD SWAP1 POP PUSH2 0x134C JUMP JUMPDEST DUP4 DUP2 GT ISZERO PUSH2 0x1376 JUMPI PUSH1 0x0 DUP5 DUP5 ADD MSTORE JUMPDEST POP POP POP POP JUMP JUMPDEST PUSH1 0x0 PUSH1 0x2 DUP3 DIV SWAP1 POP PUSH1 0x1 DUP3 AND DUP1 PUSH2 0x1394 JUMPI PUSH1 0x7F DUP3 AND SWAP2 POP JUMPDEST PUSH1 0x20 DUP3 LT DUP2 EQ ISZERO PUSH2 0x13A8 JUMPI PUSH2 0x13A7 PUSH2 0x1426 JUMP JUMPDEST JUMPDEST POP SWAP2 SWAP1 POP JUMP JUMPDEST PUSH1 0x0 PUSH2 0x13B9 DUP3 PUSH2 0x1330 JUMP JUMPDEST SWAP2 POP PUSH32 0xFFFFFFFFFFFFFFFFFFFFFFFFFFFFFFFFFFFFFFFFFFFFFFFFFFFFFFFFFFFFFFFF DUP3 EQ ISZERO PUSH2 0x13EC JUMPI PUSH2 0x13EB PUSH2 0x13F7 JUMP JUMPDEST JUMPDEST PUSH1 0x1 DUP3 ADD SWAP1 POP SWAP2 SWAP1 POP JUMP JUMPDEST PUSH32 0x4E487B7100000000000000000000000000000000000000000000000000000000 PUSH1 0x0 MSTORE PUSH1 0x11 PUSH1 0x4 MSTORE PUSH1 0x24 PUSH1 0x0 REVERT JUMPDEST PUSH32 0x4E487B7100000000000000000000000000000000000000000000000000000000 PUSH1 0x0 MSTORE PUSH1 0x22 PUSH1 0x4 MSTORE PUSH1 0x24 PUSH1 0x0 REVERT JUMPDEST PUSH32 0x4E487B7100000000000000000000000000000000000000000000000000000000 PUSH1 0x0 MSTORE PUSH1 0x41 PUSH1 0x4 MSTORE PUSH1 0x24 PUSH1 0x0 REVERT JUMPDEST PUSH1 0x0 PUSH1 0x1F NOT PUSH1 0x1F DUP4 ADD AND SWAP1 POP SWAP2 SWAP1 POP JUMP JUMPDEST PUSH2 0x149E DUP2 PUSH2 0x1330 JUMP JUMPDEST DUP2 EQ PUSH2 0x14A9 JUMPI PUSH1 0x0 DUP1 REVERT JUMPDEST POP JUMP INVALID LOG2 PUSH5 0x6970667358 0x22 SLT KECCAK256 0xBA SGT 0xDE DELEGATECALL 0xC0 SELFBALANCE PUSH22 0xD489402AA684055958C7887C665FE24149B29929A6E0 SWAP14 0xAC MLOAD PUSH5 0x736F6C6343 STOP ADDMOD STOP STOP CALLER "
	},
	"abi": [
		{
			"anonymous": false,
			"inputs": [
				{
					"indexed": false,
					"internalType": "uint256",
					"name": "itemId",
					"type": "uint256"
				},
				{
					"indexed": false,
					"internalType": "string",
					"name": "name",
					"type": "string"
				},
				{
					"indexed": false,
					"internalType": "uint256",
					"name": "quantity",
					"type": "uint256"
				},
				{
					"indexed": false,
					"internalType": "uint256",
					"name": "price",
					"type": "uint256"
				}
			],
			"name": "ItemAdded",
			"type": "event"
		},
		{
			"inputs": [
				{
					"internalType": "string",
					"name": "_name",
					"type": "string"
				},
				{
					"internalType": "uint256",
					"name": "_quantity",
					"type": "uint256"
				},
				{
					"internalType": "uint256",
					"name": "_price",
					"type": "uint256"
				}
			],
			"name": "addItem",
			"outputs": [],
			"stateMutability": "nonpayable",
			"type": "function"
		},
		{
			"inputs": [],
			"stateMutability": "nonpayable",
			"type": "constructor"
		},
		{
			"inputs": [],
			"name": "getAllItems",
			"outputs": [
				{
					"internalType": "uint256[]",
					"name": "",
					"type": "uint256[]"
				},
				{
					"internalType": "string[]",
					"name": "",
					"type": "string[]"
				},
				{
					"internalType": "uint256[]",
					"name": "",
					"type": "uint256[]"
				},
				{
					"internalType": "uint256[]",
					"name": "",
					"type": "uint256[]"
				}
			],
			"stateMutability": "view",
			"type": "function"
		},
		{
			"inputs": [
				{
					"internalType": "uint256",
					"name": "_itemId",
					"type": "uint256"
				}
			],
			"name": "getItemData",
			"outputs": [
				{
					"internalType": "string",
					"name": "name",
					"type": "string"
				},
				{
					"internalType": "uint256",
					"name": "quantity",
					"type": "uint256"
				},
				{
					"internalType": "uint256",
					"name": "price",
					"type": "uint256"
				}
			],
			"stateMutability": "view",
			"type": "function"
		},
		{
			"inputs": [
				{
					"internalType": "string",
					"name": "_name",
					"type": "string"
				}
			],
			"name": "getItemIdByName",
			"outputs": [
				{
					"internalType": "uint256",
					"name": "",
					"type": "uint256"
				}
			],
			"stateMutability": "view",
			"type": "function"
		},
		{
			"inputs": [],
			"name": "itemCount",
			"outputs": [
				{
					"internalType": "uint256",
					"name": "",
					"type": "uint256"
				}
			],
			"stateMutability": "view",
			"type": "function"
		},
		{
			"inputs": [
				{
					"internalType": "string",
					"name": "",
					"type": "string"
				}
			],
			"name": "itemIdsByName",
			"outputs": [
				{
					"internalType": "uint256",
					"name": "",
					"type": "uint256"
				}
			],
			"stateMutability": "view",
			"type": "function"
		},
		{
			"inputs": [
				{
					"internalType": "uint256",
					"name": "",
					"type": "uint256"
				}
			],
			"name": "items",
			"outputs": [
				{
					"internalType": "string",
					"name": "name",
					"type": "string"
				},
				{
					"internalType": "uint256",
					"name": "quantity",
					"type": "uint256"
				},
				{
					"internalType": "uint256",
					"name": "price",
					"type": "uint256"
				}
			],
			"stateMutability": "view",
			"type": "function"
		},
		{
			"inputs": [],
			"name": "owner",
			"outputs": [
				{
					"internalType": "address",
					"name": "",
					"type": "address"
				}
			],
			"stateMutability": "view",
			"type": "function"
		}
	],
	"storageLayout": {
		"storage": [
			{
				"astId": 13,
				"contract": "contracts/ItemRegistry.sol:ItemRegistry",
				"label": "items",
				"offset": 0,
				"slot": "0",
				"type": "t_mapping(t_uint256,t_struct(MedicalItem)8_storage)"
			},
			{
				"astId": 17,
				"contract": "contracts/ItemRegistry.sol:ItemRegistry",
				"label": "itemIdsByName",
				"offset": 0,
				"slot": "1",
				"type": "t_mapping(t_string_memory_ptr,t_uint256)"
			},
			{
				"astId": 19,
				"contract": "contracts/ItemRegistry.sol:ItemRegistry",
				"label": "itemCount",
				"offset": 0,
				"slot": "2",
				"type": "t_uint256"
			},
			{
				"astId": 21,
				"contract": "contracts/ItemRegistry.sol:ItemRegistry",
				"label": "owner",
				"offset": 0,
				"slot": "3",
				"type": "t_address"
			}
		],
		"types": {
			"t_address": {
				"encoding": "inplace",
				"label": "address",
				"numberOfBytes": "20"
			},
			"t_mapping(t_string_memory_ptr,t_uint256)": {
				"encoding": "mapping",
				"key": "t_string_memory_ptr",
				"label": "mapping(string => uint256)",
				"numberOfBytes": "32",
				"value": "t_uint256"
			},
			"t_mapping(t_uint256,t_struct(MedicalItem)8_storage)": {
				"encoding": "mapping",
				"key": "t_uint256",
				"label": "mapping(uint256 => struct ItemRegistry.MedicalItem)",
				"numberOfBytes": "32",
				"value": "t_struct(MedicalItem)8_storage"
			},
			"t_string_memory_ptr": {
				"encoding": "bytes",
				"label": "string",
				"numberOfBytes": "32"
			},
			"t_string_storage": {
				"encoding": "bytes",
				"label": "string",
				"numberOfBytes": "32"
			},
			"t_struct(MedicalItem)8_storage": {
				"encoding": "inplace",
				"label": "struct ItemRegistry.MedicalItem",
				"members": [
					{
						"astId": 3,
						"contract": "contracts/ItemRegistry.sol:ItemRegistry",
						"label": "name",
						"offset": 0,
						"slot": "0",
						"type": "t_string_storage"
					},
					{
						"astId": 5,
						"contract": "contracts/ItemRegistry.sol:ItemRegistry",
						"label": "quantity",
						"offset": 0,
						"slot": "1",
						"type": "t_uint256"
					},
					{
						"astId": 7,
						"contract": "contracts/ItemRegistry.sol:ItemRegistry",
						"label": "price",
						"offset": 0,
						"slot": "2",
						"type": "t_uint256"
					}
				],
				"numberOfBytes": "96"
			},
			"t_uint256": {
				"encoding": "inplace",
				"label": "uint256",
				"numberOfBytes": "32"
			}
		}
	},
	"web3Deploy": "var itemregistryContract = new web3.eth.Contract([{\"inputs\":[],\"stateMutability\":\"nonpayable\",\"type\":\"constructor\"},{\"anonymous\":false,\"inputs\":[{\"indexed\":false,\"internalType\":\"uint256\",\"name\":\"itemId\",\"type\":\"uint256\"},{\"indexed\":false,\"internalType\":\"string\",\"name\":\"name\",\"type\":\"string\"},{\"indexed\":false,\"internalType\":\"uint256\",\"name\":\"quantity\",\"type\":\"uint256\"},{\"indexed\":false,\"internalType\":\"uint256\",\"name\":\"price\",\"type\":\"uint256\"}],\"name\":\"ItemAdded\",\"type\":\"event\"},{\"inputs\":[{\"internalType\":\"string\",\"name\":\"_name\",\"type\":\"string\"},{\"internalType\":\"uint256\",\"name\":\"_quantity\",\"type\":\"uint256\"},{\"internalType\":\"uint256\",\"name\":\"_price\",\"type\":\"uint256\"}],\"name\":\"addItem\",\"outputs\":[],\"stateMutability\":\"nonpayable\",\"type\":\"function\"},{\"inputs\":[],\"name\":\"getAllItems\",\"outputs\":[{\"internalType\":\"uint256[]\",\"name\":\"\",\"type\":\"uint256[]\"},{\"internalType\":\"string[]\",\"name\":\"\",\"type\":\"string[]\"},{\"internalType\":\"uint256[]\",\"name\":\"\",\"type\":\"uint256[]\"},{\"internalType\":\"uint256[]\",\"name\":\"\",\"type\":\"uint256[]\"}],\"stateMutability\":\"view\",\"type\":\"function\"},{\"inputs\":[{\"internalType\":\"uint256\",\"name\":\"_itemId\",\"type\":\"uint256\"}],\"name\":\"getItemData\",\"outputs\":[{\"internalType\":\"string\",\"name\":\"name\",\"type\":\"string\"},{\"internalType\":\"uint256\",\"name\":\"quantity\",\"type\":\"uint256\"},{\"internalType\":\"uint256\",\"name\":\"price\",\"type\":\"uint256\"}],\"stateMutability\":\"view\",\"type\":\"function\"},{\"inputs\":[{\"internalType\":\"string\",\"name\":\"_name\",\"type\":\"string\"}],\"name\":\"getItemIdByName\",\"outputs\":[{\"internalType\":\"uint256\",\"name\":\"\",\"type\":\"uint256\"}],\"stateMutability\":\"view\",\"type\":\"function\"},{\"inputs\":[],\"name\":\"itemCount\",\"outputs\":[{\"internalType\":\"uint256\",\"name\":\"\",\"type\":\"uint256\"}],\"stateMutability\":\"view\",\"type\":\"function\"},{\"inputs\":[{\"internalType\":\"string\",\"name\":\"\",\"type\":\"string\"}],\"name\":\"itemIdsByName\",\"outputs\":[{\"internalType\":\"uint256\",\"name\":\"\",\"type\":\"uint256\"}],\"stateMutability\":\"view\",\"type\":\"function\"},{\"inputs\":[{\"internalType\":\"uint256\",\"name\":\"\",\"type\":\"uint256\"}],\"name\":\"items\",\"outputs\":[{\"internalType\":\"string\",\"name\":\"name\",\"type\":\"string\"},{\"internalType\":\"uint256\",\"name\":\"quantity\",\"type\":\"uint256\"},{\"internalType\":\"uint256\",\"name\":\"price\",\"type\":\"uint256\"}],\"stateMutability\":\"view\",\"type\":\"function\"},{\"inputs\":[],\"name\":\"owner\",\"outputs\":[{\"internalType\":\"address\",\"name\":\"\",\"type\":\"address\"}],\"stateMutability\":\"view\",\"type\":\"function\"}]);\nvar itemregistry = itemregistryContract.deploy({\n     data: '0x608060405234801561001057600080fd5b5033600360006101000a81548173ffffffffffffffffffffffffffffffffffffffff021916908373ffffffffffffffffffffffffffffffffffffffff1602179055506114e2806100616000396000f3fe608060405234801561001057600080fd5b50600436106100885760003560e01c80638da5cb5b1161005b5780638da5cb5b1461012e578063bfb231d21461014c578063c14d307f1461017e578063d5e6c333146101ae57610088565b80632f4e3faa1461008d5780634ba1d6aa146100bd5780636bfb0d01146100de5780638bc6976e146100fc575b600080fd5b6100a760048036038101906100a29190610bbb565b6101ca565b6040516100b49190611158565b60405180910390f35b6100c561023a565b6040516100d59493929190611019565b60405180910390f35b6100e6610661565b6040516100f39190611158565b60405180910390f35b61011660048036038101906101119190610c63565b610667565b6040516101259392919061107a565b60405180910390f35b61013661077b565b6040516101439190610ffe565b60405180910390f35b61016660048036038101906101619190610c63565b6107a1565b6040516101759392919061107a565b60405180910390f35b61019860048036038101906101939190610bbb565b610853565b6040516101a59190611158565b60405180910390f35b6101c860048036038101906101c39190610bfc565b610881565b005b6000806001836040516101dd9190610fe7565b908152602001604051809103902054905060008111610231576040517f08c379a000000000000000000000000000000000000000000000000000000000815260040161022890611138565b60405180910390fd5b80915050919050565b606080606080600060025467ffffffffffffffff811115610284577f4e487b7100000000000000000000000000000000000000000000000000000000600052604160045260246000fd5b6040519080825280602002602001820160405280156102b25781602001602082028036833780820191505090505b509050600060025467ffffffffffffffff8111156102f9577f4e487b7100000000000000000000000000000000000000000000000000000000600052604160045260246000fd5b60405190808252806020026020018201604052801561032c57816020015b60608152602001906001900390816103175790505b509050600060025467ffffffffffffffff811115610373577f4e487b7100000000000000000000000000000000000000000000000000000000600052604160045260246000fd5b6040519080825280602002602001820160405280156103a15781602001602082028036833780820191505090505b509050600060025467ffffffffffffffff8111156103e8577f4e487b7100000000000000000000000000000000000000000000000000000000600052604160045260246000fd5b6040519080825280602002602001820160405280156104165781602001602082028036833780820191505090505b5090506000600190505b600254811161064a57808560018361043891906112ca565b8151811061046f577f4e487b7100000000000000000000000000000000000000000000000000000000600052603260045260246000fd5b602002602001018181525050600080828152602001908152602001600020600001805461049b9061137c565b80601f01602080910402602001604051908101604052809291908181526020018280546104c79061137c565b80156105145780601f106104e957610100808354040283529160200191610514565b820191906000526020600020905b8154815290600101906020018083116104f757829003601f168201915b50505050508460018361052791906112ca565b8151811061055e577f4e487b7100000000000000000000000000000000000000000000000000000000600052603260045260246000fd5b6020026020010181905250600080828152602001908152602001600020600101548360018361058d91906112ca565b815181106105c4577f4e487b7100000000000000000000000000000000000000000000000000000000600052603260045260246000fd5b60200260200101818152505060008082815260200190815260200160002060020154826001836105f491906112ca565b8151811061062b577f4e487b7100000000000000000000000000000000000000000000000000000000600052603260045260246000fd5b6020026020010181815250508080610642906113ae565b915050610420565b508383838397509750975097505050505090919293565b60025481565b606060008060008411801561067e57506002548411155b6106bd576040517f08c379a00000000000000000000000000000000000000000000000000000000081526004016106b4906110f8565b60405180910390fd5b6000806000868152602001908152602001600020905080600001816001015482600201548280546106ed9061137c565b80601f01602080910402602001604051908101604052809291908181526020018280546107199061137c565b80156107665780601f1061073b57610100808354040283529160200191610766565b820191906000526020600020905b81548152906001019060200180831161074957829003601f168201915b50505050509250935093509350509193909250565b600360009054906101000a900473ffffffffffffffffffffffffffffffffffffffff1681565b60006020528060005260406000206000915090508060000180546107c49061137c565b80601f01602080910402602001604051908101604052809291908181526020018280546107f09061137c565b801561083d5780601f106108125761010080835404028352916020019161083d565b820191906000526020600020905b81548152906001019060200180831161082057829003601f168201915b5050505050908060010154908060020154905083565b6001818051602081018201805184825260208301602085012081835280955050505050506000915090505481565b600360009054906101000a900473ffffffffffffffffffffffffffffffffffffffff1673ffffffffffffffffffffffffffffffffffffffff163373ffffffffffffffffffffffffffffffffffffffff1614610911576040517f08c379a000000000000000000000000000000000000000000000000000000000815260040161090890611118565b60405180910390fd5b60008211610954576040517f08c379a000000000000000000000000000000000000000000000000000000000815260040161094b906110b8565b60405180910390fd5b60006001846040516109669190610fe7565b908152602001604051809103902054146109b5576040517f08c379a00000000000000000000000000000000000000000000000000000000081526004016109ac906110d8565b60405180910390fd5b600260008154809291906109c8906113ae565b9190505550600060025490506040518060600160405280858152602001848152602001838152506000808381526020019081526020016000206000820151816000019080519060200190610a1d929190610a9b565b50602082015181600101556040820151816002015590505080600185604051610a469190610fe7565b9081526020016040518091039020819055507f665e452eb624a7f9bf54abd5d404d4f4da7360a1e40698893fe2cc447a51af9c81858585604051610a8d9493929190611173565b60405180910390a150505050565b828054610aa79061137c565b90600052602060002090601f016020900481019282610ac95760008555610b10565b82601f10610ae257805160ff1916838001178555610b10565b82800160010185558215610b10579182015b82811115610b0f578251825591602001919060010190610af4565b5b509050610b1d9190610b21565b5090565b5b80821115610b3a576000816000905550600101610b22565b5090565b6000610b51610b4c846111f0565b6111bf565b905082815260208101848484011115610b6957600080fd5b610b7484828561133a565b509392505050565b600082601f830112610b8d57600080fd5b8135610b9d848260208601610b3e565b91505092915050565b600081359050610bb581611495565b92915050565b600060208284031215610bcd57600080fd5b600082013567ffffffffffffffff811115610be757600080fd5b610bf384828501610b7c565b91505092915050565b600080600060608486031215610c1157600080fd5b600084013567ffffffffffffffff811115610c2b57600080fd5b610c3786828701610b7c565b9350506020610c4886828701610ba6565b9250506040610c5986828701610ba6565b9150509250925092565b600060208284031215610c7557600080fd5b6000610c8384828501610ba6565b91505092915050565b6000610c988383610d9a565b905092915050565b6000610cac8383610fc9565b60208301905092915050565b610cc1816112fe565b82525050565b6000610cd282611240565b610cdc818561127b565b935083602082028501610cee85611220565b8060005b85811015610d2a5784840389528151610d0b8582610c8c565b9450610d1683611261565b925060208a01995050600181019050610cf2565b50829750879550505050505092915050565b6000610d478261124b565b610d51818561128c565b9350610d5c83611230565b8060005b83811015610d8d578151610d748882610ca0565b9750610d7f8361126e565b925050600181019050610d60565b5085935050505092915050565b6000610da582611256565b610daf818561129d565b9350610dbf818560208601611349565b610dc881611484565b840191505092915050565b6000610dde82611256565b610de881856112ae565b9350610df8818560208601611349565b610e0181611484565b840191505092915050565b6000610e1782611256565b610e2181856112bf565b9350610e31818560208601611349565b80840191505092915050565b6000610e4a601f836112ae565b91507f5175616e74697479206d7573742062652067726561746572207468616e2030006000830152602082019050919050565b6000610e8a6026836112ae565b91507f4974656d2077697468207468652073616d65206e616d6520616c72656164792060008301527f65786973747300000000000000000000000000000000000000000000000000006020830152604082019050919050565b6000610ef0600f836112ae565b91507f496e76616c6964206974656d20494400000000000000000000000000000000006000830152602082019050919050565b6000610f306026836112ae565b91507f4f6e6c7920746865206f776e65722063616e20706572666f726d20746869732060008301527f616374696f6e00000000000000000000000000000000000000000000000000006020830152604082019050919050565b6000610f96600e836112ae565b91507f4974656d206e6f7420666f756e640000000000000000000000000000000000006000830152602082019050919050565b610fd281611330565b82525050565b610fe181611330565b82525050565b6000610ff38284610e0c565b915081905092915050565b60006020820190506110136000830184610cb8565b92915050565b600060808201905081810360008301526110338187610d3c565b905081810360208301526110478186610cc7565b9050818103604083015261105b8185610d3c565b9050818103606083015261106f8184610d3c565b905095945050505050565b600060608201905081810360008301526110948186610dd3565b90506110a36020830185610fd8565b6110b06040830184610fd8565b949350505050565b600060208201905081810360008301526110d181610e3d565b9050919050565b600060208201905081810360008301526110f181610e7d565b9050919050565b6000602082019050818103600083015261111181610ee3565b9050919050565b6000602082019050818103600083015261113181610f23565b9050919050565b6000602082019050818103600083015261115181610f89565b9050919050565b600060208201905061116d6000830184610fd8565b92915050565b60006080820190506111886000830187610fd8565b818103602083015261119a8186610dd3565b90506111a96040830185610fd8565b6111b66060830184610fd8565b95945050505050565b6000604051905081810181811067ffffffffffffffff821117156111e6576111e5611455565b5b8060405250919050565b600067ffffffffffffffff82111561120b5761120a611455565b5b601f19601f8301169050602081019050919050565b6000819050602082019050919050565b6000819050602082019050919050565b600081519050919050565b600081519050919050565b600081519050919050565b6000602082019050919050565b6000602082019050919050565b600082825260208201905092915050565b600082825260208201905092915050565b600082825260208201905092915050565b600082825260208201905092915050565b600081905092915050565b60006112d582611330565b91506112e083611330565b9250828210156112f3576112f26113f7565b5b828203905092915050565b600061130982611310565b9050919050565b600073ffffffffffffffffffffffffffffffffffffffff82169050919050565b6000819050919050565b82818337600083830152505050565b60005b8381101561136757808201518184015260208101905061134c565b83811115611376576000848401525b50505050565b6000600282049050600182168061139457607f821691505b602082108114156113a8576113a7611426565b5b50919050565b60006113b982611330565b91507fffffffffffffffffffffffffffffffffffffffffffffffffffffffffffffffff8214156113ec576113eb6113f7565b5b600182019050919050565b7f4e487b7100000000000000000000000000000000000000000000000000000000600052601160045260246000fd5b7f4e487b7100000000000000000000000000000000000000000000000000000000600052602260045260246000fd5b7f4e487b7100000000000000000000000000000000000000000000000000000000600052604160045260246000fd5b6000601f19601f8301169050919050565b61149e81611330565b81146114a957600080fd5b5056fea2646970667358221220ba13def4c04775d489402aa684055958c7887c665fe24149b29929a6e09dac5164736f6c63430008000033', \n     arguments: [\n     ]\n}).send({\n     from: web3.eth.accounts[0], \n     gas: '4700000'\n   }, function (e, contract){\n    console.log(e, contract);\n    if (typeof contract.address !== 'undefined') {\n         console.log('Contract mined! address: ' + contract.address + ' transactionHash: ' + contract.transactionHash);\n    }\n })",
	"functionHashes": {
		"d5e6c333": "addItem(string,uint256,uint256)",
		"4ba1d6aa": "getAllItems()",
		"8bc6976e": "getItemData(uint256)",
		"2f4e3faa": "getItemIdByName(string)",
		"6bfb0d01": "itemCount()",
		"c14d307f": "itemIdsByName(string)",
		"bfb231d2": "items(uint256)",
		"8da5cb5b": "owner()"
	},
	"gasEstimates": {
		"Creation": {
			"codeDepositCost": "1069200",
			"executionCost": "21980",
			"totalCost": "1091180"
		},
		"External": {
			"addItem(string,uint256,uint256)": "infinite",
			"getAllItems()": "infinite",
			"getItemData(uint256)": "infinite",
			"getItemIdByName(string)": "infinite",
			"itemCount()": "1174",
			"itemIdsByName(string)": "infinite",
			"items(uint256)": "infinite",
			"owner()": "1214"
		}
	},
	"devdoc": {
		"kind": "dev",
		"methods": {},
		"version": 1
	},
	"userdoc": {
		"kind": "user",
		"methods": {},
		"version": 1
	},
	"Runtime Bytecode": {
		"immutableReferences": {},
		"linkReferences": {},
		"object": "608060405234801561001057600080fd5b50600436106100885760003560e01c80638da5cb5b1161005b5780638da5cb5b1461012e578063bfb231d21461014c578063c14d307f1461017e578063d5e6c333146101ae57610088565b80632f4e3faa1461008d5780634ba1d6aa146100bd5780636bfb0d01146100de5780638bc6976e146100fc575b600080fd5b6100a760048036038101906100a29190610bbb565b6101ca565b6040516100b49190611158565b60405180910390f35b6100c561023a565b6040516100d59493929190611019565b60405180910390f35b6100e6610661565b6040516100f39190611158565b60405180910390f35b61011660048036038101906101119190610c63565b610667565b6040516101259392919061107a565b60405180910390f35b61013661077b565b6040516101439190610ffe565b60405180910390f35b61016660048036038101906101619190610c63565b6107a1565b6040516101759392919061107a565b60405180910390f35b61019860048036038101906101939190610bbb565b610853565b6040516101a59190611158565b60405180910390f35b6101c860048036038101906101c39190610bfc565b610881565b005b6000806001836040516101dd9190610fe7565b908152602001604051809103902054905060008111610231576040517f08c379a000000000000000000000000000000000000000000000000000000000815260040161022890611138565b60405180910390fd5b80915050919050565b606080606080600060025467ffffffffffffffff811115610284577f4e487b7100000000000000000000000000000000000000000000000000000000600052604160045260246000fd5b6040519080825280602002602001820160405280156102b25781602001602082028036833780820191505090505b509050600060025467ffffffffffffffff8111156102f9577f4e487b7100000000000000000000000000000000000000000000000000000000600052604160045260246000fd5b60405190808252806020026020018201604052801561032c57816020015b60608152602001906001900390816103175790505b509050600060025467ffffffffffffffff811115610373577f4e487b7100000000000000000000000000000000000000000000000000000000600052604160045260246000fd5b6040519080825280602002602001820160405280156103a15781602001602082028036833780820191505090505b509050600060025467ffffffffffffffff8111156103e8577f4e487b7100000000000000000000000000000000000000000000000000000000600052604160045260246000fd5b6040519080825280602002602001820160405280156104165781602001602082028036833780820191505090505b5090506000600190505b600254811161064a57808560018361043891906112ca565b8151811061046f577f4e487b7100000000000000000000000000000000000000000000000000000000600052603260045260246000fd5b602002602001018181525050600080828152602001908152602001600020600001805461049b9061137c565b80601f01602080910402602001604051908101604052809291908181526020018280546104c79061137c565b80156105145780601f106104e957610100808354040283529160200191610514565b820191906000526020600020905b8154815290600101906020018083116104f757829003601f168201915b50505050508460018361052791906112ca565b8151811061055e577f4e487b7100000000000000000000000000000000000000000000000000000000600052603260045260246000fd5b6020026020010181905250600080828152602001908152602001600020600101548360018361058d91906112ca565b815181106105c4577f4e487b7100000000000000000000000000000000000000000000000000000000600052603260045260246000fd5b60200260200101818152505060008082815260200190815260200160002060020154826001836105f491906112ca565b8151811061062b577f4e487b7100000000000000000000000000000000000000000000000000000000600052603260045260246000fd5b6020026020010181815250508080610642906113ae565b915050610420565b508383838397509750975097505050505090919293565b60025481565b606060008060008411801561067e57506002548411155b6106bd576040517f08c379a00000000000000000000000000000000000000000000000000000000081526004016106b4906110f8565b60405180910390fd5b6000806000868152602001908152602001600020905080600001816001015482600201548280546106ed9061137c565b80601f01602080910402602001604051908101604052809291908181526020018280546107199061137c565b80156107665780601f1061073b57610100808354040283529160200191610766565b820191906000526020600020905b81548152906001019060200180831161074957829003601f168201915b50505050509250935093509350509193909250565b600360009054906101000a900473ffffffffffffffffffffffffffffffffffffffff1681565b60006020528060005260406000206000915090508060000180546107c49061137c565b80601f01602080910402602001604051908101604052809291908181526020018280546107f09061137c565b801561083d5780601f106108125761010080835404028352916020019161083d565b820191906000526020600020905b81548152906001019060200180831161082057829003601f168201915b5050505050908060010154908060020154905083565b6001818051602081018201805184825260208301602085012081835280955050505050506000915090505481565b600360009054906101000a900473ffffffffffffffffffffffffffffffffffffffff1673ffffffffffffffffffffffffffffffffffffffff163373ffffffffffffffffffffffffffffffffffffffff1614610911576040517f08c379a000000000000000000000000000000000000000000000000000000000815260040161090890611118565b60405180910390fd5b60008211610954576040517f08c379a000000000000000000000000000000000000000000000000000000000815260040161094b906110b8565b60405180910390fd5b60006001846040516109669190610fe7565b908152602001604051809103902054146109b5576040517f08c379a00000000000000000000000000000000000000000000000000000000081526004016109ac906110d8565b60405180910390fd5b600260008154809291906109c8906113ae565b9190505550600060025490506040518060600160405280858152602001848152602001838152506000808381526020019081526020016000206000820151816000019080519060200190610a1d929190610a9b565b50602082015181600101556040820151816002015590505080600185604051610a469190610fe7565b9081526020016040518091039020819055507f665e452eb624a7f9bf54abd5d404d4f4da7360a1e40698893fe2cc447a51af9c81858585604051610a8d9493929190611173565b60405180910390a150505050565b828054610aa79061137c565b90600052602060002090601f016020900481019282610ac95760008555610b10565b82601f10610ae257805160ff1916838001178555610b10565b82800160010185558215610b10579182015b82811115610b0f578251825591602001919060010190610af4565b5b509050610b1d9190610b21565b5090565b5b80821115610b3a576000816000905550600101610b22565b5090565b6000610b51610b4c846111f0565b6111bf565b905082815260208101848484011115610b6957600080fd5b610b7484828561133a565b509392505050565b600082601f830112610b8d57600080fd5b8135610b9d848260208601610b3e565b91505092915050565b600081359050610bb581611495565b92915050565b600060208284031215610bcd57600080fd5b600082013567ffffffffffffffff811115610be757600080fd5b610bf384828501610b7c565b91505092915050565b600080600060608486031215610c1157600080fd5b600084013567ffffffffffffffff811115610c2b57600080fd5b610c3786828701610b7c565b9350506020610c4886828701610ba6565b9250506040610c5986828701610ba6565b9150509250925092565b600060208284031215610c7557600080fd5b6000610c8384828501610ba6565b91505092915050565b6000610c988383610d9a565b905092915050565b6000610cac8383610fc9565b60208301905092915050565b610cc1816112fe565b82525050565b6000610cd282611240565b610cdc818561127b565b935083602082028501610cee85611220565b8060005b85811015610d2a5784840389528151610d0b8582610c8c565b9450610d1683611261565b925060208a01995050600181019050610cf2565b50829750879550505050505092915050565b6000610d478261124b565b610d51818561128c565b9350610d5c83611230565b8060005b83811015610d8d578151610d748882610ca0565b9750610d7f8361126e565b925050600181019050610d60565b5085935050505092915050565b6000610da582611256565b610daf818561129d565b9350610dbf818560208601611349565b610dc881611484565b840191505092915050565b6000610dde82611256565b610de881856112ae565b9350610df8818560208601611349565b610e0181611484565b840191505092915050565b6000610e1782611256565b610e2181856112bf565b9350610e31818560208601611349565b80840191505092915050565b6000610e4a601f836112ae565b91507f5175616e74697479206d7573742062652067726561746572207468616e2030006000830152602082019050919050565b6000610e8a6026836112ae565b91507f4974656d2077697468207468652073616d65206e616d6520616c72656164792060008301527f65786973747300000000000000000000000000000000000000000000000000006020830152604082019050919050565b6000610ef0600f836112ae565b91507f496e76616c6964206974656d20494400000000000000000000000000000000006000830152602082019050919050565b6000610f306026836112ae565b91507f4f6e6c7920746865206f776e65722063616e20706572666f726d20746869732060008301527f616374696f6e00000000000000000000000000000000000000000000000000006020830152604082019050919050565b6000610f96600e836112ae565b91507f4974656d206e6f7420666f756e640000000000000000000000000000000000006000830152602082019050919050565b610fd281611330565b82525050565b610fe181611330565b82525050565b6000610ff38284610e0c565b915081905092915050565b60006020820190506110136000830184610cb8565b92915050565b600060808201905081810360008301526110338187610d3c565b905081810360208301526110478186610cc7565b9050818103604083015261105b8185610d3c565b9050818103606083015261106f8184610d3c565b905095945050505050565b600060608201905081810360008301526110948186610dd3565b90506110a36020830185610fd8565b6110b06040830184610fd8565b949350505050565b600060208201905081810360008301526110d181610e3d565b9050919050565b600060208201905081810360008301526110f181610e7d565b9050919050565b6000602082019050818103600083015261111181610ee3565b9050919050565b6000602082019050818103600083015261113181610f23565b9050919050565b6000602082019050818103600083015261115181610f89565b9050919050565b600060208201905061116d6000830184610fd8565b92915050565b60006080820190506111886000830187610fd8565b818103602083015261119a8186610dd3565b90506111a96040830185610fd8565b6111b66060830184610fd8565b95945050505050565b6000604051905081810181811067ffffffffffffffff821117156111e6576111e5611455565b5b8060405250919050565b600067ffffffffffffffff82111561120b5761120a611455565b5b601f19601f8301169050602081019050919050565b6000819050602082019050919050565b6000819050602082019050919050565b600081519050919050565b600081519050919050565b600081519050919050565b6000602082019050919050565b6000602082019050919050565b600082825260208201905092915050565b600082825260208201905092915050565b600082825260208201905092915050565b600082825260208201905092915050565b600081905092915050565b60006112d582611330565b91506112e083611330565b9250828210156112f3576112f26113f7565b5b828203905092915050565b600061130982611310565b9050919050565b600073ffffffffffffffffffffffffffffffffffffffff82169050919050565b6000819050919050565b82818337600083830152505050565b60005b8381101561136757808201518184015260208101905061134c565b83811115611376576000848401525b50505050565b6000600282049050600182168061139457607f821691505b602082108114156113a8576113a7611426565b5b50919050565b60006113b982611330565b91507fffffffffffffffffffffffffffffffffffffffffffffffffffffffffffffffff8214156113ec576113eb6113f7565b5b600182019050919050565b7f4e487b7100000000000000000000000000000000000000000000000000000000600052601160045260246000fd5b7f4e487b7100000000000000000000000000000000000000000000000000000000600052602260045260246000fd5b7f4e487b7100000000000000000000000000000000000000000000000000000000600052604160045260246000fd5b6000601f19601f8301169050919050565b61149e81611330565b81146114a957600080fd5b5056fea2646970667358221220ba13def4c04775d489402aa684055958c7887c665fe24149b29929a6e09dac5164736f6c63430008000033",
		"opcodes": "PUSH1 0x80 PUSH1 0x40 MSTORE CALLVALUE DUP1 ISZERO PUSH2 0x10 JUMPI PUSH1 0x0 DUP1 REVERT JUMPDEST POP PUSH1 0x4 CALLDATASIZE LT PUSH2 0x88 JUMPI PUSH1 0x0 CALLDATALOAD PUSH1 0xE0 SHR DUP1 PUSH4 0x8DA5CB5B GT PUSH2 0x5B JUMPI DUP1 PUSH4 0x8DA5CB5B EQ PUSH2 0x12E JUMPI DUP1 PUSH4 0xBFB231D2 EQ PUSH2 0x14C JUMPI DUP1 PUSH4 0xC14D307F EQ PUSH2 0x17E JUMPI DUP1 PUSH4 0xD5E6C333 EQ PUSH2 0x1AE JUMPI PUSH2 0x88 JUMP JUMPDEST DUP1 PUSH4 0x2F4E3FAA EQ PUSH2 0x8D JUMPI DUP1 PUSH4 0x4BA1D6AA EQ PUSH2 0xBD JUMPI DUP1 PUSH4 0x6BFB0D01 EQ PUSH2 0xDE JUMPI DUP1 PUSH4 0x8BC6976E EQ PUSH2 0xFC JUMPI JUMPDEST PUSH1 0x0 DUP1 REVERT JUMPDEST PUSH2 0xA7 PUSH1 0x4 DUP1 CALLDATASIZE SUB DUP2 ADD SWAP1 PUSH2 0xA2 SWAP2 SWAP1 PUSH2 0xBBB JUMP JUMPDEST PUSH2 0x1CA JUMP JUMPDEST PUSH1 0x40 MLOAD PUSH2 0xB4 SWAP2 SWAP1 PUSH2 0x1158 JUMP JUMPDEST PUSH1 0x40 MLOAD DUP1 SWAP2 SUB SWAP1 RETURN JUMPDEST PUSH2 0xC5 PUSH2 0x23A JUMP JUMPDEST PUSH1 0x40 MLOAD PUSH2 0xD5 SWAP5 SWAP4 SWAP3 SWAP2 SWAP1 PUSH2 0x1019 JUMP JUMPDEST PUSH1 0x40 MLOAD DUP1 SWAP2 SUB SWAP1 RETURN JUMPDEST PUSH2 0xE6 PUSH2 0x661 JUMP JUMPDEST PUSH1 0x40 MLOAD PUSH2 0xF3 SWAP2 SWAP1 PUSH2 0x1158 JUMP JUMPDEST PUSH1 0x40 MLOAD DUP1 SWAP2 SUB SWAP1 RETURN JUMPDEST PUSH2 0x116 PUSH1 0x4 DUP1 CALLDATASIZE SUB DUP2 ADD SWAP1 PUSH2 0x111 SWAP2 SWAP1 PUSH2 0xC63 JUMP JUMPDEST PUSH2 0x667 JUMP JUMPDEST PUSH1 0x40 MLOAD PUSH2 0x125 SWAP4 SWAP3 SWAP2 SWAP1 PUSH2 0x107A JUMP JUMPDEST PUSH1 0x40 MLOAD DUP1 SWAP2 SUB SWAP1 RETURN JUMPDEST PUSH2 0x136 PUSH2 0x77B JUMP JUMPDEST PUSH1 0x40 MLOAD PUSH2 0x143 SWAP2 SWAP1 PUSH2 0xFFE JUMP JUMPDEST PUSH1 0x40 MLOAD DUP1 SWAP2 SUB SWAP1 RETURN JUMPDEST PUSH2 0x166 PUSH1 0x4 DUP1 CALLDATASIZE SUB DUP2 ADD SWAP1 PUSH2 0x161 SWAP2 SWAP1 PUSH2 0xC63 JUMP JUMPDEST PUSH2 0x7A1 JUMP JUMPDEST PUSH1 0x40 MLOAD PUSH2 0x175 SWAP4 SWAP3 SWAP2 SWAP1 PUSH2 0x107A JUMP JUMPDEST PUSH1 0x40 MLOAD DUP1 SWAP2 SUB SWAP1 RETURN JUMPDEST PUSH2 0x198 PUSH1 0x4 DUP1 CALLDATASIZE SUB DUP2 ADD SWAP1 PUSH2 0x193 SWAP2 SWAP1 PUSH2 0xBBB JUMP JUMPDEST PUSH2 0x853 JUMP JUMPDEST PUSH1 0x40 MLOAD PUSH2 0x1A5 SWAP2 SWAP1 PUSH2 0x1158 JUMP JUMPDEST PUSH1 0x40 MLOAD DUP1 SWAP2 SUB SWAP1 RETURN JUMPDEST PUSH2 0x1C8 PUSH1 0x4 DUP1 CALLDATASIZE SUB DUP2 ADD SWAP1 PUSH2 0x1C3 SWAP2 SWAP1 PUSH2 0xBFC JUMP JUMPDEST PUSH2 0x881 JUMP JUMPDEST STOP JUMPDEST PUSH1 0x0 DUP1 PUSH1 0x1 DUP4 PUSH1 0x40 MLOAD PUSH2 0x1DD SWAP2 SWAP1 PUSH2 0xFE7 JUMP JUMPDEST SWAP1 DUP2 MSTORE PUSH1 0x20 ADD PUSH1 0x40 MLOAD DUP1 SWAP2 SUB SWAP1 KECCAK256 SLOAD SWAP1 POP PUSH1 0x0 DUP2 GT PUSH2 0x231 JUMPI PUSH1 0x40 MLOAD PUSH32 0x8C379A000000000000000000000000000000000000000000000000000000000 DUP2 MSTORE PUSH1 0x4 ADD PUSH2 0x228 SWAP1 PUSH2 0x1138 JUMP JUMPDEST PUSH1 0x40 MLOAD DUP1 SWAP2 SUB SWAP1 REVERT JUMPDEST DUP1 SWAP2 POP POP SWAP2 SWAP1 POP JUMP JUMPDEST PUSH1 0x60 DUP1 PUSH1 0x60 DUP1 PUSH1 0x0 PUSH1 0x2 SLOAD PUSH8 0xFFFFFFFFFFFFFFFF DUP2 GT ISZERO PUSH2 0x284 JUMPI PUSH32 0x4E487B7100000000000000000000000000000000000000000000000000000000 PUSH1 0x0 MSTORE PUSH1 0x41 PUSH1 0x4 MSTORE PUSH1 0x24 PUSH1 0x0 REVERT JUMPDEST PUSH1 0x40 MLOAD SWAP1 DUP1 DUP3 MSTORE DUP1 PUSH1 0x20 MUL PUSH1 0x20 ADD DUP3 ADD PUSH1 0x40 MSTORE DUP1 ISZERO PUSH2 0x2B2 JUMPI DUP2 PUSH1 0x20 ADD PUSH1 0x20 DUP3 MUL DUP1 CALLDATASIZE DUP4 CALLDATACOPY DUP1 DUP3 ADD SWAP2 POP POP SWAP1 POP JUMPDEST POP SWAP1 POP PUSH1 0x0 PUSH1 0x2 SLOAD PUSH8 0xFFFFFFFFFFFFFFFF DUP2 GT ISZERO PUSH2 0x2F9 JUMPI PUSH32 0x4E487B7100000000000000000000000000000000000000000000000000000000 PUSH1 0x0 MSTORE PUSH1 0x41 PUSH1 0x4 MSTORE PUSH1 0x24 PUSH1 0x0 REVERT JUMPDEST PUSH1 0x40 MLOAD SWAP1 DUP1 DUP3 MSTORE DUP1 PUSH1 0x20 MUL PUSH1 0x20 ADD DUP3 ADD PUSH1 0x40 MSTORE DUP1 ISZERO PUSH2 0x32C JUMPI DUP2 PUSH1 0x20 ADD JUMPDEST PUSH1 0x60 DUP2 MSTORE PUSH1 0x20 ADD SWAP1 PUSH1 0x1 SWAP1 SUB SWAP1 DUP2 PUSH2 0x317 JUMPI SWAP1 POP JUMPDEST POP SWAP1 POP PUSH1 0x0 PUSH1 0x2 SLOAD PUSH8 0xFFFFFFFFFFFFFFFF DUP2 GT ISZERO PUSH2 0x373 JUMPI PUSH32 0x4E487B7100000000000000000000000000000000000000000000000000000000 PUSH1 0x0 MSTORE PUSH1 0x41 PUSH1 0x4 MSTORE PUSH1 0x24 PUSH1 0x0 REVERT JUMPDEST PUSH1 0x40 MLOAD SWAP1 DUP1 DUP3 MSTORE DUP1 PUSH1 0x20 MUL PUSH1 0x20 ADD DUP3 ADD PUSH1 0x40 MSTORE DUP1 ISZERO PUSH2 0x3A1 JUMPI DUP2 PUSH1 0x20 ADD PUSH1 0x20 DUP3 MUL DUP1 CALLDATASIZE DUP4 CALLDATACOPY DUP1 DUP3 ADD SWAP2 POP POP SWAP1 POP JUMPDEST POP SWAP1 POP PUSH1 0x0 PUSH1 0x2 SLOAD PUSH8 0xFFFFFFFFFFFFFFFF DUP2 GT ISZERO PUSH2 0x3E8 JUMPI PUSH32 0x4E487B7100000000000000000000000000000000000000000000000000000000 PUSH1 0x0 MSTORE PUSH1 0x41 PUSH1 0x4 MSTORE PUSH1 0x24 PUSH1 0x0 REVERT JUMPDEST PUSH1 0x40 MLOAD SWAP1 DUP1 DUP3 MSTORE DUP1 PUSH1 0x20 MUL PUSH1 0x20 ADD DUP3 ADD PUSH1 0x40 MSTORE DUP1 ISZERO PUSH2 0x416 JUMPI DUP2 PUSH1 0x20 ADD PUSH1 0x20 DUP3 MUL DUP1 CALLDATASIZE DUP4 CALLDATACOPY DUP1 DUP3 ADD SWAP2 POP POP SWAP1 POP JUMPDEST POP SWAP1 POP PUSH1 0x0 PUSH1 0x1 SWAP1 POP JUMPDEST PUSH1 0x2 SLOAD DUP2 GT PUSH2 0x64A JUMPI DUP1 DUP6 PUSH1 0x1 DUP4 PUSH2 0x438 SWAP2 SWAP1 PUSH2 0x12CA JUMP JUMPDEST DUP2 MLOAD DUP2 LT PUSH2 0x46F JUMPI PUSH32 0x4E487B7100000000000000000000000000000000000000000000000000000000 PUSH1 0x0 MSTORE PUSH1 0x32 PUSH1 0x4 MSTORE PUSH1 0x24 PUSH1 0x0 REVERT JUMPDEST PUSH1 0x20 MUL PUSH1 0x20 ADD ADD DUP2 DUP2 MSTORE POP POP PUSH1 0x0 DUP1 DUP3 DUP2 MSTORE PUSH1 0x20 ADD SWAP1 DUP2 MSTORE PUSH1 0x20 ADD PUSH1 0x0 KECCAK256 PUSH1 0x0 ADD DUP1 SLOAD PUSH2 0x49B SWAP1 PUSH2 0x137C JUMP JUMPDEST DUP1 PUSH1 0x1F ADD PUSH1 0x20 DUP1 SWAP2 DIV MUL PUSH1 0x20 ADD PUSH1 0x40 MLOAD SWAP1 DUP2 ADD PUSH1 0x40 MSTORE DUP1 SWAP3 SWAP2 SWAP1 DUP2 DUP2 MSTORE PUSH1 0x20 ADD DUP3 DUP1 SLOAD PUSH2 0x4C7 SWAP1 PUSH2 0x137C JUMP JUMPDEST DUP1 ISZERO PUSH2 0x514 JUMPI DUP1 PUSH1 0x1F LT PUSH2 0x4E9 JUMPI PUSH2 0x100 DUP1 DUP4 SLOAD DIV MUL DUP4 MSTORE SWAP2 PUSH1 0x20 ADD SWAP2 PUSH2 0x514 JUMP JUMPDEST DUP3 ADD SWAP2 SWAP1 PUSH1 0x0 MSTORE PUSH1 0x20 PUSH1 0x0 KECCAK256 SWAP1 JUMPDEST DUP2 SLOAD DUP2 MSTORE SWAP1 PUSH1 0x1 ADD SWAP1 PUSH1 0x20 ADD DUP1 DUP4 GT PUSH2 0x4F7 JUMPI DUP3 SWAP1 SUB PUSH1 0x1F AND DUP3 ADD SWAP2 JUMPDEST POP POP POP POP POP DUP5 PUSH1 0x1 DUP4 PUSH2 0x527 SWAP2 SWAP1 PUSH2 0x12CA JUMP JUMPDEST DUP2 MLOAD DUP2 LT PUSH2 0x55E JUMPI PUSH32 0x4E487B7100000000000000000000000000000000000000000000000000000000 PUSH1 0x0 MSTORE PUSH1 0x32 PUSH1 0x4 MSTORE PUSH1 0x24 PUSH1 0x0 REVERT JUMPDEST PUSH1 0x20 MUL PUSH1 0x20 ADD ADD DUP2 SWAP1 MSTORE POP PUSH1 0x0 DUP1 DUP3 DUP2 MSTORE PUSH1 0x20 ADD SWAP1 DUP2 MSTORE PUSH1 0x20 ADD PUSH1 0x0 KECCAK256 PUSH1 0x1 ADD SLOAD DUP4 PUSH1 0x1 DUP4 PUSH2 0x58D SWAP2 SWAP1 PUSH2 0x12CA JUMP JUMPDEST DUP2 MLOAD DUP2 LT PUSH2 0x5C4 JUMPI PUSH32 0x4E487B7100000000000000000000000000000000000000000000000000000000 PUSH1 0x0 MSTORE PUSH1 0x32 PUSH1 0x4 MSTORE PUSH1 0x24 PUSH1 0x0 REVERT JUMPDEST PUSH1 0x20 MUL PUSH1 0x20 ADD ADD DUP2 DUP2 MSTORE POP POP PUSH1 0x0 DUP1 DUP3 DUP2 MSTORE PUSH1 0x20 ADD SWAP1 DUP2 MSTORE PUSH1 0x20 ADD PUSH1 0x0 KECCAK256 PUSH1 0x2 ADD SLOAD DUP3 PUSH1 0x1 DUP4 PUSH2 0x5F4 SWAP2 SWAP1 PUSH2 0x12CA JUMP JUMPDEST DUP2 MLOAD DUP2 LT PUSH2 0x62B JUMPI PUSH32 0x4E487B7100000000000000000000000000000000000000000000000000000000 PUSH1 0x0 MSTORE PUSH1 0x32 PUSH1 0x4 MSTORE PUSH1 0x24 PUSH1 0x0 REVERT JUMPDEST PUSH1 0x20 MUL PUSH1 0x20 ADD ADD DUP2 DUP2 MSTORE POP POP DUP1 DUP1 PUSH2 0x642 SWAP1 PUSH2 0x13AE JUMP JUMPDEST SWAP2 POP POP PUSH2 0x420 JUMP JUMPDEST POP DUP4 DUP4 DUP4 DUP4 SWAP8 POP SWAP8 POP SWAP8 POP SWAP8 POP POP POP POP POP SWAP1 SWAP2 SWAP3 SWAP4 JUMP JUMPDEST PUSH1 0x2 SLOAD DUP2 JUMP JUMPDEST PUSH1 0x60 PUSH1 0x0 DUP1 PUSH1 0x0 DUP5 GT DUP1 ISZERO PUSH2 0x67E JUMPI POP PUSH1 0x2 SLOAD DUP5 GT ISZERO JUMPDEST PUSH2 0x6BD JUMPI PUSH1 0x40 MLOAD PUSH32 0x8C379A000000000000000000000000000000000000000000000000000000000 DUP2 MSTORE PUSH1 0x4 ADD PUSH2 0x6B4 SWAP1 PUSH2 0x10F8 JUMP JUMPDEST PUSH1 0x40 MLOAD DUP1 SWAP2 SUB SWAP1 REVERT JUMPDEST PUSH1 0x0 DUP1 PUSH1 0x0 DUP7 DUP2 MSTORE PUSH1 0x20 ADD SWAP1 DUP2 MSTORE PUSH1 0x20 ADD PUSH1 0x0 KECCAK256 SWAP1 POP DUP1 PUSH1 0x0 ADD DUP2 PUSH1 0x1 ADD SLOAD DUP3 PUSH1 0x2 ADD SLOAD DUP3 DUP1 SLOAD PUSH2 0x6ED SWAP1 PUSH2 0x137C JUMP JUMPDEST DUP1 PUSH1 0x1F ADD PUSH1 0x20 DUP1 SWAP2 DIV MUL PUSH1 0x20 ADD PUSH1 0x40 MLOAD SWAP1 DUP2 ADD PUSH1 0x40 MSTORE DUP1 SWAP3 SWAP2 SWAP1 DUP2 DUP2 MSTORE PUSH1 0x20 ADD DUP3 DUP1 SLOAD PUSH2 0x719 SWAP1 PUSH2 0x137C JUMP JUMPDEST DUP1 ISZERO PUSH2 0x766 JUMPI DUP1 PUSH1 0x1F LT PUSH2 0x73B JUMPI PUSH2 0x100 DUP1 DUP4 SLOAD DIV MUL DUP4 MSTORE SWAP2 PUSH1 0x20 ADD SWAP2 PUSH2 0x766 JUMP JUMPDEST DUP3 ADD SWAP2 SWAP1 PUSH1 0x0 MSTORE PUSH1 0x20 PUSH1 0x0 KECCAK256 SWAP1 JUMPDEST DUP2 SLOAD DUP2 MSTORE SWAP1 PUSH1 0x1 ADD SWAP1 PUSH1 0x20 ADD DUP1 DUP4 GT PUSH2 0x749 JUMPI DUP3 SWAP1 SUB PUSH1 0x1F AND DUP3 ADD SWAP2 JUMPDEST POP POP POP POP POP SWAP3 POP SWAP4 POP SWAP4 POP SWAP4 POP POP SWAP2 SWAP4 SWAP1 SWAP3 POP JUMP JUMPDEST PUSH1 0x3 PUSH1 0x0 SWAP1 SLOAD SWAP1 PUSH2 0x100 EXP SWAP1 DIV PUSH20 0xFFFFFFFFFFFFFFFFFFFFFFFFFFFFFFFFFFFFFFFF AND DUP2 JUMP JUMPDEST PUSH1 0x0 PUSH1 0x20 MSTORE DUP1 PUSH1 0x0 MSTORE PUSH1 0x40 PUSH1 0x0 KECCAK256 PUSH1 0x0 SWAP2 POP SWAP1 POP DUP1 PUSH1 0x0 ADD DUP1 SLOAD PUSH2 0x7C4 SWAP1 PUSH2 0x137C JUMP JUMPDEST DUP1 PUSH1 0x1F ADD PUSH1 0x20 DUP1 SWAP2 DIV MUL PUSH1 0x20 ADD PUSH1 0x40 MLOAD SWAP1 DUP2 ADD PUSH1 0x40 MSTORE DUP1 SWAP3 SWAP2 SWAP1 DUP2 DUP2 MSTORE PUSH1 0x20 ADD DUP3 DUP1 SLOAD PUSH2 0x7F0 SWAP1 PUSH2 0x137C JUMP JUMPDEST DUP1 ISZERO PUSH2 0x83D JUMPI DUP1 PUSH1 0x1F LT PUSH2 0x812 JUMPI PUSH2 0x100 DUP1 DUP4 SLOAD DIV MUL DUP4 MSTORE SWAP2 PUSH1 0x20 ADD SWAP2 PUSH2 0x83D JUMP JUMPDEST DUP3 ADD SWAP2 SWAP1 PUSH1 0x0 MSTORE PUSH1 0x20 PUSH1 0x0 KECCAK256 SWAP1 JUMPDEST DUP2 SLOAD DUP2 MSTORE SWAP1 PUSH1 0x1 ADD SWAP1 PUSH1 0x20 ADD DUP1 DUP4 GT PUSH2 0x820 JUMPI DUP3 SWAP1 SUB PUSH1 0x1F AND DUP3 ADD SWAP2 JUMPDEST POP POP POP POP POP SWAP1 DUP1 PUSH1 0x1 ADD SLOAD SWAP1 DUP1 PUSH1 0x2 ADD SLOAD SWAP1 POP DUP4 JUMP JUMPDEST PUSH1 0x1 DUP2 DUP1 MLOAD PUSH1 0x20 DUP2 ADD DUP3 ADD DUP1 MLOAD DUP5 DUP3 MSTORE PUSH1 0x20 DUP4 ADD PUSH1 0x20 DUP6 ADD KECCAK256 DUP2 DUP4 MSTORE DUP1 SWAP6 POP POP POP POP POP POP PUSH1 0x0 SWAP2 POP SWAP1 POP SLOAD DUP2 JUMP JUMPDEST PUSH1 0x3 PUSH1 0x0 SWAP1 SLOAD SWAP1 PUSH2 0x100 EXP SWAP1 DIV PUSH20 0xFFFFFFFFFFFFFFFFFFFFFFFFFFFFFFFFFFFFFFFF AND PUSH20 0xFFFFFFFFFFFFFFFFFFFFFFFFFFFFFFFFFFFFFFFF AND CALLER PUSH20 0xFFFFFFFFFFFFFFFFFFFFFFFFFFFFFFFFFFFFFFFF AND EQ PUSH2 0x911 JUMPI PUSH1 0x40 MLOAD PUSH32 0x8C379A000000000000000000000000000000000000000000000000000000000 DUP2 MSTORE PUSH1 0x4 ADD PUSH2 0x908 SWAP1 PUSH2 0x1118 JUMP JUMPDEST PUSH1 0x40 MLOAD DUP1 SWAP2 SUB SWAP1 REVERT JUMPDEST PUSH1 0x0 DUP3 GT PUSH2 0x954 JUMPI PUSH1 0x40 MLOAD PUSH32 0x8C379A000000000000000000000000000000000000000000000000000000000 DUP2 MSTORE PUSH1 0x4 ADD PUSH2 0x94B SWAP1 PUSH2 0x10B8 JUMP JUMPDEST PUSH1 0x40 MLOAD DUP1 SWAP2 SUB SWAP1 REVERT JUMPDEST PUSH1 0x0 PUSH1 0x1 DUP5 PUSH1 0x40 MLOAD PUSH2 0x966 SWAP2 SWAP1 PUSH2 0xFE7 JUMP JUMPDEST SWAP1 DUP2 MSTORE PUSH1 0x20 ADD PUSH1 0x40 MLOAD DUP1 SWAP2 SUB SWAP1 KECCAK256 SLOAD EQ PUSH2 0x9B5 JUMPI PUSH1 0x40 MLOAD PUSH32 0x8C379A000000000000000000000000000000000000000000000000000000000 DUP2 MSTORE PUSH1 0x4 ADD PUSH2 0x9AC SWAP1 PUSH2 0x10D8 JUMP JUMPDEST PUSH1 0x40 MLOAD DUP1 SWAP2 SUB SWAP1 REVERT JUMPDEST PUSH1 0x2 PUSH1 0x0 DUP2 SLOAD DUP1 SWAP3 SWAP2 SWAP1 PUSH2 0x9C8 SWAP1 PUSH2 0x13AE JUMP JUMPDEST SWAP2 SWAP1 POP SSTORE POP PUSH1 0x0 PUSH1 0x2 SLOAD SWAP1 POP PUSH1 0x40 MLOAD DUP1 PUSH1 0x60 ADD PUSH1 0x40 MSTORE DUP1 DUP6 DUP2 MSTORE PUSH1 0x20 ADD DUP5 DUP2 MSTORE PUSH1 0x20 ADD DUP4 DUP2 MSTORE POP PUSH1 0x0 DUP1 DUP4 DUP2 MSTORE PUSH1 0x20 ADD SWAP1 DUP2 MSTORE PUSH1 0x20 ADD PUSH1 0x0 KECCAK256 PUSH1 0x0 DUP3 ADD MLOAD DUP2 PUSH1 0x0 ADD SWAP1 DUP1 MLOAD SWAP1 PUSH1 0x20 ADD SWAP1 PUSH2 0xA1D SWAP3 SWAP2 SWAP1 PUSH2 0xA9B JUMP JUMPDEST POP PUSH1 0x20 DUP3 ADD MLOAD DUP2 PUSH1 0x1 ADD SSTORE PUSH1 0x40 DUP3 ADD MLOAD DUP2 PUSH1 0x2 ADD SSTORE SWAP1 POP POP DUP1 PUSH1 0x1 DUP6 PUSH1 0x40 MLOAD PUSH2 0xA46 SWAP2 SWAP1 PUSH2 0xFE7 JUMP JUMPDEST SWAP1 DUP2 MSTORE PUSH1 0x20 ADD PUSH1 0x40 MLOAD DUP1 SWAP2 SUB SWAP1 KECCAK256 DUP2 SWAP1 SSTORE POP PUSH32 0x665E452EB624A7F9BF54ABD5D404D4F4DA7360A1E40698893FE2CC447A51AF9C DUP2 DUP6 DUP6 DUP6 PUSH1 0x40 MLOAD PUSH2 0xA8D SWAP5 SWAP4 SWAP3 SWAP2 SWAP1 PUSH2 0x1173 JUMP JUMPDEST PUSH1 0x40 MLOAD DUP1 SWAP2 SUB SWAP1 LOG1 POP POP POP POP JUMP JUMPDEST DUP3 DUP1 SLOAD PUSH2 0xAA7 SWAP1 PUSH2 0x137C JUMP JUMPDEST SWAP1 PUSH1 0x0 MSTORE PUSH1 0x20 PUSH1 0x0 KECCAK256 SWAP1 PUSH1 0x1F ADD PUSH1 0x20 SWAP1 DIV DUP2 ADD SWAP3 DUP3 PUSH2 0xAC9 JUMPI PUSH1 0x0 DUP6 SSTORE PUSH2 0xB10 JUMP JUMPDEST DUP3 PUSH1 0x1F LT PUSH2 0xAE2 JUMPI DUP1 MLOAD PUSH1 0xFF NOT AND DUP4 DUP1 ADD OR DUP6 SSTORE PUSH2 0xB10 JUMP JUMPDEST DUP3 DUP1 ADD PUSH1 0x1 ADD DUP6 SSTORE DUP3 ISZERO PUSH2 0xB10 JUMPI SWAP2 DUP3 ADD JUMPDEST DUP3 DUP2 GT ISZERO PUSH2 0xB0F JUMPI DUP3 MLOAD DUP3 SSTORE SWAP2 PUSH1 0x20 ADD SWAP2 SWAP1 PUSH1 0x1 ADD SWAP1 PUSH2 0xAF4 JUMP JUMPDEST JUMPDEST POP SWAP1 POP PUSH2 0xB1D SWAP2 SWAP1 PUSH2 0xB21 JUMP JUMPDEST POP SWAP1 JUMP JUMPDEST JUMPDEST DUP1 DUP3 GT ISZERO PUSH2 0xB3A JUMPI PUSH1 0x0 DUP2 PUSH1 0x0 SWAP1 SSTORE POP PUSH1 0x1 ADD PUSH2 0xB22 JUMP JUMPDEST POP SWAP1 JUMP JUMPDEST PUSH1 0x0 PUSH2 0xB51 PUSH2 0xB4C DUP5 PUSH2 0x11F0 JUMP JUMPDEST PUSH2 0x11BF JUMP JUMPDEST SWAP1 POP DUP3 DUP2 MSTORE PUSH1 0x20 DUP2 ADD DUP5 DUP5 DUP5 ADD GT ISZERO PUSH2 0xB69 JUMPI PUSH1 0x0 DUP1 REVERT JUMPDEST PUSH2 0xB74 DUP5 DUP3 DUP6 PUSH2 0x133A JUMP JUMPDEST POP SWAP4 SWAP3 POP POP POP JUMP JUMPDEST PUSH1 0x0 DUP3 PUSH1 0x1F DUP4 ADD SLT PUSH2 0xB8D JUMPI PUSH1 0x0 DUP1 REVERT JUMPDEST DUP2 CALLDATALOAD PUSH2 0xB9D DUP5 DUP3 PUSH1 0x20 DUP7 ADD PUSH2 0xB3E JUMP JUMPDEST SWAP2 POP POP SWAP3 SWAP2 POP POP JUMP JUMPDEST PUSH1 0x0 DUP2 CALLDATALOAD SWAP1 POP PUSH2 0xBB5 DUP2 PUSH2 0x1495 JUMP JUMPDEST SWAP3 SWAP2 POP POP JUMP JUMPDEST PUSH1 0x0 PUSH1 0x20 DUP3 DUP5 SUB SLT ISZERO PUSH2 0xBCD JUMPI PUSH1 0x0 DUP1 REVERT JUMPDEST PUSH1 0x0 DUP3 ADD CALLDATALOAD PUSH8 0xFFFFFFFFFFFFFFFF DUP2 GT ISZERO PUSH2 0xBE7 JUMPI PUSH1 0x0 DUP1 REVERT JUMPDEST PUSH2 0xBF3 DUP5 DUP3 DUP6 ADD PUSH2 0xB7C JUMP JUMPDEST SWAP2 POP POP SWAP3 SWAP2 POP POP JUMP JUMPDEST PUSH1 0x0 DUP1 PUSH1 0x0 PUSH1 0x60 DUP5 DUP7 SUB SLT ISZERO PUSH2 0xC11 JUMPI PUSH1 0x0 DUP1 REVERT JUMPDEST PUSH1 0x0 DUP5 ADD CALLDATALOAD PUSH8 0xFFFFFFFFFFFFFFFF DUP2 GT ISZERO PUSH2 0xC2B JUMPI PUSH1 0x0 DUP1 REVERT JUMPDEST PUSH2 0xC37 DUP7 DUP3 DUP8 ADD PUSH2 0xB7C JUMP JUMPDEST SWAP4 POP POP PUSH1 0x20 PUSH2 0xC48 DUP7 DUP3 DUP8 ADD PUSH2 0xBA6 JUMP JUMPDEST SWAP3 POP POP PUSH1 0x40 PUSH2 0xC59 DUP7 DUP3 DUP8 ADD PUSH2 0xBA6 JUMP JUMPDEST SWAP2 POP POP SWAP3 POP SWAP3 POP SWAP3 JUMP JUMPDEST PUSH1 0x0 PUSH1 0x20 DUP3 DUP5 SUB SLT ISZERO PUSH2 0xC75 JUMPI PUSH1 0x0 DUP1 REVERT JUMPDEST PUSH1 0x0 PUSH2 0xC83 DUP5 DUP3 DUP6 ADD PUSH2 0xBA6 JUMP JUMPDEST SWAP2 POP POP SWAP3 SWAP2 POP POP JUMP JUMPDEST PUSH1 0x0 PUSH2 0xC98 DUP4 DUP4 PUSH2 0xD9A JUMP JUMPDEST SWAP1 POP SWAP3 SWAP2 POP POP JUMP JUMPDEST PUSH1 0x0 PUSH2 0xCAC DUP4 DUP4 PUSH2 0xFC9 JUMP JUMPDEST PUSH1 0x20 DUP4 ADD SWAP1 POP SWAP3 SWAP2 POP POP JUMP JUMPDEST PUSH2 0xCC1 DUP2 PUSH2 0x12FE JUMP JUMPDEST DUP3 MSTORE POP POP JUMP JUMPDEST PUSH1 0x0 PUSH2 0xCD2 DUP3 PUSH2 0x1240 JUMP JUMPDEST PUSH2 0xCDC DUP2 DUP6 PUSH2 0x127B JUMP JUMPDEST SWAP4 POP DUP4 PUSH1 0x20 DUP3 MUL DUP6 ADD PUSH2 0xCEE DUP6 PUSH2 0x1220 JUMP JUMPDEST DUP1 PUSH1 0x0 JUMPDEST DUP6 DUP2 LT ISZERO PUSH2 0xD2A JUMPI DUP5 DUP5 SUB DUP10 MSTORE DUP2 MLOAD PUSH2 0xD0B DUP6 DUP3 PUSH2 0xC8C JUMP JUMPDEST SWAP5 POP PUSH2 0xD16 DUP4 PUSH2 0x1261 JUMP JUMPDEST SWAP3 POP PUSH1 0x20 DUP11 ADD SWAP10 POP POP PUSH1 0x1 DUP2 ADD SWAP1 POP PUSH2 0xCF2 JUMP JUMPDEST POP DUP3 SWAP8 POP DUP8 SWAP6 POP POP POP POP POP POP SWAP3 SWAP2 POP POP JUMP JUMPDEST PUSH1 0x0 PUSH2 0xD47 DUP3 PUSH2 0x124B JUMP JUMPDEST PUSH2 0xD51 DUP2 DUP6 PUSH2 0x128C JUMP JUMPDEST SWAP4 POP PUSH2 0xD5C DUP4 PUSH2 0x1230 JUMP JUMPDEST DUP1 PUSH1 0x0 JUMPDEST DUP4 DUP2 LT ISZERO PUSH2 0xD8D JUMPI DUP2 MLOAD PUSH2 0xD74 DUP9 DUP3 PUSH2 0xCA0 JUMP JUMPDEST SWAP8 POP PUSH2 0xD7F DUP4 PUSH2 0x126E JUMP JUMPDEST SWAP3 POP POP PUSH1 0x1 DUP2 ADD SWAP1 POP PUSH2 0xD60 JUMP JUMPDEST POP DUP6 SWAP4 POP POP POP POP SWAP3 SWAP2 POP POP JUMP JUMPDEST PUSH1 0x0 PUSH2 0xDA5 DUP3 PUSH2 0x1256 JUMP JUMPDEST PUSH2 0xDAF DUP2 DUP6 PUSH2 0x129D JUMP JUMPDEST SWAP4 POP PUSH2 0xDBF DUP2 DUP6 PUSH1 0x20 DUP7 ADD PUSH2 0x1349 JUMP JUMPDEST PUSH2 0xDC8 DUP2 PUSH2 0x1484 JUMP JUMPDEST DUP5 ADD SWAP2 POP POP SWAP3 SWAP2 POP POP JUMP JUMPDEST PUSH1 0x0 PUSH2 0xDDE DUP3 PUSH2 0x1256 JUMP JUMPDEST PUSH2 0xDE8 DUP2 DUP6 PUSH2 0x12AE JUMP JUMPDEST SWAP4 POP PUSH2 0xDF8 DUP2 DUP6 PUSH1 0x20 DUP7 ADD PUSH2 0x1349 JUMP JUMPDEST PUSH2 0xE01 DUP2 PUSH2 0x1484 JUMP JUMPDEST DUP5 ADD SWAP2 POP POP SWAP3 SWAP2 POP POP JUMP JUMPDEST PUSH1 0x0 PUSH2 0xE17 DUP3 PUSH2 0x1256 JUMP JUMPDEST PUSH2 0xE21 DUP2 DUP6 PUSH2 0x12BF JUMP JUMPDEST SWAP4 POP PUSH2 0xE31 DUP2 DUP6 PUSH1 0x20 DUP7 ADD PUSH2 0x1349 JUMP JUMPDEST DUP1 DUP5 ADD SWAP2 POP POP SWAP3 SWAP2 POP POP JUMP JUMPDEST PUSH1 0x0 PUSH2 0xE4A PUSH1 0x1F DUP4 PUSH2 0x12AE JUMP JUMPDEST SWAP2 POP PUSH32 0x5175616E74697479206D7573742062652067726561746572207468616E203000 PUSH1 0x0 DUP4 ADD MSTORE PUSH1 0x20 DUP3 ADD SWAP1 POP SWAP2 SWAP1 POP JUMP JUMPDEST PUSH1 0x0 PUSH2 0xE8A PUSH1 0x26 DUP4 PUSH2 0x12AE JUMP JUMPDEST SWAP2 POP PUSH32 0x4974656D2077697468207468652073616D65206E616D6520616C726561647920 PUSH1 0x0 DUP4 ADD MSTORE PUSH32 0x6578697374730000000000000000000000000000000000000000000000000000 PUSH1 0x20 DUP4 ADD MSTORE PUSH1 0x40 DUP3 ADD SWAP1 POP SWAP2 SWAP1 POP JUMP JUMPDEST PUSH1 0x0 PUSH2 0xEF0 PUSH1 0xF DUP4 PUSH2 0x12AE JUMP JUMPDEST SWAP2 POP PUSH32 0x496E76616C6964206974656D2049440000000000000000000000000000000000 PUSH1 0x0 DUP4 ADD MSTORE PUSH1 0x20 DUP3 ADD SWAP1 POP SWAP2 SWAP1 POP JUMP JUMPDEST PUSH1 0x0 PUSH2 0xF30 PUSH1 0x26 DUP4 PUSH2 0x12AE JUMP JUMPDEST SWAP2 POP PUSH32 0x4F6E6C7920746865206F776E65722063616E20706572666F726D207468697320 PUSH1 0x0 DUP4 ADD MSTORE PUSH32 0x616374696F6E0000000000000000000000000000000000000000000000000000 PUSH1 0x20 DUP4 ADD MSTORE PUSH1 0x40 DUP3 ADD SWAP1 POP SWAP2 SWAP1 POP JUMP JUMPDEST PUSH1 0x0 PUSH2 0xF96 PUSH1 0xE DUP4 PUSH2 0x12AE JUMP JUMPDEST SWAP2 POP PUSH32 0x4974656D206E6F7420666F756E64000000000000000000000000000000000000 PUSH1 0x0 DUP4 ADD MSTORE PUSH1 0x20 DUP3 ADD SWAP1 POP SWAP2 SWAP1 POP JUMP JUMPDEST PUSH2 0xFD2 DUP2 PUSH2 0x1330 JUMP JUMPDEST DUP3 MSTORE POP POP JUMP JUMPDEST PUSH2 0xFE1 DUP2 PUSH2 0x1330 JUMP JUMPDEST DUP3 MSTORE POP POP JUMP JUMPDEST PUSH1 0x0 PUSH2 0xFF3 DUP3 DUP5 PUSH2 0xE0C JUMP JUMPDEST SWAP2 POP DUP2 SWAP1 POP SWAP3 SWAP2 POP POP JUMP JUMPDEST PUSH1 0x0 PUSH1 0x20 DUP3 ADD SWAP1 POP PUSH2 0x1013 PUSH1 0x0 DUP4 ADD DUP5 PUSH2 0xCB8 JUMP JUMPDEST SWAP3 SWAP2 POP POP JUMP JUMPDEST PUSH1 0x0 PUSH1 0x80 DUP3 ADD SWAP1 POP DUP2 DUP2 SUB PUSH1 0x0 DUP4 ADD MSTORE PUSH2 0x1033 DUP2 DUP8 PUSH2 0xD3C JUMP JUMPDEST SWAP1 POP DUP2 DUP2 SUB PUSH1 0x20 DUP4 ADD MSTORE PUSH2 0x1047 DUP2 DUP7 PUSH2 0xCC7 JUMP JUMPDEST SWAP1 POP DUP2 DUP2 SUB PUSH1 0x40 DUP4 ADD MSTORE PUSH2 0x105B DUP2 DUP6 PUSH2 0xD3C JUMP JUMPDEST SWAP1 POP DUP2 DUP2 SUB PUSH1 0x60 DUP4 ADD MSTORE PUSH2 0x106F DUP2 DUP5 PUSH2 0xD3C JUMP JUMPDEST SWAP1 POP SWAP6 SWAP5 POP POP POP POP POP JUMP JUMPDEST PUSH1 0x0 PUSH1 0x60 DUP3 ADD SWAP1 POP DUP2 DUP2 SUB PUSH1 0x0 DUP4 ADD MSTORE PUSH2 0x1094 DUP2 DUP7 PUSH2 0xDD3 JUMP JUMPDEST SWAP1 POP PUSH2 0x10A3 PUSH1 0x20 DUP4 ADD DUP6 PUSH2 0xFD8 JUMP JUMPDEST PUSH2 0x10B0 PUSH1 0x40 DUP4 ADD DUP5 PUSH2 0xFD8 JUMP JUMPDEST SWAP5 SWAP4 POP POP POP POP JUMP JUMPDEST PUSH1 0x0 PUSH1 0x20 DUP3 ADD SWAP1 POP DUP2 DUP2 SUB PUSH1 0x0 DUP4 ADD MSTORE PUSH2 0x10D1 DUP2 PUSH2 0xE3D JUMP JUMPDEST SWAP1 POP SWAP2 SWAP1 POP JUMP JUMPDEST PUSH1 0x0 PUSH1 0x20 DUP3 ADD SWAP1 POP DUP2 DUP2 SUB PUSH1 0x0 DUP4 ADD MSTORE PUSH2 0x10F1 DUP2 PUSH2 0xE7D JUMP JUMPDEST SWAP1 POP SWAP2 SWAP1 POP JUMP JUMPDEST PUSH1 0x0 PUSH1 0x20 DUP3 ADD SWAP1 POP DUP2 DUP2 SUB PUSH1 0x0 DUP4 ADD MSTORE PUSH2 0x1111 DUP2 PUSH2 0xEE3 JUMP JUMPDEST SWAP1 POP SWAP2 SWAP1 POP JUMP JUMPDEST PUSH1 0x0 PUSH1 0x20 DUP3 ADD SWAP1 POP DUP2 DUP2 SUB PUSH1 0x0 DUP4 ADD MSTORE PUSH2 0x1131 DUP2 PUSH2 0xF23 JUMP JUMPDEST SWAP1 POP SWAP2 SWAP1 POP JUMP JUMPDEST PUSH1 0x0 PUSH1 0x20 DUP3 ADD SWAP1 POP DUP2 DUP2 SUB PUSH1 0x0 DUP4 ADD MSTORE PUSH2 0x1151 DUP2 PUSH2 0xF89 JUMP JUMPDEST SWAP1 POP SWAP2 SWAP1 POP JUMP JUMPDEST PUSH1 0x0 PUSH1 0x20 DUP3 ADD SWAP1 POP PUSH2 0x116D PUSH1 0x0 DUP4 ADD DUP5 PUSH2 0xFD8 JUMP JUMPDEST SWAP3 SWAP2 POP POP JUMP JUMPDEST PUSH1 0x0 PUSH1 0x80 DUP3 ADD SWAP1 POP PUSH2 0x1188 PUSH1 0x0 DUP4 ADD DUP8 PUSH2 0xFD8 JUMP JUMPDEST DUP2 DUP2 SUB PUSH1 0x20 DUP4 ADD MSTORE PUSH2 0x119A DUP2 DUP7 PUSH2 0xDD3 JUMP JUMPDEST SWAP1 POP PUSH2 0x11A9 PUSH1 0x40 DUP4 ADD DUP6 PUSH2 0xFD8 JUMP JUMPDEST PUSH2 0x11B6 PUSH1 0x60 DUP4 ADD DUP5 PUSH2 0xFD8 JUMP JUMPDEST SWAP6 SWAP5 POP POP POP POP POP JUMP JUMPDEST PUSH1 0x0 PUSH1 0x40 MLOAD SWAP1 POP DUP2 DUP2 ADD DUP2 DUP2 LT PUSH8 0xFFFFFFFFFFFFFFFF DUP3 GT OR ISZERO PUSH2 0x11E6 JUMPI PUSH2 0x11E5 PUSH2 0x1455 JUMP JUMPDEST JUMPDEST DUP1 PUSH1 0x40 MSTORE POP SWAP2 SWAP1 POP JUMP JUMPDEST PUSH1 0x0 PUSH8 0xFFFFFFFFFFFFFFFF DUP3 GT ISZERO PUSH2 0x120B JUMPI PUSH2 0x120A PUSH2 0x1455 JUMP JUMPDEST JUMPDEST PUSH1 0x1F NOT PUSH1 0x1F DUP4 ADD AND SWAP1 POP PUSH1 0x20 DUP2 ADD SWAP1 POP SWAP2 SWAP1 POP JUMP JUMPDEST PUSH1 0x0 DUP2 SWAP1 POP PUSH1 0x20 DUP3 ADD SWAP1 POP SWAP2 SWAP1 POP JUMP JUMPDEST PUSH1 0x0 DUP2 SWAP1 POP PUSH1 0x20 DUP3 ADD SWAP1 POP SWAP2 SWAP1 POP JUMP JUMPDEST PUSH1 0x0 DUP2 MLOAD SWAP1 POP SWAP2 SWAP1 POP JUMP JUMPDEST PUSH1 0x0 DUP2 MLOAD SWAP1 POP SWAP2 SWAP1 POP JUMP JUMPDEST PUSH1 0x0 DUP2 MLOAD SWAP1 POP SWAP2 SWAP1 POP JUMP JUMPDEST PUSH1 0x0 PUSH1 0x20 DUP3 ADD SWAP1 POP SWAP2 SWAP1 POP JUMP JUMPDEST PUSH1 0x0 PUSH1 0x20 DUP3 ADD SWAP1 POP SWAP2 SWAP1 POP JUMP JUMPDEST PUSH1 0x0 DUP3 DUP3 MSTORE PUSH1 0x20 DUP3 ADD SWAP1 POP SWAP3 SWAP2 POP POP JUMP JUMPDEST PUSH1 0x0 DUP3 DUP3 MSTORE PUSH1 0x20 DUP3 ADD SWAP1 POP SWAP3 SWAP2 POP POP JUMP JUMPDEST PUSH1 0x0 DUP3 DUP3 MSTORE PUSH1 0x20 DUP3 ADD SWAP1 POP SWAP3 SWAP2 POP POP JUMP JUMPDEST PUSH1 0x0 DUP3 DUP3 MSTORE PUSH1 0x20 DUP3 ADD SWAP1 POP SWAP3 SWAP2 POP POP JUMP JUMPDEST PUSH1 0x0 DUP2 SWAP1 POP SWAP3 SWAP2 POP POP JUMP JUMPDEST PUSH1 0x0 PUSH2 0x12D5 DUP3 PUSH2 0x1330 JUMP JUMPDEST SWAP2 POP PUSH2 0x12E0 DUP4 PUSH2 0x1330 JUMP JUMPDEST SWAP3 POP DUP3 DUP3 LT ISZERO PUSH2 0x12F3 JUMPI PUSH2 0x12F2 PUSH2 0x13F7 JUMP JUMPDEST JUMPDEST DUP3 DUP3 SUB SWAP1 POP SWAP3 SWAP2 POP POP JUMP JUMPDEST PUSH1 0x0 PUSH2 0x1309 DUP3 PUSH2 0x1310 JUMP JUMPDEST SWAP1 POP SWAP2 SWAP1 POP JUMP JUMPDEST PUSH1 0x0 PUSH20 0xFFFFFFFFFFFFFFFFFFFFFFFFFFFFFFFFFFFFFFFF DUP3 AND SWAP1 POP SWAP2 SWAP1 POP JUMP JUMPDEST PUSH1 0x0 DUP2 SWAP1 POP SWAP2 SWAP1 POP JUMP JUMPDEST DUP3 DUP2 DUP4 CALLDATACOPY PUSH1 0x0 DUP4 DUP4 ADD MSTORE POP POP POP JUMP JUMPDEST PUSH1 0x0 JUMPDEST DUP4 DUP2 LT ISZERO PUSH2 0x1367 JUMPI DUP1 DUP3 ADD MLOAD DUP2 DUP5 ADD MSTORE PUSH1 0x20 DUP2 ADD SWAP1 POP PUSH2 0x134C JUMP JUMPDEST DUP4 DUP2 GT ISZERO PUSH2 0x1376 JUMPI PUSH1 0x0 DUP5 DUP5 ADD MSTORE JUMPDEST POP POP POP POP JUMP JUMPDEST PUSH1 0x0 PUSH1 0x2 DUP3 DIV SWAP1 POP PUSH1 0x1 DUP3 AND DUP1 PUSH2 0x1394 JUMPI PUSH1 0x7F DUP3 AND SWAP2 POP JUMPDEST PUSH1 0x20 DUP3 LT DUP2 EQ ISZERO PUSH2 0x13A8 JUMPI PUSH2 0x13A7 PUSH2 0x1426 JUMP JUMPDEST JUMPDEST POP SWAP2 SWAP1 POP JUMP JUMPDEST PUSH1 0x0 PUSH2 0x13B9 DUP3 PUSH2 0x1330 JUMP JUMPDEST SWAP2 POP PUSH32 0xFFFFFFFFFFFFFFFFFFFFFFFFFFFFFFFFFFFFFFFFFFFFFFFFFFFFFFFFFFFFFFFF DUP3 EQ ISZERO PUSH2 0x13EC JUMPI PUSH2 0x13EB PUSH2 0x13F7 JUMP JUMPDEST JUMPDEST PUSH1 0x1 DUP3 ADD SWAP1 POP SWAP2 SWAP1 POP JUMP JUMPDEST PUSH32 0x4E487B7100000000000000000000000000000000000000000000000000000000 PUSH1 0x0 MSTORE PUSH1 0x11 PUSH1 0x4 MSTORE PUSH1 0x24 PUSH1 0x0 REVERT JUMPDEST PUSH32 0x4E487B7100000000000000000000000000000000000000000000000000000000 PUSH1 0x0 MSTORE PUSH1 0x22 PUSH1 0x4 MSTORE PUSH1 0x24 PUSH1 0x0 REVERT JUMPDEST PUSH32 0x4E487B7100000000000000000000000000000000000000000000000000000000 PUSH1 0x0 MSTORE PUSH1 0x41 PUSH1 0x4 MSTORE PUSH1 0x24 PUSH1 0x0 REVERT JUMPDEST PUSH1 0x0 PUSH1 0x1F NOT PUSH1 0x1F DUP4 ADD AND SWAP1 POP SWAP2 SWAP1 POP JUMP JUMPDEST PUSH2 0x149E DUP2 PUSH2 0x1330 JUMP JUMPDEST DUP2 EQ PUSH2 0x14A9 JUMPI PUSH1 0x0 DUP1 REVERT JUMPDEST POP JUMP INVALID LOG2 PUSH5 0x6970667358 0x22 SLT KECCAK256 0xBA SGT 0xDE DELEGATECALL 0xC0 SELFBALANCE PUSH22 0xD489402AA684055958C7887C665FE24149B29929A6E0 SWAP14 0xAC MLOAD PUSH5 0x736F6C6343 STOP ADDMOD STOP STOP CALLER "
	},
	"Assembly": ".code\n  PUSH 80\t\t\tcontract ItemRegistry {\\n    s...\n  PUSH 40\t\t\tcontract ItemRegistry {\\n    s...\n  MSTORE \t\t\tcontract ItemRegistry {\\n    s...\n  CALLVALUE \t\t\tconstructor() {\\n        owner...\n  DUP1 \t\t\tconstructor() {\\n        owner...\n  ISZERO \t\t\tconstructor() {\\n        owner...\n  PUSH [tag] 1\t\t\tconstructor() {\\n        owner...\n  JUMPI \t\t\tconstructor() {\\n        owner...\n  PUSH 0\t\t\tconstructor() {\\n        owner...\n  DUP1 \t\t\tconstructor() {\\n        owner...\n  REVERT \t\t\tconstructor() {\\n        owner...\ntag 1\t\t\tconstructor() {\\n        owner...\n  JUMPDEST \t\t\tconstructor() {\\n        owner...\n  POP \t\t\tconstructor() {\\n        owner...\n  CALLER \t\t\tmsg.sender\n  PUSH 3\t\t\towner\n  PUSH 0\t\t\towner\n  PUSH 100\t\t\towner = msg.sender\n  EXP \t\t\towner = msg.sender\n  DUP2 \t\t\towner = msg.sender\n  SLOAD \t\t\towner = msg.sender\n  DUP2 \t\t\towner = msg.sender\n  PUSH FFFFFFFFFFFFFFFFFFFFFFFFFFFFFFFFFFFFFFFF\t\t\towner = msg.sender\n  MUL \t\t\towner = msg.sender\n  NOT \t\t\towner = msg.sender\n  AND \t\t\towner = msg.sender\n  SWAP1 \t\t\towner = msg.sender\n  DUP4 \t\t\towner = msg.sender\n  PUSH FFFFFFFFFFFFFFFFFFFFFFFFFFFFFFFFFFFFFFFF\t\t\towner = msg.sender\n  AND \t\t\towner = msg.sender\n  MUL \t\t\towner = msg.sender\n  OR \t\t\towner = msg.sender\n  SWAP1 \t\t\towner = msg.sender\n  SSTORE \t\t\towner = msg.sender\n  POP \t\t\towner = msg.sender\n  PUSH #[$] 0000000000000000000000000000000000000000000000000000000000000000\t\t\tcontract ItemRegistry {\\n    s...\n  DUP1 \t\t\tcontract ItemRegistry {\\n    s...\n  PUSH [$] 0000000000000000000000000000000000000000000000000000000000000000\t\t\tcontract ItemRegistry {\\n    s...\n  PUSH 0\t\t\tcontract ItemRegistry {\\n    s...\n  CODECOPY \t\t\tcontract ItemRegistry {\\n    s...\n  PUSH 0\t\t\tcontract ItemRegistry {\\n    s...\n  RETURN \t\t\tcontract ItemRegistry {\\n    s...\n.data\n  0:\n    .code\n      PUSH 80\t\t\tcontract ItemRegistry {\\n    s...\n      PUSH 40\t\t\tcontract ItemRegistry {\\n    s...\n      MSTORE \t\t\tcontract ItemRegistry {\\n    s...\n      CALLVALUE \t\t\tcontract ItemRegistry {\\n    s...\n      DUP1 \t\t\tcontract ItemRegistry {\\n    s...\n      ISZERO \t\t\tcontract ItemRegistry {\\n    s...\n      PUSH [tag] 1\t\t\tcontract ItemRegistry {\\n    s...\n      JUMPI \t\t\tcontract ItemRegistry {\\n    s...\n      PUSH 0\t\t\tcontract ItemRegistry {\\n    s...\n      DUP1 \t\t\tcontract ItemRegistry {\\n    s...\n      REVERT \t\t\tcontract ItemRegistry {\\n    s...\n    tag 1\t\t\tcontract ItemRegistry {\\n    s...\n      JUMPDEST \t\t\tcontract ItemRegistry {\\n    s...\n      POP \t\t\tcontract ItemRegistry {\\n    s...\n      PUSH 4\t\t\tcontract ItemRegistry {\\n    s...\n      CALLDATASIZE \t\t\tcontract ItemRegistry {\\n    s...\n      LT \t\t\tcontract ItemRegistry {\\n    s...\n      PUSH [tag] 2\t\t\tcontract ItemRegistry {\\n    s...\n      JUMPI \t\t\tcontract ItemRegistry {\\n    s...\n      PUSH 0\t\t\tcontract ItemRegistry {\\n    s...\n      CALLDATALOAD \t\t\tcontract ItemRegistry {\\n    s...\n      PUSH E0\t\t\tcontract ItemRegistry {\\n    s...\n      SHR \t\t\tcontract ItemRegistry {\\n    s...\n      DUP1 \t\t\tcontract ItemRegistry {\\n    s...\n      PUSH 8DA5CB5B\t\t\tcontract ItemRegistry {\\n    s...\n      GT \t\t\tcontract ItemRegistry {\\n    s...\n      PUSH [tag] 11\t\t\tcontract ItemRegistry {\\n    s...\n      JUMPI \t\t\tcontract ItemRegistry {\\n    s...\n      DUP1 \t\t\tcontract ItemRegistry {\\n    s...\n      PUSH 8DA5CB5B\t\t\tcontract ItemRegistry {\\n    s...\n      EQ \t\t\tcontract ItemRegistry {\\n    s...\n      PUSH [tag] 7\t\t\tcontract ItemRegistry {\\n    s...\n      JUMPI \t\t\tcontract ItemRegistry {\\n    s...\n      DUP1 \t\t\tcontract ItemRegistry {\\n    s...\n      PUSH BFB231D2\t\t\tcontract ItemRegistry {\\n    s...\n      EQ \t\t\tcontract ItemRegistry {\\n    s...\n      PUSH [tag] 8\t\t\tcontract ItemRegistry {\\n    s...\n      JUMPI \t\t\tcontract ItemRegistry {\\n    s...\n      DUP1 \t\t\tcontract ItemRegistry {\\n    s...\n      PUSH C14D307F\t\t\tcontract ItemRegistry {\\n    s...\n      EQ \t\t\tcontract ItemRegistry {\\n    s...\n      PUSH [tag] 9\t\t\tcontract ItemRegistry {\\n    s...\n      JUMPI \t\t\tcontract ItemRegistry {\\n    s...\n      DUP1 \t\t\tcontract ItemRegistry {\\n    s...\n      PUSH D5E6C333\t\t\tcontract ItemRegistry {\\n    s...\n      EQ \t\t\tcontract ItemRegistry {\\n    s...\n      PUSH [tag] 10\t\t\tcontract ItemRegistry {\\n    s...\n      JUMPI \t\t\tcontract ItemRegistry {\\n    s...\n      PUSH [tag] 2\t\t\tcontract ItemRegistry {\\n    s...\n      JUMP \t\t\tcontract ItemRegistry {\\n    s...\n    tag 11\t\t\tcontract ItemRegistry {\\n    s...\n      JUMPDEST \t\t\tcontract ItemRegistry {\\n    s...\n      DUP1 \t\t\tcontract ItemRegistry {\\n    s...\n      PUSH 2F4E3FAA\t\t\tcontract ItemRegistry {\\n    s...\n      EQ \t\t\tcontract ItemRegistry {\\n    s...\n      PUSH [tag] 3\t\t\tcontract ItemRegistry {\\n    s...\n      JUMPI \t\t\tcontract ItemRegistry {\\n    s...\n      DUP1 \t\t\tcontract ItemRegistry {\\n    s...\n      PUSH 4BA1D6AA\t\t\tcontract ItemRegistry {\\n    s...\n      EQ \t\t\tcontract ItemRegistry {\\n    s...\n      PUSH [tag] 4\t\t\tcontract ItemRegistry {\\n    s...\n      JUMPI \t\t\tcontract ItemRegistry {\\n    s...\n      DUP1 \t\t\tcontract ItemRegistry {\\n    s...\n      PUSH 6BFB0D01\t\t\tcontract ItemRegistry {\\n    s...\n      EQ \t\t\tcontract ItemRegistry {\\n    s...\n      PUSH [tag] 5\t\t\tcontract ItemRegistry {\\n    s...\n      JUMPI \t\t\tcontract ItemRegistry {\\n    s...\n      DUP1 \t\t\tcontract ItemRegistry {\\n    s...\n      PUSH 8BC6976E\t\t\tcontract ItemRegistry {\\n    s...\n      EQ \t\t\tcontract ItemRegistry {\\n    s...\n      PUSH [tag] 6\t\t\tcontract ItemRegistry {\\n    s...\n      JUMPI \t\t\tcontract ItemRegistry {\\n    s...\n    tag 2\t\t\tcontract ItemRegistry {\\n    s...\n      JUMPDEST \t\t\tcontract ItemRegistry {\\n    s...\n      PUSH 0\t\t\tcontract ItemRegistry {\\n    s...\n      DUP1 \t\t\tcontract ItemRegistry {\\n    s...\n      REVERT \t\t\tcontract ItemRegistry {\\n    s...\n    tag 3\t\t\tfunction getItemIdByName(strin...\n      JUMPDEST \t\t\tfunction getItemIdByName(strin...\n      PUSH [tag] 12\t\t\tfunction getItemIdByName(strin...\n      PUSH 4\t\t\tfunction getItemIdByName(strin...\n      DUP1 \t\t\tfunction getItemIdByName(strin...\n      CALLDATASIZE \t\t\tfunction getItemIdByName(strin...\n      SUB \t\t\tfunction getItemIdByName(strin...\n      DUP2 \t\t\tfunction getItemIdByName(strin...\n      ADD \t\t\tfunction getItemIdByName(strin...\n      SWAP1 \t\t\tfunction getItemIdByName(strin...\n      PUSH [tag] 13\t\t\tfunction getItemIdByName(strin...\n      SWAP2 \t\t\tfunction getItemIdByName(strin...\n      SWAP1 \t\t\tfunction getItemIdByName(strin...\n      PUSH [tag] 14\t\t\tfunction getItemIdByName(strin...\n      JUMP [in]\t\t\tfunction getItemIdByName(strin...\n    tag 13\t\t\tfunction getItemIdByName(strin...\n      JUMPDEST \t\t\tfunction getItemIdByName(strin...\n      PUSH [tag] 15\t\t\tfunction getItemIdByName(strin...\n      JUMP [in]\t\t\tfunction getItemIdByName(strin...\n    tag 12\t\t\tfunction getItemIdByName(strin...\n      JUMPDEST \t\t\tfunction getItemIdByName(strin...\n      PUSH 40\t\t\tfunction getItemIdByName(strin...\n      MLOAD \t\t\tfunction getItemIdByName(strin...\n      PUSH [tag] 16\t\t\tfunction getItemIdByName(strin...\n      SWAP2 \t\t\tfunction getItemIdByName(strin...\n      SWAP1 \t\t\tfunction getItemIdByName(strin...\n      PUSH [tag] 17\t\t\tfunction getItemIdByName(strin...\n      JUMP [in]\t\t\tfunction getItemIdByName(strin...\n    tag 16\t\t\tfunction getItemIdByName(strin...\n      JUMPDEST \t\t\tfunction getItemIdByName(strin...\n      PUSH 40\t\t\tfunction getItemIdByName(strin...\n      MLOAD \t\t\tfunction getItemIdByName(strin...\n      DUP1 \t\t\tfunction getItemIdByName(strin...\n      SWAP2 \t\t\tfunction getItemIdByName(strin...\n      SUB \t\t\tfunction getItemIdByName(strin...\n      SWAP1 \t\t\tfunction getItemIdByName(strin...\n      RETURN \t\t\tfunction getItemIdByName(strin...\n    tag 4\t\t\tfunction getAllItems()\\n      ...\n      JUMPDEST \t\t\tfunction getAllItems()\\n      ...\n      PUSH [tag] 18\t\t\tfunction getAllItems()\\n      ...\n      PUSH [tag] 19\t\t\tfunction getAllItems()\\n      ...\n      JUMP [in]\t\t\tfunction getAllItems()\\n      ...\n    tag 18\t\t\tfunction getAllItems()\\n      ...\n      JUMPDEST \t\t\tfunction getAllItems()\\n      ...\n      PUSH 40\t\t\tfunction getAllItems()\\n      ...\n      MLOAD \t\t\tfunction getAllItems()\\n      ...\n      PUSH [tag] 20\t\t\tfunction getAllItems()\\n      ...\n      SWAP5 \t\t\tfunction getAllItems()\\n      ...\n      SWAP4 \t\t\tfunction getAllItems()\\n      ...\n      SWAP3 \t\t\tfunction getAllItems()\\n      ...\n      SWAP2 \t\t\tfunction getAllItems()\\n      ...\n      SWAP1 \t\t\tfunction getAllItems()\\n      ...\n      PUSH [tag] 21\t\t\tfunction getAllItems()\\n      ...\n      JUMP [in]\t\t\tfunction getAllItems()\\n      ...\n    tag 20\t\t\tfunction getAllItems()\\n      ...\n      JUMPDEST \t\t\tfunction getAllItems()\\n      ...\n      PUSH 40\t\t\tfunction getAllItems()\\n      ...\n      MLOAD \t\t\tfunction getAllItems()\\n      ...\n      DUP1 \t\t\tfunction getAllItems()\\n      ...\n      SWAP2 \t\t\tfunction getAllItems()\\n      ...\n      SUB \t\t\tfunction getAllItems()\\n      ...\n      SWAP1 \t\t\tfunction getAllItems()\\n      ...\n      RETURN \t\t\tfunction getAllItems()\\n      ...\n    tag 5\t\t\tuint256 public itemCount\n      JUMPDEST \t\t\tuint256 public itemCount\n      PUSH [tag] 22\t\t\tuint256 public itemCount\n      PUSH [tag] 23\t\t\tuint256 public itemCount\n      JUMP [in]\t\t\tuint256 public itemCount\n    tag 22\t\t\tuint256 public itemCount\n      JUMPDEST \t\t\tuint256 public itemCount\n      PUSH 40\t\t\tuint256 public itemCount\n      MLOAD \t\t\tuint256 public itemCount\n      PUSH [tag] 24\t\t\tuint256 public itemCount\n      SWAP2 \t\t\tuint256 public itemCount\n      SWAP1 \t\t\tuint256 public itemCount\n      PUSH [tag] 17\t\t\tuint256 public itemCount\n      JUMP [in]\t\t\tuint256 public itemCount\n    tag 24\t\t\tuint256 public itemCount\n      JUMPDEST \t\t\tuint256 public itemCount\n      PUSH 40\t\t\tuint256 public itemCount\n      MLOAD \t\t\tuint256 public itemCount\n      DUP1 \t\t\tuint256 public itemCount\n      SWAP2 \t\t\tuint256 public itemCount\n      SUB \t\t\tuint256 public itemCount\n      SWAP1 \t\t\tuint256 public itemCount\n      RETURN \t\t\tuint256 public itemCount\n    tag 6\t\t\tfunction getItemData(uint256 _...\n      JUMPDEST \t\t\tfunction getItemData(uint256 _...\n      PUSH [tag] 25\t\t\tfunction getItemData(uint256 _...\n      PUSH 4\t\t\tfunction getItemData(uint256 _...\n      DUP1 \t\t\tfunction getItemData(uint256 _...\n      CALLDATASIZE \t\t\tfunction getItemData(uint256 _...\n      SUB \t\t\tfunction getItemData(uint256 _...\n      DUP2 \t\t\tfunction getItemData(uint256 _...\n      ADD \t\t\tfunction getItemData(uint256 _...\n      SWAP1 \t\t\tfunction getItemData(uint256 _...\n      PUSH [tag] 26\t\t\tfunction getItemData(uint256 _...\n      SWAP2 \t\t\tfunction getItemData(uint256 _...\n      SWAP1 \t\t\tfunction getItemData(uint256 _...\n      PUSH [tag] 27\t\t\tfunction getItemData(uint256 _...\n      JUMP [in]\t\t\tfunction getItemData(uint256 _...\n    tag 26\t\t\tfunction getItemData(uint256 _...\n      JUMPDEST \t\t\tfunction getItemData(uint256 _...\n      PUSH [tag] 28\t\t\tfunction getItemData(uint256 _...\n      JUMP [in]\t\t\tfunction getItemData(uint256 _...\n    tag 25\t\t\tfunction getItemData(uint256 _...\n      JUMPDEST \t\t\tfunction getItemData(uint256 _...\n      PUSH 40\t\t\tfunction getItemData(uint256 _...\n      MLOAD \t\t\tfunction getItemData(uint256 _...\n      PUSH [tag] 29\t\t\tfunction getItemData(uint256 _...\n      SWAP4 \t\t\tfunction getItemData(uint256 _...\n      SWAP3 \t\t\tfunction getItemData(uint256 _...\n      SWAP2 \t\t\tfunction getItemData(uint256 _...\n      SWAP1 \t\t\tfunction getItemData(uint256 _...\n      PUSH [tag] 30\t\t\tfunction getItemData(uint256 _...\n      JUMP [in]\t\t\tfunction getItemData(uint256 _...\n    tag 29\t\t\tfunction getItemData(uint256 _...\n      JUMPDEST \t\t\tfunction getItemData(uint256 _...\n      PUSH 40\t\t\tfunction getItemData(uint256 _...\n      MLOAD \t\t\tfunction getItemData(uint256 _...\n      DUP1 \t\t\tfunction getItemData(uint256 _...\n      SWAP2 \t\t\tfunction getItemData(uint256 _...\n      SUB \t\t\tfunction getItemData(uint256 _...\n      SWAP1 \t\t\tfunction getItemData(uint256 _...\n      RETURN \t\t\tfunction getItemData(uint256 _...\n    tag 7\t\t\taddress public owner\n      JUMPDEST \t\t\taddress public owner\n      PUSH [tag] 31\t\t\taddress public owner\n      PUSH [tag] 32\t\t\taddress public owner\n      JUMP [in]\t\t\taddress public owner\n    tag 31\t\t\taddress public owner\n      JUMPDEST \t\t\taddress public owner\n      PUSH 40\t\t\taddress public owner\n      MLOAD \t\t\taddress public owner\n      PUSH [tag] 33\t\t\taddress public owner\n      SWAP2 \t\t\taddress public owner\n      SWAP1 \t\t\taddress public owner\n      PUSH [tag] 34\t\t\taddress public owner\n      JUMP [in]\t\t\taddress public owner\n    tag 33\t\t\taddress public owner\n      JUMPDEST \t\t\taddress public owner\n      PUSH 40\t\t\taddress public owner\n      MLOAD \t\t\taddress public owner\n      DUP1 \t\t\taddress public owner\n      SWAP2 \t\t\taddress public owner\n      SUB \t\t\taddress public owner\n      SWAP1 \t\t\taddress public owner\n      RETURN \t\t\taddress public owner\n    tag 8\t\t\tmapping(uint256 => MedicalItem...\n      JUMPDEST \t\t\tmapping(uint256 => MedicalItem...\n      PUSH [tag] 35\t\t\tmapping(uint256 => MedicalItem...\n      PUSH 4\t\t\tmapping(uint256 => MedicalItem...\n      DUP1 \t\t\tmapping(uint256 => MedicalItem...\n      CALLDATASIZE \t\t\tmapping(uint256 => MedicalItem...\n      SUB \t\t\tmapping(uint256 => MedicalItem...\n      DUP2 \t\t\tmapping(uint256 => MedicalItem...\n      ADD \t\t\tmapping(uint256 => MedicalItem...\n      SWAP1 \t\t\tmapping(uint256 => MedicalItem...\n      PUSH [tag] 36\t\t\tmapping(uint256 => MedicalItem...\n      SWAP2 \t\t\tmapping(uint256 => MedicalItem...\n      SWAP1 \t\t\tmapping(uint256 => MedicalItem...\n      PUSH [tag] 27\t\t\tmapping(uint256 => MedicalItem...\n      JUMP [in]\t\t\tmapping(uint256 => MedicalItem...\n    tag 36\t\t\tmapping(uint256 => MedicalItem...\n      JUMPDEST \t\t\tmapping(uint256 => MedicalItem...\n      PUSH [tag] 37\t\t\tmapping(uint256 => MedicalItem...\n      JUMP [in]\t\t\tmapping(uint256 => MedicalItem...\n    tag 35\t\t\tmapping(uint256 => MedicalItem...\n      JUMPDEST \t\t\tmapping(uint256 => MedicalItem...\n      PUSH 40\t\t\tmapping(uint256 => MedicalItem...\n      MLOAD \t\t\tmapping(uint256 => MedicalItem...\n      PUSH [tag] 38\t\t\tmapping(uint256 => MedicalItem...\n      SWAP4 \t\t\tmapping(uint256 => MedicalItem...\n      SWAP3 \t\t\tmapping(uint256 => MedicalItem...\n      SWAP2 \t\t\tmapping(uint256 => MedicalItem...\n      SWAP1 \t\t\tmapping(uint256 => MedicalItem...\n      PUSH [tag] 30\t\t\tmapping(uint256 => MedicalItem...\n      JUMP [in]\t\t\tmapping(uint256 => MedicalItem...\n    tag 38\t\t\tmapping(uint256 => MedicalItem...\n      JUMPDEST \t\t\tmapping(uint256 => MedicalItem...\n      PUSH 40\t\t\tmapping(uint256 => MedicalItem...\n      MLOAD \t\t\tmapping(uint256 => MedicalItem...\n      DUP1 \t\t\tmapping(uint256 => MedicalItem...\n      SWAP2 \t\t\tmapping(uint256 => MedicalItem...\n      SUB \t\t\tmapping(uint256 => MedicalItem...\n      SWAP1 \t\t\tmapping(uint256 => MedicalItem...\n      RETURN \t\t\tmapping(uint256 => MedicalItem...\n    tag 9\t\t\tmapping(string => uint256) pub...\n      JUMPDEST \t\t\tmapping(string => uint256) pub...\n      PUSH [tag] 39\t\t\tmapping(string => uint256) pub...\n      PUSH 4\t\t\tmapping(string => uint256) pub...\n      DUP1 \t\t\tmapping(string => uint256) pub...\n      CALLDATASIZE \t\t\tmapping(string => uint256) pub...\n      SUB \t\t\tmapping(string => uint256) pub...\n      DUP2 \t\t\tmapping(string => uint256) pub...\n      ADD \t\t\tmapping(string => uint256) pub...\n      SWAP1 \t\t\tmapping(string => uint256) pub...\n      PUSH [tag] 40\t\t\tmapping(string => uint256) pub...\n      SWAP2 \t\t\tmapping(string => uint256) pub...\n      SWAP1 \t\t\tmapping(string => uint256) pub...\n      PUSH [tag] 14\t\t\tmapping(string => uint256) pub...\n      JUMP [in]\t\t\tmapping(string => uint256) pub...\n    tag 40\t\t\tmapping(string => uint256) pub...\n      JUMPDEST \t\t\tmapping(string => uint256) pub...\n      PUSH [tag] 41\t\t\tmapping(string => uint256) pub...\n      JUMP [in]\t\t\tmapping(string => uint256) pub...\n    tag 39\t\t\tmapping(string => uint256) pub...\n      JUMPDEST \t\t\tmapping(string => uint256) pub...\n      PUSH 40\t\t\tmapping(string => uint256) pub...\n      MLOAD \t\t\tmapping(string => uint256) pub...\n      PUSH [tag] 42\t\t\tmapping(string => uint256) pub...\n      SWAP2 \t\t\tmapping(string => uint256) pub...\n      SWAP1 \t\t\tmapping(string => uint256) pub...\n      PUSH [tag] 17\t\t\tmapping(string => uint256) pub...\n      JUMP [in]\t\t\tmapping(string => uint256) pub...\n    tag 42\t\t\tmapping(string => uint256) pub...\n      JUMPDEST \t\t\tmapping(string => uint256) pub...\n      PUSH 40\t\t\tmapping(string => uint256) pub...\n      MLOAD \t\t\tmapping(string => uint256) pub...\n      DUP1 \t\t\tmapping(string => uint256) pub...\n      SWAP2 \t\t\tmapping(string => uint256) pub...\n      SUB \t\t\tmapping(string => uint256) pub...\n      SWAP1 \t\t\tmapping(string => uint256) pub...\n      RETURN \t\t\tmapping(string => uint256) pub...\n    tag 10\t\t\tfunction addItem(string memory...\n      JUMPDEST \t\t\tfunction addItem(string memory...\n      PUSH [tag] 43\t\t\tfunction addItem(string memory...\n      PUSH 4\t\t\tfunction addItem(string memory...\n      DUP1 \t\t\tfunction addItem(string memory...\n      CALLDATASIZE \t\t\tfunction addItem(string memory...\n      SUB \t\t\tfunction addItem(string memory...\n      DUP2 \t\t\tfunction addItem(string memory...\n      ADD \t\t\tfunction addItem(string memory...\n      SWAP1 \t\t\tfunction addItem(string memory...\n      PUSH [tag] 44\t\t\tfunction addItem(string memory...\n      SWAP2 \t\t\tfunction addItem(string memory...\n      SWAP1 \t\t\tfunction addItem(string memory...\n      PUSH [tag] 45\t\t\tfunction addItem(string memory...\n      JUMP [in]\t\t\tfunction addItem(string memory...\n    tag 44\t\t\tfunction addItem(string memory...\n      JUMPDEST \t\t\tfunction addItem(string memory...\n      PUSH [tag] 46\t\t\tfunction addItem(string memory...\n      JUMP [in]\t\t\tfunction addItem(string memory...\n    tag 43\t\t\tfunction addItem(string memory...\n      JUMPDEST \t\t\tfunction addItem(string memory...\n      STOP \t\t\tfunction addItem(string memory...\n    tag 15\t\t\tfunction getItemIdByName(strin...\n      JUMPDEST \t\t\tfunction getItemIdByName(strin...\n      PUSH 0\t\t\tuint256\n      DUP1 \t\t\tuint256 itemId\n      PUSH 1\t\t\titemIdsByName\n      DUP4 \t\t\t_name\n      PUSH 40\t\t\titemIdsByName[_name]\n      MLOAD \t\t\titemIdsByName[_name]\n      PUSH [tag] 48\t\t\titemIdsByName[_name]\n      SWAP2 \t\t\titemIdsByName[_name]\n      SWAP1 \t\t\titemIdsByName[_name]\n      PUSH [tag] 49\t\t\titemIdsByName[_name]\n      JUMP [in]\t\t\titemIdsByName[_name]\n    tag 48\t\t\titemIdsByName[_name]\n      JUMPDEST \t\t\titemIdsByName[_name]\n      SWAP1 \t\t\titemIdsByName[_name]\n      DUP2 \t\t\titemIdsByName[_name]\n      MSTORE \t\t\titemIdsByName[_name]\n      PUSH 20\t\t\titemIdsByName[_name]\n      ADD \t\t\titemIdsByName[_name]\n      PUSH 40\t\t\titemIdsByName[_name]\n      MLOAD \t\t\titemIdsByName[_name]\n      DUP1 \t\t\titemIdsByName[_name]\n      SWAP2 \t\t\titemIdsByName[_name]\n      SUB \t\t\titemIdsByName[_name]\n      SWAP1 \t\t\titemIdsByName[_name]\n      KECCAK256 \t\t\titemIdsByName[_name]\n      SLOAD \t\t\titemIdsByName[_name]\n      SWAP1 \t\t\tuint256 itemId = itemIdsByName...\n      POP \t\t\tuint256 itemId = itemIdsByName...\n      PUSH 0\t\t\t0\n      DUP2 \t\t\titemId\n      GT \t\t\titemId > 0\n      PUSH [tag] 50\t\t\trequire(itemId > 0, \"Item not ...\n      JUMPI \t\t\trequire(itemId > 0, \"Item not ...\n      PUSH 40\t\t\trequire(itemId > 0, \"Item not ...\n      MLOAD \t\t\trequire(itemId > 0, \"Item not ...\n      PUSH 8C379A000000000000000000000000000000000000000000000000000000000\t\t\trequire(itemId > 0, \"Item not ...\n      DUP2 \t\t\trequire(itemId > 0, \"Item not ...\n      MSTORE \t\t\trequire(itemId > 0, \"Item not ...\n      PUSH 4\t\t\trequire(itemId > 0, \"Item not ...\n      ADD \t\t\trequire(itemId > 0, \"Item not ...\n      PUSH [tag] 51\t\t\trequire(itemId > 0, \"Item not ...\n      SWAP1 \t\t\trequire(itemId > 0, \"Item not ...\n      PUSH [tag] 52\t\t\trequire(itemId > 0, \"Item not ...\n      JUMP [in]\t\t\trequire(itemId > 0, \"Item not ...\n    tag 51\t\t\trequire(itemId > 0, \"Item not ...\n      JUMPDEST \t\t\trequire(itemId > 0, \"Item not ...\n      PUSH 40\t\t\trequire(itemId > 0, \"Item not ...\n      MLOAD \t\t\trequire(itemId > 0, \"Item not ...\n      DUP1 \t\t\trequire(itemId > 0, \"Item not ...\n      SWAP2 \t\t\trequire(itemId > 0, \"Item not ...\n      SUB \t\t\trequire(itemId > 0, \"Item not ...\n      SWAP1 \t\t\trequire(itemId > 0, \"Item not ...\n      REVERT \t\t\trequire(itemId > 0, \"Item not ...\n    tag 50\t\t\trequire(itemId > 0, \"Item not ...\n      JUMPDEST \t\t\trequire(itemId > 0, \"Item not ...\n      DUP1 \t\t\titemId\n      SWAP2 \t\t\treturn itemId\n      POP \t\t\treturn itemId\n      POP \t\t\treturn itemId\n      SWAP2 \t\t\tfunction getItemIdByName(strin...\n      SWAP1 \t\t\tfunction getItemIdByName(strin...\n      POP \t\t\tfunction getItemIdByName(strin...\n      JUMP [out]\t\t\tfunction getItemIdByName(strin...\n    tag 19\t\t\tfunction getAllItems()\\n      ...\n      JUMPDEST \t\t\tfunction getAllItems()\\n      ...\n      PUSH 60\t\t\tuint256[] memory\n      DUP1 \t\t\tstring[] memory\n      PUSH 60\t\t\tuint256[] memory\n      DUP1 \t\t\tuint256[] memory\n      PUSH 0\t\t\tuint256[] memory ids\n      PUSH 2\t\t\titemCount\n      SLOAD \t\t\titemCount\n      PUSH FFFFFFFFFFFFFFFF\t\t\tnew uint256[](itemCount)\n      DUP2 \t\t\tnew uint256[](itemCount)\n      GT \t\t\tnew uint256[](itemCount)\n      ISZERO \t\t\tnew uint256[](itemCount)\n      PUSH [tag] 54\t\t\tnew uint256[](itemCount)\n      JUMPI \t\t\tnew uint256[](itemCount)\n      PUSH 4E487B7100000000000000000000000000000000000000000000000000000000\t\t\tnew uint256[](itemCount)\n      PUSH 0\t\t\tnew uint256[](itemCount)\n      MSTORE \t\t\tnew uint256[](itemCount)\n      PUSH 41\t\t\tnew uint256[](itemCount)\n      PUSH 4\t\t\tnew uint256[](itemCount)\n      MSTORE \t\t\tnew uint256[](itemCount)\n      PUSH 24\t\t\tnew uint256[](itemCount)\n      PUSH 0\t\t\tnew uint256[](itemCount)\n      REVERT \t\t\tnew uint256[](itemCount)\n    tag 54\t\t\tnew uint256[](itemCount)\n      JUMPDEST \t\t\tnew uint256[](itemCount)\n      PUSH 40\t\t\tnew uint256[](itemCount)\n      MLOAD \t\t\tnew uint256[](itemCount)\n      SWAP1 \t\t\tnew uint256[](itemCount)\n      DUP1 \t\t\tnew uint256[](itemCount)\n      DUP3 \t\t\tnew uint256[](itemCount)\n      MSTORE \t\t\tnew uint256[](itemCount)\n      DUP1 \t\t\tnew uint256[](itemCount)\n      PUSH 20\t\t\tnew uint256[](itemCount)\n      MUL \t\t\tnew uint256[](itemCount)\n      PUSH 20\t\t\tnew uint256[](itemCount)\n      ADD \t\t\tnew uint256[](itemCount)\n      DUP3 \t\t\tnew uint256[](itemCount)\n      ADD \t\t\tnew uint256[](itemCount)\n      PUSH 40\t\t\tnew uint256[](itemCount)\n      MSTORE \t\t\tnew uint256[](itemCount)\n      DUP1 \t\t\tnew uint256[](itemCount)\n      ISZERO \t\t\tnew uint256[](itemCount)\n      PUSH [tag] 55\t\t\tnew uint256[](itemCount)\n      JUMPI \t\t\tnew uint256[](itemCount)\n      DUP2 \t\t\tnew uint256[](itemCount)\n      PUSH 20\t\t\tnew uint256[](itemCount)\n      ADD \t\t\tnew uint256[](itemCount)\n      PUSH 20\t\t\tnew uint256[](itemCount)\n      DUP3 \t\t\tnew uint256[](itemCount)\n      MUL \t\t\tnew uint256[](itemCount)\n      DUP1 \t\t\tnew uint256[](itemCount)\n      CALLDATASIZE \t\t\tnew uint256[](itemCount)\n      DUP4 \t\t\tnew uint256[](itemCount)\n      CALLDATACOPY \t\t\tnew uint256[](itemCount)\n      DUP1 \t\t\tnew uint256[](itemCount)\n      DUP3 \t\t\tnew uint256[](itemCount)\n      ADD \t\t\tnew uint256[](itemCount)\n      SWAP2 \t\t\tnew uint256[](itemCount)\n      POP \t\t\tnew uint256[](itemCount)\n      POP \t\t\tnew uint256[](itemCount)\n      SWAP1 \t\t\tnew uint256[](itemCount)\n      POP \t\t\tnew uint256[](itemCount)\n    tag 55\t\t\tnew uint256[](itemCount)\n      JUMPDEST \t\t\tnew uint256[](itemCount)\n      POP \t\t\tnew uint256[](itemCount)\n      SWAP1 \t\t\tuint256[] memory ids = new uin...\n      POP \t\t\tuint256[] memory ids = new uin...\n      PUSH 0\t\t\tstring[] memory names\n      PUSH 2\t\t\titemCount\n      SLOAD \t\t\titemCount\n      PUSH FFFFFFFFFFFFFFFF\t\t\tnew string[](itemCount)\n      DUP2 \t\t\tnew string[](itemCount)\n      GT \t\t\tnew string[](itemCount)\n      ISZERO \t\t\tnew string[](itemCount)\n      PUSH [tag] 56\t\t\tnew string[](itemCount)\n      JUMPI \t\t\tnew string[](itemCount)\n      PUSH 4E487B7100000000000000000000000000000000000000000000000000000000\t\t\tnew string[](itemCount)\n      PUSH 0\t\t\tnew string[](itemCount)\n      MSTORE \t\t\tnew string[](itemCount)\n      PUSH 41\t\t\tnew string[](itemCount)\n      PUSH 4\t\t\tnew string[](itemCount)\n      MSTORE \t\t\tnew string[](itemCount)\n      PUSH 24\t\t\tnew string[](itemCount)\n      PUSH 0\t\t\tnew string[](itemCount)\n      REVERT \t\t\tnew string[](itemCount)\n    tag 56\t\t\tnew string[](itemCount)\n      JUMPDEST \t\t\tnew string[](itemCount)\n      PUSH 40\t\t\tnew string[](itemCount)\n      MLOAD \t\t\tnew string[](itemCount)\n      SWAP1 \t\t\tnew string[](itemCount)\n      DUP1 \t\t\tnew string[](itemCount)\n      DUP3 \t\t\tnew string[](itemCount)\n      MSTORE \t\t\tnew string[](itemCount)\n      DUP1 \t\t\tnew string[](itemCount)\n      PUSH 20\t\t\tnew string[](itemCount)\n      MUL \t\t\tnew string[](itemCount)\n      PUSH 20\t\t\tnew string[](itemCount)\n      ADD \t\t\tnew string[](itemCount)\n      DUP3 \t\t\tnew string[](itemCount)\n      ADD \t\t\tnew string[](itemCount)\n      PUSH 40\t\t\tnew string[](itemCount)\n      MSTORE \t\t\tnew string[](itemCount)\n      DUP1 \t\t\tnew string[](itemCount)\n      ISZERO \t\t\tnew string[](itemCount)\n      PUSH [tag] 57\t\t\tnew string[](itemCount)\n      JUMPI \t\t\tnew string[](itemCount)\n      DUP2 \t\t\tnew string[](itemCount)\n      PUSH 20\t\t\tnew string[](itemCount)\n      ADD \t\t\tnew string[](itemCount)\n    tag 58\t\t\tnew string[](itemCount)\n      JUMPDEST \t\t\tnew string[](itemCount)\n      PUSH 60\t\t\tnew string[](itemCount)\n      DUP2 \t\t\tnew string[](itemCount)\n      MSTORE \t\t\tnew string[](itemCount)\n      PUSH 20\t\t\tnew string[](itemCount)\n      ADD \t\t\tnew string[](itemCount)\n      SWAP1 \t\t\tnew string[](itemCount)\n      PUSH 1\t\t\tnew string[](itemCount)\n      SWAP1 \t\t\tnew string[](itemCount)\n      SUB \t\t\tnew string[](itemCount)\n      SWAP1 \t\t\tnew string[](itemCount)\n      DUP2 \t\t\tnew string[](itemCount)\n      PUSH [tag] 58\t\t\tnew string[](itemCount)\n      JUMPI \t\t\tnew string[](itemCount)\n      SWAP1 \t\t\tnew string[](itemCount)\n      POP \t\t\tnew string[](itemCount)\n    tag 57\t\t\tnew string[](itemCount)\n      JUMPDEST \t\t\tnew string[](itemCount)\n      POP \t\t\tnew string[](itemCount)\n      SWAP1 \t\t\tstring[] memory names = new st...\n      POP \t\t\tstring[] memory names = new st...\n      PUSH 0\t\t\tuint256[] memory quantities\n      PUSH 2\t\t\titemCount\n      SLOAD \t\t\titemCount\n      PUSH FFFFFFFFFFFFFFFF\t\t\tnew uint256[](itemCount)\n      DUP2 \t\t\tnew uint256[](itemCount)\n      GT \t\t\tnew uint256[](itemCount)\n      ISZERO \t\t\tnew uint256[](itemCount)\n      PUSH [tag] 59\t\t\tnew uint256[](itemCount)\n      JUMPI \t\t\tnew uint256[](itemCount)\n      PUSH 4E487B7100000000000000000000000000000000000000000000000000000000\t\t\tnew uint256[](itemCount)\n      PUSH 0\t\t\tnew uint256[](itemCount)\n      MSTORE \t\t\tnew uint256[](itemCount)\n      PUSH 41\t\t\tnew uint256[](itemCount)\n      PUSH 4\t\t\tnew uint256[](itemCount)\n      MSTORE \t\t\tnew uint256[](itemCount)\n      PUSH 24\t\t\tnew uint256[](itemCount)\n      PUSH 0\t\t\tnew uint256[](itemCount)\n      REVERT \t\t\tnew uint256[](itemCount)\n    tag 59\t\t\tnew uint256[](itemCount)\n      JUMPDEST \t\t\tnew uint256[](itemCount)\n      PUSH 40\t\t\tnew uint256[](itemCount)\n      MLOAD \t\t\tnew uint256[](itemCount)\n      SWAP1 \t\t\tnew uint256[](itemCount)\n      DUP1 \t\t\tnew uint256[](itemCount)\n      DUP3 \t\t\tnew uint256[](itemCount)\n      MSTORE \t\t\tnew uint256[](itemCount)\n      DUP1 \t\t\tnew uint256[](itemCount)\n      PUSH 20\t\t\tnew uint256[](itemCount)\n      MUL \t\t\tnew uint256[](itemCount)\n      PUSH 20\t\t\tnew uint256[](itemCount)\n      ADD \t\t\tnew uint256[](itemCount)\n      DUP3 \t\t\tnew uint256[](itemCount)\n      ADD \t\t\tnew uint256[](itemCount)\n      PUSH 40\t\t\tnew uint256[](itemCount)\n      MSTORE \t\t\tnew uint256[](itemCount)\n      DUP1 \t\t\tnew uint256[](itemCount)\n      ISZERO \t\t\tnew uint256[](itemCount)\n      PUSH [tag] 60\t\t\tnew uint256[](itemCount)\n      JUMPI \t\t\tnew uint256[](itemCount)\n      DUP2 \t\t\tnew uint256[](itemCount)\n      PUSH 20\t\t\tnew uint256[](itemCount)\n      ADD \t\t\tnew uint256[](itemCount)\n      PUSH 20\t\t\tnew uint256[](itemCount)\n      DUP3 \t\t\tnew uint256[](itemCount)\n      MUL \t\t\tnew uint256[](itemCount)\n      DUP1 \t\t\tnew uint256[](itemCount)\n      CALLDATASIZE \t\t\tnew uint256[](itemCount)\n      DUP4 \t\t\tnew uint256[](itemCount)\n      CALLDATACOPY \t\t\tnew uint256[](itemCount)\n      DUP1 \t\t\tnew uint256[](itemCount)\n      DUP3 \t\t\tnew uint256[](itemCount)\n      ADD \t\t\tnew uint256[](itemCount)\n      SWAP2 \t\t\tnew uint256[](itemCount)\n      POP \t\t\tnew uint256[](itemCount)\n      POP \t\t\tnew uint256[](itemCount)\n      SWAP1 \t\t\tnew uint256[](itemCount)\n      POP \t\t\tnew uint256[](itemCount)\n    tag 60\t\t\tnew uint256[](itemCount)\n      JUMPDEST \t\t\tnew uint256[](itemCount)\n      POP \t\t\tnew uint256[](itemCount)\n      SWAP1 \t\t\tuint256[] memory quantities = ...\n      POP \t\t\tuint256[] memory quantities = ...\n      PUSH 0\t\t\tuint256[] memory prices\n      PUSH 2\t\t\titemCount\n      SLOAD \t\t\titemCount\n      PUSH FFFFFFFFFFFFFFFF\t\t\tnew uint256[](itemCount)\n      DUP2 \t\t\tnew uint256[](itemCount)\n      GT \t\t\tnew uint256[](itemCount)\n      ISZERO \t\t\tnew uint256[](itemCount)\n      PUSH [tag] 61\t\t\tnew uint256[](itemCount)\n      JUMPI \t\t\tnew uint256[](itemCount)\n      PUSH 4E487B7100000000000000000000000000000000000000000000000000000000\t\t\tnew uint256[](itemCount)\n      PUSH 0\t\t\tnew uint256[](itemCount)\n      MSTORE \t\t\tnew uint256[](itemCount)\n      PUSH 41\t\t\tnew uint256[](itemCount)\n      PUSH 4\t\t\tnew uint256[](itemCount)\n      MSTORE \t\t\tnew uint256[](itemCount)\n      PUSH 24\t\t\tnew uint256[](itemCount)\n      PUSH 0\t\t\tnew uint256[](itemCount)\n      REVERT \t\t\tnew uint256[](itemCount)\n    tag 61\t\t\tnew uint256[](itemCount)\n      JUMPDEST \t\t\tnew uint256[](itemCount)\n      PUSH 40\t\t\tnew uint256[](itemCount)\n      MLOAD \t\t\tnew uint256[](itemCount)\n      SWAP1 \t\t\tnew uint256[](itemCount)\n      DUP1 \t\t\tnew uint256[](itemCount)\n      DUP3 \t\t\tnew uint256[](itemCount)\n      MSTORE \t\t\tnew uint256[](itemCount)\n      DUP1 \t\t\tnew uint256[](itemCount)\n      PUSH 20\t\t\tnew uint256[](itemCount)\n      MUL \t\t\tnew uint256[](itemCount)\n      PUSH 20\t\t\tnew uint256[](itemCount)\n      ADD \t\t\tnew uint256[](itemCount)\n      DUP3 \t\t\tnew uint256[](itemCount)\n      ADD \t\t\tnew uint256[](itemCount)\n      PUSH 40\t\t\tnew uint256[](itemCount)\n      MSTORE \t\t\tnew uint256[](itemCount)\n      DUP1 \t\t\tnew uint256[](itemCount)\n      ISZERO \t\t\tnew uint256[](itemCount)\n      PUSH [tag] 62\t\t\tnew uint256[](itemCount)\n      JUMPI \t\t\tnew uint256[](itemCount)\n      DUP2 \t\t\tnew uint256[](itemCount)\n      PUSH 20\t\t\tnew uint256[](itemCount)\n      ADD \t\t\tnew uint256[](itemCount)\n      PUSH 20\t\t\tnew uint256[](itemCount)\n      DUP3 \t\t\tnew uint256[](itemCount)\n      MUL \t\t\tnew uint256[](itemCount)\n      DUP1 \t\t\tnew uint256[](itemCount)\n      CALLDATASIZE \t\t\tnew uint256[](itemCount)\n      DUP4 \t\t\tnew uint256[](itemCount)\n      CALLDATACOPY \t\t\tnew uint256[](itemCount)\n      DUP1 \t\t\tnew uint256[](itemCount)\n      DUP3 \t\t\tnew uint256[](itemCount)\n      ADD \t\t\tnew uint256[](itemCount)\n      SWAP2 \t\t\tnew uint256[](itemCount)\n      POP \t\t\tnew uint256[](itemCount)\n      POP \t\t\tnew uint256[](itemCount)\n      SWAP1 \t\t\tnew uint256[](itemCount)\n      POP \t\t\tnew uint256[](itemCount)\n    tag 62\t\t\tnew uint256[](itemCount)\n      JUMPDEST \t\t\tnew uint256[](itemCount)\n      POP \t\t\tnew uint256[](itemCount)\n      SWAP1 \t\t\tuint256[] memory prices = new ...\n      POP \t\t\tuint256[] memory prices = new ...\n      PUSH 0\t\t\tuint256 i\n      PUSH 1\t\t\t1\n      SWAP1 \t\t\tuint256 i = 1\n      POP \t\t\tuint256 i = 1\n    tag 63\t\t\tfor (uint256 i = 1; i <= itemC...\n      JUMPDEST \t\t\tfor (uint256 i = 1; i <= itemC...\n      PUSH 2\t\t\titemCount\n      SLOAD \t\t\titemCount\n      DUP2 \t\t\ti\n      GT \t\t\ti <= itemCount\n      PUSH [tag] 64\t\t\tfor (uint256 i = 1; i <= itemC...\n      JUMPI \t\t\tfor (uint256 i = 1; i <= itemC...\n      DUP1 \t\t\ti\n      DUP6 \t\t\tids\n      PUSH 1\t\t\t1\n      DUP4 \t\t\ti\n      PUSH [tag] 66\t\t\ti - 1\n      SWAP2 \t\t\ti - 1\n      SWAP1 \t\t\ti - 1\n      PUSH [tag] 67\t\t\ti - 1\n      JUMP [in]\t\t\ti - 1\n    tag 66\t\t\ti - 1\n      JUMPDEST \t\t\ti - 1\n      DUP2 \t\t\tids[i - 1]\n      MLOAD \t\t\tids[i - 1]\n      DUP2 \t\t\tids[i - 1]\n      LT \t\t\tids[i - 1]\n      PUSH [tag] 68\t\t\tids[i - 1]\n      JUMPI \t\t\tids[i - 1]\n      PUSH 4E487B7100000000000000000000000000000000000000000000000000000000\t\t\tids[i - 1]\n      PUSH 0\t\t\tids[i - 1]\n      MSTORE \t\t\tids[i - 1]\n      PUSH 32\t\t\tids[i - 1]\n      PUSH 4\t\t\tids[i - 1]\n      MSTORE \t\t\tids[i - 1]\n      PUSH 24\t\t\tids[i - 1]\n      PUSH 0\t\t\tids[i - 1]\n      REVERT \t\t\tids[i - 1]\n    tag 68\t\t\tids[i - 1]\n      JUMPDEST \t\t\tids[i - 1]\n      PUSH 20\t\t\tids[i - 1]\n      MUL \t\t\tids[i - 1]\n      PUSH 20\t\t\tids[i - 1]\n      ADD \t\t\tids[i - 1]\n      ADD \t\t\tids[i - 1]\n      DUP2 \t\t\tids[i - 1] = i\n      DUP2 \t\t\tids[i - 1] = i\n      MSTORE \t\t\tids[i - 1] = i\n      POP \t\t\tids[i - 1] = i\n      POP \t\t\tids[i - 1] = i\n      PUSH 0\t\t\titems\n      DUP1 \t\t\titems[i]\n      DUP3 \t\t\ti\n      DUP2 \t\t\titems[i]\n      MSTORE \t\t\titems[i]\n      PUSH 20\t\t\titems[i]\n      ADD \t\t\titems[i]\n      SWAP1 \t\t\titems[i]\n      DUP2 \t\t\titems[i]\n      MSTORE \t\t\titems[i]\n      PUSH 20\t\t\titems[i]\n      ADD \t\t\titems[i]\n      PUSH 0\t\t\titems[i]\n      KECCAK256 \t\t\titems[i]\n      PUSH 0\t\t\titems[i].name\n      ADD \t\t\titems[i].name\n      DUP1 \t\t\tnames[i - 1] = items[i].name\n      SLOAD \t\t\tnames[i - 1] = items[i].name\n      PUSH [tag] 69\t\t\tnames[i - 1] = items[i].name\n      SWAP1 \t\t\tnames[i - 1] = items[i].name\n      PUSH [tag] 70\t\t\tnames[i - 1] = items[i].name\n      JUMP [in]\t\t\tnames[i - 1] = items[i].name\n    tag 69\t\t\tnames[i - 1] = items[i].name\n      JUMPDEST \t\t\tnames[i - 1] = items[i].name\n      DUP1 \t\t\tnames[i - 1] = items[i].name\n      PUSH 1F\t\t\tnames[i - 1] = items[i].name\n      ADD \t\t\tnames[i - 1] = items[i].name\n      PUSH 20\t\t\tnames[i - 1] = items[i].name\n      DUP1 \t\t\tnames[i - 1] = items[i].name\n      SWAP2 \t\t\tnames[i - 1] = items[i].name\n      DIV \t\t\tnames[i - 1] = items[i].name\n      MUL \t\t\tnames[i - 1] = items[i].name\n      PUSH 20\t\t\tnames[i - 1] = items[i].name\n      ADD \t\t\tnames[i - 1] = items[i].name\n      PUSH 40\t\t\tnames[i - 1] = items[i].name\n      MLOAD \t\t\tnames[i - 1] = items[i].name\n      SWAP1 \t\t\tnames[i - 1] = items[i].name\n      DUP2 \t\t\tnames[i - 1] = items[i].name\n      ADD \t\t\tnames[i - 1] = items[i].name\n      PUSH 40\t\t\tnames[i - 1] = items[i].name\n      MSTORE \t\t\tnames[i - 1] = items[i].name\n      DUP1 \t\t\tnames[i - 1] = items[i].name\n      SWAP3 \t\t\tnames[i - 1] = items[i].name\n      SWAP2 \t\t\tnames[i - 1] = items[i].name\n      SWAP1 \t\t\tnames[i - 1] = items[i].name\n      DUP2 \t\t\tnames[i - 1] = items[i].name\n      DUP2 \t\t\tnames[i - 1] = items[i].name\n      MSTORE \t\t\tnames[i - 1] = items[i].name\n      PUSH 20\t\t\tnames[i - 1] = items[i].name\n      ADD \t\t\tnames[i - 1] = items[i].name\n      DUP3 \t\t\tnames[i - 1] = items[i].name\n      DUP1 \t\t\tnames[i - 1] = items[i].name\n      SLOAD \t\t\tnames[i - 1] = items[i].name\n      PUSH [tag] 71\t\t\tnames[i - 1] = items[i].name\n      SWAP1 \t\t\tnames[i - 1] = items[i].name\n      PUSH [tag] 70\t\t\tnames[i - 1] = items[i].name\n      JUMP [in]\t\t\tnames[i - 1] = items[i].name\n    tag 71\t\t\tnames[i - 1] = items[i].name\n      JUMPDEST \t\t\tnames[i - 1] = items[i].name\n      DUP1 \t\t\tnames[i - 1] = items[i].name\n      ISZERO \t\t\tnames[i - 1] = items[i].name\n      PUSH [tag] 72\t\t\tnames[i - 1] = items[i].name\n      JUMPI \t\t\tnames[i - 1] = items[i].name\n      DUP1 \t\t\tnames[i - 1] = items[i].name\n      PUSH 1F\t\t\tnames[i - 1] = items[i].name\n      LT \t\t\tnames[i - 1] = items[i].name\n      PUSH [tag] 73\t\t\tnames[i - 1] = items[i].name\n      JUMPI \t\t\tnames[i - 1] = items[i].name\n      PUSH 100\t\t\tnames[i - 1] = items[i].name\n      DUP1 \t\t\tnames[i - 1] = items[i].name\n      DUP4 \t\t\tnames[i - 1] = items[i].name\n      SLOAD \t\t\tnames[i - 1] = items[i].name\n      DIV \t\t\tnames[i - 1] = items[i].name\n      MUL \t\t\tnames[i - 1] = items[i].name\n      DUP4 \t\t\tnames[i - 1] = items[i].name\n      MSTORE \t\t\tnames[i - 1] = items[i].name\n      SWAP2 \t\t\tnames[i - 1] = items[i].name\n      PUSH 20\t\t\tnames[i - 1] = items[i].name\n      ADD \t\t\tnames[i - 1] = items[i].name\n      SWAP2 \t\t\tnames[i - 1] = items[i].name\n      PUSH [tag] 72\t\t\tnames[i - 1] = items[i].name\n      JUMP \t\t\tnames[i - 1] = items[i].name\n    tag 73\t\t\tnames[i - 1] = items[i].name\n      JUMPDEST \t\t\tnames[i - 1] = items[i].name\n      DUP3 \t\t\tnames[i - 1] = items[i].name\n      ADD \t\t\tnames[i - 1] = items[i].name\n      SWAP2 \t\t\tnames[i - 1] = items[i].name\n      SWAP1 \t\t\tnames[i - 1] = items[i].name\n      PUSH 0\t\t\tnames[i - 1] = items[i].name\n      MSTORE \t\t\tnames[i - 1] = items[i].name\n      PUSH 20\t\t\tnames[i - 1] = items[i].name\n      PUSH 0\t\t\tnames[i - 1] = items[i].name\n      KECCAK256 \t\t\tnames[i - 1] = items[i].name\n      SWAP1 \t\t\tnames[i - 1] = items[i].name\n    tag 74\t\t\tnames[i - 1] = items[i].name\n      JUMPDEST \t\t\tnames[i - 1] = items[i].name\n      DUP2 \t\t\tnames[i - 1] = items[i].name\n      SLOAD \t\t\tnames[i - 1] = items[i].name\n      DUP2 \t\t\tnames[i - 1] = items[i].name\n      MSTORE \t\t\tnames[i - 1] = items[i].name\n      SWAP1 \t\t\tnames[i - 1] = items[i].name\n      PUSH 1\t\t\tnames[i - 1] = items[i].name\n      ADD \t\t\tnames[i - 1] = items[i].name\n      SWAP1 \t\t\tnames[i - 1] = items[i].name\n      PUSH 20\t\t\tnames[i - 1] = items[i].name\n      ADD \t\t\tnames[i - 1] = items[i].name\n      DUP1 \t\t\tnames[i - 1] = items[i].name\n      DUP4 \t\t\tnames[i - 1] = items[i].name\n      GT \t\t\tnames[i - 1] = items[i].name\n      PUSH [tag] 74\t\t\tnames[i - 1] = items[i].name\n      JUMPI \t\t\tnames[i - 1] = items[i].name\n      DUP3 \t\t\tnames[i - 1] = items[i].name\n      SWAP1 \t\t\tnames[i - 1] = items[i].name\n      SUB \t\t\tnames[i - 1] = items[i].name\n      PUSH 1F\t\t\tnames[i - 1] = items[i].name\n      AND \t\t\tnames[i - 1] = items[i].name\n      DUP3 \t\t\tnames[i - 1] = items[i].name\n      ADD \t\t\tnames[i - 1] = items[i].name\n      SWAP2 \t\t\tnames[i - 1] = items[i].name\n    tag 72\t\t\tnames[i - 1] = items[i].name\n      JUMPDEST \t\t\tnames[i - 1] = items[i].name\n      POP \t\t\tnames[i - 1] = items[i].name\n      POP \t\t\tnames[i - 1] = items[i].name\n      POP \t\t\tnames[i - 1] = items[i].name\n      POP \t\t\tnames[i - 1] = items[i].name\n      POP \t\t\tnames[i - 1] = items[i].name\n      DUP5 \t\t\tnames\n      PUSH 1\t\t\t1\n      DUP4 \t\t\ti\n      PUSH [tag] 75\t\t\ti - 1\n      SWAP2 \t\t\ti - 1\n      SWAP1 \t\t\ti - 1\n      PUSH [tag] 67\t\t\ti - 1\n      JUMP [in]\t\t\ti - 1\n    tag 75\t\t\ti - 1\n      JUMPDEST \t\t\ti - 1\n      DUP2 \t\t\tnames[i - 1]\n      MLOAD \t\t\tnames[i - 1]\n      DUP2 \t\t\tnames[i - 1]\n      LT \t\t\tnames[i - 1]\n      PUSH [tag] 76\t\t\tnames[i - 1]\n      JUMPI \t\t\tnames[i - 1]\n      PUSH 4E487B7100000000000000000000000000000000000000000000000000000000\t\t\tnames[i - 1]\n      PUSH 0\t\t\tnames[i - 1]\n      MSTORE \t\t\tnames[i - 1]\n      PUSH 32\t\t\tnames[i - 1]\n      PUSH 4\t\t\tnames[i - 1]\n      MSTORE \t\t\tnames[i - 1]\n      PUSH 24\t\t\tnames[i - 1]\n      PUSH 0\t\t\tnames[i - 1]\n      REVERT \t\t\tnames[i - 1]\n    tag 76\t\t\tnames[i - 1]\n      JUMPDEST \t\t\tnames[i - 1]\n      PUSH 20\t\t\tnames[i - 1]\n      MUL \t\t\tnames[i - 1]\n      PUSH 20\t\t\tnames[i - 1]\n      ADD \t\t\tnames[i - 1]\n      ADD \t\t\tnames[i - 1]\n      DUP2 \t\t\tnames[i - 1] = items[i].name\n      SWAP1 \t\t\tnames[i - 1] = items[i].name\n      MSTORE \t\t\tnames[i - 1] = items[i].name\n      POP \t\t\tnames[i - 1] = items[i].name\n      PUSH 0\t\t\titems\n      DUP1 \t\t\titems[i]\n      DUP3 \t\t\ti\n      DUP2 \t\t\titems[i]\n      MSTORE \t\t\titems[i]\n      PUSH 20\t\t\titems[i]\n      ADD \t\t\titems[i]\n      SWAP1 \t\t\titems[i]\n      DUP2 \t\t\titems[i]\n      MSTORE \t\t\titems[i]\n      PUSH 20\t\t\titems[i]\n      ADD \t\t\titems[i]\n      PUSH 0\t\t\titems[i]\n      KECCAK256 \t\t\titems[i]\n      PUSH 1\t\t\titems[i].quantity\n      ADD \t\t\titems[i].quantity\n      SLOAD \t\t\titems[i].quantity\n      DUP4 \t\t\tquantities\n      PUSH 1\t\t\t1\n      DUP4 \t\t\ti\n      PUSH [tag] 77\t\t\ti - 1\n      SWAP2 \t\t\ti - 1\n      SWAP1 \t\t\ti - 1\n      PUSH [tag] 67\t\t\ti - 1\n      JUMP [in]\t\t\ti - 1\n    tag 77\t\t\ti - 1\n      JUMPDEST \t\t\ti - 1\n      DUP2 \t\t\tquantities[i - 1]\n      MLOAD \t\t\tquantities[i - 1]\n      DUP2 \t\t\tquantities[i - 1]\n      LT \t\t\tquantities[i - 1]\n      PUSH [tag] 78\t\t\tquantities[i - 1]\n      JUMPI \t\t\tquantities[i - 1]\n      PUSH 4E487B7100000000000000000000000000000000000000000000000000000000\t\t\tquantities[i - 1]\n      PUSH 0\t\t\tquantities[i - 1]\n      MSTORE \t\t\tquantities[i - 1]\n      PUSH 32\t\t\tquantities[i - 1]\n      PUSH 4\t\t\tquantities[i - 1]\n      MSTORE \t\t\tquantities[i - 1]\n      PUSH 24\t\t\tquantities[i - 1]\n      PUSH 0\t\t\tquantities[i - 1]\n      REVERT \t\t\tquantities[i - 1]\n    tag 78\t\t\tquantities[i - 1]\n      JUMPDEST \t\t\tquantities[i - 1]\n      PUSH 20\t\t\tquantities[i - 1]\n      MUL \t\t\tquantities[i - 1]\n      PUSH 20\t\t\tquantities[i - 1]\n      ADD \t\t\tquantities[i - 1]\n      ADD \t\t\tquantities[i - 1]\n      DUP2 \t\t\tquantities[i - 1] = items[i].q...\n      DUP2 \t\t\tquantities[i - 1] = items[i].q...\n      MSTORE \t\t\tquantities[i - 1] = items[i].q...\n      POP \t\t\tquantities[i - 1] = items[i].q...\n      POP \t\t\tquantities[i - 1] = items[i].q...\n      PUSH 0\t\t\titems\n      DUP1 \t\t\titems[i]\n      DUP3 \t\t\ti\n      DUP2 \t\t\titems[i]\n      MSTORE \t\t\titems[i]\n      PUSH 20\t\t\titems[i]\n      ADD \t\t\titems[i]\n      SWAP1 \t\t\titems[i]\n      DUP2 \t\t\titems[i]\n      MSTORE \t\t\titems[i]\n      PUSH 20\t\t\titems[i]\n      ADD \t\t\titems[i]\n      PUSH 0\t\t\titems[i]\n      KECCAK256 \t\t\titems[i]\n      PUSH 2\t\t\titems[i].price\n      ADD \t\t\titems[i].price\n      SLOAD \t\t\titems[i].price\n      DUP3 \t\t\tprices\n      PUSH 1\t\t\t1\n      DUP4 \t\t\ti\n      PUSH [tag] 79\t\t\ti - 1\n      SWAP2 \t\t\ti - 1\n      SWAP1 \t\t\ti - 1\n      PUSH [tag] 67\t\t\ti - 1\n      JUMP [in]\t\t\ti - 1\n    tag 79\t\t\ti - 1\n      JUMPDEST \t\t\ti - 1\n      DUP2 \t\t\tprices[i - 1]\n      MLOAD \t\t\tprices[i - 1]\n      DUP2 \t\t\tprices[i - 1]\n      LT \t\t\tprices[i - 1]\n      PUSH [tag] 80\t\t\tprices[i - 1]\n      JUMPI \t\t\tprices[i - 1]\n      PUSH 4E487B7100000000000000000000000000000000000000000000000000000000\t\t\tprices[i - 1]\n      PUSH 0\t\t\tprices[i - 1]\n      MSTORE \t\t\tprices[i - 1]\n      PUSH 32\t\t\tprices[i - 1]\n      PUSH 4\t\t\tprices[i - 1]\n      MSTORE \t\t\tprices[i - 1]\n      PUSH 24\t\t\tprices[i - 1]\n      PUSH 0\t\t\tprices[i - 1]\n      REVERT \t\t\tprices[i - 1]\n    tag 80\t\t\tprices[i - 1]\n      JUMPDEST \t\t\tprices[i - 1]\n      PUSH 20\t\t\tprices[i - 1]\n      MUL \t\t\tprices[i - 1]\n      PUSH 20\t\t\tprices[i - 1]\n      ADD \t\t\tprices[i - 1]\n      ADD \t\t\tprices[i - 1]\n      DUP2 \t\t\tprices[i - 1] = items[i].price\n      DUP2 \t\t\tprices[i - 1] = items[i].price\n      MSTORE \t\t\tprices[i - 1] = items[i].price\n      POP \t\t\tprices[i - 1] = items[i].price\n      POP \t\t\tprices[i - 1] = items[i].price\n      DUP1 \t\t\ti++\n      DUP1 \t\t\ti++\n      PUSH [tag] 81\t\t\ti++\n      SWAP1 \t\t\ti++\n      PUSH [tag] 82\t\t\ti++\n      JUMP [in]\t\t\ti++\n    tag 81\t\t\ti++\n      JUMPDEST \t\t\ti++\n      SWAP2 \t\t\ti++\n      POP \t\t\ti++\n      POP \t\t\ti++\n      PUSH [tag] 63\t\t\tfor (uint256 i = 1; i <= itemC...\n      JUMP \t\t\tfor (uint256 i = 1; i <= itemC...\n    tag 64\t\t\tfor (uint256 i = 1; i <= itemC...\n      JUMPDEST \t\t\tfor (uint256 i = 1; i <= itemC...\n      POP \t\t\tfor (uint256 i = 1; i <= itemC...\n      DUP4 \t\t\tids\n      DUP4 \t\t\tnames\n      DUP4 \t\t\tquantities\n      DUP4 \t\t\tprices\n      SWAP8 \t\t\treturn (ids, names, quantities...\n      POP \t\t\treturn (ids, names, quantities...\n      SWAP8 \t\t\treturn (ids, names, quantities...\n      POP \t\t\treturn (ids, names, quantities...\n      SWAP8 \t\t\treturn (ids, names, quantities...\n      POP \t\t\treturn (ids, names, quantities...\n      SWAP8 \t\t\treturn (ids, names, quantities...\n      POP \t\t\treturn (ids, names, quantities...\n      POP \t\t\treturn (ids, names, quantities...\n      POP \t\t\treturn (ids, names, quantities...\n      POP \t\t\treturn (ids, names, quantities...\n      POP \t\t\treturn (ids, names, quantities...\n      SWAP1 \t\t\tfunction getAllItems()\\n      ...\n      SWAP2 \t\t\tfunction getAllItems()\\n      ...\n      SWAP3 \t\t\tfunction getAllItems()\\n      ...\n      SWAP4 \t\t\tfunction getAllItems()\\n      ...\n      JUMP [out]\t\t\tfunction getAllItems()\\n      ...\n    tag 23\t\t\tuint256 public itemCount\n      JUMPDEST \t\t\tuint256 public itemCount\n      PUSH 2\t\t\tuint256 public itemCount\n      SLOAD \t\t\tuint256 public itemCount\n      DUP2 \t\t\tuint256 public itemCount\n      JUMP [out]\t\t\tuint256 public itemCount\n    tag 28\t\t\tfunction getItemData(uint256 _...\n      JUMPDEST \t\t\tfunction getItemData(uint256 _...\n      PUSH 60\t\t\tstring memory name\n      PUSH 0\t\t\tuint256 quantity\n      DUP1 \t\t\tuint256 price\n      PUSH 0\t\t\t0\n      DUP5 \t\t\t_itemId\n      GT \t\t\t_itemId > 0\n      DUP1 \t\t\t_itemId > 0 && _itemId <= item...\n      ISZERO \t\t\t_itemId > 0 && _itemId <= item...\n      PUSH [tag] 84\t\t\t_itemId > 0 && _itemId <= item...\n      JUMPI \t\t\t_itemId > 0 && _itemId <= item...\n      POP \t\t\t_itemId > 0 && _itemId <= item...\n      PUSH 2\t\t\titemCount\n      SLOAD \t\t\titemCount\n      DUP5 \t\t\t_itemId\n      GT \t\t\t_itemId <= itemCount\n      ISZERO \t\t\t_itemId <= itemCount\n    tag 84\t\t\t_itemId > 0 && _itemId <= item...\n      JUMPDEST \t\t\t_itemId > 0 && _itemId <= item...\n      PUSH [tag] 85\t\t\trequire(_itemId > 0 && _itemId...\n      JUMPI \t\t\trequire(_itemId > 0 && _itemId...\n      PUSH 40\t\t\trequire(_itemId > 0 && _itemId...\n      MLOAD \t\t\trequire(_itemId > 0 && _itemId...\n      PUSH 8C379A000000000000000000000000000000000000000000000000000000000\t\t\trequire(_itemId > 0 && _itemId...\n      DUP2 \t\t\trequire(_itemId > 0 && _itemId...\n      MSTORE \t\t\trequire(_itemId > 0 && _itemId...\n      PUSH 4\t\t\trequire(_itemId > 0 && _itemId...\n      ADD \t\t\trequire(_itemId > 0 && _itemId...\n      PUSH [tag] 86\t\t\trequire(_itemId > 0 && _itemId...\n      SWAP1 \t\t\trequire(_itemId > 0 && _itemId...\n      PUSH [tag] 87\t\t\trequire(_itemId > 0 && _itemId...\n      JUMP [in]\t\t\trequire(_itemId > 0 && _itemId...\n    tag 86\t\t\trequire(_itemId > 0 && _itemId...\n      JUMPDEST \t\t\trequire(_itemId > 0 && _itemId...\n      PUSH 40\t\t\trequire(_itemId > 0 && _itemId...\n      MLOAD \t\t\trequire(_itemId > 0 && _itemId...\n      DUP1 \t\t\trequire(_itemId > 0 && _itemId...\n      SWAP2 \t\t\trequire(_itemId > 0 && _itemId...\n      SUB \t\t\trequire(_itemId > 0 && _itemId...\n      SWAP1 \t\t\trequire(_itemId > 0 && _itemId...\n      REVERT \t\t\trequire(_itemId > 0 && _itemId...\n    tag 85\t\t\trequire(_itemId > 0 && _itemId...\n      JUMPDEST \t\t\trequire(_itemId > 0 && _itemId...\n      PUSH 0\t\t\tMedicalItem storage item\n      DUP1 \t\t\titems\n      PUSH 0\t\t\titems[_itemId]\n      DUP7 \t\t\t_itemId\n      DUP2 \t\t\titems[_itemId]\n      MSTORE \t\t\titems[_itemId]\n      PUSH 20\t\t\titems[_itemId]\n      ADD \t\t\titems[_itemId]\n      SWAP1 \t\t\titems[_itemId]\n      DUP2 \t\t\titems[_itemId]\n      MSTORE \t\t\titems[_itemId]\n      PUSH 20\t\t\titems[_itemId]\n      ADD \t\t\titems[_itemId]\n      PUSH 0\t\t\titems[_itemId]\n      KECCAK256 \t\t\titems[_itemId]\n      SWAP1 \t\t\tMedicalItem storage item = ite...\n      POP \t\t\tMedicalItem storage item = ite...\n      DUP1 \t\t\titem\n      PUSH 0\t\t\titem.name\n      ADD \t\t\titem.name\n      DUP2 \t\t\titem\n      PUSH 1\t\t\titem.quantity\n      ADD \t\t\titem.quantity\n      SLOAD \t\t\titem.quantity\n      DUP3 \t\t\titem\n      PUSH 2\t\t\titem.price\n      ADD \t\t\titem.price\n      SLOAD \t\t\titem.price\n      DUP3 \t\t\treturn (item.name, item.quanti...\n      DUP1 \t\t\treturn (item.name, item.quanti...\n      SLOAD \t\t\treturn (item.name, item.quanti...\n      PUSH [tag] 88\t\t\treturn (item.name, item.quanti...\n      SWAP1 \t\t\treturn (item.name, item.quanti...\n      PUSH [tag] 70\t\t\treturn (item.name, item.quanti...\n      JUMP [in]\t\t\treturn (item.name, item.quanti...\n    tag 88\t\t\treturn (item.name, item.quanti...\n      JUMPDEST \t\t\treturn (item.name, item.quanti...\n      DUP1 \t\t\treturn (item.name, item.quanti...\n      PUSH 1F\t\t\treturn (item.name, item.quanti...\n      ADD \t\t\treturn (item.name, item.quanti...\n      PUSH 20\t\t\treturn (item.name, item.quanti...\n      DUP1 \t\t\treturn (item.name, item.quanti...\n      SWAP2 \t\t\treturn (item.name, item.quanti...\n      DIV \t\t\treturn (item.name, item.quanti...\n      MUL \t\t\treturn (item.name, item.quanti...\n      PUSH 20\t\t\treturn (item.name, item.quanti...\n      ADD \t\t\treturn (item.name, item.quanti...\n      PUSH 40\t\t\treturn (item.name, item.quanti...\n      MLOAD \t\t\treturn (item.name, item.quanti...\n      SWAP1 \t\t\treturn (item.name, item.quanti...\n      DUP2 \t\t\treturn (item.name, item.quanti...\n      ADD \t\t\treturn (item.name, item.quanti...\n      PUSH 40\t\t\treturn (item.name, item.quanti...\n      MSTORE \t\t\treturn (item.name, item.quanti...\n      DUP1 \t\t\treturn (item.name, item.quanti...\n      SWAP3 \t\t\treturn (item.name, item.quanti...\n      SWAP2 \t\t\treturn (item.name, item.quanti...\n      SWAP1 \t\t\treturn (item.name, item.quanti...\n      DUP2 \t\t\treturn (item.name, item.quanti...\n      DUP2 \t\t\treturn (item.name, item.quanti...\n      MSTORE \t\t\treturn (item.name, item.quanti...\n      PUSH 20\t\t\treturn (item.name, item.quanti...\n      ADD \t\t\treturn (item.name, item.quanti...\n      DUP3 \t\t\treturn (item.name, item.quanti...\n      DUP1 \t\t\treturn (item.name, item.quanti...\n      SLOAD \t\t\treturn (item.name, item.quanti...\n      PUSH [tag] 89\t\t\treturn (item.name, item.quanti...\n      SWAP1 \t\t\treturn (item.name, item.quanti...\n      PUSH [tag] 70\t\t\treturn (item.name, item.quanti...\n      JUMP [in]\t\t\treturn (item.name, item.quanti...\n    tag 89\t\t\treturn (item.name, item.quanti...\n      JUMPDEST \t\t\treturn (item.name, item.quanti...\n      DUP1 \t\t\treturn (item.name, item.quanti...\n      ISZERO \t\t\treturn (item.name, item.quanti...\n      PUSH [tag] 90\t\t\treturn (item.name, item.quanti...\n      JUMPI \t\t\treturn (item.name, item.quanti...\n      DUP1 \t\t\treturn (item.name, item.quanti...\n      PUSH 1F\t\t\treturn (item.name, item.quanti...\n      LT \t\t\treturn (item.name, item.quanti...\n      PUSH [tag] 91\t\t\treturn (item.name, item.quanti...\n      JUMPI \t\t\treturn (item.name, item.quanti...\n      PUSH 100\t\t\treturn (item.name, item.quanti...\n      DUP1 \t\t\treturn (item.name, item.quanti...\n      DUP4 \t\t\treturn (item.name, item.quanti...\n      SLOAD \t\t\treturn (item.name, item.quanti...\n      DIV \t\t\treturn (item.name, item.quanti...\n      MUL \t\t\treturn (item.name, item.quanti...\n      DUP4 \t\t\treturn (item.name, item.quanti...\n      MSTORE \t\t\treturn (item.name, item.quanti...\n      SWAP2 \t\t\treturn (item.name, item.quanti...\n      PUSH 20\t\t\treturn (item.name, item.quanti...\n      ADD \t\t\treturn (item.name, item.quanti...\n      SWAP2 \t\t\treturn (item.name, item.quanti...\n      PUSH [tag] 90\t\t\treturn (item.name, item.quanti...\n      JUMP \t\t\treturn (item.name, item.quanti...\n    tag 91\t\t\treturn (item.name, item.quanti...\n      JUMPDEST \t\t\treturn (item.name, item.quanti...\n      DUP3 \t\t\treturn (item.name, item.quanti...\n      ADD \t\t\treturn (item.name, item.quanti...\n      SWAP2 \t\t\treturn (item.name, item.quanti...\n      SWAP1 \t\t\treturn (item.name, item.quanti...\n      PUSH 0\t\t\treturn (item.name, item.quanti...\n      MSTORE \t\t\treturn (item.name, item.quanti...\n      PUSH 20\t\t\treturn (item.name, item.quanti...\n      PUSH 0\t\t\treturn (item.name, item.quanti...\n      KECCAK256 \t\t\treturn (item.name, item.quanti...\n      SWAP1 \t\t\treturn (item.name, item.quanti...\n    tag 92\t\t\treturn (item.name, item.quanti...\n      JUMPDEST \t\t\treturn (item.name, item.quanti...\n      DUP2 \t\t\treturn (item.name, item.quanti...\n      SLOAD \t\t\treturn (item.name, item.quanti...\n      DUP2 \t\t\treturn (item.name, item.quanti...\n      MSTORE \t\t\treturn (item.name, item.quanti...\n      SWAP1 \t\t\treturn (item.name, item.quanti...\n      PUSH 1\t\t\treturn (item.name, item.quanti...\n      ADD \t\t\treturn (item.name, item.quanti...\n      SWAP1 \t\t\treturn (item.name, item.quanti...\n      PUSH 20\t\t\treturn (item.name, item.quanti...\n      ADD \t\t\treturn (item.name, item.quanti...\n      DUP1 \t\t\treturn (item.name, item.quanti...\n      DUP4 \t\t\treturn (item.name, item.quanti...\n      GT \t\t\treturn (item.name, item.quanti...\n      PUSH [tag] 92\t\t\treturn (item.name, item.quanti...\n      JUMPI \t\t\treturn (item.name, item.quanti...\n      DUP3 \t\t\treturn (item.name, item.quanti...\n      SWAP1 \t\t\treturn (item.name, item.quanti...\n      SUB \t\t\treturn (item.name, item.quanti...\n      PUSH 1F\t\t\treturn (item.name, item.quanti...\n      AND \t\t\treturn (item.name, item.quanti...\n      DUP3 \t\t\treturn (item.name, item.quanti...\n      ADD \t\t\treturn (item.name, item.quanti...\n      SWAP2 \t\t\treturn (item.name, item.quanti...\n    tag 90\t\t\treturn (item.name, item.quanti...\n      JUMPDEST \t\t\treturn (item.name, item.quanti...\n      POP \t\t\treturn (item.name, item.quanti...\n      POP \t\t\treturn (item.name, item.quanti...\n      POP \t\t\treturn (item.name, item.quanti...\n      POP \t\t\treturn (item.name, item.quanti...\n      POP \t\t\treturn (item.name, item.quanti...\n      SWAP3 \t\t\treturn (item.name, item.quanti...\n      POP \t\t\treturn (item.name, item.quanti...\n      SWAP4 \t\t\treturn (item.name, item.quanti...\n      POP \t\t\treturn (item.name, item.quanti...\n      SWAP4 \t\t\treturn (item.name, item.quanti...\n      POP \t\t\treturn (item.name, item.quanti...\n      SWAP4 \t\t\treturn (item.name, item.quanti...\n      POP \t\t\treturn (item.name, item.quanti...\n      POP \t\t\treturn (item.name, item.quanti...\n      SWAP2 \t\t\tfunction getItemData(uint256 _...\n      SWAP4 \t\t\tfunction getItemData(uint256 _...\n      SWAP1 \t\t\tfunction getItemData(uint256 _...\n      SWAP3 \t\t\tfunction getItemData(uint256 _...\n      POP \t\t\tfunction getItemData(uint256 _...\n      JUMP [out]\t\t\tfunction getItemData(uint256 _...\n    tag 32\t\t\taddress public owner\n      JUMPDEST \t\t\taddress public owner\n      PUSH 3\t\t\taddress public owner\n      PUSH 0\t\t\taddress public owner\n      SWAP1 \t\t\taddress public owner\n      SLOAD \t\t\taddress public owner\n      SWAP1 \t\t\taddress public owner\n      PUSH 100\t\t\taddress public owner\n      EXP \t\t\taddress public owner\n      SWAP1 \t\t\taddress public owner\n      DIV \t\t\taddress public owner\n      PUSH FFFFFFFFFFFFFFFFFFFFFFFFFFFFFFFFFFFFFFFF\t\t\taddress public owner\n      AND \t\t\taddress public owner\n      DUP2 \t\t\taddress public owner\n      JUMP [out]\t\t\taddress public owner\n    tag 37\t\t\tmapping(uint256 => MedicalItem...\n      JUMPDEST \t\t\tmapping(uint256 => MedicalItem...\n      PUSH 0\t\t\tmapping(uint256 => MedicalItem...\n      PUSH 20\t\t\tmapping(uint256 => MedicalItem...\n      MSTORE \t\t\tmapping(uint256 => MedicalItem...\n      DUP1 \t\t\tmapping(uint256 => MedicalItem...\n      PUSH 0\t\t\tmapping(uint256 => MedicalItem...\n      MSTORE \t\t\tmapping(uint256 => MedicalItem...\n      PUSH 40\t\t\tmapping(uint256 => MedicalItem...\n      PUSH 0\t\t\tmapping(uint256 => MedicalItem...\n      KECCAK256 \t\t\tmapping(uint256 => MedicalItem...\n      PUSH 0\t\t\tmapping(uint256 => MedicalItem...\n      SWAP2 \t\t\tmapping(uint256 => MedicalItem...\n      POP \t\t\tmapping(uint256 => MedicalItem...\n      SWAP1 \t\t\tmapping(uint256 => MedicalItem...\n      POP \t\t\tmapping(uint256 => MedicalItem...\n      DUP1 \t\t\tmapping(uint256 => MedicalItem...\n      PUSH 0\t\t\tmapping(uint256 => MedicalItem...\n      ADD \t\t\tmapping(uint256 => MedicalItem...\n      DUP1 \t\t\tmapping(uint256 => MedicalItem...\n      SLOAD \t\t\tmapping(uint256 => MedicalItem...\n      PUSH [tag] 93\t\t\tmapping(uint256 => MedicalItem...\n      SWAP1 \t\t\tmapping(uint256 => MedicalItem...\n      PUSH [tag] 70\t\t\tmapping(uint256 => MedicalItem...\n      JUMP [in]\t\t\tmapping(uint256 => MedicalItem...\n    tag 93\t\t\tmapping(uint256 => MedicalItem...\n      JUMPDEST \t\t\tmapping(uint256 => MedicalItem...\n      DUP1 \t\t\tmapping(uint256 => MedicalItem...\n      PUSH 1F\t\t\tmapping(uint256 => MedicalItem...\n      ADD \t\t\tmapping(uint256 => MedicalItem...\n      PUSH 20\t\t\tmapping(uint256 => MedicalItem...\n      DUP1 \t\t\tmapping(uint256 => MedicalItem...\n      SWAP2 \t\t\tmapping(uint256 => MedicalItem...\n      DIV \t\t\tmapping(uint256 => MedicalItem...\n      MUL \t\t\tmapping(uint256 => MedicalItem...\n      PUSH 20\t\t\tmapping(uint256 => MedicalItem...\n      ADD \t\t\tmapping(uint256 => MedicalItem...\n      PUSH 40\t\t\tmapping(uint256 => MedicalItem...\n      MLOAD \t\t\tmapping(uint256 => MedicalItem...\n      SWAP1 \t\t\tmapping(uint256 => MedicalItem...\n      DUP2 \t\t\tmapping(uint256 => MedicalItem...\n      ADD \t\t\tmapping(uint256 => MedicalItem...\n      PUSH 40\t\t\tmapping(uint256 => MedicalItem...\n      MSTORE \t\t\tmapping(uint256 => MedicalItem...\n      DUP1 \t\t\tmapping(uint256 => MedicalItem...\n      SWAP3 \t\t\tmapping(uint256 => MedicalItem...\n      SWAP2 \t\t\tmapping(uint256 => MedicalItem...\n      SWAP1 \t\t\tmapping(uint256 => MedicalItem...\n      DUP2 \t\t\tmapping(uint256 => MedicalItem...\n      DUP2 \t\t\tmapping(uint256 => MedicalItem...\n      MSTORE \t\t\tmapping(uint256 => MedicalItem...\n      PUSH 20\t\t\tmapping(uint256 => MedicalItem...\n      ADD \t\t\tmapping(uint256 => MedicalItem...\n      DUP3 \t\t\tmapping(uint256 => MedicalItem...\n      DUP1 \t\t\tmapping(uint256 => MedicalItem...\n      SLOAD \t\t\tmapping(uint256 => MedicalItem...\n      PUSH [tag] 94\t\t\tmapping(uint256 => MedicalItem...\n      SWAP1 \t\t\tmapping(uint256 => MedicalItem...\n      PUSH [tag] 70\t\t\tmapping(uint256 => MedicalItem...\n      JUMP [in]\t\t\tmapping(uint256 => MedicalItem...\n    tag 94\t\t\tmapping(uint256 => MedicalItem...\n      JUMPDEST \t\t\tmapping(uint256 => MedicalItem...\n      DUP1 \t\t\tmapping(uint256 => MedicalItem...\n      ISZERO \t\t\tmapping(uint256 => MedicalItem...\n      PUSH [tag] 95\t\t\tmapping(uint256 => MedicalItem...\n      JUMPI \t\t\tmapping(uint256 => MedicalItem...\n      DUP1 \t\t\tmapping(uint256 => MedicalItem...\n      PUSH 1F\t\t\tmapping(uint256 => MedicalItem...\n      LT \t\t\tmapping(uint256 => MedicalItem...\n      PUSH [tag] 96\t\t\tmapping(uint256 => MedicalItem...\n      JUMPI \t\t\tmapping(uint256 => MedicalItem...\n      PUSH 100\t\t\tmapping(uint256 => MedicalItem...\n      DUP1 \t\t\tmapping(uint256 => MedicalItem...\n      DUP4 \t\t\tmapping(uint256 => MedicalItem...\n      SLOAD \t\t\tmapping(uint256 => MedicalItem...\n      DIV \t\t\tmapping(uint256 => MedicalItem...\n      MUL \t\t\tmapping(uint256 => MedicalItem...\n      DUP4 \t\t\tmapping(uint256 => MedicalItem...\n      MSTORE \t\t\tmapping(uint256 => MedicalItem...\n      SWAP2 \t\t\tmapping(uint256 => MedicalItem...\n      PUSH 20\t\t\tmapping(uint256 => MedicalItem...\n      ADD \t\t\tmapping(uint256 => MedicalItem...\n      SWAP2 \t\t\tmapping(uint256 => MedicalItem...\n      PUSH [tag] 95\t\t\tmapping(uint256 => MedicalItem...\n      JUMP \t\t\tmapping(uint256 => MedicalItem...\n    tag 96\t\t\tmapping(uint256 => MedicalItem...\n      JUMPDEST \t\t\tmapping(uint256 => MedicalItem...\n      DUP3 \t\t\tmapping(uint256 => MedicalItem...\n      ADD \t\t\tmapping(uint256 => MedicalItem...\n      SWAP2 \t\t\tmapping(uint256 => MedicalItem...\n      SWAP1 \t\t\tmapping(uint256 => MedicalItem...\n      PUSH 0\t\t\tmapping(uint256 => MedicalItem...\n      MSTORE \t\t\tmapping(uint256 => MedicalItem...\n      PUSH 20\t\t\tmapping(uint256 => MedicalItem...\n      PUSH 0\t\t\tmapping(uint256 => MedicalItem...\n      KECCAK256 \t\t\tmapping(uint256 => MedicalItem...\n      SWAP1 \t\t\tmapping(uint256 => MedicalItem...\n    tag 97\t\t\tmapping(uint256 => MedicalItem...\n      JUMPDEST \t\t\tmapping(uint256 => MedicalItem...\n      DUP2 \t\t\tmapping(uint256 => MedicalItem...\n      SLOAD \t\t\tmapping(uint256 => MedicalItem...\n      DUP2 \t\t\tmapping(uint256 => MedicalItem...\n      MSTORE \t\t\tmapping(uint256 => MedicalItem...\n      SWAP1 \t\t\tmapping(uint256 => MedicalItem...\n      PUSH 1\t\t\tmapping(uint256 => MedicalItem...\n      ADD \t\t\tmapping(uint256 => MedicalItem...\n      SWAP1 \t\t\tmapping(uint256 => MedicalItem...\n      PUSH 20\t\t\tmapping(uint256 => MedicalItem...\n      ADD \t\t\tmapping(uint256 => MedicalItem...\n      DUP1 \t\t\tmapping(uint256 => MedicalItem...\n      DUP4 \t\t\tmapping(uint256 => MedicalItem...\n      GT \t\t\tmapping(uint256 => MedicalItem...\n      PUSH [tag] 97\t\t\tmapping(uint256 => MedicalItem...\n      JUMPI \t\t\tmapping(uint256 => MedicalItem...\n      DUP3 \t\t\tmapping(uint256 => MedicalItem...\n      SWAP1 \t\t\tmapping(uint256 => MedicalItem...\n      SUB \t\t\tmapping(uint256 => MedicalItem...\n      PUSH 1F\t\t\tmapping(uint256 => MedicalItem...\n      AND \t\t\tmapping(uint256 => MedicalItem...\n      DUP3 \t\t\tmapping(uint256 => MedicalItem...\n      ADD \t\t\tmapping(uint256 => MedicalItem...\n      SWAP2 \t\t\tmapping(uint256 => MedicalItem...\n    tag 95\t\t\tmapping(uint256 => MedicalItem...\n      JUMPDEST \t\t\tmapping(uint256 => MedicalItem...\n      POP \t\t\tmapping(uint256 => MedicalItem...\n      POP \t\t\tmapping(uint256 => MedicalItem...\n      POP \t\t\tmapping(uint256 => MedicalItem...\n      POP \t\t\tmapping(uint256 => MedicalItem...\n      POP \t\t\tmapping(uint256 => MedicalItem...\n      SWAP1 \t\t\tmapping(uint256 => MedicalItem...\n      DUP1 \t\t\tmapping(uint256 => MedicalItem...\n      PUSH 1\t\t\tmapping(uint256 => MedicalItem...\n      ADD \t\t\tmapping(uint256 => MedicalItem...\n      SLOAD \t\t\tmapping(uint256 => MedicalItem...\n      SWAP1 \t\t\tmapping(uint256 => MedicalItem...\n      DUP1 \t\t\tmapping(uint256 => MedicalItem...\n      PUSH 2\t\t\tmapping(uint256 => MedicalItem...\n      ADD \t\t\tmapping(uint256 => MedicalItem...\n      SLOAD \t\t\tmapping(uint256 => MedicalItem...\n      SWAP1 \t\t\tmapping(uint256 => MedicalItem...\n      POP \t\t\tmapping(uint256 => MedicalItem...\n      DUP4 \t\t\tmapping(uint256 => MedicalItem...\n      JUMP [out]\t\t\tmapping(uint256 => MedicalItem...\n    tag 41\t\t\tmapping(string => uint256) pub...\n      JUMPDEST \t\t\tmapping(string => uint256) pub...\n      PUSH 1\t\t\tmapping(string => uint256) pub...\n      DUP2 \t\t\tmapping(string => uint256) pub...\n      DUP1 \t\t\tmapping(string => uint256) pub...\n      MLOAD \t\t\tmapping(string => uint256) pub...\n      PUSH 20\t\t\tmapping(string => uint256) pub...\n      DUP2 \t\t\tmapping(string => uint256) pub...\n      ADD \t\t\tmapping(string => uint256) pub...\n      DUP3 \t\t\tmapping(string => uint256) pub...\n      ADD \t\t\tmapping(string => uint256) pub...\n      DUP1 \t\t\tmapping(string => uint256) pub...\n      MLOAD \t\t\tmapping(string => uint256) pub...\n      DUP5 \t\t\tmapping(string => uint256) pub...\n      DUP3 \t\t\tmapping(string => uint256) pub...\n      MSTORE \t\t\tmapping(string => uint256) pub...\n      PUSH 20\t\t\tmapping(string => uint256) pub...\n      DUP4 \t\t\tmapping(string => uint256) pub...\n      ADD \t\t\tmapping(string => uint256) pub...\n      PUSH 20\t\t\tmapping(string => uint256) pub...\n      DUP6 \t\t\tmapping(string => uint256) pub...\n      ADD \t\t\tmapping(string => uint256) pub...\n      KECCAK256 \t\t\tmapping(string => uint256) pub...\n      DUP2 \t\t\tmapping(string => uint256) pub...\n      DUP4 \t\t\tmapping(string => uint256) pub...\n      MSTORE \t\t\tmapping(string => uint256) pub...\n      DUP1 \t\t\tmapping(string => uint256) pub...\n      SWAP6 \t\t\tmapping(string => uint256) pub...\n      POP \t\t\tmapping(string => uint256) pub...\n      POP \t\t\tmapping(string => uint256) pub...\n      POP \t\t\tmapping(string => uint256) pub...\n      POP \t\t\tmapping(string => uint256) pub...\n      POP \t\t\tmapping(string => uint256) pub...\n      POP \t\t\tmapping(string => uint256) pub...\n      PUSH 0\t\t\tmapping(string => uint256) pub...\n      SWAP2 \t\t\tmapping(string => uint256) pub...\n      POP \t\t\tmapping(string => uint256) pub...\n      SWAP1 \t\t\tmapping(string => uint256) pub...\n      POP \t\t\tmapping(string => uint256) pub...\n      SLOAD \t\t\tmapping(string => uint256) pub...\n      DUP2 \t\t\tmapping(string => uint256) pub...\n      JUMP [out]\t\t\tmapping(string => uint256) pub...\n    tag 46\t\t\tfunction addItem(string memory...\n      JUMPDEST \t\t\tfunction addItem(string memory...\n      PUSH 3\t\t\towner\n      PUSH 0\t\t\towner\n      SWAP1 \t\t\towner\n      SLOAD \t\t\towner\n      SWAP1 \t\t\towner\n      PUSH 100\t\t\towner\n      EXP \t\t\towner\n      SWAP1 \t\t\towner\n      DIV \t\t\towner\n      PUSH FFFFFFFFFFFFFFFFFFFFFFFFFFFFFFFFFFFFFFFF\t\t\towner\n      AND \t\t\towner\n      PUSH FFFFFFFFFFFFFFFFFFFFFFFFFFFFFFFFFFFFFFFF\t\t\tmsg.sender == owner\n      AND \t\t\tmsg.sender == owner\n      CALLER \t\t\tmsg.sender\n      PUSH FFFFFFFFFFFFFFFFFFFFFFFFFFFFFFFFFFFFFFFF\t\t\tmsg.sender == owner\n      AND \t\t\tmsg.sender == owner\n      EQ \t\t\tmsg.sender == owner\n      PUSH [tag] 99\t\t\trequire(msg.sender == owner, \"...\n      JUMPI \t\t\trequire(msg.sender == owner, \"...\n      PUSH 40\t\t\trequire(msg.sender == owner, \"...\n      MLOAD \t\t\trequire(msg.sender == owner, \"...\n      PUSH 8C379A000000000000000000000000000000000000000000000000000000000\t\t\trequire(msg.sender == owner, \"...\n      DUP2 \t\t\trequire(msg.sender == owner, \"...\n      MSTORE \t\t\trequire(msg.sender == owner, \"...\n      PUSH 4\t\t\trequire(msg.sender == owner, \"...\n      ADD \t\t\trequire(msg.sender == owner, \"...\n      PUSH [tag] 100\t\t\trequire(msg.sender == owner, \"...\n      SWAP1 \t\t\trequire(msg.sender == owner, \"...\n      PUSH [tag] 101\t\t\trequire(msg.sender == owner, \"...\n      JUMP [in]\t\t\trequire(msg.sender == owner, \"...\n    tag 100\t\t\trequire(msg.sender == owner, \"...\n      JUMPDEST \t\t\trequire(msg.sender == owner, \"...\n      PUSH 40\t\t\trequire(msg.sender == owner, \"...\n      MLOAD \t\t\trequire(msg.sender == owner, \"...\n      DUP1 \t\t\trequire(msg.sender == owner, \"...\n      SWAP2 \t\t\trequire(msg.sender == owner, \"...\n      SUB \t\t\trequire(msg.sender == owner, \"...\n      SWAP1 \t\t\trequire(msg.sender == owner, \"...\n      REVERT \t\t\trequire(msg.sender == owner, \"...\n    tag 99\t\t\trequire(msg.sender == owner, \"...\n      JUMPDEST \t\t\trequire(msg.sender == owner, \"...\n      PUSH 0\t\t\t0\n      DUP3 \t\t\t_quantity\n      GT \t\t\t_quantity > 0\n      PUSH [tag] 103\t\t\trequire(_quantity > 0, \"Quanti...\n      JUMPI \t\t\trequire(_quantity > 0, \"Quanti...\n      PUSH 40\t\t\trequire(_quantity > 0, \"Quanti...\n      MLOAD \t\t\trequire(_quantity > 0, \"Quanti...\n      PUSH 8C379A000000000000000000000000000000000000000000000000000000000\t\t\trequire(_quantity > 0, \"Quanti...\n      DUP2 \t\t\trequire(_quantity > 0, \"Quanti...\n      MSTORE \t\t\trequire(_quantity > 0, \"Quanti...\n      PUSH 4\t\t\trequire(_quantity > 0, \"Quanti...\n      ADD \t\t\trequire(_quantity > 0, \"Quanti...\n      PUSH [tag] 104\t\t\trequire(_quantity > 0, \"Quanti...\n      SWAP1 \t\t\trequire(_quantity > 0, \"Quanti...\n      PUSH [tag] 105\t\t\trequire(_quantity > 0, \"Quanti...\n      JUMP [in]\t\t\trequire(_quantity > 0, \"Quanti...\n    tag 104\t\t\trequire(_quantity > 0, \"Quanti...\n      JUMPDEST \t\t\trequire(_quantity > 0, \"Quanti...\n      PUSH 40\t\t\trequire(_quantity > 0, \"Quanti...\n      MLOAD \t\t\trequire(_quantity > 0, \"Quanti...\n      DUP1 \t\t\trequire(_quantity > 0, \"Quanti...\n      SWAP2 \t\t\trequire(_quantity > 0, \"Quanti...\n      SUB \t\t\trequire(_quantity > 0, \"Quanti...\n      SWAP1 \t\t\trequire(_quantity > 0, \"Quanti...\n      REVERT \t\t\trequire(_quantity > 0, \"Quanti...\n    tag 103\t\t\trequire(_quantity > 0, \"Quanti...\n      JUMPDEST \t\t\trequire(_quantity > 0, \"Quanti...\n      PUSH 0\t\t\t0\n      PUSH 1\t\t\titemIdsByName\n      DUP5 \t\t\t_name\n      PUSH 40\t\t\titemIdsByName[_name]\n      MLOAD \t\t\titemIdsByName[_name]\n      PUSH [tag] 106\t\t\titemIdsByName[_name]\n      SWAP2 \t\t\titemIdsByName[_name]\n      SWAP1 \t\t\titemIdsByName[_name]\n      PUSH [tag] 49\t\t\titemIdsByName[_name]\n      JUMP [in]\t\t\titemIdsByName[_name]\n    tag 106\t\t\titemIdsByName[_name]\n      JUMPDEST \t\t\titemIdsByName[_name]\n      SWAP1 \t\t\titemIdsByName[_name]\n      DUP2 \t\t\titemIdsByName[_name]\n      MSTORE \t\t\titemIdsByName[_name]\n      PUSH 20\t\t\titemIdsByName[_name]\n      ADD \t\t\titemIdsByName[_name]\n      PUSH 40\t\t\titemIdsByName[_name]\n      MLOAD \t\t\titemIdsByName[_name]\n      DUP1 \t\t\titemIdsByName[_name]\n      SWAP2 \t\t\titemIdsByName[_name]\n      SUB \t\t\titemIdsByName[_name]\n      SWAP1 \t\t\titemIdsByName[_name]\n      KECCAK256 \t\t\titemIdsByName[_name]\n      SLOAD \t\t\titemIdsByName[_name]\n      EQ \t\t\titemIdsByName[_name] == 0\n      PUSH [tag] 107\t\t\trequire(itemIdsByName[_name] =...\n      JUMPI \t\t\trequire(itemIdsByName[_name] =...\n      PUSH 40\t\t\trequire(itemIdsByName[_name] =...\n      MLOAD \t\t\trequire(itemIdsByName[_name] =...\n      PUSH 8C379A000000000000000000000000000000000000000000000000000000000\t\t\trequire(itemIdsByName[_name] =...\n      DUP2 \t\t\trequire(itemIdsByName[_name] =...\n      MSTORE \t\t\trequire(itemIdsByName[_name] =...\n      PUSH 4\t\t\trequire(itemIdsByName[_name] =...\n      ADD \t\t\trequire(itemIdsByName[_name] =...\n      PUSH [tag] 108\t\t\trequire(itemIdsByName[_name] =...\n      SWAP1 \t\t\trequire(itemIdsByName[_name] =...\n      PUSH [tag] 109\t\t\trequire(itemIdsByName[_name] =...\n      JUMP [in]\t\t\trequire(itemIdsByName[_name] =...\n    tag 108\t\t\trequire(itemIdsByName[_name] =...\n      JUMPDEST \t\t\trequire(itemIdsByName[_name] =...\n      PUSH 40\t\t\trequire(itemIdsByName[_name] =...\n      MLOAD \t\t\trequire(itemIdsByName[_name] =...\n      DUP1 \t\t\trequire(itemIdsByName[_name] =...\n      SWAP2 \t\t\trequire(itemIdsByName[_name] =...\n      SUB \t\t\trequire(itemIdsByName[_name] =...\n      SWAP1 \t\t\trequire(itemIdsByName[_name] =...\n      REVERT \t\t\trequire(itemIdsByName[_name] =...\n    tag 107\t\t\trequire(itemIdsByName[_name] =...\n      JUMPDEST \t\t\trequire(itemIdsByName[_name] =...\n      PUSH 2\t\t\titemCount\n      PUSH 0\t\t\titemCount\n      DUP2 \t\t\titemCount++\n      SLOAD \t\t\titemCount++\n      DUP1 \t\t\titemCount++\n      SWAP3 \t\t\titemCount++\n      SWAP2 \t\t\titemCount++\n      SWAP1 \t\t\titemCount++\n      PUSH [tag] 110\t\t\titemCount++\n      SWAP1 \t\t\titemCount++\n      PUSH [tag] 82\t\t\titemCount++\n      JUMP [in]\t\t\titemCount++\n    tag 110\t\t\titemCount++\n      JUMPDEST \t\t\titemCount++\n      SWAP2 \t\t\titemCount++\n      SWAP1 \t\t\titemCount++\n      POP \t\t\titemCount++\n      SSTORE \t\t\titemCount++\n      POP \t\t\titemCount++\n      PUSH 0\t\t\tuint256 itemId\n      PUSH 2\t\t\titemCount\n      SLOAD \t\t\titemCount\n      SWAP1 \t\t\tuint256 itemId = itemCount\n      POP \t\t\tuint256 itemId = itemCount\n      PUSH 40\t\t\tMedicalItem(_name, _quantity, ...\n      MLOAD \t\t\tMedicalItem(_name, _quantity, ...\n      DUP1 \t\t\tMedicalItem(_name, _quantity, ...\n      PUSH 60\t\t\tMedicalItem(_name, _quantity, ...\n      ADD \t\t\tMedicalItem(_name, _quantity, ...\n      PUSH 40\t\t\tMedicalItem(_name, _quantity, ...\n      MSTORE \t\t\tMedicalItem(_name, _quantity, ...\n      DUP1 \t\t\tMedicalItem(_name, _quantity, ...\n      DUP6 \t\t\t_name\n      DUP2 \t\t\tMedicalItem(_name, _quantity, ...\n      MSTORE \t\t\tMedicalItem(_name, _quantity, ...\n      PUSH 20\t\t\tMedicalItem(_name, _quantity, ...\n      ADD \t\t\tMedicalItem(_name, _quantity, ...\n      DUP5 \t\t\t_quantity\n      DUP2 \t\t\tMedicalItem(_name, _quantity, ...\n      MSTORE \t\t\tMedicalItem(_name, _quantity, ...\n      PUSH 20\t\t\tMedicalItem(_name, _quantity, ...\n      ADD \t\t\tMedicalItem(_name, _quantity, ...\n      DUP4 \t\t\t_price\n      DUP2 \t\t\tMedicalItem(_name, _quantity, ...\n      MSTORE \t\t\tMedicalItem(_name, _quantity, ...\n      POP \t\t\tMedicalItem(_name, _quantity, ...\n      PUSH 0\t\t\titems\n      DUP1 \t\t\titems[itemId]\n      DUP4 \t\t\titemId\n      DUP2 \t\t\titems[itemId]\n      MSTORE \t\t\titems[itemId]\n      PUSH 20\t\t\titems[itemId]\n      ADD \t\t\titems[itemId]\n      SWAP1 \t\t\titems[itemId]\n      DUP2 \t\t\titems[itemId]\n      MSTORE \t\t\titems[itemId]\n      PUSH 20\t\t\titems[itemId]\n      ADD \t\t\titems[itemId]\n      PUSH 0\t\t\titems[itemId]\n      KECCAK256 \t\t\titems[itemId]\n      PUSH 0\t\t\titems[itemId] = MedicalItem(_n...\n      DUP3 \t\t\titems[itemId] = MedicalItem(_n...\n      ADD \t\t\titems[itemId] = MedicalItem(_n...\n      MLOAD \t\t\titems[itemId] = MedicalItem(_n...\n      DUP2 \t\t\titems[itemId] = MedicalItem(_n...\n      PUSH 0\t\t\titems[itemId] = MedicalItem(_n...\n      ADD \t\t\titems[itemId] = MedicalItem(_n...\n      SWAP1 \t\t\titems[itemId] = MedicalItem(_n...\n      DUP1 \t\t\titems[itemId] = MedicalItem(_n...\n      MLOAD \t\t\titems[itemId] = MedicalItem(_n...\n      SWAP1 \t\t\titems[itemId] = MedicalItem(_n...\n      PUSH 20\t\t\titems[itemId] = MedicalItem(_n...\n      ADD \t\t\titems[itemId] = MedicalItem(_n...\n      SWAP1 \t\t\titems[itemId] = MedicalItem(_n...\n      PUSH [tag] 111\t\t\titems[itemId] = MedicalItem(_n...\n      SWAP3 \t\t\titems[itemId] = MedicalItem(_n...\n      SWAP2 \t\t\titems[itemId] = MedicalItem(_n...\n      SWAP1 \t\t\titems[itemId] = MedicalItem(_n...\n      PUSH [tag] 112\t\t\titems[itemId] = MedicalItem(_n...\n      JUMP [in]\t\t\titems[itemId] = MedicalItem(_n...\n    tag 111\t\t\titems[itemId] = MedicalItem(_n...\n      JUMPDEST \t\t\titems[itemId] = MedicalItem(_n...\n      POP \t\t\titems[itemId] = MedicalItem(_n...\n      PUSH 20\t\t\titems[itemId] = MedicalItem(_n...\n      DUP3 \t\t\titems[itemId] = MedicalItem(_n...\n      ADD \t\t\titems[itemId] = MedicalItem(_n...\n      MLOAD \t\t\titems[itemId] = MedicalItem(_n...\n      DUP2 \t\t\titems[itemId] = MedicalItem(_n...\n      PUSH 1\t\t\titems[itemId] = MedicalItem(_n...\n      ADD \t\t\titems[itemId] = MedicalItem(_n...\n      SSTORE \t\t\titems[itemId] = MedicalItem(_n...\n      PUSH 40\t\t\titems[itemId] = MedicalItem(_n...\n      DUP3 \t\t\titems[itemId] = MedicalItem(_n...\n      ADD \t\t\titems[itemId] = MedicalItem(_n...\n      MLOAD \t\t\titems[itemId] = MedicalItem(_n...\n      DUP2 \t\t\titems[itemId] = MedicalItem(_n...\n      PUSH 2\t\t\titems[itemId] = MedicalItem(_n...\n      ADD \t\t\titems[itemId] = MedicalItem(_n...\n      SSTORE \t\t\titems[itemId] = MedicalItem(_n...\n      SWAP1 \t\t\titems[itemId] = MedicalItem(_n...\n      POP \t\t\titems[itemId] = MedicalItem(_n...\n      POP \t\t\titems[itemId] = MedicalItem(_n...\n      DUP1 \t\t\titemId\n      PUSH 1\t\t\titemIdsByName\n      DUP6 \t\t\t_name\n      PUSH 40\t\t\titemIdsByName[_name]\n      MLOAD \t\t\titemIdsByName[_name]\n      PUSH [tag] 113\t\t\titemIdsByName[_name]\n      SWAP2 \t\t\titemIdsByName[_name]\n      SWAP1 \t\t\titemIdsByName[_name]\n      PUSH [tag] 49\t\t\titemIdsByName[_name]\n      JUMP [in]\t\t\titemIdsByName[_name]\n    tag 113\t\t\titemIdsByName[_name]\n      JUMPDEST \t\t\titemIdsByName[_name]\n      SWAP1 \t\t\titemIdsByName[_name]\n      DUP2 \t\t\titemIdsByName[_name]\n      MSTORE \t\t\titemIdsByName[_name]\n      PUSH 20\t\t\titemIdsByName[_name]\n      ADD \t\t\titemIdsByName[_name]\n      PUSH 40\t\t\titemIdsByName[_name]\n      MLOAD \t\t\titemIdsByName[_name]\n      DUP1 \t\t\titemIdsByName[_name]\n      SWAP2 \t\t\titemIdsByName[_name]\n      SUB \t\t\titemIdsByName[_name]\n      SWAP1 \t\t\titemIdsByName[_name]\n      KECCAK256 \t\t\titemIdsByName[_name]\n      DUP2 \t\t\titemIdsByName[_name] = itemId\n      SWAP1 \t\t\titemIdsByName[_name] = itemId\n      SSTORE \t\t\titemIdsByName[_name] = itemId\n      POP \t\t\titemIdsByName[_name] = itemId\n      PUSH 665E452EB624A7F9BF54ABD5D404D4F4DA7360A1E40698893FE2CC447A51AF9C\t\t\tItemAdded(itemId, _name, _quan...\n      DUP2 \t\t\titemId\n      DUP6 \t\t\t_name\n      DUP6 \t\t\t_quantity\n      DUP6 \t\t\t_price\n      PUSH 40\t\t\tItemAdded(itemId, _name, _quan...\n      MLOAD \t\t\tItemAdded(itemId, _name, _quan...\n      PUSH [tag] 114\t\t\tItemAdded(itemId, _name, _quan...\n      SWAP5 \t\t\tItemAdded(itemId, _name, _quan...\n      SWAP4 \t\t\tItemAdded(itemId, _name, _quan...\n      SWAP3 \t\t\tItemAdded(itemId, _name, _quan...\n      SWAP2 \t\t\tItemAdded(itemId, _name, _quan...\n      SWAP1 \t\t\tItemAdded(itemId, _name, _quan...\n      PUSH [tag] 115\t\t\tItemAdded(itemId, _name, _quan...\n      JUMP [in]\t\t\tItemAdded(itemId, _name, _quan...\n    tag 114\t\t\tItemAdded(itemId, _name, _quan...\n      JUMPDEST \t\t\tItemAdded(itemId, _name, _quan...\n      PUSH 40\t\t\tItemAdded(itemId, _name, _quan...\n      MLOAD \t\t\tItemAdded(itemId, _name, _quan...\n      DUP1 \t\t\tItemAdded(itemId, _name, _quan...\n      SWAP2 \t\t\tItemAdded(itemId, _name, _quan...\n      SUB \t\t\tItemAdded(itemId, _name, _quan...\n      SWAP1 \t\t\tItemAdded(itemId, _name, _quan...\n      LOG1 \t\t\tItemAdded(itemId, _name, _quan...\n      POP \t\t\t_\n      POP \t\t\tfunction addItem(string memory...\n      POP \t\t\tfunction addItem(string memory...\n      POP \t\t\tfunction addItem(string memory...\n      JUMP [out]\t\t\tfunction addItem(string memory...\n    tag 112\t\t\t\n      JUMPDEST \t\t\t\n      DUP3 \t\t\t\n      DUP1 \t\t\t\n      SLOAD \t\t\t\n      PUSH [tag] 116\t\t\t\n      SWAP1 \t\t\t\n      PUSH [tag] 70\t\t\t\n      JUMP [in]\t\t\t\n    tag 116\t\t\t\n      JUMPDEST \t\t\t\n      SWAP1 \t\t\t\n      PUSH 0\t\t\t\n      MSTORE \t\t\t\n      PUSH 20\t\t\t\n      PUSH 0\t\t\t\n      KECCAK256 \t\t\t\n      SWAP1 \t\t\t\n      PUSH 1F\t\t\t\n      ADD \t\t\t\n      PUSH 20\t\t\t\n      SWAP1 \t\t\t\n      DIV \t\t\t\n      DUP2 \t\t\t\n      ADD \t\t\t\n      SWAP3 \t\t\t\n      DUP3 \t\t\t\n      PUSH [tag] 118\t\t\t\n      JUMPI \t\t\t\n      PUSH 0\t\t\t\n      DUP6 \t\t\t\n      SSTORE \t\t\t\n      PUSH [tag] 117\t\t\t\n      JUMP \t\t\t\n    tag 118\t\t\t\n      JUMPDEST \t\t\t\n      DUP3 \t\t\t\n      PUSH 1F\t\t\t\n      LT \t\t\t\n      PUSH [tag] 119\t\t\t\n      JUMPI \t\t\t\n      DUP1 \t\t\t\n      MLOAD \t\t\t\n      PUSH FF\t\t\t\n      NOT \t\t\t\n      AND \t\t\t\n      DUP4 \t\t\t\n      DUP1 \t\t\t\n      ADD \t\t\t\n      OR \t\t\t\n      DUP6 \t\t\t\n      SSTORE \t\t\t\n      PUSH [tag] 117\t\t\t\n      JUMP \t\t\t\n    tag 119\t\t\t\n      JUMPDEST \t\t\t\n      DUP3 \t\t\t\n      DUP1 \t\t\t\n      ADD \t\t\t\n      PUSH 1\t\t\t\n      ADD \t\t\t\n      DUP6 \t\t\t\n      SSTORE \t\t\t\n      DUP3 \t\t\t\n      ISZERO \t\t\t\n      PUSH [tag] 117\t\t\t\n      JUMPI \t\t\t\n      SWAP2 \t\t\t\n      DUP3 \t\t\t\n      ADD \t\t\t\n    tag 120\t\t\t\n      JUMPDEST \t\t\t\n      DUP3 \t\t\t\n      DUP2 \t\t\t\n      GT \t\t\t\n      ISZERO \t\t\t\n      PUSH [tag] 121\t\t\t\n      JUMPI \t\t\t\n      DUP3 \t\t\t\n      MLOAD \t\t\t\n      DUP3 \t\t\t\n      SSTORE \t\t\t\n      SWAP2 \t\t\t\n      PUSH 20\t\t\t\n      ADD \t\t\t\n      SWAP2 \t\t\t\n      SWAP1 \t\t\t\n      PUSH 1\t\t\t\n      ADD \t\t\t\n      SWAP1 \t\t\t\n      PUSH [tag] 120\t\t\t\n      JUMP \t\t\t\n    tag 121\t\t\t\n      JUMPDEST \t\t\t\n    tag 117\t\t\t\n      JUMPDEST \t\t\t\n      POP \t\t\t\n      SWAP1 \t\t\t\n      POP \t\t\t\n      PUSH [tag] 122\t\t\t\n      SWAP2 \t\t\t\n      SWAP1 \t\t\t\n      PUSH [tag] 123\t\t\t\n      JUMP [in]\t\t\t\n    tag 122\t\t\t\n      JUMPDEST \t\t\t\n      POP \t\t\t\n      SWAP1 \t\t\t\n      JUMP [out]\t\t\t\n    tag 123\t\t\t\n      JUMPDEST \t\t\t\n    tag 124\t\t\t\n      JUMPDEST \t\t\t\n      DUP1 \t\t\t\n      DUP3 \t\t\t\n      GT \t\t\t\n      ISZERO \t\t\t\n      PUSH [tag] 125\t\t\t\n      JUMPI \t\t\t\n      PUSH 0\t\t\t\n      DUP2 \t\t\t\n      PUSH 0\t\t\t\n      SWAP1 \t\t\t\n      SSTORE \t\t\t\n      POP \t\t\t\n      PUSH 1\t\t\t\n      ADD \t\t\t\n      PUSH [tag] 124\t\t\t\n      JUMP \t\t\t\n    tag 125\t\t\t\n      JUMPDEST \t\t\t\n      POP \t\t\t\n      SWAP1 \t\t\t\n      JUMP [out]\t\t\t\n    tag 127\t\t\t-License-Identifier: MIT\\nprag...\n      JUMPDEST \t\t\t-License-Identifier: MIT\\nprag...\n      PUSH 0\t\t\t-License-Identifier: MIT\\nprag...\n      PUSH [tag] 129\t\t\t    string name;\\n        uint...\n      PUSH [tag] 130\t\t\t;\\n        uint256 quantity;\\n...\n      DUP5 \t\t\t6 pric\n      PUSH [tag] 131\t\t\t;\\n        uint256 quantity;\\n...\n      JUMP [in]\t\t\t;\\n        uint256 quantity;\\n...\n    tag 130\t\t\t;\\n        uint256 quantity;\\n...\n      JUMPDEST \t\t\t;\\n        uint256 quantity;\\n...\n      PUSH [tag] 132\t\t\t    string name;\\n        uint...\n      JUMP [in]\t\t\t    string name;\\n        uint...\n    tag 129\t\t\t    string name;\\n        uint...\n      JUMPDEST \t\t\t    string name;\\n        uint...\n      SWAP1 \t\t\tem {\\n        string name;\\n  ...\n      POP \t\t\tem {\\n        string name;\\n  ...\n      DUP3 \t\t\tt256 =\n      DUP2 \t\t\ting(u\n      MSTORE \t\t\t   mapping(uint256 =>\n      PUSH 20\t\t\t map\n      DUP2 \t\t\tms;\\n \n      ADD \t\t\t items;\\n    mapp\n      DUP5 \t\t\tmId\n      DUP5 \t\t\tublic \n      DUP5 \t\t\t56)\n      ADD \t\t\tint256) public i\n      GT \t\t\t> uint256) public itemIds\n      ISZERO \t\t\tg \n      PUSH [tag] 133\t\t\tg \n      JUMPI \t\t\tg \n      PUSH 0\t\t\ti\n      DUP1 \t\t\t \n      REVERT \t\t\tame;\\n    uin\n    tag 133\t\t\tg \n      JUMPDEST \t\t\tg \n      PUSH [tag] 134\t\t\t itemCount;\\n    address publi...\n      DUP5 \t\t\ter;\\n\\n \n      DUP3 \t\t\tc o\n      DUP6 \t\t\tpub\n      PUSH [tag] 135\t\t\t itemCount;\\n    address publi...\n      JUMP [in]\t\t\t itemCount;\\n    address publi...\n    tag 134\t\t\t itemCount;\\n    address publi...\n      JUMPDEST \t\t\t itemCount;\\n    address publi...\n      POP \t\t\t MedicalItem {\\n        string...\n      SWAP4 \t\t\t MedicalItem {\\n        string...\n      SWAP3 \t\t\t MedicalItem {\\n        string...\n      POP \t\t\t MedicalItem {\\n        string...\n      POP \t\t\t MedicalItem {\\n        string...\n      POP \t\t\t MedicalItem {\\n        string...\n      JUMP [out]\t\t\t MedicalItem {\\n        string...\n    tag 136\t\t\titemId, string name, uint256 q...\n      JUMPDEST \t\t\titemId, string name, uint256 q...\n      PUSH 0\t\t\titemId, string name, uint256 q...\n      DUP3 \t\t\t   \n      PUSH 1F\t\t\tnder\n      DUP4 \t\t\t= msg.\n      ADD \t\t\tner = msg.sender;\n      SLT \t\t\t  owner = msg.sender;\\n    }\n      PUSH [tag] 138\t\t\t) \n      JUMPI \t\t\t) \n      PUSH 0\t\t\t \n      DUP1 \t\t\ti\n      REVERT \t\t\t  modifier o\n    tag 138\t\t\t) \n      JUMPDEST \t\t\t) \n      DUP2 \t\t\tr == o\n      CALLDATALOAD \t\t\tire(msg.sender == ow\n      PUSH [tag] 139\t\t\ter can perform this action\");\\...\n      DUP5 \t\t\t me\n      DUP3 \t\t\tm(stri\n      PUSH 20\t\t\t add\n      DUP7 \t\t\tfuncti\n      ADD \t\t\t    function addI\n      PUSH [tag] 127\t\t\ter can perform this action\");\\...\n      JUMP [in]\t\t\ter can perform this action\");\\...\n    tag 139\t\t\ter can perform this action\");\\...\n      JUMPDEST \t\t\ter can perform this action\");\\...\n      SWAP2 \t\t\ty the owner can perform this a...\n      POP \t\t\ty the owner can perform this a...\n      POP \t\t\tnstructor() {\\n        owner =...\n      SWAP3 \t\t\tnstructor() {\\n        owner =...\n      SWAP2 \t\t\tnstructor() {\\n        owner =...\n      POP \t\t\tnstructor() {\\n        owner =...\n      POP \t\t\tnstructor() {\\n        owner =...\n      JUMP [out]\t\t\tnstructor() {\\n        owner =...\n    tag 140\t\t\tint256 _quantity, uint256 _pri...\n      JUMPDEST \t\t\tint256 _quantity, uint256 _pri...\n      PUSH 0\t\t\tint256 _quantity, uint256 _pri...\n      DUP2 \t\t\t\"Quant\n      CALLDATALOAD \t\t\tuantity > 0, \"Quanti\n      SWAP1 \t\t\tequire(_quantity > 0, \"Quanti\n      POP \t\t\tequire(_quantity > 0, \"Quanti\n      PUSH [tag] 142\t\t\te greater than 0\");\\n        r...\n      DUP2 \t\t\t requ\n      PUSH [tag] 143\t\t\te greater than 0\");\\n        r...\n      JUMP [in]\t\t\te greater than 0\");\\n        r...\n    tag 142\t\t\te greater than 0\");\\n        r...\n      JUMPDEST \t\t\te greater than 0\");\\n        r...\n      SWAP3 \t\t\t\\n        require(_quantity > ...\n      SWAP2 \t\t\t\\n        require(_quantity > ...\n      POP \t\t\t\\n        require(_quantity > ...\n      POP \t\t\t\\n        require(_quantity > ...\n      JUMP [out]\t\t\t\\n        require(_quantity > ...\n    tag 14\t\t\tName[_name] == 0, \"Item with t...\n      JUMPDEST \t\t\tName[_name] == 0, \"Item with t...\n      PUSH 0\t\t\tName[_name] == 0, \"Item with t...\n      PUSH 20\t\t\t  \n      DUP3 \t\t\t itemCoun\n      DUP5 \t\t\t itemId\n      SUB \t\t\tt256 itemId = itemCount\n      SLT \t\t\t uint256 itemId = itemCount;\\n...\n      ISZERO \t\t\t  \n      PUSH [tag] 145\t\t\t  \n      JUMPI \t\t\t  \n      PUSH 0\t\t\te\n      DUP1 \t\t\t[\n      REVERT \t\t\t  items[item\n    tag 145\t\t\t  \n      JUMPDEST \t\t\t  \n      PUSH 0\t\t\ta\n      DUP3 \t\t\tdsByName[\n      ADD \t\t\ttemIdsByName[_nam\n      CALLDATALOAD \t\t\te);\\n        itemIdsByName[_na...\n      PUSH FFFFFFFFFFFFFFFF\t\t\temAdded(itemId, _n\n      DUP2 \t\t\t emit \n      GT \t\t\t    emit ItemAdded(itemId, _na\n      ISZERO \t\t\t  \n      PUSH [tag] 146\t\t\t  \n      JUMPI \t\t\t  \n      PUSH 0\t\t\t,\n      DUP1 \t\t\ti\n      REVERT \t\t\t _quantity, \n    tag 146\t\t\t  \n      JUMPDEST \t\t\t  \n      PUSH [tag] 147\t\t\tn getItemIdByName(string memor...\n      DUP5 \t\t\t       \n      DUP3 \t\t\t publi\n      DUP6 \t\t\tme)\\n     \n      ADD \t\t\t _name)\\n        public\n      PUSH [tag] 136\t\t\tn getItemIdByName(string memor...\n      JUMP [in]\t\t\tn getItemIdByName(string memor...\n    tag 147\t\t\tn getItemIdByName(string memor...\n      JUMPDEST \t\t\tn getItemIdByName(string memor...\n      SWAP2 \t\t\t   function getItemIdByName(st...\n      POP \t\t\t   function getItemIdByName(st...\n      POP \t\t\tlItem(_name, _quantity, _price...\n      SWAP3 \t\t\tnt++;\\n        uint256 itemId ...\n      SWAP2 \t\t\tnt++;\\n        uint256 itemId ...\n      POP \t\t\tnt++;\\n        uint256 itemId ...\n      POP \t\t\tnt++;\\n        uint256 itemId ...\n      JUMP [out]\t\t\tnt++;\\n        uint256 itemId ...\n    tag 45\t\t\tnt256)\\n    {\\n        uint256...\n      JUMPDEST \t\t\tnt256)\\n    {\\n        uint256...\n      PUSH 0\t\t\tnt256)\\n    {\\n        uint256...\n      DUP1 \t\t\tnt256)\\n    {\\n        uint256...\n      PUSH 0\t\t\tnt256)\\n    {\\n        uint256...\n      PUSH 60\t\t\tIt\n      DUP5 \t\t\tfunction \n      DUP7 \t\t\t   }\\n  \n      SUB \t\t\td;\\n    }\\n    function g\n      SLT \t\t\ttemId;\\n    }\\n    function ge...\n      ISZERO \t\t\tn \n      PUSH [tag] 149\t\t\tn \n      JUMPI \t\t\tn \n      PUSH 0\t\t\t \n      DUP1 \t\t\t2\n      REVERT \t\t\tta(uint256 _\n    tag 149\t\t\tn \n      JUMPDEST \t\t\tn \n      PUSH 0\t\t\tt\n      DUP5 \t\t\t         \n      ADD \t\t\t(\\n            str\n      CALLDATALOAD \t\t\t     returns (\\n            st...\n      PUSH FFFFFFFFFFFFFFFF\t\t\t uint256 quantity,\n      DUP2 \t\t\t      \n      GT \t\t\t            uint256 quantity,\\...\n      ISZERO \t\t\te,\n      PUSH [tag] 150\t\t\te,\n      JUMPI \t\t\te,\n      PUSH 0\t\t\ti\n      DUP1 \t\t\t \n      REVERT \t\t\t         uin\n    tag 150\t\t\te,\n      JUMPDEST \t\t\te,\n      PUSH [tag] 151\t\t\t\\n        require(_itemId > 0 ...\n      DUP7 \t\t\tInvalid\n      DUP3 \t\t\tmCount\n      DUP8 \t\t\temId <= i\n      ADD \t\t\t _itemId <= itemCount,\n      PUSH [tag] 136\t\t\t\\n        require(_itemId > 0 ...\n      JUMP [in]\t\t\t\\n        require(_itemId > 0 ...\n    tag 151\t\t\t\\n        require(_itemId > 0 ...\n      JUMPDEST \t\t\t\\n        require(_itemId > 0 ...\n      SWAP4 \t\t\t   )\\n    {\\n        require(_...\n      POP \t\t\t   )\\n    {\\n        require(_...\n      POP \t\t\t    external\\n        view\\n  ...\n      PUSH 20\t\t\tms\n      PUSH [tag] 152\t\t\tn (item.name, item.quantity, i...\n      DUP7 \t\t\t }\\n\\n   \n      DUP3 \t\t\tice);\\n\n      DUP8 \t\t\tty, item.\n      ADD \t\t\tantity, item.price);\\n \n      PUSH [tag] 140\t\t\tn (item.name, item.quantity, i...\n      JUMP [in]\t\t\tn (item.name, item.quantity, i...\n    tag 152\t\t\tn (item.name, item.quantity, i...\n      JUMPDEST \t\t\tn (item.name, item.quantity, i...\n      SWAP3 \t\t\t     return (item.name, item.q...\n      POP \t\t\t     return (item.name, item.q...\n      POP \t\t\tedicalItem storage item = item...\n      PUSH 40\t\t\tw\\n\n      PUSH [tag] 153\t\t\t      uint256[] memory,\\n     ...\n      DUP7 \t\t\tmemory,\n      DUP3 \t\t\tstring\n      DUP8 \t\t\t         \n      ADD \t\t\ty,\\n            string[\n      PUSH [tag] 140\t\t\t      uint256[] memory,\\n     ...\n      JUMP [in]\t\t\t      uint256[] memory,\\n     ...\n    tag 153\t\t\t      uint256[] memory,\\n     ...\n      JUMPDEST \t\t\t      uint256[] memory,\\n     ...\n      SWAP2 \t\t\ts (\\n            uint256[] mem...\n      POP \t\t\ts (\\n            uint256[] mem...\n      POP \t\t\t()\\n        public\\n        vi...\n      SWAP3 \t\t\t     return itemId;\\n    }\\n  ...\n      POP \t\t\t     return itemId;\\n    }\\n  ...\n      SWAP3 \t\t\t     return itemId;\\n    }\\n  ...\n      POP \t\t\t     return itemId;\\n    }\\n  ...\n      SWAP3 \t\t\t     return itemId;\\n    }\\n  ...\n      JUMP [out]\t\t\t     return itemId;\\n    }\\n  ...\n    tag 27\t\t\temory,\\n            uint256[] ...\n      JUMPDEST \t\t\temory,\\n            uint256[] ...\n      PUSH 0\t\t\temory,\\n            uint256[] ...\n      PUSH 20\t\t\t\\n \n      DUP3 \t\t\t(itemCoun\n      DUP5 \t\t\tuint256\n      SUB \t\t\tnew uint256[](itemCount\n      SLT \t\t\ts = new uint256[](itemCount);\\...\n      ISZERO \t\t\t i\n      PUSH [tag] 155\t\t\t i\n      JUMPI \t\t\t i\n      PUSH 0\t\t\t]\n      DUP1 \t\t\tn\n      REVERT \t\t\t   string[] \n    tag 155\t\t\t i\n      JUMPDEST \t\t\t i\n      PUSH 0\t\t\t \n      PUSH [tag] 156\t\t\tuantities = new uint256[](item...\n      DUP5 \t\t\t uint25\n      DUP3 \t\t\t;\\n    \n      DUP6 \t\t\t(itemCoun\n      ADD \t\t\t56[](itemCount);\\n     \n      PUSH [tag] 140\t\t\tuantities = new uint256[](item...\n      JUMP [in]\t\t\tuantities = new uint256[](item...\n    tag 156\t\t\tuantities = new uint256[](item...\n      JUMPDEST \t\t\tuantities = new uint256[](item...\n      SWAP2 \t\t\t] memory quantities = new uint...\n      POP \t\t\t] memory quantities = new uint...\n      POP \t\t\t = new string[](itemCount);\\n ...\n      SWAP3 \t\t\t6[] memory ids = new uint256[]...\n      SWAP2 \t\t\t6[] memory ids = new uint256[]...\n      POP \t\t\t6[] memory ids = new uint256[]...\n      POP \t\t\t6[] memory ids = new uint256[]...\n      JUMP [out]\t\t\t6[] memory ids = new uint256[]...\n    tag 157\t\t\tuint256[](itemCount);\\n\\n     ...\n      JUMPDEST \t\t\tuint256[](itemCount);\\n\\n     ...\n      PUSH 0\t\t\tuint256[](itemCount);\\n\\n     ...\n      PUSH [tag] 159\t\t\t1] = items[i].name;\\n         ...\n      DUP4 \t\t\tuan\n      DUP4 \t\t\tems[i]\n      PUSH [tag] 160\t\t\t1] = items[i].name;\\n         ...\n      JUMP [in]\t\t\t1] = items[i].name;\\n         ...\n    tag 159\t\t\t1] = items[i].name;\\n         ...\n      JUMPDEST \t\t\t1] = items[i].name;\\n         ...\n      SWAP1 \t\t\t    names[i - 1] = items[i].na...\n      POP \t\t\t    names[i - 1] = items[i].na...\n      SWAP3 \t\t\t;\\n            names[i - 1] = ...\n      SWAP2 \t\t\t;\\n            names[i - 1] = ...\n      POP \t\t\t;\\n            names[i - 1] = ...\n      POP \t\t\t;\\n            names[i - 1] = ...\n      JUMP [out]\t\t\t;\\n            names[i - 1] = ...\n    tag 161\t\t\t     prices[i - 1] = items[i]....\n      JUMPDEST \t\t\t     prices[i - 1] = items[i]....\n      PUSH 0\t\t\t     prices[i - 1] = items[i]....\n      PUSH [tag] 163\t\t\tices);\\n    }\\n}\\n\n      DUP4 \t\t\t\n      DUP4 \t\t\t\n      PUSH [tag] 164\t\t\tices);\\n    }\\n}\\n\n      JUMP [in]\t\t\tices);\\n    }\\n}\\n\n    tag 163\t\t\tices);\\n    }\\n}\\n\n      JUMPDEST \t\t\tices);\\n    }\\n}\\n\n      PUSH 20\t\t\t\n      DUP4 \t\t\t\n      ADD \t\t\t\n      SWAP1 \t\t\t\n      POP \t\t\t\n      SWAP3 \t\t\ttities, prices);\\n    }\\n}\\n\n      SWAP2 \t\t\ttities, prices);\\n    }\\n}\\n\n      POP \t\t\ttities, prices);\\n    }\\n}\\n\n      POP \t\t\ttities, prices);\\n    }\\n}\\n\n      JUMP [out]\t\t\ttities, prices);\\n    }\\n}\\n\n    tag 165\t\t\t\n      JUMPDEST \t\t\t\n      PUSH [tag] 167\t\t\t\n      DUP2 \t\t\t\n      PUSH [tag] 168\t\t\t\n      JUMP [in]\t\t\t\n    tag 167\t\t\t\n      JUMPDEST \t\t\t\n      DUP3 \t\t\t\n      MSTORE \t\t\t\n      POP \t\t\t\n      POP \t\t\t\n      JUMP [out]\t\t\t\n    tag 169\t\t\t\n      JUMPDEST \t\t\t\n      PUSH 0\t\t\t\n      PUSH [tag] 171\t\t\t\n      DUP3 \t\t\t\n      PUSH [tag] 172\t\t\t\n      JUMP [in]\t\t\t\n    tag 171\t\t\t\n      JUMPDEST \t\t\t\n      PUSH [tag] 173\t\t\t\n      DUP2 \t\t\t\n      DUP6 \t\t\t\n      PUSH [tag] 174\t\t\t\n      JUMP [in]\t\t\t\n    tag 173\t\t\t\n      JUMPDEST \t\t\t\n      SWAP4 \t\t\t\n      POP \t\t\t\n      DUP4 \t\t\t\n      PUSH 20\t\t\t\n      DUP3 \t\t\t\n      MUL \t\t\t\n      DUP6 \t\t\t\n      ADD \t\t\t\n      PUSH [tag] 175\t\t\t\n      DUP6 \t\t\t\n      PUSH [tag] 176\t\t\t\n      JUMP [in]\t\t\t\n    tag 175\t\t\t\n      JUMPDEST \t\t\t\n      DUP1 \t\t\t\n      PUSH 0\t\t\t\n    tag 177\t\t\t\n      JUMPDEST \t\t\t\n      DUP6 \t\t\t\n      DUP2 \t\t\t\n      LT \t\t\t\n      ISZERO \t\t\t\n      PUSH [tag] 179\t\t\t\n      JUMPI \t\t\t\n      DUP5 \t\t\t\n      DUP5 \t\t\t\n      SUB \t\t\t\n      DUP10 \t\t\t\n      MSTORE \t\t\t\n      DUP2 \t\t\t\n      MLOAD \t\t\t\n      PUSH [tag] 180\t\t\t\n      DUP6 \t\t\t\n      DUP3 \t\t\t\n      PUSH [tag] 157\t\t\t\n      JUMP [in]\t\t\t\n    tag 180\t\t\t\n      JUMPDEST \t\t\t\n      SWAP5 \t\t\t\n      POP \t\t\t\n      PUSH [tag] 181\t\t\t\n      DUP4 \t\t\t\n      PUSH [tag] 182\t\t\t\n      JUMP [in]\t\t\t\n    tag 181\t\t\t\n      JUMPDEST \t\t\t\n      SWAP3 \t\t\t\n      POP \t\t\t\n      PUSH 20\t\t\t\n      DUP11 \t\t\t\n      ADD \t\t\t\n      SWAP10 \t\t\t\n      POP \t\t\t\n      POP \t\t\t\n      PUSH 1\t\t\t\n      DUP2 \t\t\t\n      ADD \t\t\t\n      SWAP1 \t\t\t\n      POP \t\t\t\n      PUSH [tag] 177\t\t\t\n      JUMP \t\t\t\n    tag 179\t\t\t\n      JUMPDEST \t\t\t\n      POP \t\t\t\n      DUP3 \t\t\t\n      SWAP8 \t\t\t\n      POP \t\t\t\n      DUP8 \t\t\t\n      SWAP6 \t\t\t\n      POP \t\t\t\n      POP \t\t\t\n      POP \t\t\t\n      POP \t\t\t\n      POP \t\t\t\n      POP \t\t\t\n      SWAP3 \t\t\t\n      SWAP2 \t\t\t\n      POP \t\t\t\n      POP \t\t\t\n      JUMP [out]\t\t\t\n    tag 183\t\t\t\n      JUMPDEST \t\t\t\n      PUSH 0\t\t\t\n      PUSH [tag] 185\t\t\t\n      DUP3 \t\t\t\n      PUSH [tag] 186\t\t\t\n      JUMP [in]\t\t\t\n    tag 185\t\t\t\n      JUMPDEST \t\t\t\n      PUSH [tag] 187\t\t\t\n      DUP2 \t\t\t\n      DUP6 \t\t\t\n      PUSH [tag] 188\t\t\t\n      JUMP [in]\t\t\t\n    tag 187\t\t\t\n      JUMPDEST \t\t\t\n      SWAP4 \t\t\t\n      POP \t\t\t\n      PUSH [tag] 189\t\t\t\n      DUP4 \t\t\t\n      PUSH [tag] 190\t\t\t\n      JUMP [in]\t\t\t\n    tag 189\t\t\t\n      JUMPDEST \t\t\t\n      DUP1 \t\t\t\n      PUSH 0\t\t\t\n    tag 191\t\t\t\n      JUMPDEST \t\t\t\n      DUP4 \t\t\t\n      DUP2 \t\t\t\n      LT \t\t\t\n      ISZERO \t\t\t\n      PUSH [tag] 193\t\t\t\n      JUMPI \t\t\t\n      DUP2 \t\t\t\n      MLOAD \t\t\t\n      PUSH [tag] 194\t\t\t\n      DUP9 \t\t\t\n      DUP3 \t\t\t\n      PUSH [tag] 161\t\t\t\n      JUMP [in]\t\t\t\n    tag 194\t\t\t\n      JUMPDEST \t\t\t\n      SWAP8 \t\t\t\n      POP \t\t\t\n      PUSH [tag] 195\t\t\t\n      DUP4 \t\t\t\n      PUSH [tag] 196\t\t\t\n      JUMP [in]\t\t\t\n    tag 195\t\t\t\n      JUMPDEST \t\t\t\n      SWAP3 \t\t\t\n      POP \t\t\t\n      POP \t\t\t\n      PUSH 1\t\t\t\n      DUP2 \t\t\t\n      ADD \t\t\t\n      SWAP1 \t\t\t\n      POP \t\t\t\n      PUSH [tag] 191\t\t\t\n      JUMP \t\t\t\n    tag 193\t\t\t\n      JUMPDEST \t\t\t\n      POP \t\t\t\n      DUP6 \t\t\t\n      SWAP4 \t\t\t\n      POP \t\t\t\n      POP \t\t\t\n      POP \t\t\t\n      POP \t\t\t\n      SWAP3 \t\t\t\n      SWAP2 \t\t\t\n      POP \t\t\t\n      POP \t\t\t\n      JUMP [out]\t\t\t\n    tag 160\t\t\t\n      JUMPDEST \t\t\t\n      PUSH 0\t\t\t\n      PUSH [tag] 198\t\t\t\n      DUP3 \t\t\t\n      PUSH [tag] 199\t\t\t\n      JUMP [in]\t\t\t\n    tag 198\t\t\t\n      JUMPDEST \t\t\t\n      PUSH [tag] 200\t\t\t\n      DUP2 \t\t\t\n      DUP6 \t\t\t\n      PUSH [tag] 201\t\t\t\n      JUMP [in]\t\t\t\n    tag 200\t\t\t\n      JUMPDEST \t\t\t\n      SWAP4 \t\t\t\n      POP \t\t\t\n      PUSH [tag] 202\t\t\t\n      DUP2 \t\t\t\n      DUP6 \t\t\t\n      PUSH 20\t\t\t\n      DUP7 \t\t\t\n      ADD \t\t\t\n      PUSH [tag] 203\t\t\t\n      JUMP [in]\t\t\t\n    tag 202\t\t\t\n      JUMPDEST \t\t\t\n      PUSH [tag] 204\t\t\t\n      DUP2 \t\t\t\n      PUSH [tag] 205\t\t\t\n      JUMP [in]\t\t\t\n    tag 204\t\t\t\n      JUMPDEST \t\t\t\n      DUP5 \t\t\t\n      ADD \t\t\t\n      SWAP2 \t\t\t\n      POP \t\t\t\n      POP \t\t\t\n      SWAP3 \t\t\t\n      SWAP2 \t\t\t\n      POP \t\t\t\n      POP \t\t\t\n      JUMP [out]\t\t\t\n    tag 206\t\t\t\n      JUMPDEST \t\t\t\n      PUSH 0\t\t\t\n      PUSH [tag] 208\t\t\t\n      DUP3 \t\t\t\n      PUSH [tag] 199\t\t\t\n      JUMP [in]\t\t\t\n    tag 208\t\t\t\n      JUMPDEST \t\t\t\n      PUSH [tag] 209\t\t\t\n      DUP2 \t\t\t\n      DUP6 \t\t\t\n      PUSH [tag] 210\t\t\t\n      JUMP [in]\t\t\t\n    tag 209\t\t\t\n      JUMPDEST \t\t\t\n      SWAP4 \t\t\t\n      POP \t\t\t\n      PUSH [tag] 211\t\t\t\n      DUP2 \t\t\t\n      DUP6 \t\t\t\n      PUSH 20\t\t\t\n      DUP7 \t\t\t\n      ADD \t\t\t\n      PUSH [tag] 203\t\t\t\n      JUMP [in]\t\t\t\n    tag 211\t\t\t\n      JUMPDEST \t\t\t\n      PUSH [tag] 212\t\t\t\n      DUP2 \t\t\t\n      PUSH [tag] 205\t\t\t\n      JUMP [in]\t\t\t\n    tag 212\t\t\t\n      JUMPDEST \t\t\t\n      DUP5 \t\t\t\n      ADD \t\t\t\n      SWAP2 \t\t\t\n      POP \t\t\t\n      POP \t\t\t\n      SWAP3 \t\t\t\n      SWAP2 \t\t\t\n      POP \t\t\t\n      POP \t\t\t\n      JUMP [out]\t\t\t\n    tag 213\t\t\t\n      JUMPDEST \t\t\t\n      PUSH 0\t\t\t\n      PUSH [tag] 215\t\t\t\n      DUP3 \t\t\t\n      PUSH [tag] 199\t\t\t\n      JUMP [in]\t\t\t\n    tag 215\t\t\t\n      JUMPDEST \t\t\t\n      PUSH [tag] 216\t\t\t\n      DUP2 \t\t\t\n      DUP6 \t\t\t\n      PUSH [tag] 217\t\t\t\n      JUMP [in]\t\t\t\n    tag 216\t\t\t\n      JUMPDEST \t\t\t\n      SWAP4 \t\t\t\n      POP \t\t\t\n      PUSH [tag] 218\t\t\t\n      DUP2 \t\t\t\n      DUP6 \t\t\t\n      PUSH 20\t\t\t\n      DUP7 \t\t\t\n      ADD \t\t\t\n      PUSH [tag] 203\t\t\t\n      JUMP [in]\t\t\t\n    tag 218\t\t\t\n      JUMPDEST \t\t\t\n      DUP1 \t\t\t\n      DUP5 \t\t\t\n      ADD \t\t\t\n      SWAP2 \t\t\t\n      POP \t\t\t\n      POP \t\t\t\n      SWAP3 \t\t\t\n      SWAP2 \t\t\t\n      POP \t\t\t\n      POP \t\t\t\n      JUMP [out]\t\t\t\n    tag 219\t\t\t\n      JUMPDEST \t\t\t\n      PUSH 0\t\t\t\n      PUSH [tag] 221\t\t\t\n      PUSH 1F\t\t\t\n      DUP4 \t\t\t\n      PUSH [tag] 210\t\t\t\n      JUMP [in]\t\t\t\n    tag 221\t\t\t\n      JUMPDEST \t\t\t\n      SWAP2 \t\t\t\n      POP \t\t\t\n      PUSH 5175616E74697479206D7573742062652067726561746572207468616E203000\t\t\t\n      PUSH 0\t\t\t\n      DUP4 \t\t\t\n      ADD \t\t\t\n      MSTORE \t\t\t\n      PUSH 20\t\t\t\n      DUP3 \t\t\t\n      ADD \t\t\t\n      SWAP1 \t\t\t\n      POP \t\t\t\n      SWAP2 \t\t\t\n      SWAP1 \t\t\t\n      POP \t\t\t\n      JUMP [out]\t\t\t\n    tag 222\t\t\t\n      JUMPDEST \t\t\t\n      PUSH 0\t\t\t\n      PUSH [tag] 224\t\t\t\n      PUSH 26\t\t\t\n      DUP4 \t\t\t\n      PUSH [tag] 210\t\t\t\n      JUMP [in]\t\t\t\n    tag 224\t\t\t\n      JUMPDEST \t\t\t\n      SWAP2 \t\t\t\n      POP \t\t\t\n      PUSH 4974656D2077697468207468652073616D65206E616D6520616C726561647920\t\t\t\n      PUSH 0\t\t\t\n      DUP4 \t\t\t\n      ADD \t\t\t\n      MSTORE \t\t\t\n      PUSH 6578697374730000000000000000000000000000000000000000000000000000\t\t\t\n      PUSH 20\t\t\t\n      DUP4 \t\t\t\n      ADD \t\t\t\n      MSTORE \t\t\t\n      PUSH 40\t\t\t\n      DUP3 \t\t\t\n      ADD \t\t\t\n      SWAP1 \t\t\t\n      POP \t\t\t\n      SWAP2 \t\t\t\n      SWAP1 \t\t\t\n      POP \t\t\t\n      JUMP [out]\t\t\t\n    tag 225\t\t\t\n      JUMPDEST \t\t\t\n      PUSH 0\t\t\t\n      PUSH [tag] 227\t\t\t\n      PUSH F\t\t\t\n      DUP4 \t\t\t\n      PUSH [tag] 210\t\t\t\n      JUMP [in]\t\t\t\n    tag 227\t\t\t\n      JUMPDEST \t\t\t\n      SWAP2 \t\t\t\n      POP \t\t\t\n      PUSH 496E76616C6964206974656D2049440000000000000000000000000000000000\t\t\t\n      PUSH 0\t\t\t\n      DUP4 \t\t\t\n      ADD \t\t\t\n      MSTORE \t\t\t\n      PUSH 20\t\t\t\n      DUP3 \t\t\t\n      ADD \t\t\t\n      SWAP1 \t\t\t\n      POP \t\t\t\n      SWAP2 \t\t\t\n      SWAP1 \t\t\t\n      POP \t\t\t\n      JUMP [out]\t\t\t\n    tag 228\t\t\t\n      JUMPDEST \t\t\t\n      PUSH 0\t\t\t\n      PUSH [tag] 230\t\t\t\n      PUSH 26\t\t\t\n      DUP4 \t\t\t\n      PUSH [tag] 210\t\t\t\n      JUMP [in]\t\t\t\n    tag 230\t\t\t\n      JUMPDEST \t\t\t\n      SWAP2 \t\t\t\n      POP \t\t\t\n      PUSH 4F6E6C7920746865206F776E65722063616E20706572666F726D207468697320\t\t\t\n      PUSH 0\t\t\t\n      DUP4 \t\t\t\n      ADD \t\t\t\n      MSTORE \t\t\t\n      PUSH 616374696F6E0000000000000000000000000000000000000000000000000000\t\t\t\n      PUSH 20\t\t\t\n      DUP4 \t\t\t\n      ADD \t\t\t\n      MSTORE \t\t\t\n      PUSH 40\t\t\t\n      DUP3 \t\t\t\n      ADD \t\t\t\n      SWAP1 \t\t\t\n      POP \t\t\t\n      SWAP2 \t\t\t\n      SWAP1 \t\t\t\n      POP \t\t\t\n      JUMP [out]\t\t\t\n    tag 231\t\t\t\n      JUMPDEST \t\t\t\n      PUSH 0\t\t\t\n      PUSH [tag] 233\t\t\t\n      PUSH E\t\t\t\n      DUP4 \t\t\t\n      PUSH [tag] 210\t\t\t\n      JUMP [in]\t\t\t\n    tag 233\t\t\t\n      JUMPDEST \t\t\t\n      SWAP2 \t\t\t\n      POP \t\t\t\n      PUSH 4974656D206E6F7420666F756E64000000000000000000000000000000000000\t\t\t\n      PUSH 0\t\t\t\n      DUP4 \t\t\t\n      ADD \t\t\t\n      MSTORE \t\t\t\n      PUSH 20\t\t\t\n      DUP3 \t\t\t\n      ADD \t\t\t\n      SWAP1 \t\t\t\n      POP \t\t\t\n      SWAP2 \t\t\t\n      SWAP1 \t\t\t\n      POP \t\t\t\n      JUMP [out]\t\t\t\n    tag 164\t\t\t\n      JUMPDEST \t\t\t\n      PUSH [tag] 235\t\t\t\n      DUP2 \t\t\t\n      PUSH [tag] 236\t\t\t\n      JUMP [in]\t\t\t\n    tag 235\t\t\t\n      JUMPDEST \t\t\t\n      DUP3 \t\t\t\n      MSTORE \t\t\t\n      POP \t\t\t\n      POP \t\t\t\n      JUMP [out]\t\t\t\n    tag 237\t\t\t\n      JUMPDEST \t\t\t\n      PUSH [tag] 239\t\t\t\n      DUP2 \t\t\t\n      PUSH [tag] 236\t\t\t\n      JUMP [in]\t\t\t\n    tag 239\t\t\t\n      JUMPDEST \t\t\t\n      DUP3 \t\t\t\n      MSTORE \t\t\t\n      POP \t\t\t\n      POP \t\t\t\n      JUMP [out]\t\t\t\n    tag 49\t\t\t\n      JUMPDEST \t\t\t\n      PUSH 0\t\t\t\n      PUSH [tag] 241\t\t\t\n      DUP3 \t\t\t\n      DUP5 \t\t\t\n      PUSH [tag] 213\t\t\t\n      JUMP [in]\t\t\t\n    tag 241\t\t\t\n      JUMPDEST \t\t\t\n      SWAP2 \t\t\t\n      POP \t\t\t\n      DUP2 \t\t\t\n      SWAP1 \t\t\t\n      POP \t\t\t\n      SWAP3 \t\t\t\n      SWAP2 \t\t\t\n      POP \t\t\t\n      POP \t\t\t\n      JUMP [out]\t\t\t\n    tag 34\t\t\t\n      JUMPDEST \t\t\t\n      PUSH 0\t\t\t\n      PUSH 20\t\t\t\n      DUP3 \t\t\t\n      ADD \t\t\t\n      SWAP1 \t\t\t\n      POP \t\t\t\n      PUSH [tag] 243\t\t\t\n      PUSH 0\t\t\t\n      DUP4 \t\t\t\n      ADD \t\t\t\n      DUP5 \t\t\t\n      PUSH [tag] 165\t\t\t\n      JUMP [in]\t\t\t\n    tag 243\t\t\t\n      JUMPDEST \t\t\t\n      SWAP3 \t\t\t\n      SWAP2 \t\t\t\n      POP \t\t\t\n      POP \t\t\t\n      JUMP [out]\t\t\t\n    tag 21\t\t\t\n      JUMPDEST \t\t\t\n      PUSH 0\t\t\t\n      PUSH 80\t\t\t\n      DUP3 \t\t\t\n      ADD \t\t\t\n      SWAP1 \t\t\t\n      POP \t\t\t\n      DUP2 \t\t\t\n      DUP2 \t\t\t\n      SUB \t\t\t\n      PUSH 0\t\t\t\n      DUP4 \t\t\t\n      ADD \t\t\t\n      MSTORE \t\t\t\n      PUSH [tag] 245\t\t\t\n      DUP2 \t\t\t\n      DUP8 \t\t\t\n      PUSH [tag] 183\t\t\t\n      JUMP [in]\t\t\t\n    tag 245\t\t\t\n      JUMPDEST \t\t\t\n      SWAP1 \t\t\t\n      POP \t\t\t\n      DUP2 \t\t\t\n      DUP2 \t\t\t\n      SUB \t\t\t\n      PUSH 20\t\t\t\n      DUP4 \t\t\t\n      ADD \t\t\t\n      MSTORE \t\t\t\n      PUSH [tag] 246\t\t\t\n      DUP2 \t\t\t\n      DUP7 \t\t\t\n      PUSH [tag] 169\t\t\t\n      JUMP [in]\t\t\t\n    tag 246\t\t\t\n      JUMPDEST \t\t\t\n      SWAP1 \t\t\t\n      POP \t\t\t\n      DUP2 \t\t\t\n      DUP2 \t\t\t\n      SUB \t\t\t\n      PUSH 40\t\t\t\n      DUP4 \t\t\t\n      ADD \t\t\t\n      MSTORE \t\t\t\n      PUSH [tag] 247\t\t\t\n      DUP2 \t\t\t\n      DUP6 \t\t\t\n      PUSH [tag] 183\t\t\t\n      JUMP [in]\t\t\t\n    tag 247\t\t\t\n      JUMPDEST \t\t\t\n      SWAP1 \t\t\t\n      POP \t\t\t\n      DUP2 \t\t\t\n      DUP2 \t\t\t\n      SUB \t\t\t\n      PUSH 60\t\t\t\n      DUP4 \t\t\t\n      ADD \t\t\t\n      MSTORE \t\t\t\n      PUSH [tag] 248\t\t\t\n      DUP2 \t\t\t\n      DUP5 \t\t\t\n      PUSH [tag] 183\t\t\t\n      JUMP [in]\t\t\t\n    tag 248\t\t\t\n      JUMPDEST \t\t\t\n      SWAP1 \t\t\t\n      POP \t\t\t\n      SWAP6 \t\t\t\n      SWAP5 \t\t\t\n      POP \t\t\t\n      POP \t\t\t\n      POP \t\t\t\n      POP \t\t\t\n      POP \t\t\t\n      JUMP [out]\t\t\t\n    tag 30\t\t\t\n      JUMPDEST \t\t\t\n      PUSH 0\t\t\t\n      PUSH 60\t\t\t\n      DUP3 \t\t\t\n      ADD \t\t\t\n      SWAP1 \t\t\t\n      POP \t\t\t\n      DUP2 \t\t\t\n      DUP2 \t\t\t\n      SUB \t\t\t\n      PUSH 0\t\t\t\n      DUP4 \t\t\t\n      ADD \t\t\t\n      MSTORE \t\t\t\n      PUSH [tag] 250\t\t\t\n      DUP2 \t\t\t\n      DUP7 \t\t\t\n      PUSH [tag] 206\t\t\t\n      JUMP [in]\t\t\t\n    tag 250\t\t\t\n      JUMPDEST \t\t\t\n      SWAP1 \t\t\t\n      POP \t\t\t\n      PUSH [tag] 251\t\t\t\n      PUSH 20\t\t\t\n      DUP4 \t\t\t\n      ADD \t\t\t\n      DUP6 \t\t\t\n      PUSH [tag] 237\t\t\t\n      JUMP [in]\t\t\t\n    tag 251\t\t\t\n      JUMPDEST \t\t\t\n      PUSH [tag] 252\t\t\t\n      PUSH 40\t\t\t\n      DUP4 \t\t\t\n      ADD \t\t\t\n      DUP5 \t\t\t\n      PUSH [tag] 237\t\t\t\n      JUMP [in]\t\t\t\n    tag 252\t\t\t\n      JUMPDEST \t\t\t\n      SWAP5 \t\t\t\n      SWAP4 \t\t\t\n      POP \t\t\t\n      POP \t\t\t\n      POP \t\t\t\n      POP \t\t\t\n      JUMP [out]\t\t\t\n    tag 105\t\t\t\n      JUMPDEST \t\t\t\n      PUSH 0\t\t\t\n      PUSH 20\t\t\t\n      DUP3 \t\t\t\n      ADD \t\t\t\n      SWAP1 \t\t\t\n      POP \t\t\t\n      DUP2 \t\t\t\n      DUP2 \t\t\t\n      SUB \t\t\t\n      PUSH 0\t\t\t\n      DUP4 \t\t\t\n      ADD \t\t\t\n      MSTORE \t\t\t\n      PUSH [tag] 254\t\t\t\n      DUP2 \t\t\t\n      PUSH [tag] 219\t\t\t\n      JUMP [in]\t\t\t\n    tag 254\t\t\t\n      JUMPDEST \t\t\t\n      SWAP1 \t\t\t\n      POP \t\t\t\n      SWAP2 \t\t\t\n      SWAP1 \t\t\t\n      POP \t\t\t\n      JUMP [out]\t\t\t\n    tag 109\t\t\t\n      JUMPDEST \t\t\t\n      PUSH 0\t\t\t\n      PUSH 20\t\t\t\n      DUP3 \t\t\t\n      ADD \t\t\t\n      SWAP1 \t\t\t\n      POP \t\t\t\n      DUP2 \t\t\t\n      DUP2 \t\t\t\n      SUB \t\t\t\n      PUSH 0\t\t\t\n      DUP4 \t\t\t\n      ADD \t\t\t\n      MSTORE \t\t\t\n      PUSH [tag] 256\t\t\t\n      DUP2 \t\t\t\n      PUSH [tag] 222\t\t\t\n      JUMP [in]\t\t\t\n    tag 256\t\t\t\n      JUMPDEST \t\t\t\n      SWAP1 \t\t\t\n      POP \t\t\t\n      SWAP2 \t\t\t\n      SWAP1 \t\t\t\n      POP \t\t\t\n      JUMP [out]\t\t\t\n    tag 87\t\t\t\n      JUMPDEST \t\t\t\n      PUSH 0\t\t\t\n      PUSH 20\t\t\t\n      DUP3 \t\t\t\n      ADD \t\t\t\n      SWAP1 \t\t\t\n      POP \t\t\t\n      DUP2 \t\t\t\n      DUP2 \t\t\t\n      SUB \t\t\t\n      PUSH 0\t\t\t\n      DUP4 \t\t\t\n      ADD \t\t\t\n      MSTORE \t\t\t\n      PUSH [tag] 258\t\t\t\n      DUP2 \t\t\t\n      PUSH [tag] 225\t\t\t\n      JUMP [in]\t\t\t\n    tag 258\t\t\t\n      JUMPDEST \t\t\t\n      SWAP1 \t\t\t\n      POP \t\t\t\n      SWAP2 \t\t\t\n      SWAP1 \t\t\t\n      POP \t\t\t\n      JUMP [out]\t\t\t\n    tag 101\t\t\t\n      JUMPDEST \t\t\t\n      PUSH 0\t\t\t\n      PUSH 20\t\t\t\n      DUP3 \t\t\t\n      ADD \t\t\t\n      SWAP1 \t\t\t\n      POP \t\t\t\n      DUP2 \t\t\t\n      DUP2 \t\t\t\n      SUB \t\t\t\n      PUSH 0\t\t\t\n      DUP4 \t\t\t\n      ADD \t\t\t\n      MSTORE \t\t\t\n      PUSH [tag] 260\t\t\t\n      DUP2 \t\t\t\n      PUSH [tag] 228\t\t\t\n      JUMP [in]\t\t\t\n    tag 260\t\t\t\n      JUMPDEST \t\t\t\n      SWAP1 \t\t\t\n      POP \t\t\t\n      SWAP2 \t\t\t\n      SWAP1 \t\t\t\n      POP \t\t\t\n      JUMP [out]\t\t\t\n    tag 52\t\t\t\n      JUMPDEST \t\t\t\n      PUSH 0\t\t\t\n      PUSH 20\t\t\t\n      DUP3 \t\t\t\n      ADD \t\t\t\n      SWAP1 \t\t\t\n      POP \t\t\t\n      DUP2 \t\t\t\n      DUP2 \t\t\t\n      SUB \t\t\t\n      PUSH 0\t\t\t\n      DUP4 \t\t\t\n      ADD \t\t\t\n      MSTORE \t\t\t\n      PUSH [tag] 262\t\t\t\n      DUP2 \t\t\t\n      PUSH [tag] 231\t\t\t\n      JUMP [in]\t\t\t\n    tag 262\t\t\t\n      JUMPDEST \t\t\t\n      SWAP1 \t\t\t\n      POP \t\t\t\n      SWAP2 \t\t\t\n      SWAP1 \t\t\t\n      POP \t\t\t\n      JUMP [out]\t\t\t\n    tag 17\t\t\t\n      JUMPDEST \t\t\t\n      PUSH 0\t\t\t\n      PUSH 20\t\t\t\n      DUP3 \t\t\t\n      ADD \t\t\t\n      SWAP1 \t\t\t\n      POP \t\t\t\n      PUSH [tag] 264\t\t\t\n      PUSH 0\t\t\t\n      DUP4 \t\t\t\n      ADD \t\t\t\n      DUP5 \t\t\t\n      PUSH [tag] 237\t\t\t\n      JUMP [in]\t\t\t\n    tag 264\t\t\t\n      JUMPDEST \t\t\t\n      SWAP3 \t\t\t\n      SWAP2 \t\t\t\n      POP \t\t\t\n      POP \t\t\t\n      JUMP [out]\t\t\t\n    tag 115\t\t\t\n      JUMPDEST \t\t\t\n      PUSH 0\t\t\t\n      PUSH 80\t\t\t\n      DUP3 \t\t\t\n      ADD \t\t\t\n      SWAP1 \t\t\t\n      POP \t\t\t\n      PUSH [tag] 266\t\t\t\n      PUSH 0\t\t\t\n      DUP4 \t\t\t\n      ADD \t\t\t\n      DUP8 \t\t\t\n      PUSH [tag] 237\t\t\t\n      JUMP [in]\t\t\t\n    tag 266\t\t\t\n      JUMPDEST \t\t\t\n      DUP2 \t\t\t\n      DUP2 \t\t\t\n      SUB \t\t\t\n      PUSH 20\t\t\t\n      DUP4 \t\t\t\n      ADD \t\t\t\n      MSTORE \t\t\t\n      PUSH [tag] 267\t\t\t\n      DUP2 \t\t\t\n      DUP7 \t\t\t\n      PUSH [tag] 206\t\t\t\n      JUMP [in]\t\t\t\n    tag 267\t\t\t\n      JUMPDEST \t\t\t\n      SWAP1 \t\t\t\n      POP \t\t\t\n      PUSH [tag] 268\t\t\t\n      PUSH 40\t\t\t\n      DUP4 \t\t\t\n      ADD \t\t\t\n      DUP6 \t\t\t\n      PUSH [tag] 237\t\t\t\n      JUMP [in]\t\t\t\n    tag 268\t\t\t\n      JUMPDEST \t\t\t\n      PUSH [tag] 269\t\t\t\n      PUSH 60\t\t\t\n      DUP4 \t\t\t\n      ADD \t\t\t\n      DUP5 \t\t\t\n      PUSH [tag] 237\t\t\t\n      JUMP [in]\t\t\t\n    tag 269\t\t\t\n      JUMPDEST \t\t\t\n      SWAP6 \t\t\t\n      SWAP5 \t\t\t\n      POP \t\t\t\n      POP \t\t\t\n      POP \t\t\t\n      POP \t\t\t\n      POP \t\t\t\n      JUMP [out]\t\t\t\n    tag 132\t\t\t\n      JUMPDEST \t\t\t\n      PUSH 0\t\t\t\n      PUSH 40\t\t\t\n      MLOAD \t\t\t\n      SWAP1 \t\t\t\n      POP \t\t\t\n      DUP2 \t\t\t\n      DUP2 \t\t\t\n      ADD \t\t\t\n      DUP2 \t\t\t\n      DUP2 \t\t\t\n      LT \t\t\t\n      PUSH FFFFFFFFFFFFFFFF\t\t\t\n      DUP3 \t\t\t\n      GT \t\t\t\n      OR \t\t\t\n      ISZERO \t\t\t\n      PUSH [tag] 271\t\t\t\n      JUMPI \t\t\t\n      PUSH [tag] 272\t\t\t\n      PUSH [tag] 273\t\t\t\n      JUMP [in]\t\t\t\n    tag 272\t\t\t\n      JUMPDEST \t\t\t\n    tag 271\t\t\t\n      JUMPDEST \t\t\t\n      DUP1 \t\t\t\n      PUSH 40\t\t\t\n      MSTORE \t\t\t\n      POP \t\t\t\n      SWAP2 \t\t\t\n      SWAP1 \t\t\t\n      POP \t\t\t\n      JUMP [out]\t\t\t\n    tag 131\t\t\t\n      JUMPDEST \t\t\t\n      PUSH 0\t\t\t\n      PUSH FFFFFFFFFFFFFFFF\t\t\t\n      DUP3 \t\t\t\n      GT \t\t\t\n      ISZERO \t\t\t\n      PUSH [tag] 275\t\t\t\n      JUMPI \t\t\t\n      PUSH [tag] 276\t\t\t\n      PUSH [tag] 273\t\t\t\n      JUMP [in]\t\t\t\n    tag 276\t\t\t\n      JUMPDEST \t\t\t\n    tag 275\t\t\t\n      JUMPDEST \t\t\t\n      PUSH 1F\t\t\t\n      NOT \t\t\t\n      PUSH 1F\t\t\t\n      DUP4 \t\t\t\n      ADD \t\t\t\n      AND \t\t\t\n      SWAP1 \t\t\t\n      POP \t\t\t\n      PUSH 20\t\t\t\n      DUP2 \t\t\t\n      ADD \t\t\t\n      SWAP1 \t\t\t\n      POP \t\t\t\n      SWAP2 \t\t\t\n      SWAP1 \t\t\t\n      POP \t\t\t\n      JUMP [out]\t\t\t\n    tag 176\t\t\t\n      JUMPDEST \t\t\t\n      PUSH 0\t\t\t\n      DUP2 \t\t\t\n      SWAP1 \t\t\t\n      POP \t\t\t\n      PUSH 20\t\t\t\n      DUP3 \t\t\t\n      ADD \t\t\t\n      SWAP1 \t\t\t\n      POP \t\t\t\n      SWAP2 \t\t\t\n      SWAP1 \t\t\t\n      POP \t\t\t\n      JUMP [out]\t\t\t\n    tag 190\t\t\t\n      JUMPDEST \t\t\t\n      PUSH 0\t\t\t\n      DUP2 \t\t\t\n      SWAP1 \t\t\t\n      POP \t\t\t\n      PUSH 20\t\t\t\n      DUP3 \t\t\t\n      ADD \t\t\t\n      SWAP1 \t\t\t\n      POP \t\t\t\n      SWAP2 \t\t\t\n      SWAP1 \t\t\t\n      POP \t\t\t\n      JUMP [out]\t\t\t\n    tag 172\t\t\t\n      JUMPDEST \t\t\t\n      PUSH 0\t\t\t\n      DUP2 \t\t\t\n      MLOAD \t\t\t\n      SWAP1 \t\t\t\n      POP \t\t\t\n      SWAP2 \t\t\t\n      SWAP1 \t\t\t\n      POP \t\t\t\n      JUMP [out]\t\t\t\n    tag 186\t\t\t\n      JUMPDEST \t\t\t\n      PUSH 0\t\t\t\n      DUP2 \t\t\t\n      MLOAD \t\t\t\n      SWAP1 \t\t\t\n      POP \t\t\t\n      SWAP2 \t\t\t\n      SWAP1 \t\t\t\n      POP \t\t\t\n      JUMP [out]\t\t\t\n    tag 199\t\t\t\n      JUMPDEST \t\t\t\n      PUSH 0\t\t\t\n      DUP2 \t\t\t\n      MLOAD \t\t\t\n      SWAP1 \t\t\t\n      POP \t\t\t\n      SWAP2 \t\t\t\n      SWAP1 \t\t\t\n      POP \t\t\t\n      JUMP [out]\t\t\t\n    tag 182\t\t\t\n      JUMPDEST \t\t\t\n      PUSH 0\t\t\t\n      PUSH 20\t\t\t\n      DUP3 \t\t\t\n      ADD \t\t\t\n      SWAP1 \t\t\t\n      POP \t\t\t\n      SWAP2 \t\t\t\n      SWAP1 \t\t\t\n      POP \t\t\t\n      JUMP [out]\t\t\t\n    tag 196\t\t\t\n      JUMPDEST \t\t\t\n      PUSH 0\t\t\t\n      PUSH 20\t\t\t\n      DUP3 \t\t\t\n      ADD \t\t\t\n      SWAP1 \t\t\t\n      POP \t\t\t\n      SWAP2 \t\t\t\n      SWAP1 \t\t\t\n      POP \t\t\t\n      JUMP [out]\t\t\t\n    tag 174\t\t\t\n      JUMPDEST \t\t\t\n      PUSH 0\t\t\t\n      DUP3 \t\t\t\n      DUP3 \t\t\t\n      MSTORE \t\t\t\n      PUSH 20\t\t\t\n      DUP3 \t\t\t\n      ADD \t\t\t\n      SWAP1 \t\t\t\n      POP \t\t\t\n      SWAP3 \t\t\t\n      SWAP2 \t\t\t\n      POP \t\t\t\n      POP \t\t\t\n      JUMP [out]\t\t\t\n    tag 188\t\t\t\n      JUMPDEST \t\t\t\n      PUSH 0\t\t\t\n      DUP3 \t\t\t\n      DUP3 \t\t\t\n      MSTORE \t\t\t\n      PUSH 20\t\t\t\n      DUP3 \t\t\t\n      ADD \t\t\t\n      SWAP1 \t\t\t\n      POP \t\t\t\n      SWAP3 \t\t\t\n      SWAP2 \t\t\t\n      POP \t\t\t\n      POP \t\t\t\n      JUMP [out]\t\t\t\n    tag 201\t\t\t\n      JUMPDEST \t\t\t\n      PUSH 0\t\t\t\n      DUP3 \t\t\t\n      DUP3 \t\t\t\n      MSTORE \t\t\t\n      PUSH 20\t\t\t\n      DUP3 \t\t\t\n      ADD \t\t\t\n      SWAP1 \t\t\t\n      POP \t\t\t\n      SWAP3 \t\t\t\n      SWAP2 \t\t\t\n      POP \t\t\t\n      POP \t\t\t\n      JUMP [out]\t\t\t\n    tag 210\t\t\t\n      JUMPDEST \t\t\t\n      PUSH 0\t\t\t\n      DUP3 \t\t\t\n      DUP3 \t\t\t\n      MSTORE \t\t\t\n      PUSH 20\t\t\t\n      DUP3 \t\t\t\n      ADD \t\t\t\n      SWAP1 \t\t\t\n      POP \t\t\t\n      SWAP3 \t\t\t\n      SWAP2 \t\t\t\n      POP \t\t\t\n      POP \t\t\t\n      JUMP [out]\t\t\t\n    tag 217\t\t\t\n      JUMPDEST \t\t\t\n      PUSH 0\t\t\t\n      DUP2 \t\t\t\n      SWAP1 \t\t\t\n      POP \t\t\t\n      SWAP3 \t\t\t\n      SWAP2 \t\t\t\n      POP \t\t\t\n      POP \t\t\t\n      JUMP [out]\t\t\t\n    tag 67\t\t\t\n      JUMPDEST \t\t\t\n      PUSH 0\t\t\t\n      PUSH [tag] 290\t\t\t\n      DUP3 \t\t\t\n      PUSH [tag] 236\t\t\t\n      JUMP [in]\t\t\t\n    tag 290\t\t\t\n      JUMPDEST \t\t\t\n      SWAP2 \t\t\t\n      POP \t\t\t\n      PUSH [tag] 291\t\t\t\n      DUP4 \t\t\t\n      PUSH [tag] 236\t\t\t\n      JUMP [in]\t\t\t\n    tag 291\t\t\t\n      JUMPDEST \t\t\t\n      SWAP3 \t\t\t\n      POP \t\t\t\n      DUP3 \t\t\t\n      DUP3 \t\t\t\n      LT \t\t\t\n      ISZERO \t\t\t\n      PUSH [tag] 292\t\t\t\n      JUMPI \t\t\t\n      PUSH [tag] 293\t\t\t\n      PUSH [tag] 294\t\t\t\n      JUMP [in]\t\t\t\n    tag 293\t\t\t\n      JUMPDEST \t\t\t\n    tag 292\t\t\t\n      JUMPDEST \t\t\t\n      DUP3 \t\t\t\n      DUP3 \t\t\t\n      SUB \t\t\t\n      SWAP1 \t\t\t\n      POP \t\t\t\n      SWAP3 \t\t\t\n      SWAP2 \t\t\t\n      POP \t\t\t\n      POP \t\t\t\n      JUMP [out]\t\t\t\n    tag 168\t\t\t\n      JUMPDEST \t\t\t\n      PUSH 0\t\t\t\n      PUSH [tag] 296\t\t\t\n      DUP3 \t\t\t\n      PUSH [tag] 297\t\t\t\n      JUMP [in]\t\t\t\n    tag 296\t\t\t\n      JUMPDEST \t\t\t\n      SWAP1 \t\t\t\n      POP \t\t\t\n      SWAP2 \t\t\t\n      SWAP1 \t\t\t\n      POP \t\t\t\n      JUMP [out]\t\t\t\n    tag 297\t\t\t\n      JUMPDEST \t\t\t\n      PUSH 0\t\t\t\n      PUSH FFFFFFFFFFFFFFFFFFFFFFFFFFFFFFFFFFFFFFFF\t\t\t\n      DUP3 \t\t\t\n      AND \t\t\t\n      SWAP1 \t\t\t\n      POP \t\t\t\n      SWAP2 \t\t\t\n      SWAP1 \t\t\t\n      POP \t\t\t\n      JUMP [out]\t\t\t\n    tag 236\t\t\t\n      JUMPDEST \t\t\t\n      PUSH 0\t\t\t\n      DUP2 \t\t\t\n      SWAP1 \t\t\t\n      POP \t\t\t\n      SWAP2 \t\t\t\n      SWAP1 \t\t\t\n      POP \t\t\t\n      JUMP [out]\t\t\t\n    tag 135\t\t\t\n      JUMPDEST \t\t\t\n      DUP3 \t\t\t\n      DUP2 \t\t\t\n      DUP4 \t\t\t\n      CALLDATACOPY \t\t\t\n      PUSH 0\t\t\t\n      DUP4 \t\t\t\n      DUP4 \t\t\t\n      ADD \t\t\t\n      MSTORE \t\t\t\n      POP \t\t\t\n      POP \t\t\t\n      POP \t\t\t\n      JUMP [out]\t\t\t\n    tag 203\t\t\t\n      JUMPDEST \t\t\t\n      PUSH 0\t\t\t\n    tag 302\t\t\t\n      JUMPDEST \t\t\t\n      DUP4 \t\t\t\n      DUP2 \t\t\t\n      LT \t\t\t\n      ISZERO \t\t\t\n      PUSH [tag] 304\t\t\t\n      JUMPI \t\t\t\n      DUP1 \t\t\t\n      DUP3 \t\t\t\n      ADD \t\t\t\n      MLOAD \t\t\t\n      DUP2 \t\t\t\n      DUP5 \t\t\t\n      ADD \t\t\t\n      MSTORE \t\t\t\n      PUSH 20\t\t\t\n      DUP2 \t\t\t\n      ADD \t\t\t\n      SWAP1 \t\t\t\n      POP \t\t\t\n      PUSH [tag] 302\t\t\t\n      JUMP \t\t\t\n    tag 304\t\t\t\n      JUMPDEST \t\t\t\n      DUP4 \t\t\t\n      DUP2 \t\t\t\n      GT \t\t\t\n      ISZERO \t\t\t\n      PUSH [tag] 305\t\t\t\n      JUMPI \t\t\t\n      PUSH 0\t\t\t\n      DUP5 \t\t\t\n      DUP5 \t\t\t\n      ADD \t\t\t\n      MSTORE \t\t\t\n    tag 305\t\t\t\n      JUMPDEST \t\t\t\n      POP \t\t\t\n      POP \t\t\t\n      POP \t\t\t\n      POP \t\t\t\n      JUMP [out]\t\t\t\n    tag 70\t\t\t\n      JUMPDEST \t\t\t\n      PUSH 0\t\t\t\n      PUSH 2\t\t\t\n      DUP3 \t\t\t\n      DIV \t\t\t\n      SWAP1 \t\t\t\n      POP \t\t\t\n      PUSH 1\t\t\t\n      DUP3 \t\t\t\n      AND \t\t\t\n      DUP1 \t\t\t\n      PUSH [tag] 307\t\t\t\n      JUMPI \t\t\t\n      PUSH 7F\t\t\t\n      DUP3 \t\t\t\n      AND \t\t\t\n      SWAP2 \t\t\t\n      POP \t\t\t\n    tag 307\t\t\t\n      JUMPDEST \t\t\t\n      PUSH 20\t\t\t\n      DUP3 \t\t\t\n      LT \t\t\t\n      DUP2 \t\t\t\n      EQ \t\t\t\n      ISZERO \t\t\t\n      PUSH [tag] 308\t\t\t\n      JUMPI \t\t\t\n      PUSH [tag] 309\t\t\t\n      PUSH [tag] 310\t\t\t\n      JUMP [in]\t\t\t\n    tag 309\t\t\t\n      JUMPDEST \t\t\t\n    tag 308\t\t\t\n      JUMPDEST \t\t\t\n      POP \t\t\t\n      SWAP2 \t\t\t\n      SWAP1 \t\t\t\n      POP \t\t\t\n      JUMP [out]\t\t\t\n    tag 82\t\t\t\n      JUMPDEST \t\t\t\n      PUSH 0\t\t\t\n      PUSH [tag] 312\t\t\t\n      DUP3 \t\t\t\n      PUSH [tag] 236\t\t\t\n      JUMP [in]\t\t\t\n    tag 312\t\t\t\n      JUMPDEST \t\t\t\n      SWAP2 \t\t\t\n      POP \t\t\t\n      PUSH FFFFFFFFFFFFFFFFFFFFFFFFFFFFFFFFFFFFFFFFFFFFFFFFFFFFFFFFFFFFFFFF\t\t\t\n      DUP3 \t\t\t\n      EQ \t\t\t\n      ISZERO \t\t\t\n      PUSH [tag] 313\t\t\t\n      JUMPI \t\t\t\n      PUSH [tag] 314\t\t\t\n      PUSH [tag] 294\t\t\t\n      JUMP [in]\t\t\t\n    tag 314\t\t\t\n      JUMPDEST \t\t\t\n    tag 313\t\t\t\n      JUMPDEST \t\t\t\n      PUSH 1\t\t\t\n      DUP3 \t\t\t\n      ADD \t\t\t\n      SWAP1 \t\t\t\n      POP \t\t\t\n      SWAP2 \t\t\t\n      SWAP1 \t\t\t\n      POP \t\t\t\n      JUMP [out]\t\t\t\n    tag 294\t\t\t\n      JUMPDEST \t\t\t\n      PUSH 4E487B7100000000000000000000000000000000000000000000000000000000\t\t\t\n      PUSH 0\t\t\t\n      MSTORE \t\t\t\n      PUSH 11\t\t\t\n      PUSH 4\t\t\t\n      MSTORE \t\t\t\n      PUSH 24\t\t\t\n      PUSH 0\t\t\t\n      REVERT \t\t\t\n    tag 310\t\t\t\n      JUMPDEST \t\t\t\n      PUSH 4E487B7100000000000000000000000000000000000000000000000000000000\t\t\t\n      PUSH 0\t\t\t\n      MSTORE \t\t\t\n      PUSH 22\t\t\t\n      PUSH 4\t\t\t\n      MSTORE \t\t\t\n      PUSH 24\t\t\t\n      PUSH 0\t\t\t\n      REVERT \t\t\t\n    tag 273\t\t\t\n      JUMPDEST \t\t\t\n      PUSH 4E487B7100000000000000000000000000000000000000000000000000000000\t\t\t\n      PUSH 0\t\t\t\n      MSTORE \t\t\t\n      PUSH 41\t\t\t\n      PUSH 4\t\t\t\n      MSTORE \t\t\t\n      PUSH 24\t\t\t\n      PUSH 0\t\t\t\n      REVERT \t\t\t\n    tag 205\t\t\t\n      JUMPDEST \t\t\t\n      PUSH 0\t\t\t\n      PUSH 1F\t\t\t\n      NOT \t\t\t\n      PUSH 1F\t\t\t\n      DUP4 \t\t\t\n      ADD \t\t\t\n      AND \t\t\t\n      SWAP1 \t\t\t\n      POP \t\t\t\n      SWAP2 \t\t\t\n      SWAP1 \t\t\t\n      POP \t\t\t\n      JUMP [out]\t\t\t\n    tag 143\t\t\t\n      JUMPDEST \t\t\t\n      PUSH [tag] 320\t\t\t\n      DUP2 \t\t\t\n      PUSH [tag] 236\t\t\t\n      JUMP [in]\t\t\t\n    tag 320\t\t\t\n      JUMPDEST \t\t\t\n      DUP2 \t\t\t\n      EQ \t\t\t\n      PUSH [tag] 321\t\t\t\n      JUMPI \t\t\t\n      PUSH 0\t\t\t\n      DUP1 \t\t\t\n      REVERT \t\t\t\n    tag 321\t\t\t\n      JUMPDEST \t\t\t\n      POP \t\t\t\n      JUMP [out]\t\t\t\n    .data\n"
}