{
	"compilerInput": "{\"language\":\"Solidity\",\"sources\":{\"contracts/OrderProcessor.sol\":{\"content\":\"// SPDX-License-Identifier: MIT\\npragma solidity ^0.8.0;\\n\\nimport \\\"./ItemRegistry.sol\\\";\\n\\ncontract OrderProcessor {\\n    ItemRegistry public immutable itemRegistry;\\n    address public owner;\\n\\n    enum OrderStatus { Pending, Shipped, Delivered, Canceled }\\n    struct Order {\\n        uint256 orderId;\\n        address buyer;\\n        uint256 itemId;\\n        uint256 quantity;\\n        uint256 totalAmount;\\n        OrderStatus status;\\n    }\\n\\n    mapping(uint256 => Order) public orders;\\n    uint256 public orderCount;\\n\\n    event OrderPlaced(uint256 indexed orderId, address indexed buyer, uint256 indexed itemId, uint256 quantity, uint256 totalAmount, OrderStatus status);\\n    event OrderStatusUpdated(uint256 orderId, OrderStatus status);\\n\\n    constructor(address _itemRegistry) {\\n        require(_itemRegistry != address(0), \\\"Invalid ItemRegistry address\\\");\\n        itemRegistry = ItemRegistry(_itemRegistry);\\n        owner = msg.sender;\\n    }\\n\\n    modifier onlyOwner() {\\n        require(msg.sender == owner, \\\"Only the owner can call this function\\\");\\n        _;\\n    }\\n\\n    function placeOrder(string memory _itemName, uint256 _quantity) public payable {\\n        require(_quantity > 0, \\\"Quantity must be greater than 0\\\");\\n        require(msg.value > 0, \\\"Payment must be sent with the order\\\");\\n\\n        uint256 itemId = itemRegistry.getItemIdByName(_itemName);\\n        require(itemId > 0, \\\"Invalid item name\\\");\\n\\n        (, , uint256 itemPrice) = itemRegistry.getItemData(itemId);\\n        uint256 totalAmount = itemPrice * _quantity;\\n        require(msg.value >= totalAmount, \\\"Insufficient payment\\\");\\n\\n        orderCount++;\\n        orders[orderCount] = Order({\\n            orderId: orderCount,\\n            buyer: msg.sender,\\n            itemId: itemId,\\n            quantity: _quantity,\\n            totalAmount: totalAmount,\\n            status: OrderStatus.Pending\\n        });\\n\\n        emit OrderPlaced(orderCount, msg.sender, itemId, _quantity, totalAmount, OrderStatus.Pending);\\n    }\\n\\n    function updateOrderStatus(uint256 _orderId, OrderStatus _status) public onlyOwner {\\n        require(_orderId > 0 && _orderId <= orderCount, \\\"Invalid order ID\\\");\\n        orders[_orderId].status = _status;\\n        emit OrderStatusUpdated(_orderId, _status);\\n    }\\n\\n    function getOrder(uint256 _orderId) external view returns (Order memory) {\\n        require(_orderId > 0 && _orderId <= orderCount, \\\"Invalid order ID\\\");\\n        return orders[_orderId];\\n    }\\n}\\n\"},\"contracts/ItemRegistry.sol\":{\"content\":\"// SPDX-License-Identifier: MIT\\npragma solidity ^0.8.0;\\n\\ncontract ItemRegistry {\\n    struct MedicalItem {\\n        string name;\\n        uint256 quantity;\\n        uint256 price;\\n    }\\n\\n    mapping(uint256 => MedicalItem) public items;\\n    mapping(string => uint256) public itemIdsByName;\\n    uint256 public itemCount;\\n    address public owner;\\n\\n    event ItemAdded(uint256 itemId, string name, uint256 quantity, uint256 price);\\n\\n    constructor() {\\n        owner = msg.sender;\\n    }\\n\\n    modifier onlyOwner() {\\n        require(msg.sender == owner, \\\"Only the owner can perform this action\\\");\\n        _;\\n    }\\n\\n    function addItem(string memory _name, uint256 _quantity, uint256 _price) public onlyOwner {\\n        require(_quantity > 0, \\\"Quantity must be greater than 0\\\");\\n        require(itemIdsByName[_name] == 0, \\\"Item with the same name already exists\\\");\\n        itemCount++;\\n        uint256 itemId = itemCount;\\n        items[itemId] = MedicalItem(_name, _quantity, _price);\\n        itemIdsByName[_name] = itemId;\\n        emit ItemAdded(itemId, _name, _quantity, _price);\\n    }\\n    function getItemIdByName(string memory _name)\\n        public\\n        view\\n        returns (uint256)\\n    {\\n        uint256 itemId = itemIdsByName[_name];\\n        require(itemId > 0, \\\"Item not found\\\");\\n        return itemId;\\n    }\\n    function getItemData(uint256 _itemId)\\n        external\\n        view\\n        returns (\\n            string memory name,\\n            uint256 quantity,\\n            uint256 price\\n        )\\n    {\\n        require(_itemId > 0 && _itemId <= itemCount, \\\"Invalid item ID\\\");\\n        MedicalItem storage item = items[_itemId];\\n        return (item.name, item.quantity, item.price);\\n    }\\n\\n    function getAllItems()\\n        public\\n        view\\n        returns (\\n            uint256[] memory,\\n            string[] memory,\\n            uint256[] memory,\\n            uint256[] memory\\n        )\\n    {\\n        uint256[] memory ids = new uint256[](itemCount);\\n        string[] memory names = new string[](itemCount);\\n        uint256[] memory quantities = new uint256[](itemCount);\\n        uint256[] memory prices = new uint256[](itemCount);\\n\\n        for (uint256 i = 1; i <= itemCount; i++) {\\n            ids[i - 1] = i;\\n            names[i - 1] = items[i].name;\\n            quantities[i - 1] = items[i].quantity;\\n            prices[i - 1] = items[i].price;\\n        }\\n\\n        return (ids, names, quantities, prices);\\n    }\\n}\\n\"}},\"settings\":{\"optimizer\":{\"enabled\":false,\"runs\":200},\"outputSelection\":{\"*\":{\"\":[\"ast\"],\"*\":[\"abi\",\"metadata\",\"devdoc\",\"userdoc\",\"storageLayout\",\"evm.legacyAssembly\",\"evm.bytecode\",\"evm.deployedBytecode\",\"evm.methodIdentifiers\",\"evm.gasEstimates\",\"evm.assembly\"]}}}}",
	"name": "OrderProcessor",
	"bytecode": {
		"linkReferences": {},
		"object": "60a06040523480156200001157600080fd5b50604051620016e7380380620016e783398181016040528101906200003791906200013f565b600073ffffffffffffffffffffffffffffffffffffffff168173ffffffffffffffffffffffffffffffffffffffff161415620000aa576040517f08c379a0000000000000000000000000000000000000000000000000000000008152600401620000a190620001ad565b60405180910390fd5b8073ffffffffffffffffffffffffffffffffffffffff1660808173ffffffffffffffffffffffffffffffffffffffff1660601b81525050336000806101000a81548173ffffffffffffffffffffffffffffffffffffffff021916908373ffffffffffffffffffffffffffffffffffffffff160217905550506200022e565b600081519050620001398162000214565b92915050565b6000602082840312156200015257600080fd5b6000620001628482850162000128565b91505092915050565b60006200017a601c83620001cf565b91507f496e76616c6964204974656d52656769737472792061646472657373000000006000830152602082019050919050565b60006020820190508181036000830152620001c8816200016b565b9050919050565b600082825260208201905092915050565b6000620001ed82620001f4565b9050919050565b600073ffffffffffffffffffffffffffffffffffffffff82169050919050565b6200021f81620001e0565b81146200022b57600080fd5b50565b60805160601c61148c6200025b600039600081816101e6015281816102920152610382015261148c6000f3fe6080604052600436106100705760003560e01c8063a1b6e8361161004e578063a1b6e836146100f6578063a85c38ef14610112578063aab3196d14610154578063d09ef2411461017d57610070565b80632453ffa8146100755780638da5cb5b146100a0578063957047f6146100cb575b600080fd5b34801561008157600080fd5b5061008a6101ba565b60405161009791906110ba565b60405180910390f35b3480156100ac57600080fd5b506100b56101c0565b6040516100c29190610f87565b60405180910390f35b3480156100d757600080fd5b506100e06101e4565b6040516100ed9190610fa2565b60405180910390f35b610110600480360381019061010b9190610b55565b610208565b005b34801561011e57600080fd5b5061013960048036038101906101349190610c10565b610656565b60405161014b969594939291906110d5565b60405180910390f35b34801561016057600080fd5b5061017b60048036038101906101769190610c62565b6106bf565b005b34801561018957600080fd5b506101a4600480360381019061019f9190610c10565b61083f565b6040516101b1919061109f565b60405180910390f35b60025481565b60008054906101000a900473ffffffffffffffffffffffffffffffffffffffff1681565b7f000000000000000000000000000000000000000000000000000000000000000081565b6000811161024b576040517f08c379a000000000000000000000000000000000000000000000000000000000815260040161024290610fdf565b60405180910390fd5b6000341161028e576040517f08c379a00000000000000000000000000000000000000000000000000000000081526004016102859061103f565b60405180910390fd5b60007f000000000000000000000000000000000000000000000000000000000000000073ffffffffffffffffffffffffffffffffffffffff16632f4e3faa846040518263ffffffff1660e01b81526004016102e99190610fbd565b60206040518083038186803b15801561030157600080fd5b505afa158015610315573d6000803e3d6000fd5b505050506040513d601f19601f820116820180604052508101906103399190610c39565b90506000811161037e576040517f08c379a00000000000000000000000000000000000000000000000000000000081526004016103759061101f565b60405180910390fd5b60007f000000000000000000000000000000000000000000000000000000000000000073ffffffffffffffffffffffffffffffffffffffff16638bc6976e836040518263ffffffff1660e01b81526004016103d991906110ba565b60006040518083038186803b1580156103f157600080fd5b505afa158015610405573d6000803e3d6000fd5b505050506040513d6000823e3d601f19601f8201168201806040525081019061042e9190610ba9565b92505050600083826104409190611213565b905080341015610485576040517f08c379a000000000000000000000000000000000000000000000000000000000815260040161047c9061105f565b60405180910390fd5b6002600081548092919061049890611334565b91905055506040518060c0016040528060025481526020013373ffffffffffffffffffffffffffffffffffffffff16815260200184815260200185815260200182815260200160006003811115610518577f4e487b7100000000000000000000000000000000000000000000000000000000600052602160045260246000fd5b8152506001600060025481526020019081526020016000206000820151816000015560208201518160010160006101000a81548173ffffffffffffffffffffffffffffffffffffffff021916908373ffffffffffffffffffffffffffffffffffffffff16021790555060408201518160020155606082015181600301556080820151816004015560a08201518160050160006101000a81548160ff021916908360038111156105f0577f4e487b7100000000000000000000000000000000000000000000000000000000600052602160045260246000fd5b0217905550905050823373ffffffffffffffffffffffffffffffffffffffff166002547f5ccc3386dfa567a303c53dcbe08dadfe0a9841fa5a621bc4a466a1dcaea7911a878560006040516106479392919061115f565b60405180910390a45050505050565b60016020528060005260406000206000915090508060000154908060010160009054906101000a900473ffffffffffffffffffffffffffffffffffffffff16908060020154908060030154908060040154908060050160009054906101000a900460ff16905086565b60008054906101000a900473ffffffffffffffffffffffffffffffffffffffff1673ffffffffffffffffffffffffffffffffffffffff163373ffffffffffffffffffffffffffffffffffffffff161461074d576040517f08c379a000000000000000000000000000000000000000000000000000000000815260040161074490610fff565b60405180910390fd5b60008211801561075f57506002548211155b61079e576040517f08c379a00000000000000000000000000000000000000000000000000000000081526004016107959061107f565b60405180910390fd5b806001600084815260200190815260200160002060050160006101000a81548160ff021916908360038111156107fd577f4e487b7100000000000000000000000000000000000000000000000000000000600052602160045260246000fd5b02179055507fd9a86b644eb5f5b43cc8a700849852481080361c7a4b00ba646d1b46c5585f958282604051610833929190611136565b60405180910390a15050565b6108476109c2565b60008211801561085957506002548211155b610898576040517f08c379a000000000000000000000000000000000000000000000000000000000815260040161088f9061107f565b60405180910390fd5b600160008381526020019081526020016000206040518060c0016040529081600082015481526020016001820160009054906101000a900473ffffffffffffffffffffffffffffffffffffffff1673ffffffffffffffffffffffffffffffffffffffff1673ffffffffffffffffffffffffffffffffffffffff1681526020016002820154815260200160038201548152602001600482015481526020016005820160009054906101000a900460ff16600381111561097f577f4e487b7100000000000000000000000000000000000000000000000000000000600052602160045260246000fd5b60038111156109b7577f4e487b7100000000000000000000000000000000000000000000000000000000600052602160045260246000fd5b815250509050919050565b6040518060c0016040528060008152602001600073ffffffffffffffffffffffffffffffffffffffff16815260200160008152602001600081526020016000815260200160006003811115610a40577f4e487b7100000000000000000000000000000000000000000000000000000000600052602160045260246000fd5b81525090565b6000610a59610a54846111c7565b611196565b905082815260208101848484011115610a7157600080fd5b610a7c8482856112f2565b509392505050565b6000610a97610a92846111c7565b611196565b905082815260208101848484011115610aaf57600080fd5b610aba848285611301565b509392505050565b600081359050610ad18161142f565b92915050565b600082601f830112610ae857600080fd5b8135610af8848260208601610a46565b91505092915050565b600082601f830112610b1257600080fd5b8151610b22848260208601610a84565b91505092915050565b600081359050610b3a8161143f565b92915050565b600081519050610b4f8161143f565b92915050565b60008060408385031215610b6857600080fd5b600083013567ffffffffffffffff811115610b8257600080fd5b610b8e85828601610ad7565b9250506020610b9f85828601610b2b565b9150509250929050565b600080600060608486031215610bbe57600080fd5b600084015167ffffffffffffffff811115610bd857600080fd5b610be486828701610b01565b9350506020610bf586828701610b40565b9250506040610c0686828701610b40565b9150509250925092565b600060208284031215610c2257600080fd5b6000610c3084828501610b2b565b91505092915050565b600060208284031215610c4b57600080fd5b6000610c5984828501610b40565b91505092915050565b60008060408385031215610c7557600080fd5b6000610c8385828601610b2b565b9250506020610c9485828601610ac2565b9150509250929050565b610ca78161126d565b82525050565b610cb68161126d565b82525050565b610cc5816112bc565b82525050565b610cd4816112e0565b82525050565b610ce3816112e0565b82525050565b6000610cf4826111f7565b610cfe8185611202565b9350610d0e818560208601611301565b610d178161140a565b840191505092915050565b6000610d2f601f83611202565b91507f5175616e74697479206d7573742062652067726561746572207468616e2030006000830152602082019050919050565b6000610d6f602583611202565b91507f4f6e6c7920746865206f776e65722063616e2063616c6c20746869732066756e60008301527f6374696f6e0000000000000000000000000000000000000000000000000000006020830152604082019050919050565b6000610dd5601183611202565b91507f496e76616c6964206974656d206e616d650000000000000000000000000000006000830152602082019050919050565b6000610e15602383611202565b91507f5061796d656e74206d7573742062652073656e74207769746820746865206f7260008301527f64657200000000000000000000000000000000000000000000000000000000006020830152604082019050919050565b6000610e7b601483611202565b91507f496e73756666696369656e74207061796d656e740000000000000000000000006000830152602082019050919050565b6000610ebb601083611202565b91507f496e76616c6964206f72646572204944000000000000000000000000000000006000830152602082019050919050565b60c082016000820151610f046000850182610f69565b506020820151610f176020850182610c9e565b506040820151610f2a6040850182610f69565b506060820151610f3d6060850182610f69565b506080820151610f506080850182610f69565b5060a0820151610f6360a0850182610ccb565b50505050565b610f72816112b2565b82525050565b610f81816112b2565b82525050565b6000602082019050610f9c6000830184610cad565b92915050565b6000602082019050610fb76000830184610cbc565b92915050565b60006020820190508181036000830152610fd78184610ce9565b905092915050565b60006020820190508181036000830152610ff881610d22565b9050919050565b6000602082019050818103600083015261101881610d62565b9050919050565b6000602082019050818103600083015261103881610dc8565b9050919050565b6000602082019050818103600083015261105881610e08565b9050919050565b6000602082019050818103600083015261107881610e6e565b9050919050565b6000602082019050818103600083015261109881610eae565b9050919050565b600060c0820190506110b46000830184610eee565b92915050565b60006020820190506110cf6000830184610f78565b92915050565b600060c0820190506110ea6000830189610f78565b6110f76020830188610cad565b6111046040830187610f78565b6111116060830186610f78565b61111e6080830185610f78565b61112b60a0830184610cda565b979650505050505050565b600060408201905061114b6000830185610f78565b6111586020830184610cda565b9392505050565b60006060820190506111746000830186610f78565b6111816020830185610f78565b61118e6040830184610cda565b949350505050565b6000604051905081810181811067ffffffffffffffff821117156111bd576111bc6113db565b5b8060405250919050565b600067ffffffffffffffff8211156111e2576111e16113db565b5b601f19601f8301169050602081019050919050565b600081519050919050565b600082825260208201905092915050565b600061121e826112b2565b9150611229836112b2565b9250817fffffffffffffffffffffffffffffffffffffffffffffffffffffffffffffffff04831182151516156112625761126161137d565b5b828202905092915050565b600061127882611292565b9050919050565b600081905061128d8261141b565b919050565b600073ffffffffffffffffffffffffffffffffffffffff82169050919050565b6000819050919050565b60006112c7826112ce565b9050919050565b60006112d982611292565b9050919050565b60006112eb8261127f565b9050919050565b82818337600083830152505050565b60005b8381101561131f578082015181840152602081019050611304565b8381111561132e576000848401525b50505050565b600061133f826112b2565b91507fffffffffffffffffffffffffffffffffffffffffffffffffffffffffffffffff8214156113725761137161137d565b5b600182019050919050565b7f4e487b7100000000000000000000000000000000000000000000000000000000600052601160045260246000fd5b7f4e487b7100000000000000000000000000000000000000000000000000000000600052602160045260246000fd5b7f4e487b7100000000000000000000000000000000000000000000000000000000600052604160045260246000fd5b6000601f19601f8301169050919050565b6004811061142c5761142b6113ac565b5b50565b6004811061143c57600080fd5b50565b611448816112b2565b811461145357600080fd5b5056fea2646970667358221220c50846adcb556954a81eba3b370d583441832559e7320ad7f8532224b7ec43da64736f6c63430008000033",
		"opcodes": "PUSH1 0xA0 PUSH1 0x40 MSTORE CALLVALUE DUP1 ISZERO PUSH3 0x11 JUMPI PUSH1 0x0 DUP1 REVERT JUMPDEST POP PUSH1 0x40 MLOAD PUSH3 0x16E7 CODESIZE SUB DUP1 PUSH3 0x16E7 DUP4 CODECOPY DUP2 DUP2 ADD PUSH1 0x40 MSTORE DUP2 ADD SWAP1 PUSH3 0x37 SWAP2 SWAP1 PUSH3 0x13F JUMP JUMPDEST PUSH1 0x0 PUSH20 0xFFFFFFFFFFFFFFFFFFFFFFFFFFFFFFFFFFFFFFFF AND DUP2 PUSH20 0xFFFFFFFFFFFFFFFFFFFFFFFFFFFFFFFFFFFFFFFF AND EQ ISZERO PUSH3 0xAA JUMPI PUSH1 0x40 MLOAD PUSH32 0x8C379A000000000000000000000000000000000000000000000000000000000 DUP2 MSTORE PUSH1 0x4 ADD PUSH3 0xA1 SWAP1 PUSH3 0x1AD JUMP JUMPDEST PUSH1 0x40 MLOAD DUP1 SWAP2 SUB SWAP1 REVERT JUMPDEST DUP1 PUSH20 0xFFFFFFFFFFFFFFFFFFFFFFFFFFFFFFFFFFFFFFFF AND PUSH1 0x80 DUP2 PUSH20 0xFFFFFFFFFFFFFFFFFFFFFFFFFFFFFFFFFFFFFFFF AND PUSH1 0x60 SHL DUP2 MSTORE POP POP CALLER PUSH1 0x0 DUP1 PUSH2 0x100 EXP DUP2 SLOAD DUP2 PUSH20 0xFFFFFFFFFFFFFFFFFFFFFFFFFFFFFFFFFFFFFFFF MUL NOT AND SWAP1 DUP4 PUSH20 0xFFFFFFFFFFFFFFFFFFFFFFFFFFFFFFFFFFFFFFFF AND MUL OR SWAP1 SSTORE POP POP PUSH3 0x22E JUMP JUMPDEST PUSH1 0x0 DUP2 MLOAD SWAP1 POP PUSH3 0x139 DUP2 PUSH3 0x214 JUMP JUMPDEST SWAP3 SWAP2 POP POP JUMP JUMPDEST PUSH1 0x0 PUSH1 0x20 DUP3 DUP5 SUB SLT ISZERO PUSH3 0x152 JUMPI PUSH1 0x0 DUP1 REVERT JUMPDEST PUSH1 0x0 PUSH3 0x162 DUP5 DUP3 DUP6 ADD PUSH3 0x128 JUMP JUMPDEST SWAP2 POP POP SWAP3 SWAP2 POP POP JUMP JUMPDEST PUSH1 0x0 PUSH3 0x17A PUSH1 0x1C DUP4 PUSH3 0x1CF JUMP JUMPDEST SWAP2 POP PUSH32 0x496E76616C6964204974656D5265676973747279206164647265737300000000 PUSH1 0x0 DUP4 ADD MSTORE PUSH1 0x20 DUP3 ADD SWAP1 POP SWAP2 SWAP1 POP JUMP JUMPDEST PUSH1 0x0 PUSH1 0x20 DUP3 ADD SWAP1 POP DUP2 DUP2 SUB PUSH1 0x0 DUP4 ADD MSTORE PUSH3 0x1C8 DUP2 PUSH3 0x16B JUMP JUMPDEST SWAP1 POP SWAP2 SWAP1 POP JUMP JUMPDEST PUSH1 0x0 DUP3 DUP3 MSTORE PUSH1 0x20 DUP3 ADD SWAP1 POP SWAP3 SWAP2 POP POP JUMP JUMPDEST PUSH1 0x0 PUSH3 0x1ED DUP3 PUSH3 0x1F4 JUMP JUMPDEST SWAP1 POP SWAP2 SWAP1 POP JUMP JUMPDEST PUSH1 0x0 PUSH20 0xFFFFFFFFFFFFFFFFFFFFFFFFFFFFFFFFFFFFFFFF DUP3 AND SWAP1 POP SWAP2 SWAP1 POP JUMP JUMPDEST PUSH3 0x21F DUP2 PUSH3 0x1E0 JUMP JUMPDEST DUP2 EQ PUSH3 0x22B JUMPI PUSH1 0x0 DUP1 REVERT JUMPDEST POP JUMP JUMPDEST PUSH1 0x80 MLOAD PUSH1 0x60 SHR PUSH2 0x148C PUSH3 0x25B PUSH1 0x0 CODECOPY PUSH1 0x0 DUP2 DUP2 PUSH2 0x1E6 ADD MSTORE DUP2 DUP2 PUSH2 0x292 ADD MSTORE PUSH2 0x382 ADD MSTORE PUSH2 0x148C PUSH1 0x0 RETURN INVALID PUSH1 0x80 PUSH1 0x40 MSTORE PUSH1 0x4 CALLDATASIZE LT PUSH2 0x70 JUMPI PUSH1 0x0 CALLDATALOAD PUSH1 0xE0 SHR DUP1 PUSH4 0xA1B6E836 GT PUSH2 0x4E JUMPI DUP1 PUSH4 0xA1B6E836 EQ PUSH2 0xF6 JUMPI DUP1 PUSH4 0xA85C38EF EQ PUSH2 0x112 JUMPI DUP1 PUSH4 0xAAB3196D EQ PUSH2 0x154 JUMPI DUP1 PUSH4 0xD09EF241 EQ PUSH2 0x17D JUMPI PUSH2 0x70 JUMP JUMPDEST DUP1 PUSH4 0x2453FFA8 EQ PUSH2 0x75 JUMPI DUP1 PUSH4 0x8DA5CB5B EQ PUSH2 0xA0 JUMPI DUP1 PUSH4 0x957047F6 EQ PUSH2 0xCB JUMPI JUMPDEST PUSH1 0x0 DUP1 REVERT JUMPDEST CALLVALUE DUP1 ISZERO PUSH2 0x81 JUMPI PUSH1 0x0 DUP1 REVERT JUMPDEST POP PUSH2 0x8A PUSH2 0x1BA JUMP JUMPDEST PUSH1 0x40 MLOAD PUSH2 0x97 SWAP2 SWAP1 PUSH2 0x10BA JUMP JUMPDEST PUSH1 0x40 MLOAD DUP1 SWAP2 SUB SWAP1 RETURN JUMPDEST CALLVALUE DUP1 ISZERO PUSH2 0xAC JUMPI PUSH1 0x0 DUP1 REVERT JUMPDEST POP PUSH2 0xB5 PUSH2 0x1C0 JUMP JUMPDEST PUSH1 0x40 MLOAD PUSH2 0xC2 SWAP2 SWAP1 PUSH2 0xF87 JUMP JUMPDEST PUSH1 0x40 MLOAD DUP1 SWAP2 SUB SWAP1 RETURN JUMPDEST CALLVALUE DUP1 ISZERO PUSH2 0xD7 JUMPI PUSH1 0x0 DUP1 REVERT JUMPDEST POP PUSH2 0xE0 PUSH2 0x1E4 JUMP JUMPDEST PUSH1 0x40 MLOAD PUSH2 0xED SWAP2 SWAP1 PUSH2 0xFA2 JUMP JUMPDEST PUSH1 0x40 MLOAD DUP1 SWAP2 SUB SWAP1 RETURN JUMPDEST PUSH2 0x110 PUSH1 0x4 DUP1 CALLDATASIZE SUB DUP2 ADD SWAP1 PUSH2 0x10B SWAP2 SWAP1 PUSH2 0xB55 JUMP JUMPDEST PUSH2 0x208 JUMP JUMPDEST STOP JUMPDEST CALLVALUE DUP1 ISZERO PUSH2 0x11E JUMPI PUSH1 0x0 DUP1 REVERT JUMPDEST POP PUSH2 0x139 PUSH1 0x4 DUP1 CALLDATASIZE SUB DUP2 ADD SWAP1 PUSH2 0x134 SWAP2 SWAP1 PUSH2 0xC10 JUMP JUMPDEST PUSH2 0x656 JUMP JUMPDEST PUSH1 0x40 MLOAD PUSH2 0x14B SWAP7 SWAP6 SWAP5 SWAP4 SWAP3 SWAP2 SWAP1 PUSH2 0x10D5 JUMP JUMPDEST PUSH1 0x40 MLOAD DUP1 SWAP2 SUB SWAP1 RETURN JUMPDEST CALLVALUE DUP1 ISZERO PUSH2 0x160 JUMPI PUSH1 0x0 DUP1 REVERT JUMPDEST POP PUSH2 0x17B PUSH1 0x4 DUP1 CALLDATASIZE SUB DUP2 ADD SWAP1 PUSH2 0x176 SWAP2 SWAP1 PUSH2 0xC62 JUMP JUMPDEST PUSH2 0x6BF JUMP JUMPDEST STOP JUMPDEST CALLVALUE DUP1 ISZERO PUSH2 0x189 JUMPI PUSH1 0x0 DUP1 REVERT JUMPDEST POP PUSH2 0x1A4 PUSH1 0x4 DUP1 CALLDATASIZE SUB DUP2 ADD SWAP1 PUSH2 0x19F SWAP2 SWAP1 PUSH2 0xC10 JUMP JUMPDEST PUSH2 0x83F JUMP JUMPDEST PUSH1 0x40 MLOAD PUSH2 0x1B1 SWAP2 SWAP1 PUSH2 0x109F JUMP JUMPDEST PUSH1 0x40 MLOAD DUP1 SWAP2 SUB SWAP1 RETURN JUMPDEST PUSH1 0x2 SLOAD DUP2 JUMP JUMPDEST PUSH1 0x0 DUP1 SLOAD SWAP1 PUSH2 0x100 EXP SWAP1 DIV PUSH20 0xFFFFFFFFFFFFFFFFFFFFFFFFFFFFFFFFFFFFFFFF AND DUP2 JUMP JUMPDEST PUSH32 0x0 DUP2 JUMP JUMPDEST PUSH1 0x0 DUP2 GT PUSH2 0x24B JUMPI PUSH1 0x40 MLOAD PUSH32 0x8C379A000000000000000000000000000000000000000000000000000000000 DUP2 MSTORE PUSH1 0x4 ADD PUSH2 0x242 SWAP1 PUSH2 0xFDF JUMP JUMPDEST PUSH1 0x40 MLOAD DUP1 SWAP2 SUB SWAP1 REVERT JUMPDEST PUSH1 0x0 CALLVALUE GT PUSH2 0x28E JUMPI PUSH1 0x40 MLOAD PUSH32 0x8C379A000000000000000000000000000000000000000000000000000000000 DUP2 MSTORE PUSH1 0x4 ADD PUSH2 0x285 SWAP1 PUSH2 0x103F JUMP JUMPDEST PUSH1 0x40 MLOAD DUP1 SWAP2 SUB SWAP1 REVERT JUMPDEST PUSH1 0x0 PUSH32 0x0 PUSH20 0xFFFFFFFFFFFFFFFFFFFFFFFFFFFFFFFFFFFFFFFF AND PUSH4 0x2F4E3FAA DUP5 PUSH1 0x40 MLOAD DUP3 PUSH4 0xFFFFFFFF AND PUSH1 0xE0 SHL DUP2 MSTORE PUSH1 0x4 ADD PUSH2 0x2E9 SWAP2 SWAP1 PUSH2 0xFBD JUMP JUMPDEST PUSH1 0x20 PUSH1 0x40 MLOAD DUP1 DUP4 SUB DUP2 DUP7 DUP1 EXTCODESIZE ISZERO DUP1 ISZERO PUSH2 0x301 JUMPI PUSH1 0x0 DUP1 REVERT JUMPDEST POP GAS STATICCALL ISZERO DUP1 ISZERO PUSH2 0x315 JUMPI RETURNDATASIZE PUSH1 0x0 DUP1 RETURNDATACOPY RETURNDATASIZE PUSH1 0x0 REVERT JUMPDEST POP POP POP POP PUSH1 0x40 MLOAD RETURNDATASIZE PUSH1 0x1F NOT PUSH1 0x1F DUP3 ADD AND DUP3 ADD DUP1 PUSH1 0x40 MSTORE POP DUP2 ADD SWAP1 PUSH2 0x339 SWAP2 SWAP1 PUSH2 0xC39 JUMP JUMPDEST SWAP1 POP PUSH1 0x0 DUP2 GT PUSH2 0x37E JUMPI PUSH1 0x40 MLOAD PUSH32 0x8C379A000000000000000000000000000000000000000000000000000000000 DUP2 MSTORE PUSH1 0x4 ADD PUSH2 0x375 SWAP1 PUSH2 0x101F JUMP JUMPDEST PUSH1 0x40 MLOAD DUP1 SWAP2 SUB SWAP1 REVERT JUMPDEST PUSH1 0x0 PUSH32 0x0 PUSH20 0xFFFFFFFFFFFFFFFFFFFFFFFFFFFFFFFFFFFFFFFF AND PUSH4 0x8BC6976E DUP4 PUSH1 0x40 MLOAD DUP3 PUSH4 0xFFFFFFFF AND PUSH1 0xE0 SHL DUP2 MSTORE PUSH1 0x4 ADD PUSH2 0x3D9 SWAP2 SWAP1 PUSH2 0x10BA JUMP JUMPDEST PUSH1 0x0 PUSH1 0x40 MLOAD DUP1 DUP4 SUB DUP2 DUP7 DUP1 EXTCODESIZE ISZERO DUP1 ISZERO PUSH2 0x3F1 JUMPI PUSH1 0x0 DUP1 REVERT JUMPDEST POP GAS STATICCALL ISZERO DUP1 ISZERO PUSH2 0x405 JUMPI RETURNDATASIZE PUSH1 0x0 DUP1 RETURNDATACOPY RETURNDATASIZE PUSH1 0x0 REVERT JUMPDEST POP POP POP POP PUSH1 0x40 MLOAD RETURNDATASIZE PUSH1 0x0 DUP3 RETURNDATACOPY RETURNDATASIZE PUSH1 0x1F NOT PUSH1 0x1F DUP3 ADD AND DUP3 ADD DUP1 PUSH1 0x40 MSTORE POP DUP2 ADD SWAP1 PUSH2 0x42E SWAP2 SWAP1 PUSH2 0xBA9 JUMP JUMPDEST SWAP3 POP POP POP PUSH1 0x0 DUP4 DUP3 PUSH2 0x440 SWAP2 SWAP1 PUSH2 0x1213 JUMP JUMPDEST SWAP1 POP DUP1 CALLVALUE LT ISZERO PUSH2 0x485 JUMPI PUSH1 0x40 MLOAD PUSH32 0x8C379A000000000000000000000000000000000000000000000000000000000 DUP2 MSTORE PUSH1 0x4 ADD PUSH2 0x47C SWAP1 PUSH2 0x105F JUMP JUMPDEST PUSH1 0x40 MLOAD DUP1 SWAP2 SUB SWAP1 REVERT JUMPDEST PUSH1 0x2 PUSH1 0x0 DUP2 SLOAD DUP1 SWAP3 SWAP2 SWAP1 PUSH2 0x498 SWAP1 PUSH2 0x1334 JUMP JUMPDEST SWAP2 SWAP1 POP SSTORE POP PUSH1 0x40 MLOAD DUP1 PUSH1 0xC0 ADD PUSH1 0x40 MSTORE DUP1 PUSH1 0x2 SLOAD DUP2 MSTORE PUSH1 0x20 ADD CALLER PUSH20 0xFFFFFFFFFFFFFFFFFFFFFFFFFFFFFFFFFFFFFFFF AND DUP2 MSTORE PUSH1 0x20 ADD DUP5 DUP2 MSTORE PUSH1 0x20 ADD DUP6 DUP2 MSTORE PUSH1 0x20 ADD DUP3 DUP2 MSTORE PUSH1 0x20 ADD PUSH1 0x0 PUSH1 0x3 DUP2 GT ISZERO PUSH2 0x518 JUMPI PUSH32 0x4E487B7100000000000000000000000000000000000000000000000000000000 PUSH1 0x0 MSTORE PUSH1 0x21 PUSH1 0x4 MSTORE PUSH1 0x24 PUSH1 0x0 REVERT JUMPDEST DUP2 MSTORE POP PUSH1 0x1 PUSH1 0x0 PUSH1 0x2 SLOAD DUP2 MSTORE PUSH1 0x20 ADD SWAP1 DUP2 MSTORE PUSH1 0x20 ADD PUSH1 0x0 KECCAK256 PUSH1 0x0 DUP3 ADD MLOAD DUP2 PUSH1 0x0 ADD SSTORE PUSH1 0x20 DUP3 ADD MLOAD DUP2 PUSH1 0x1 ADD PUSH1 0x0 PUSH2 0x100 EXP DUP2 SLOAD DUP2 PUSH20 0xFFFFFFFFFFFFFFFFFFFFFFFFFFFFFFFFFFFFFFFF MUL NOT AND SWAP1 DUP4 PUSH20 0xFFFFFFFFFFFFFFFFFFFFFFFFFFFFFFFFFFFFFFFF AND MUL OR SWAP1 SSTORE POP PUSH1 0x40 DUP3 ADD MLOAD DUP2 PUSH1 0x2 ADD SSTORE PUSH1 0x60 DUP3 ADD MLOAD DUP2 PUSH1 0x3 ADD SSTORE PUSH1 0x80 DUP3 ADD MLOAD DUP2 PUSH1 0x4 ADD SSTORE PUSH1 0xA0 DUP3 ADD MLOAD DUP2 PUSH1 0x5 ADD PUSH1 0x0 PUSH2 0x100 EXP DUP2 SLOAD DUP2 PUSH1 0xFF MUL NOT AND SWAP1 DUP4 PUSH1 0x3 DUP2 GT ISZERO PUSH2 0x5F0 JUMPI PUSH32 0x4E487B7100000000000000000000000000000000000000000000000000000000 PUSH1 0x0 MSTORE PUSH1 0x21 PUSH1 0x4 MSTORE PUSH1 0x24 PUSH1 0x0 REVERT JUMPDEST MUL OR SWAP1 SSTORE POP SWAP1 POP POP DUP3 CALLER PUSH20 0xFFFFFFFFFFFFFFFFFFFFFFFFFFFFFFFFFFFFFFFF AND PUSH1 0x2 SLOAD PUSH32 0x5CCC3386DFA567A303C53DCBE08DADFE0A9841FA5A621BC4A466A1DCAEA7911A DUP8 DUP6 PUSH1 0x0 PUSH1 0x40 MLOAD PUSH2 0x647 SWAP4 SWAP3 SWAP2 SWAP1 PUSH2 0x115F JUMP JUMPDEST PUSH1 0x40 MLOAD DUP1 SWAP2 SUB SWAP1 LOG4 POP POP POP POP POP JUMP JUMPDEST PUSH1 0x1 PUSH1 0x20 MSTORE DUP1 PUSH1 0x0 MSTORE PUSH1 0x40 PUSH1 0x0 KECCAK256 PUSH1 0x0 SWAP2 POP SWAP1 POP DUP1 PUSH1 0x0 ADD SLOAD SWAP1 DUP1 PUSH1 0x1 ADD PUSH1 0x0 SWAP1 SLOAD SWAP1 PUSH2 0x100 EXP SWAP1 DIV PUSH20 0xFFFFFFFFFFFFFFFFFFFFFFFFFFFFFFFFFFFFFFFF AND SWAP1 DUP1 PUSH1 0x2 ADD SLOAD SWAP1 DUP1 PUSH1 0x3 ADD SLOAD SWAP1 DUP1 PUSH1 0x4 ADD SLOAD SWAP1 DUP1 PUSH1 0x5 ADD PUSH1 0x0 SWAP1 SLOAD SWAP1 PUSH2 0x100 EXP SWAP1 DIV PUSH1 0xFF AND SWAP1 POP DUP7 JUMP JUMPDEST PUSH1 0x0 DUP1 SLOAD SWAP1 PUSH2 0x100 EXP SWAP1 DIV PUSH20 0xFFFFFFFFFFFFFFFFFFFFFFFFFFFFFFFFFFFFFFFF AND PUSH20 0xFFFFFFFFFFFFFFFFFFFFFFFFFFFFFFFFFFFFFFFF AND CALLER PUSH20 0xFFFFFFFFFFFFFFFFFFFFFFFFFFFFFFFFFFFFFFFF AND EQ PUSH2 0x74D JUMPI PUSH1 0x40 MLOAD PUSH32 0x8C379A000000000000000000000000000000000000000000000000000000000 DUP2 MSTORE PUSH1 0x4 ADD PUSH2 0x744 SWAP1 PUSH2 0xFFF JUMP JUMPDEST PUSH1 0x40 MLOAD DUP1 SWAP2 SUB SWAP1 REVERT JUMPDEST PUSH1 0x0 DUP3 GT DUP1 ISZERO PUSH2 0x75F JUMPI POP PUSH1 0x2 SLOAD DUP3 GT ISZERO JUMPDEST PUSH2 0x79E JUMPI PUSH1 0x40 MLOAD PUSH32 0x8C379A000000000000000000000000000000000000000000000000000000000 DUP2 MSTORE PUSH1 0x4 ADD PUSH2 0x795 SWAP1 PUSH2 0x107F JUMP JUMPDEST PUSH1 0x40 MLOAD DUP1 SWAP2 SUB SWAP1 REVERT JUMPDEST DUP1 PUSH1 0x1 PUSH1 0x0 DUP5 DUP2 MSTORE PUSH1 0x20 ADD SWAP1 DUP2 MSTORE PUSH1 0x20 ADD PUSH1 0x0 KECCAK256 PUSH1 0x5 ADD PUSH1 0x0 PUSH2 0x100 EXP DUP2 SLOAD DUP2 PUSH1 0xFF MUL NOT AND SWAP1 DUP4 PUSH1 0x3 DUP2 GT ISZERO PUSH2 0x7FD JUMPI PUSH32 0x4E487B7100000000000000000000000000000000000000000000000000000000 PUSH1 0x0 MSTORE PUSH1 0x21 PUSH1 0x4 MSTORE PUSH1 0x24 PUSH1 0x0 REVERT JUMPDEST MUL OR SWAP1 SSTORE POP PUSH32 0xD9A86B644EB5F5B43CC8A700849852481080361C7A4B00BA646D1B46C5585F95 DUP3 DUP3 PUSH1 0x40 MLOAD PUSH2 0x833 SWAP3 SWAP2 SWAP1 PUSH2 0x1136 JUMP JUMPDEST PUSH1 0x40 MLOAD DUP1 SWAP2 SUB SWAP1 LOG1 POP POP JUMP JUMPDEST PUSH2 0x847 PUSH2 0x9C2 JUMP JUMPDEST PUSH1 0x0 DUP3 GT DUP1 ISZERO PUSH2 0x859 JUMPI POP PUSH1 0x2 SLOAD DUP3 GT ISZERO JUMPDEST PUSH2 0x898 JUMPI PUSH1 0x40 MLOAD PUSH32 0x8C379A000000000000000000000000000000000000000000000000000000000 DUP2 MSTORE PUSH1 0x4 ADD PUSH2 0x88F SWAP1 PUSH2 0x107F JUMP JUMPDEST PUSH1 0x40 MLOAD DUP1 SWAP2 SUB SWAP1 REVERT JUMPDEST PUSH1 0x1 PUSH1 0x0 DUP4 DUP2 MSTORE PUSH1 0x20 ADD SWAP1 DUP2 MSTORE PUSH1 0x20 ADD PUSH1 0x0 KECCAK256 PUSH1 0x40 MLOAD DUP1 PUSH1 0xC0 ADD PUSH1 0x40 MSTORE SWAP1 DUP2 PUSH1 0x0 DUP3 ADD SLOAD DUP2 MSTORE PUSH1 0x20 ADD PUSH1 0x1 DUP3 ADD PUSH1 0x0 SWAP1 SLOAD SWAP1 PUSH2 0x100 EXP SWAP1 DIV PUSH20 0xFFFFFFFFFFFFFFFFFFFFFFFFFFFFFFFFFFFFFFFF AND PUSH20 0xFFFFFFFFFFFFFFFFFFFFFFFFFFFFFFFFFFFFFFFF AND PUSH20 0xFFFFFFFFFFFFFFFFFFFFFFFFFFFFFFFFFFFFFFFF AND DUP2 MSTORE PUSH1 0x20 ADD PUSH1 0x2 DUP3 ADD SLOAD DUP2 MSTORE PUSH1 0x20 ADD PUSH1 0x3 DUP3 ADD SLOAD DUP2 MSTORE PUSH1 0x20 ADD PUSH1 0x4 DUP3 ADD SLOAD DUP2 MSTORE PUSH1 0x20 ADD PUSH1 0x5 DUP3 ADD PUSH1 0x0 SWAP1 SLOAD SWAP1 PUSH2 0x100 EXP SWAP1 DIV PUSH1 0xFF AND PUSH1 0x3 DUP2 GT ISZERO PUSH2 0x97F JUMPI PUSH32 0x4E487B7100000000000000000000000000000000000000000000000000000000 PUSH1 0x0 MSTORE PUSH1 0x21 PUSH1 0x4 MSTORE PUSH1 0x24 PUSH1 0x0 REVERT JUMPDEST PUSH1 0x3 DUP2 GT ISZERO PUSH2 0x9B7 JUMPI PUSH32 0x4E487B7100000000000000000000000000000000000000000000000000000000 PUSH1 0x0 MSTORE PUSH1 0x21 PUSH1 0x4 MSTORE PUSH1 0x24 PUSH1 0x0 REVERT JUMPDEST DUP2 MSTORE POP POP SWAP1 POP SWAP2 SWAP1 POP JUMP JUMPDEST PUSH1 0x40 MLOAD DUP1 PUSH1 0xC0 ADD PUSH1 0x40 MSTORE DUP1 PUSH1 0x0 DUP2 MSTORE PUSH1 0x20 ADD PUSH1 0x0 PUSH20 0xFFFFFFFFFFFFFFFFFFFFFFFFFFFFFFFFFFFFFFFF AND DUP2 MSTORE PUSH1 0x20 ADD PUSH1 0x0 DUP2 MSTORE PUSH1 0x20 ADD PUSH1 0x0 DUP2 MSTORE PUSH1 0x20 ADD PUSH1 0x0 DUP2 MSTORE PUSH1 0x20 ADD PUSH1 0x0 PUSH1 0x3 DUP2 GT ISZERO PUSH2 0xA40 JUMPI PUSH32 0x4E487B7100000000000000000000000000000000000000000000000000000000 PUSH1 0x0 MSTORE PUSH1 0x21 PUSH1 0x4 MSTORE PUSH1 0x24 PUSH1 0x0 REVERT JUMPDEST DUP2 MSTORE POP SWAP1 JUMP JUMPDEST PUSH1 0x0 PUSH2 0xA59 PUSH2 0xA54 DUP5 PUSH2 0x11C7 JUMP JUMPDEST PUSH2 0x1196 JUMP JUMPDEST SWAP1 POP DUP3 DUP2 MSTORE PUSH1 0x20 DUP2 ADD DUP5 DUP5 DUP5 ADD GT ISZERO PUSH2 0xA71 JUMPI PUSH1 0x0 DUP1 REVERT JUMPDEST PUSH2 0xA7C DUP5 DUP3 DUP6 PUSH2 0x12F2 JUMP JUMPDEST POP SWAP4 SWAP3 POP POP POP JUMP JUMPDEST PUSH1 0x0 PUSH2 0xA97 PUSH2 0xA92 DUP5 PUSH2 0x11C7 JUMP JUMPDEST PUSH2 0x1196 JUMP JUMPDEST SWAP1 POP DUP3 DUP2 MSTORE PUSH1 0x20 DUP2 ADD DUP5 DUP5 DUP5 ADD GT ISZERO PUSH2 0xAAF JUMPI PUSH1 0x0 DUP1 REVERT JUMPDEST PUSH2 0xABA DUP5 DUP3 DUP6 PUSH2 0x1301 JUMP JUMPDEST POP SWAP4 SWAP3 POP POP POP JUMP JUMPDEST PUSH1 0x0 DUP2 CALLDATALOAD SWAP1 POP PUSH2 0xAD1 DUP2 PUSH2 0x142F JUMP JUMPDEST SWAP3 SWAP2 POP POP JUMP JUMPDEST PUSH1 0x0 DUP3 PUSH1 0x1F DUP4 ADD SLT PUSH2 0xAE8 JUMPI PUSH1 0x0 DUP1 REVERT JUMPDEST DUP2 CALLDATALOAD PUSH2 0xAF8 DUP5 DUP3 PUSH1 0x20 DUP7 ADD PUSH2 0xA46 JUMP JUMPDEST SWAP2 POP POP SWAP3 SWAP2 POP POP JUMP JUMPDEST PUSH1 0x0 DUP3 PUSH1 0x1F DUP4 ADD SLT PUSH2 0xB12 JUMPI PUSH1 0x0 DUP1 REVERT JUMPDEST DUP2 MLOAD PUSH2 0xB22 DUP5 DUP3 PUSH1 0x20 DUP7 ADD PUSH2 0xA84 JUMP JUMPDEST SWAP2 POP POP SWAP3 SWAP2 POP POP JUMP JUMPDEST PUSH1 0x0 DUP2 CALLDATALOAD SWAP1 POP PUSH2 0xB3A DUP2 PUSH2 0x143F JUMP JUMPDEST SWAP3 SWAP2 POP POP JUMP JUMPDEST PUSH1 0x0 DUP2 MLOAD SWAP1 POP PUSH2 0xB4F DUP2 PUSH2 0x143F JUMP JUMPDEST SWAP3 SWAP2 POP POP JUMP JUMPDEST PUSH1 0x0 DUP1 PUSH1 0x40 DUP4 DUP6 SUB SLT ISZERO PUSH2 0xB68 JUMPI PUSH1 0x0 DUP1 REVERT JUMPDEST PUSH1 0x0 DUP4 ADD CALLDATALOAD PUSH8 0xFFFFFFFFFFFFFFFF DUP2 GT ISZERO PUSH2 0xB82 JUMPI PUSH1 0x0 DUP1 REVERT JUMPDEST PUSH2 0xB8E DUP6 DUP3 DUP7 ADD PUSH2 0xAD7 JUMP JUMPDEST SWAP3 POP POP PUSH1 0x20 PUSH2 0xB9F DUP6 DUP3 DUP7 ADD PUSH2 0xB2B JUMP JUMPDEST SWAP2 POP POP SWAP3 POP SWAP3 SWAP1 POP JUMP JUMPDEST PUSH1 0x0 DUP1 PUSH1 0x0 PUSH1 0x60 DUP5 DUP7 SUB SLT ISZERO PUSH2 0xBBE JUMPI PUSH1 0x0 DUP1 REVERT JUMPDEST PUSH1 0x0 DUP5 ADD MLOAD PUSH8 0xFFFFFFFFFFFFFFFF DUP2 GT ISZERO PUSH2 0xBD8 JUMPI PUSH1 0x0 DUP1 REVERT JUMPDEST PUSH2 0xBE4 DUP7 DUP3 DUP8 ADD PUSH2 0xB01 JUMP JUMPDEST SWAP4 POP POP PUSH1 0x20 PUSH2 0xBF5 DUP7 DUP3 DUP8 ADD PUSH2 0xB40 JUMP JUMPDEST SWAP3 POP POP PUSH1 0x40 PUSH2 0xC06 DUP7 DUP3 DUP8 ADD PUSH2 0xB40 JUMP JUMPDEST SWAP2 POP POP SWAP3 POP SWAP3 POP SWAP3 JUMP JUMPDEST PUSH1 0x0 PUSH1 0x20 DUP3 DUP5 SUB SLT ISZERO PUSH2 0xC22 JUMPI PUSH1 0x0 DUP1 REVERT JUMPDEST PUSH1 0x0 PUSH2 0xC30 DUP5 DUP3 DUP6 ADD PUSH2 0xB2B JUMP JUMPDEST SWAP2 POP POP SWAP3 SWAP2 POP POP JUMP JUMPDEST PUSH1 0x0 PUSH1 0x20 DUP3 DUP5 SUB SLT ISZERO PUSH2 0xC4B JUMPI PUSH1 0x0 DUP1 REVERT JUMPDEST PUSH1 0x0 PUSH2 0xC59 DUP5 DUP3 DUP6 ADD PUSH2 0xB40 JUMP JUMPDEST SWAP2 POP POP SWAP3 SWAP2 POP POP JUMP JUMPDEST PUSH1 0x0 DUP1 PUSH1 0x40 DUP4 DUP6 SUB SLT ISZERO PUSH2 0xC75 JUMPI PUSH1 0x0 DUP1 REVERT JUMPDEST PUSH1 0x0 PUSH2 0xC83 DUP6 DUP3 DUP7 ADD PUSH2 0xB2B JUMP JUMPDEST SWAP3 POP POP PUSH1 0x20 PUSH2 0xC94 DUP6 DUP3 DUP7 ADD PUSH2 0xAC2 JUMP JUMPDEST SWAP2 POP POP SWAP3 POP SWAP3 SWAP1 POP JUMP JUMPDEST PUSH2 0xCA7 DUP2 PUSH2 0x126D JUMP JUMPDEST DUP3 MSTORE POP POP JUMP JUMPDEST PUSH2 0xCB6 DUP2 PUSH2 0x126D JUMP JUMPDEST DUP3 MSTORE POP POP JUMP JUMPDEST PUSH2 0xCC5 DUP2 PUSH2 0x12BC JUMP JUMPDEST DUP3 MSTORE POP POP JUMP JUMPDEST PUSH2 0xCD4 DUP2 PUSH2 0x12E0 JUMP JUMPDEST DUP3 MSTORE POP POP JUMP JUMPDEST PUSH2 0xCE3 DUP2 PUSH2 0x12E0 JUMP JUMPDEST DUP3 MSTORE POP POP JUMP JUMPDEST PUSH1 0x0 PUSH2 0xCF4 DUP3 PUSH2 0x11F7 JUMP JUMPDEST PUSH2 0xCFE DUP2 DUP6 PUSH2 0x1202 JUMP JUMPDEST SWAP4 POP PUSH2 0xD0E DUP2 DUP6 PUSH1 0x20 DUP7 ADD PUSH2 0x1301 JUMP JUMPDEST PUSH2 0xD17 DUP2 PUSH2 0x140A JUMP JUMPDEST DUP5 ADD SWAP2 POP POP SWAP3 SWAP2 POP POP JUMP JUMPDEST PUSH1 0x0 PUSH2 0xD2F PUSH1 0x1F DUP4 PUSH2 0x1202 JUMP JUMPDEST SWAP2 POP PUSH32 0x5175616E74697479206D7573742062652067726561746572207468616E203000 PUSH1 0x0 DUP4 ADD MSTORE PUSH1 0x20 DUP3 ADD SWAP1 POP SWAP2 SWAP1 POP JUMP JUMPDEST PUSH1 0x0 PUSH2 0xD6F PUSH1 0x25 DUP4 PUSH2 0x1202 JUMP JUMPDEST SWAP2 POP PUSH32 0x4F6E6C7920746865206F776E65722063616E2063616C6C20746869732066756E PUSH1 0x0 DUP4 ADD MSTORE PUSH32 0x6374696F6E000000000000000000000000000000000000000000000000000000 PUSH1 0x20 DUP4 ADD MSTORE PUSH1 0x40 DUP3 ADD SWAP1 POP SWAP2 SWAP1 POP JUMP JUMPDEST PUSH1 0x0 PUSH2 0xDD5 PUSH1 0x11 DUP4 PUSH2 0x1202 JUMP JUMPDEST SWAP2 POP PUSH32 0x496E76616C6964206974656D206E616D65000000000000000000000000000000 PUSH1 0x0 DUP4 ADD MSTORE PUSH1 0x20 DUP3 ADD SWAP1 POP SWAP2 SWAP1 POP JUMP JUMPDEST PUSH1 0x0 PUSH2 0xE15 PUSH1 0x23 DUP4 PUSH2 0x1202 JUMP JUMPDEST SWAP2 POP PUSH32 0x5061796D656E74206D7573742062652073656E74207769746820746865206F72 PUSH1 0x0 DUP4 ADD MSTORE PUSH32 0x6465720000000000000000000000000000000000000000000000000000000000 PUSH1 0x20 DUP4 ADD MSTORE PUSH1 0x40 DUP3 ADD SWAP1 POP SWAP2 SWAP1 POP JUMP JUMPDEST PUSH1 0x0 PUSH2 0xE7B PUSH1 0x14 DUP4 PUSH2 0x1202 JUMP JUMPDEST SWAP2 POP PUSH32 0x496E73756666696369656E74207061796D656E74000000000000000000000000 PUSH1 0x0 DUP4 ADD MSTORE PUSH1 0x20 DUP3 ADD SWAP1 POP SWAP2 SWAP1 POP JUMP JUMPDEST PUSH1 0x0 PUSH2 0xEBB PUSH1 0x10 DUP4 PUSH2 0x1202 JUMP JUMPDEST SWAP2 POP PUSH32 0x496E76616C6964206F7264657220494400000000000000000000000000000000 PUSH1 0x0 DUP4 ADD MSTORE PUSH1 0x20 DUP3 ADD SWAP1 POP SWAP2 SWAP1 POP JUMP JUMPDEST PUSH1 0xC0 DUP3 ADD PUSH1 0x0 DUP3 ADD MLOAD PUSH2 0xF04 PUSH1 0x0 DUP6 ADD DUP3 PUSH2 0xF69 JUMP JUMPDEST POP PUSH1 0x20 DUP3 ADD MLOAD PUSH2 0xF17 PUSH1 0x20 DUP6 ADD DUP3 PUSH2 0xC9E JUMP JUMPDEST POP PUSH1 0x40 DUP3 ADD MLOAD PUSH2 0xF2A PUSH1 0x40 DUP6 ADD DUP3 PUSH2 0xF69 JUMP JUMPDEST POP PUSH1 0x60 DUP3 ADD MLOAD PUSH2 0xF3D PUSH1 0x60 DUP6 ADD DUP3 PUSH2 0xF69 JUMP JUMPDEST POP PUSH1 0x80 DUP3 ADD MLOAD PUSH2 0xF50 PUSH1 0x80 DUP6 ADD DUP3 PUSH2 0xF69 JUMP JUMPDEST POP PUSH1 0xA0 DUP3 ADD MLOAD PUSH2 0xF63 PUSH1 0xA0 DUP6 ADD DUP3 PUSH2 0xCCB JUMP JUMPDEST POP POP POP POP JUMP JUMPDEST PUSH2 0xF72 DUP2 PUSH2 0x12B2 JUMP JUMPDEST DUP3 MSTORE POP POP JUMP JUMPDEST PUSH2 0xF81 DUP2 PUSH2 0x12B2 JUMP JUMPDEST DUP3 MSTORE POP POP JUMP JUMPDEST PUSH1 0x0 PUSH1 0x20 DUP3 ADD SWAP1 POP PUSH2 0xF9C PUSH1 0x0 DUP4 ADD DUP5 PUSH2 0xCAD JUMP JUMPDEST SWAP3 SWAP2 POP POP JUMP JUMPDEST PUSH1 0x0 PUSH1 0x20 DUP3 ADD SWAP1 POP PUSH2 0xFB7 PUSH1 0x0 DUP4 ADD DUP5 PUSH2 0xCBC JUMP JUMPDEST SWAP3 SWAP2 POP POP JUMP JUMPDEST PUSH1 0x0 PUSH1 0x20 DUP3 ADD SWAP1 POP DUP2 DUP2 SUB PUSH1 0x0 DUP4 ADD MSTORE PUSH2 0xFD7 DUP2 DUP5 PUSH2 0xCE9 JUMP JUMPDEST SWAP1 POP SWAP3 SWAP2 POP POP JUMP JUMPDEST PUSH1 0x0 PUSH1 0x20 DUP3 ADD SWAP1 POP DUP2 DUP2 SUB PUSH1 0x0 DUP4 ADD MSTORE PUSH2 0xFF8 DUP2 PUSH2 0xD22 JUMP JUMPDEST SWAP1 POP SWAP2 SWAP1 POP JUMP JUMPDEST PUSH1 0x0 PUSH1 0x20 DUP3 ADD SWAP1 POP DUP2 DUP2 SUB PUSH1 0x0 DUP4 ADD MSTORE PUSH2 0x1018 DUP2 PUSH2 0xD62 JUMP JUMPDEST SWAP1 POP SWAP2 SWAP1 POP JUMP JUMPDEST PUSH1 0x0 PUSH1 0x20 DUP3 ADD SWAP1 POP DUP2 DUP2 SUB PUSH1 0x0 DUP4 ADD MSTORE PUSH2 0x1038 DUP2 PUSH2 0xDC8 JUMP JUMPDEST SWAP1 POP SWAP2 SWAP1 POP JUMP JUMPDEST PUSH1 0x0 PUSH1 0x20 DUP3 ADD SWAP1 POP DUP2 DUP2 SUB PUSH1 0x0 DUP4 ADD MSTORE PUSH2 0x1058 DUP2 PUSH2 0xE08 JUMP JUMPDEST SWAP1 POP SWAP2 SWAP1 POP JUMP JUMPDEST PUSH1 0x0 PUSH1 0x20 DUP3 ADD SWAP1 POP DUP2 DUP2 SUB PUSH1 0x0 DUP4 ADD MSTORE PUSH2 0x1078 DUP2 PUSH2 0xE6E JUMP JUMPDEST SWAP1 POP SWAP2 SWAP1 POP JUMP JUMPDEST PUSH1 0x0 PUSH1 0x20 DUP3 ADD SWAP1 POP DUP2 DUP2 SUB PUSH1 0x0 DUP4 ADD MSTORE PUSH2 0x1098 DUP2 PUSH2 0xEAE JUMP JUMPDEST SWAP1 POP SWAP2 SWAP1 POP JUMP JUMPDEST PUSH1 0x0 PUSH1 0xC0 DUP3 ADD SWAP1 POP PUSH2 0x10B4 PUSH1 0x0 DUP4 ADD DUP5 PUSH2 0xEEE JUMP JUMPDEST SWAP3 SWAP2 POP POP JUMP JUMPDEST PUSH1 0x0 PUSH1 0x20 DUP3 ADD SWAP1 POP PUSH2 0x10CF PUSH1 0x0 DUP4 ADD DUP5 PUSH2 0xF78 JUMP JUMPDEST SWAP3 SWAP2 POP POP JUMP JUMPDEST PUSH1 0x0 PUSH1 0xC0 DUP3 ADD SWAP1 POP PUSH2 0x10EA PUSH1 0x0 DUP4 ADD DUP10 PUSH2 0xF78 JUMP JUMPDEST PUSH2 0x10F7 PUSH1 0x20 DUP4 ADD DUP9 PUSH2 0xCAD JUMP JUMPDEST PUSH2 0x1104 PUSH1 0x40 DUP4 ADD DUP8 PUSH2 0xF78 JUMP JUMPDEST PUSH2 0x1111 PUSH1 0x60 DUP4 ADD DUP7 PUSH2 0xF78 JUMP JUMPDEST PUSH2 0x111E PUSH1 0x80 DUP4 ADD DUP6 PUSH2 0xF78 JUMP JUMPDEST PUSH2 0x112B PUSH1 0xA0 DUP4 ADD DUP5 PUSH2 0xCDA JUMP JUMPDEST SWAP8 SWAP7 POP POP POP POP POP POP POP JUMP JUMPDEST PUSH1 0x0 PUSH1 0x40 DUP3 ADD SWAP1 POP PUSH2 0x114B PUSH1 0x0 DUP4 ADD DUP6 PUSH2 0xF78 JUMP JUMPDEST PUSH2 0x1158 PUSH1 0x20 DUP4 ADD DUP5 PUSH2 0xCDA JUMP JUMPDEST SWAP4 SWAP3 POP POP POP JUMP JUMPDEST PUSH1 0x0 PUSH1 0x60 DUP3 ADD SWAP1 POP PUSH2 0x1174 PUSH1 0x0 DUP4 ADD DUP7 PUSH2 0xF78 JUMP JUMPDEST PUSH2 0x1181 PUSH1 0x20 DUP4 ADD DUP6 PUSH2 0xF78 JUMP JUMPDEST PUSH2 0x118E PUSH1 0x40 DUP4 ADD DUP5 PUSH2 0xCDA JUMP JUMPDEST SWAP5 SWAP4 POP POP POP POP JUMP JUMPDEST PUSH1 0x0 PUSH1 0x40 MLOAD SWAP1 POP DUP2 DUP2 ADD DUP2 DUP2 LT PUSH8 0xFFFFFFFFFFFFFFFF DUP3 GT OR ISZERO PUSH2 0x11BD JUMPI PUSH2 0x11BC PUSH2 0x13DB JUMP JUMPDEST JUMPDEST DUP1 PUSH1 0x40 MSTORE POP SWAP2 SWAP1 POP JUMP JUMPDEST PUSH1 0x0 PUSH8 0xFFFFFFFFFFFFFFFF DUP3 GT ISZERO PUSH2 0x11E2 JUMPI PUSH2 0x11E1 PUSH2 0x13DB JUMP JUMPDEST JUMPDEST PUSH1 0x1F NOT PUSH1 0x1F DUP4 ADD AND SWAP1 POP PUSH1 0x20 DUP2 ADD SWAP1 POP SWAP2 SWAP1 POP JUMP JUMPDEST PUSH1 0x0 DUP2 MLOAD SWAP1 POP SWAP2 SWAP1 POP JUMP JUMPDEST PUSH1 0x0 DUP3 DUP3 MSTORE PUSH1 0x20 DUP3 ADD SWAP1 POP SWAP3 SWAP2 POP POP JUMP JUMPDEST PUSH1 0x0 PUSH2 0x121E DUP3 PUSH2 0x12B2 JUMP JUMPDEST SWAP2 POP PUSH2 0x1229 DUP4 PUSH2 0x12B2 JUMP JUMPDEST SWAP3 POP DUP2 PUSH32 0xFFFFFFFFFFFFFFFFFFFFFFFFFFFFFFFFFFFFFFFFFFFFFFFFFFFFFFFFFFFFFFFF DIV DUP4 GT DUP3 ISZERO ISZERO AND ISZERO PUSH2 0x1262 JUMPI PUSH2 0x1261 PUSH2 0x137D JUMP JUMPDEST JUMPDEST DUP3 DUP3 MUL SWAP1 POP SWAP3 SWAP2 POP POP JUMP JUMPDEST PUSH1 0x0 PUSH2 0x1278 DUP3 PUSH2 0x1292 JUMP JUMPDEST SWAP1 POP SWAP2 SWAP1 POP JUMP JUMPDEST PUSH1 0x0 DUP2 SWAP1 POP PUSH2 0x128D DUP3 PUSH2 0x141B JUMP JUMPDEST SWAP2 SWAP1 POP JUMP JUMPDEST PUSH1 0x0 PUSH20 0xFFFFFFFFFFFFFFFFFFFFFFFFFFFFFFFFFFFFFFFF DUP3 AND SWAP1 POP SWAP2 SWAP1 POP JUMP JUMPDEST PUSH1 0x0 DUP2 SWAP1 POP SWAP2 SWAP1 POP JUMP JUMPDEST PUSH1 0x0 PUSH2 0x12C7 DUP3 PUSH2 0x12CE JUMP JUMPDEST SWAP1 POP SWAP2 SWAP1 POP JUMP JUMPDEST PUSH1 0x0 PUSH2 0x12D9 DUP3 PUSH2 0x1292 JUMP JUMPDEST SWAP1 POP SWAP2 SWAP1 POP JUMP JUMPDEST PUSH1 0x0 PUSH2 0x12EB DUP3 PUSH2 0x127F JUMP JUMPDEST SWAP1 POP SWAP2 SWAP1 POP JUMP JUMPDEST DUP3 DUP2 DUP4 CALLDATACOPY PUSH1 0x0 DUP4 DUP4 ADD MSTORE POP POP POP JUMP JUMPDEST PUSH1 0x0 JUMPDEST DUP4 DUP2 LT ISZERO PUSH2 0x131F JUMPI DUP1 DUP3 ADD MLOAD DUP2 DUP5 ADD MSTORE PUSH1 0x20 DUP2 ADD SWAP1 POP PUSH2 0x1304 JUMP JUMPDEST DUP4 DUP2 GT ISZERO PUSH2 0x132E JUMPI PUSH1 0x0 DUP5 DUP5 ADD MSTORE JUMPDEST POP POP POP POP JUMP JUMPDEST PUSH1 0x0 PUSH2 0x133F DUP3 PUSH2 0x12B2 JUMP JUMPDEST SWAP2 POP PUSH32 0xFFFFFFFFFFFFFFFFFFFFFFFFFFFFFFFFFFFFFFFFFFFFFFFFFFFFFFFFFFFFFFFF DUP3 EQ ISZERO PUSH2 0x1372 JUMPI PUSH2 0x1371 PUSH2 0x137D JUMP JUMPDEST JUMPDEST PUSH1 0x1 DUP3 ADD SWAP1 POP SWAP2 SWAP1 POP JUMP JUMPDEST PUSH32 0x4E487B7100000000000000000000000000000000000000000000000000000000 PUSH1 0x0 MSTORE PUSH1 0x11 PUSH1 0x4 MSTORE PUSH1 0x24 PUSH1 0x0 REVERT JUMPDEST PUSH32 0x4E487B7100000000000000000000000000000000000000000000000000000000 PUSH1 0x0 MSTORE PUSH1 0x21 PUSH1 0x4 MSTORE PUSH1 0x24 PUSH1 0x0 REVERT JUMPDEST PUSH32 0x4E487B7100000000000000000000000000000000000000000000000000000000 PUSH1 0x0 MSTORE PUSH1 0x41 PUSH1 0x4 MSTORE PUSH1 0x24 PUSH1 0x0 REVERT JUMPDEST PUSH1 0x0 PUSH1 0x1F NOT PUSH1 0x1F DUP4 ADD AND SWAP1 POP SWAP2 SWAP1 POP JUMP JUMPDEST PUSH1 0x4 DUP2 LT PUSH2 0x142C JUMPI PUSH2 0x142B PUSH2 0x13AC JUMP JUMPDEST JUMPDEST POP JUMP JUMPDEST PUSH1 0x4 DUP2 LT PUSH2 0x143C JUMPI PUSH1 0x0 DUP1 REVERT JUMPDEST POP JUMP JUMPDEST PUSH2 0x1448 DUP2 PUSH2 0x12B2 JUMP JUMPDEST DUP2 EQ PUSH2 0x1453 JUMPI PUSH1 0x0 DUP1 REVERT JUMPDEST POP JUMP INVALID LOG2 PUSH5 0x6970667358 0x22 SLT KECCAK256 0xC5 ADDMOD CHAINID 0xAD 0xCB SSTORE PUSH10 0x54A81EBA3B370D583441 DUP4 0x25 MSIZE 0xE7 ORIGIN EXP 0xD7 0xF8 MSTORE8 0x22 0x24 0xB7 0xEC NUMBER 0xDA PUSH5 0x736F6C6343 STOP ADDMOD STOP STOP CALLER "
	},
	"abi": [
		{
			"anonymous": false,
			"inputs": [
				{
					"indexed": true,
					"internalType": "uint256",
					"name": "orderId",
					"type": "uint256"
				},
				{
					"indexed": true,
					"internalType": "address",
					"name": "buyer",
					"type": "address"
				},
				{
					"indexed": true,
					"internalType": "uint256",
					"name": "itemId",
					"type": "uint256"
				},
				{
					"indexed": false,
					"internalType": "uint256",
					"name": "quantity",
					"type": "uint256"
				},
				{
					"indexed": false,
					"internalType": "uint256",
					"name": "totalAmount",
					"type": "uint256"
				},
				{
					"indexed": false,
					"internalType": "enum OrderProcessor.OrderStatus",
					"name": "status",
					"type": "uint8"
				}
			],
			"name": "OrderPlaced",
			"type": "event"
		},
		{
			"anonymous": false,
			"inputs": [
				{
					"indexed": false,
					"internalType": "uint256",
					"name": "orderId",
					"type": "uint256"
				},
				{
					"indexed": false,
					"internalType": "enum OrderProcessor.OrderStatus",
					"name": "status",
					"type": "uint8"
				}
			],
			"name": "OrderStatusUpdated",
			"type": "event"
		},
		{
			"inputs": [
				{
					"internalType": "string",
					"name": "_itemName",
					"type": "string"
				},
				{
					"internalType": "uint256",
					"name": "_quantity",
					"type": "uint256"
				}
			],
			"name": "placeOrder",
			"outputs": [],
			"stateMutability": "payable",
			"type": "function"
		},
		{
			"inputs": [
				{
					"internalType": "uint256",
					"name": "_orderId",
					"type": "uint256"
				},
				{
					"internalType": "enum OrderProcessor.OrderStatus",
					"name": "_status",
					"type": "uint8"
				}
			],
			"name": "updateOrderStatus",
			"outputs": [],
			"stateMutability": "nonpayable",
			"type": "function"
		},
		{
			"inputs": [
				{
					"internalType": "address",
					"name": "_itemRegistry",
					"type": "address"
				}
			],
			"stateMutability": "nonpayable",
			"type": "constructor"
		},
		{
			"inputs": [
				{
					"internalType": "uint256",
					"name": "_orderId",
					"type": "uint256"
				}
			],
			"name": "getOrder",
			"outputs": [
				{
					"components": [
						{
							"internalType": "uint256",
							"name": "orderId",
							"type": "uint256"
						},
						{
							"internalType": "address",
							"name": "buyer",
							"type": "address"
						},
						{
							"internalType": "uint256",
							"name": "itemId",
							"type": "uint256"
						},
						{
							"internalType": "uint256",
							"name": "quantity",
							"type": "uint256"
						},
						{
							"internalType": "uint256",
							"name": "totalAmount",
							"type": "uint256"
						},
						{
							"internalType": "enum OrderProcessor.OrderStatus",
							"name": "status",
							"type": "uint8"
						}
					],
					"internalType": "struct OrderProcessor.Order",
					"name": "",
					"type": "tuple"
				}
			],
			"stateMutability": "view",
			"type": "function"
		},
		{
			"inputs": [],
			"name": "itemRegistry",
			"outputs": [
				{
					"internalType": "contract ItemRegistry",
					"name": "",
					"type": "address"
				}
			],
			"stateMutability": "view",
			"type": "function"
		},
		{
			"inputs": [],
			"name": "orderCount",
			"outputs": [
				{
					"internalType": "uint256",
					"name": "",
					"type": "uint256"
				}
			],
			"stateMutability": "view",
			"type": "function"
		},
		{
			"inputs": [
				{
					"internalType": "uint256",
					"name": "",
					"type": "uint256"
				}
			],
			"name": "orders",
			"outputs": [
				{
					"internalType": "uint256",
					"name": "orderId",
					"type": "uint256"
				},
				{
					"internalType": "address",
					"name": "buyer",
					"type": "address"
				},
				{
					"internalType": "uint256",
					"name": "itemId",
					"type": "uint256"
				},
				{
					"internalType": "uint256",
					"name": "quantity",
					"type": "uint256"
				},
				{
					"internalType": "uint256",
					"name": "totalAmount",
					"type": "uint256"
				},
				{
					"internalType": "enum OrderProcessor.OrderStatus",
					"name": "status",
					"type": "uint8"
				}
			],
			"stateMutability": "view",
			"type": "function"
		},
		{
			"inputs": [],
			"name": "owner",
			"outputs": [
				{
					"internalType": "address",
					"name": "",
					"type": "address"
				}
			],
			"stateMutability": "view",
			"type": "function"
		}
	],
	"storageLayout": {
		"storage": [
			{
				"astId": 299,
				"contract": "contracts/OrderProcessor.sol:OrderProcessor",
				"label": "owner",
				"offset": 0,
				"slot": "0",
				"type": "t_address"
			},
			{
				"astId": 323,
				"contract": "contracts/OrderProcessor.sol:OrderProcessor",
				"label": "orders",
				"offset": 0,
				"slot": "1",
				"type": "t_mapping(t_uint256,t_struct(Order)318_storage)"
			},
			{
				"astId": 325,
				"contract": "contracts/OrderProcessor.sol:OrderProcessor",
				"label": "orderCount",
				"offset": 0,
				"slot": "2",
				"type": "t_uint256"
			}
		],
		"types": {
			"t_address": {
				"encoding": "inplace",
				"label": "address",
				"numberOfBytes": "20"
			},
			"t_enum(OrderStatus)304": {
				"encoding": "inplace",
				"label": "enum OrderProcessor.OrderStatus",
				"numberOfBytes": "1"
			},
			"t_mapping(t_uint256,t_struct(Order)318_storage)": {
				"encoding": "mapping",
				"key": "t_uint256",
				"label": "mapping(uint256 => struct OrderProcessor.Order)",
				"numberOfBytes": "32",
				"value": "t_struct(Order)318_storage"
			},
			"t_struct(Order)318_storage": {
				"encoding": "inplace",
				"label": "struct OrderProcessor.Order",
				"members": [
					{
						"astId": 306,
						"contract": "contracts/OrderProcessor.sol:OrderProcessor",
						"label": "orderId",
						"offset": 0,
						"slot": "0",
						"type": "t_uint256"
					},
					{
						"astId": 308,
						"contract": "contracts/OrderProcessor.sol:OrderProcessor",
						"label": "buyer",
						"offset": 0,
						"slot": "1",
						"type": "t_address"
					},
					{
						"astId": 310,
						"contract": "contracts/OrderProcessor.sol:OrderProcessor",
						"label": "itemId",
						"offset": 0,
						"slot": "2",
						"type": "t_uint256"
					},
					{
						"astId": 312,
						"contract": "contracts/OrderProcessor.sol:OrderProcessor",
						"label": "quantity",
						"offset": 0,
						"slot": "3",
						"type": "t_uint256"
					},
					{
						"astId": 314,
						"contract": "contracts/OrderProcessor.sol:OrderProcessor",
						"label": "totalAmount",
						"offset": 0,
						"slot": "4",
						"type": "t_uint256"
					},
					{
						"astId": 317,
						"contract": "contracts/OrderProcessor.sol:OrderProcessor",
						"label": "status",
						"offset": 0,
						"slot": "5",
						"type": "t_enum(OrderStatus)304"
					}
				],
				"numberOfBytes": "192"
			},
			"t_uint256": {
				"encoding": "inplace",
				"label": "uint256",
				"numberOfBytes": "32"
			}
		}
	},
	"web3Deploy": "var _itemRegistry = /* var of type address here */ ;\nvar orderprocessorContract = new web3.eth.Contract([{\"inputs\":[{\"internalType\":\"address\",\"name\":\"_itemRegistry\",\"type\":\"address\"}],\"stateMutability\":\"nonpayable\",\"type\":\"constructor\"},{\"anonymous\":false,\"inputs\":[{\"indexed\":true,\"internalType\":\"uint256\",\"name\":\"orderId\",\"type\":\"uint256\"},{\"indexed\":true,\"internalType\":\"address\",\"name\":\"buyer\",\"type\":\"address\"},{\"indexed\":true,\"internalType\":\"uint256\",\"name\":\"itemId\",\"type\":\"uint256\"},{\"indexed\":false,\"internalType\":\"uint256\",\"name\":\"quantity\",\"type\":\"uint256\"},{\"indexed\":false,\"internalType\":\"uint256\",\"name\":\"totalAmount\",\"type\":\"uint256\"},{\"indexed\":false,\"internalType\":\"enum OrderProcessor.OrderStatus\",\"name\":\"status\",\"type\":\"uint8\"}],\"name\":\"OrderPlaced\",\"type\":\"event\"},{\"anonymous\":false,\"inputs\":[{\"indexed\":false,\"internalType\":\"uint256\",\"name\":\"orderId\",\"type\":\"uint256\"},{\"indexed\":false,\"internalType\":\"enum OrderProcessor.OrderStatus\",\"name\":\"status\",\"type\":\"uint8\"}],\"name\":\"OrderStatusUpdated\",\"type\":\"event\"},{\"inputs\":[{\"internalType\":\"uint256\",\"name\":\"_orderId\",\"type\":\"uint256\"}],\"name\":\"getOrder\",\"outputs\":[{\"components\":[{\"internalType\":\"uint256\",\"name\":\"orderId\",\"type\":\"uint256\"},{\"internalType\":\"address\",\"name\":\"buyer\",\"type\":\"address\"},{\"internalType\":\"uint256\",\"name\":\"itemId\",\"type\":\"uint256\"},{\"internalType\":\"uint256\",\"name\":\"quantity\",\"type\":\"uint256\"},{\"internalType\":\"uint256\",\"name\":\"totalAmount\",\"type\":\"uint256\"},{\"internalType\":\"enum OrderProcessor.OrderStatus\",\"name\":\"status\",\"type\":\"uint8\"}],\"internalType\":\"struct OrderProcessor.Order\",\"name\":\"\",\"type\":\"tuple\"}],\"stateMutability\":\"view\",\"type\":\"function\"},{\"inputs\":[],\"name\":\"itemRegistry\",\"outputs\":[{\"internalType\":\"contract ItemRegistry\",\"name\":\"\",\"type\":\"address\"}],\"stateMutability\":\"view\",\"type\":\"function\"},{\"inputs\":[],\"name\":\"orderCount\",\"outputs\":[{\"internalType\":\"uint256\",\"name\":\"\",\"type\":\"uint256\"}],\"stateMutability\":\"view\",\"type\":\"function\"},{\"inputs\":[{\"internalType\":\"uint256\",\"name\":\"\",\"type\":\"uint256\"}],\"name\":\"orders\",\"outputs\":[{\"internalType\":\"uint256\",\"name\":\"orderId\",\"type\":\"uint256\"},{\"internalType\":\"address\",\"name\":\"buyer\",\"type\":\"address\"},{\"internalType\":\"uint256\",\"name\":\"itemId\",\"type\":\"uint256\"},{\"internalType\":\"uint256\",\"name\":\"quantity\",\"type\":\"uint256\"},{\"internalType\":\"uint256\",\"name\":\"totalAmount\",\"type\":\"uint256\"},{\"internalType\":\"enum OrderProcessor.OrderStatus\",\"name\":\"status\",\"type\":\"uint8\"}],\"stateMutability\":\"view\",\"type\":\"function\"},{\"inputs\":[],\"name\":\"owner\",\"outputs\":[{\"internalType\":\"address\",\"name\":\"\",\"type\":\"address\"}],\"stateMutability\":\"view\",\"type\":\"function\"},{\"inputs\":[{\"internalType\":\"string\",\"name\":\"_itemName\",\"type\":\"string\"},{\"internalType\":\"uint256\",\"name\":\"_quantity\",\"type\":\"uint256\"}],\"name\":\"placeOrder\",\"outputs\":[],\"stateMutability\":\"payable\",\"type\":\"function\"},{\"inputs\":[{\"internalType\":\"uint256\",\"name\":\"_orderId\",\"type\":\"uint256\"},{\"internalType\":\"enum OrderProcessor.OrderStatus\",\"name\":\"_status\",\"type\":\"uint8\"}],\"name\":\"updateOrderStatus\",\"outputs\":[],\"stateMutability\":\"nonpayable\",\"type\":\"function\"}]);\nvar orderprocessor = orderprocessorContract.deploy({\n     data: '0x60a06040523480156200001157600080fd5b50604051620016e7380380620016e783398181016040528101906200003791906200013f565b600073ffffffffffffffffffffffffffffffffffffffff168173ffffffffffffffffffffffffffffffffffffffff161415620000aa576040517f08c379a0000000000000000000000000000000000000000000000000000000008152600401620000a190620001ad565b60405180910390fd5b8073ffffffffffffffffffffffffffffffffffffffff1660808173ffffffffffffffffffffffffffffffffffffffff1660601b81525050336000806101000a81548173ffffffffffffffffffffffffffffffffffffffff021916908373ffffffffffffffffffffffffffffffffffffffff160217905550506200022e565b600081519050620001398162000214565b92915050565b6000602082840312156200015257600080fd5b6000620001628482850162000128565b91505092915050565b60006200017a601c83620001cf565b91507f496e76616c6964204974656d52656769737472792061646472657373000000006000830152602082019050919050565b60006020820190508181036000830152620001c8816200016b565b9050919050565b600082825260208201905092915050565b6000620001ed82620001f4565b9050919050565b600073ffffffffffffffffffffffffffffffffffffffff82169050919050565b6200021f81620001e0565b81146200022b57600080fd5b50565b60805160601c61148c6200025b600039600081816101e6015281816102920152610382015261148c6000f3fe6080604052600436106100705760003560e01c8063a1b6e8361161004e578063a1b6e836146100f6578063a85c38ef14610112578063aab3196d14610154578063d09ef2411461017d57610070565b80632453ffa8146100755780638da5cb5b146100a0578063957047f6146100cb575b600080fd5b34801561008157600080fd5b5061008a6101ba565b60405161009791906110ba565b60405180910390f35b3480156100ac57600080fd5b506100b56101c0565b6040516100c29190610f87565b60405180910390f35b3480156100d757600080fd5b506100e06101e4565b6040516100ed9190610fa2565b60405180910390f35b610110600480360381019061010b9190610b55565b610208565b005b34801561011e57600080fd5b5061013960048036038101906101349190610c10565b610656565b60405161014b969594939291906110d5565b60405180910390f35b34801561016057600080fd5b5061017b60048036038101906101769190610c62565b6106bf565b005b34801561018957600080fd5b506101a4600480360381019061019f9190610c10565b61083f565b6040516101b1919061109f565b60405180910390f35b60025481565b60008054906101000a900473ffffffffffffffffffffffffffffffffffffffff1681565b7f000000000000000000000000000000000000000000000000000000000000000081565b6000811161024b576040517f08c379a000000000000000000000000000000000000000000000000000000000815260040161024290610fdf565b60405180910390fd5b6000341161028e576040517f08c379a00000000000000000000000000000000000000000000000000000000081526004016102859061103f565b60405180910390fd5b60007f000000000000000000000000000000000000000000000000000000000000000073ffffffffffffffffffffffffffffffffffffffff16632f4e3faa846040518263ffffffff1660e01b81526004016102e99190610fbd565b60206040518083038186803b15801561030157600080fd5b505afa158015610315573d6000803e3d6000fd5b505050506040513d601f19601f820116820180604052508101906103399190610c39565b90506000811161037e576040517f08c379a00000000000000000000000000000000000000000000000000000000081526004016103759061101f565b60405180910390fd5b60007f000000000000000000000000000000000000000000000000000000000000000073ffffffffffffffffffffffffffffffffffffffff16638bc6976e836040518263ffffffff1660e01b81526004016103d991906110ba565b60006040518083038186803b1580156103f157600080fd5b505afa158015610405573d6000803e3d6000fd5b505050506040513d6000823e3d601f19601f8201168201806040525081019061042e9190610ba9565b92505050600083826104409190611213565b905080341015610485576040517f08c379a000000000000000000000000000000000000000000000000000000000815260040161047c9061105f565b60405180910390fd5b6002600081548092919061049890611334565b91905055506040518060c0016040528060025481526020013373ffffffffffffffffffffffffffffffffffffffff16815260200184815260200185815260200182815260200160006003811115610518577f4e487b7100000000000000000000000000000000000000000000000000000000600052602160045260246000fd5b8152506001600060025481526020019081526020016000206000820151816000015560208201518160010160006101000a81548173ffffffffffffffffffffffffffffffffffffffff021916908373ffffffffffffffffffffffffffffffffffffffff16021790555060408201518160020155606082015181600301556080820151816004015560a08201518160050160006101000a81548160ff021916908360038111156105f0577f4e487b7100000000000000000000000000000000000000000000000000000000600052602160045260246000fd5b0217905550905050823373ffffffffffffffffffffffffffffffffffffffff166002547f5ccc3386dfa567a303c53dcbe08dadfe0a9841fa5a621bc4a466a1dcaea7911a878560006040516106479392919061115f565b60405180910390a45050505050565b60016020528060005260406000206000915090508060000154908060010160009054906101000a900473ffffffffffffffffffffffffffffffffffffffff16908060020154908060030154908060040154908060050160009054906101000a900460ff16905086565b60008054906101000a900473ffffffffffffffffffffffffffffffffffffffff1673ffffffffffffffffffffffffffffffffffffffff163373ffffffffffffffffffffffffffffffffffffffff161461074d576040517f08c379a000000000000000000000000000000000000000000000000000000000815260040161074490610fff565b60405180910390fd5b60008211801561075f57506002548211155b61079e576040517f08c379a00000000000000000000000000000000000000000000000000000000081526004016107959061107f565b60405180910390fd5b806001600084815260200190815260200160002060050160006101000a81548160ff021916908360038111156107fd577f4e487b7100000000000000000000000000000000000000000000000000000000600052602160045260246000fd5b02179055507fd9a86b644eb5f5b43cc8a700849852481080361c7a4b00ba646d1b46c5585f958282604051610833929190611136565b60405180910390a15050565b6108476109c2565b60008211801561085957506002548211155b610898576040517f08c379a000000000000000000000000000000000000000000000000000000000815260040161088f9061107f565b60405180910390fd5b600160008381526020019081526020016000206040518060c0016040529081600082015481526020016001820160009054906101000a900473ffffffffffffffffffffffffffffffffffffffff1673ffffffffffffffffffffffffffffffffffffffff1673ffffffffffffffffffffffffffffffffffffffff1681526020016002820154815260200160038201548152602001600482015481526020016005820160009054906101000a900460ff16600381111561097f577f4e487b7100000000000000000000000000000000000000000000000000000000600052602160045260246000fd5b60038111156109b7577f4e487b7100000000000000000000000000000000000000000000000000000000600052602160045260246000fd5b815250509050919050565b6040518060c0016040528060008152602001600073ffffffffffffffffffffffffffffffffffffffff16815260200160008152602001600081526020016000815260200160006003811115610a40577f4e487b7100000000000000000000000000000000000000000000000000000000600052602160045260246000fd5b81525090565b6000610a59610a54846111c7565b611196565b905082815260208101848484011115610a7157600080fd5b610a7c8482856112f2565b509392505050565b6000610a97610a92846111c7565b611196565b905082815260208101848484011115610aaf57600080fd5b610aba848285611301565b509392505050565b600081359050610ad18161142f565b92915050565b600082601f830112610ae857600080fd5b8135610af8848260208601610a46565b91505092915050565b600082601f830112610b1257600080fd5b8151610b22848260208601610a84565b91505092915050565b600081359050610b3a8161143f565b92915050565b600081519050610b4f8161143f565b92915050565b60008060408385031215610b6857600080fd5b600083013567ffffffffffffffff811115610b8257600080fd5b610b8e85828601610ad7565b9250506020610b9f85828601610b2b565b9150509250929050565b600080600060608486031215610bbe57600080fd5b600084015167ffffffffffffffff811115610bd857600080fd5b610be486828701610b01565b9350506020610bf586828701610b40565b9250506040610c0686828701610b40565b9150509250925092565b600060208284031215610c2257600080fd5b6000610c3084828501610b2b565b91505092915050565b600060208284031215610c4b57600080fd5b6000610c5984828501610b40565b91505092915050565b60008060408385031215610c7557600080fd5b6000610c8385828601610b2b565b9250506020610c9485828601610ac2565b9150509250929050565b610ca78161126d565b82525050565b610cb68161126d565b82525050565b610cc5816112bc565b82525050565b610cd4816112e0565b82525050565b610ce3816112e0565b82525050565b6000610cf4826111f7565b610cfe8185611202565b9350610d0e818560208601611301565b610d178161140a565b840191505092915050565b6000610d2f601f83611202565b91507f5175616e74697479206d7573742062652067726561746572207468616e2030006000830152602082019050919050565b6000610d6f602583611202565b91507f4f6e6c7920746865206f776e65722063616e2063616c6c20746869732066756e60008301527f6374696f6e0000000000000000000000000000000000000000000000000000006020830152604082019050919050565b6000610dd5601183611202565b91507f496e76616c6964206974656d206e616d650000000000000000000000000000006000830152602082019050919050565b6000610e15602383611202565b91507f5061796d656e74206d7573742062652073656e74207769746820746865206f7260008301527f64657200000000000000000000000000000000000000000000000000000000006020830152604082019050919050565b6000610e7b601483611202565b91507f496e73756666696369656e74207061796d656e740000000000000000000000006000830152602082019050919050565b6000610ebb601083611202565b91507f496e76616c6964206f72646572204944000000000000000000000000000000006000830152602082019050919050565b60c082016000820151610f046000850182610f69565b506020820151610f176020850182610c9e565b506040820151610f2a6040850182610f69565b506060820151610f3d6060850182610f69565b506080820151610f506080850182610f69565b5060a0820151610f6360a0850182610ccb565b50505050565b610f72816112b2565b82525050565b610f81816112b2565b82525050565b6000602082019050610f9c6000830184610cad565b92915050565b6000602082019050610fb76000830184610cbc565b92915050565b60006020820190508181036000830152610fd78184610ce9565b905092915050565b60006020820190508181036000830152610ff881610d22565b9050919050565b6000602082019050818103600083015261101881610d62565b9050919050565b6000602082019050818103600083015261103881610dc8565b9050919050565b6000602082019050818103600083015261105881610e08565b9050919050565b6000602082019050818103600083015261107881610e6e565b9050919050565b6000602082019050818103600083015261109881610eae565b9050919050565b600060c0820190506110b46000830184610eee565b92915050565b60006020820190506110cf6000830184610f78565b92915050565b600060c0820190506110ea6000830189610f78565b6110f76020830188610cad565b6111046040830187610f78565b6111116060830186610f78565b61111e6080830185610f78565b61112b60a0830184610cda565b979650505050505050565b600060408201905061114b6000830185610f78565b6111586020830184610cda565b9392505050565b60006060820190506111746000830186610f78565b6111816020830185610f78565b61118e6040830184610cda565b949350505050565b6000604051905081810181811067ffffffffffffffff821117156111bd576111bc6113db565b5b8060405250919050565b600067ffffffffffffffff8211156111e2576111e16113db565b5b601f19601f8301169050602081019050919050565b600081519050919050565b600082825260208201905092915050565b600061121e826112b2565b9150611229836112b2565b9250817fffffffffffffffffffffffffffffffffffffffffffffffffffffffffffffffff04831182151516156112625761126161137d565b5b828202905092915050565b600061127882611292565b9050919050565b600081905061128d8261141b565b919050565b600073ffffffffffffffffffffffffffffffffffffffff82169050919050565b6000819050919050565b60006112c7826112ce565b9050919050565b60006112d982611292565b9050919050565b60006112eb8261127f565b9050919050565b82818337600083830152505050565b60005b8381101561131f578082015181840152602081019050611304565b8381111561132e576000848401525b50505050565b600061133f826112b2565b91507fffffffffffffffffffffffffffffffffffffffffffffffffffffffffffffffff8214156113725761137161137d565b5b600182019050919050565b7f4e487b7100000000000000000000000000000000000000000000000000000000600052601160045260246000fd5b7f4e487b7100000000000000000000000000000000000000000000000000000000600052602160045260246000fd5b7f4e487b7100000000000000000000000000000000000000000000000000000000600052604160045260246000fd5b6000601f19601f8301169050919050565b6004811061142c5761142b6113ac565b5b50565b6004811061143c57600080fd5b50565b611448816112b2565b811461145357600080fd5b5056fea2646970667358221220c50846adcb556954a81eba3b370d583441832559e7320ad7f8532224b7ec43da64736f6c63430008000033', \n     arguments: [\n          _itemRegistry,\n     ]\n}).send({\n     from: web3.eth.accounts[0], \n     gas: '4700000'\n   }, function (e, contract){\n    console.log(e, contract);\n    if (typeof contract.address !== 'undefined') {\n         console.log('Contract mined! address: ' + contract.address + ' transactionHash: ' + contract.transactionHash);\n    }\n })",
	"functionHashes": {
		"d09ef241": "getOrder(uint256)",
		"957047f6": "itemRegistry()",
		"2453ffa8": "orderCount()",
		"a85c38ef": "orders(uint256)",
		"8da5cb5b": "owner()",
		"a1b6e836": "placeOrder(string,uint256)",
		"aab3196d": "updateOrderStatus(uint256,uint8)"
	},
	"gasEstimates": {
		"Creation": {
			"codeDepositCost": "1052000",
			"executionCost": "infinite",
			"totalCost": "infinite"
		},
		"External": {
			"getOrder(uint256)": "infinite",
			"itemRegistry()": "infinite",
			"orderCount()": "1130",
			"orders(uint256)": "infinite",
			"owner()": "1234",
			"placeOrder(string,uint256)": "infinite",
			"updateOrderStatus(uint256,uint8)": "infinite"
		}
	},
	"devdoc": {
		"kind": "dev",
		"methods": {},
		"version": 1
	},
	"userdoc": {
		"kind": "user",
		"methods": {},
		"version": 1
	},
	"Runtime Bytecode": {
		"immutableReferences": {
			"297": [
				{
					"length": 32,
					"start": 486
				},
				{
					"length": 32,
					"start": 658
				},
				{
					"length": 32,
					"start": 898
				}
			]
		},
		"linkReferences": {},
		"object": "6080604052600436106100705760003560e01c8063a1b6e8361161004e578063a1b6e836146100f6578063a85c38ef14610112578063aab3196d14610154578063d09ef2411461017d57610070565b80632453ffa8146100755780638da5cb5b146100a0578063957047f6146100cb575b600080fd5b34801561008157600080fd5b5061008a6101ba565b60405161009791906110ba565b60405180910390f35b3480156100ac57600080fd5b506100b56101c0565b6040516100c29190610f87565b60405180910390f35b3480156100d757600080fd5b506100e06101e4565b6040516100ed9190610fa2565b60405180910390f35b610110600480360381019061010b9190610b55565b610208565b005b34801561011e57600080fd5b5061013960048036038101906101349190610c10565b610656565b60405161014b969594939291906110d5565b60405180910390f35b34801561016057600080fd5b5061017b60048036038101906101769190610c62565b6106bf565b005b34801561018957600080fd5b506101a4600480360381019061019f9190610c10565b61083f565b6040516101b1919061109f565b60405180910390f35b60025481565b60008054906101000a900473ffffffffffffffffffffffffffffffffffffffff1681565b7f000000000000000000000000000000000000000000000000000000000000000081565b6000811161024b576040517f08c379a000000000000000000000000000000000000000000000000000000000815260040161024290610fdf565b60405180910390fd5b6000341161028e576040517f08c379a00000000000000000000000000000000000000000000000000000000081526004016102859061103f565b60405180910390fd5b60007f000000000000000000000000000000000000000000000000000000000000000073ffffffffffffffffffffffffffffffffffffffff16632f4e3faa846040518263ffffffff1660e01b81526004016102e99190610fbd565b60206040518083038186803b15801561030157600080fd5b505afa158015610315573d6000803e3d6000fd5b505050506040513d601f19601f820116820180604052508101906103399190610c39565b90506000811161037e576040517f08c379a00000000000000000000000000000000000000000000000000000000081526004016103759061101f565b60405180910390fd5b60007f000000000000000000000000000000000000000000000000000000000000000073ffffffffffffffffffffffffffffffffffffffff16638bc6976e836040518263ffffffff1660e01b81526004016103d991906110ba565b60006040518083038186803b1580156103f157600080fd5b505afa158015610405573d6000803e3d6000fd5b505050506040513d6000823e3d601f19601f8201168201806040525081019061042e9190610ba9565b92505050600083826104409190611213565b905080341015610485576040517f08c379a000000000000000000000000000000000000000000000000000000000815260040161047c9061105f565b60405180910390fd5b6002600081548092919061049890611334565b91905055506040518060c0016040528060025481526020013373ffffffffffffffffffffffffffffffffffffffff16815260200184815260200185815260200182815260200160006003811115610518577f4e487b7100000000000000000000000000000000000000000000000000000000600052602160045260246000fd5b8152506001600060025481526020019081526020016000206000820151816000015560208201518160010160006101000a81548173ffffffffffffffffffffffffffffffffffffffff021916908373ffffffffffffffffffffffffffffffffffffffff16021790555060408201518160020155606082015181600301556080820151816004015560a08201518160050160006101000a81548160ff021916908360038111156105f0577f4e487b7100000000000000000000000000000000000000000000000000000000600052602160045260246000fd5b0217905550905050823373ffffffffffffffffffffffffffffffffffffffff166002547f5ccc3386dfa567a303c53dcbe08dadfe0a9841fa5a621bc4a466a1dcaea7911a878560006040516106479392919061115f565b60405180910390a45050505050565b60016020528060005260406000206000915090508060000154908060010160009054906101000a900473ffffffffffffffffffffffffffffffffffffffff16908060020154908060030154908060040154908060050160009054906101000a900460ff16905086565b60008054906101000a900473ffffffffffffffffffffffffffffffffffffffff1673ffffffffffffffffffffffffffffffffffffffff163373ffffffffffffffffffffffffffffffffffffffff161461074d576040517f08c379a000000000000000000000000000000000000000000000000000000000815260040161074490610fff565b60405180910390fd5b60008211801561075f57506002548211155b61079e576040517f08c379a00000000000000000000000000000000000000000000000000000000081526004016107959061107f565b60405180910390fd5b806001600084815260200190815260200160002060050160006101000a81548160ff021916908360038111156107fd577f4e487b7100000000000000000000000000000000000000000000000000000000600052602160045260246000fd5b02179055507fd9a86b644eb5f5b43cc8a700849852481080361c7a4b00ba646d1b46c5585f958282604051610833929190611136565b60405180910390a15050565b6108476109c2565b60008211801561085957506002548211155b610898576040517f08c379a000000000000000000000000000000000000000000000000000000000815260040161088f9061107f565b60405180910390fd5b600160008381526020019081526020016000206040518060c0016040529081600082015481526020016001820160009054906101000a900473ffffffffffffffffffffffffffffffffffffffff1673ffffffffffffffffffffffffffffffffffffffff1673ffffffffffffffffffffffffffffffffffffffff1681526020016002820154815260200160038201548152602001600482015481526020016005820160009054906101000a900460ff16600381111561097f577f4e487b7100000000000000000000000000000000000000000000000000000000600052602160045260246000fd5b60038111156109b7577f4e487b7100000000000000000000000000000000000000000000000000000000600052602160045260246000fd5b815250509050919050565b6040518060c0016040528060008152602001600073ffffffffffffffffffffffffffffffffffffffff16815260200160008152602001600081526020016000815260200160006003811115610a40577f4e487b7100000000000000000000000000000000000000000000000000000000600052602160045260246000fd5b81525090565b6000610a59610a54846111c7565b611196565b905082815260208101848484011115610a7157600080fd5b610a7c8482856112f2565b509392505050565b6000610a97610a92846111c7565b611196565b905082815260208101848484011115610aaf57600080fd5b610aba848285611301565b509392505050565b600081359050610ad18161142f565b92915050565b600082601f830112610ae857600080fd5b8135610af8848260208601610a46565b91505092915050565b600082601f830112610b1257600080fd5b8151610b22848260208601610a84565b91505092915050565b600081359050610b3a8161143f565b92915050565b600081519050610b4f8161143f565b92915050565b60008060408385031215610b6857600080fd5b600083013567ffffffffffffffff811115610b8257600080fd5b610b8e85828601610ad7565b9250506020610b9f85828601610b2b565b9150509250929050565b600080600060608486031215610bbe57600080fd5b600084015167ffffffffffffffff811115610bd857600080fd5b610be486828701610b01565b9350506020610bf586828701610b40565b9250506040610c0686828701610b40565b9150509250925092565b600060208284031215610c2257600080fd5b6000610c3084828501610b2b565b91505092915050565b600060208284031215610c4b57600080fd5b6000610c5984828501610b40565b91505092915050565b60008060408385031215610c7557600080fd5b6000610c8385828601610b2b565b9250506020610c9485828601610ac2565b9150509250929050565b610ca78161126d565b82525050565b610cb68161126d565b82525050565b610cc5816112bc565b82525050565b610cd4816112e0565b82525050565b610ce3816112e0565b82525050565b6000610cf4826111f7565b610cfe8185611202565b9350610d0e818560208601611301565b610d178161140a565b840191505092915050565b6000610d2f601f83611202565b91507f5175616e74697479206d7573742062652067726561746572207468616e2030006000830152602082019050919050565b6000610d6f602583611202565b91507f4f6e6c7920746865206f776e65722063616e2063616c6c20746869732066756e60008301527f6374696f6e0000000000000000000000000000000000000000000000000000006020830152604082019050919050565b6000610dd5601183611202565b91507f496e76616c6964206974656d206e616d650000000000000000000000000000006000830152602082019050919050565b6000610e15602383611202565b91507f5061796d656e74206d7573742062652073656e74207769746820746865206f7260008301527f64657200000000000000000000000000000000000000000000000000000000006020830152604082019050919050565b6000610e7b601483611202565b91507f496e73756666696369656e74207061796d656e740000000000000000000000006000830152602082019050919050565b6000610ebb601083611202565b91507f496e76616c6964206f72646572204944000000000000000000000000000000006000830152602082019050919050565b60c082016000820151610f046000850182610f69565b506020820151610f176020850182610c9e565b506040820151610f2a6040850182610f69565b506060820151610f3d6060850182610f69565b506080820151610f506080850182610f69565b5060a0820151610f6360a0850182610ccb565b50505050565b610f72816112b2565b82525050565b610f81816112b2565b82525050565b6000602082019050610f9c6000830184610cad565b92915050565b6000602082019050610fb76000830184610cbc565b92915050565b60006020820190508181036000830152610fd78184610ce9565b905092915050565b60006020820190508181036000830152610ff881610d22565b9050919050565b6000602082019050818103600083015261101881610d62565b9050919050565b6000602082019050818103600083015261103881610dc8565b9050919050565b6000602082019050818103600083015261105881610e08565b9050919050565b6000602082019050818103600083015261107881610e6e565b9050919050565b6000602082019050818103600083015261109881610eae565b9050919050565b600060c0820190506110b46000830184610eee565b92915050565b60006020820190506110cf6000830184610f78565b92915050565b600060c0820190506110ea6000830189610f78565b6110f76020830188610cad565b6111046040830187610f78565b6111116060830186610f78565b61111e6080830185610f78565b61112b60a0830184610cda565b979650505050505050565b600060408201905061114b6000830185610f78565b6111586020830184610cda565b9392505050565b60006060820190506111746000830186610f78565b6111816020830185610f78565b61118e6040830184610cda565b949350505050565b6000604051905081810181811067ffffffffffffffff821117156111bd576111bc6113db565b5b8060405250919050565b600067ffffffffffffffff8211156111e2576111e16113db565b5b601f19601f8301169050602081019050919050565b600081519050919050565b600082825260208201905092915050565b600061121e826112b2565b9150611229836112b2565b9250817fffffffffffffffffffffffffffffffffffffffffffffffffffffffffffffffff04831182151516156112625761126161137d565b5b828202905092915050565b600061127882611292565b9050919050565b600081905061128d8261141b565b919050565b600073ffffffffffffffffffffffffffffffffffffffff82169050919050565b6000819050919050565b60006112c7826112ce565b9050919050565b60006112d982611292565b9050919050565b60006112eb8261127f565b9050919050565b82818337600083830152505050565b60005b8381101561131f578082015181840152602081019050611304565b8381111561132e576000848401525b50505050565b600061133f826112b2565b91507fffffffffffffffffffffffffffffffffffffffffffffffffffffffffffffffff8214156113725761137161137d565b5b600182019050919050565b7f4e487b7100000000000000000000000000000000000000000000000000000000600052601160045260246000fd5b7f4e487b7100000000000000000000000000000000000000000000000000000000600052602160045260246000fd5b7f4e487b7100000000000000000000000000000000000000000000000000000000600052604160045260246000fd5b6000601f19601f8301169050919050565b6004811061142c5761142b6113ac565b5b50565b6004811061143c57600080fd5b50565b611448816112b2565b811461145357600080fd5b5056fea2646970667358221220c50846adcb556954a81eba3b370d583441832559e7320ad7f8532224b7ec43da64736f6c63430008000033",
		"opcodes": "PUSH1 0x80 PUSH1 0x40 MSTORE PUSH1 0x4 CALLDATASIZE LT PUSH2 0x70 JUMPI PUSH1 0x0 CALLDATALOAD PUSH1 0xE0 SHR DUP1 PUSH4 0xA1B6E836 GT PUSH2 0x4E JUMPI DUP1 PUSH4 0xA1B6E836 EQ PUSH2 0xF6 JUMPI DUP1 PUSH4 0xA85C38EF EQ PUSH2 0x112 JUMPI DUP1 PUSH4 0xAAB3196D EQ PUSH2 0x154 JUMPI DUP1 PUSH4 0xD09EF241 EQ PUSH2 0x17D JUMPI PUSH2 0x70 JUMP JUMPDEST DUP1 PUSH4 0x2453FFA8 EQ PUSH2 0x75 JUMPI DUP1 PUSH4 0x8DA5CB5B EQ PUSH2 0xA0 JUMPI DUP1 PUSH4 0x957047F6 EQ PUSH2 0xCB JUMPI JUMPDEST PUSH1 0x0 DUP1 REVERT JUMPDEST CALLVALUE DUP1 ISZERO PUSH2 0x81 JUMPI PUSH1 0x0 DUP1 REVERT JUMPDEST POP PUSH2 0x8A PUSH2 0x1BA JUMP JUMPDEST PUSH1 0x40 MLOAD PUSH2 0x97 SWAP2 SWAP1 PUSH2 0x10BA JUMP JUMPDEST PUSH1 0x40 MLOAD DUP1 SWAP2 SUB SWAP1 RETURN JUMPDEST CALLVALUE DUP1 ISZERO PUSH2 0xAC JUMPI PUSH1 0x0 DUP1 REVERT JUMPDEST POP PUSH2 0xB5 PUSH2 0x1C0 JUMP JUMPDEST PUSH1 0x40 MLOAD PUSH2 0xC2 SWAP2 SWAP1 PUSH2 0xF87 JUMP JUMPDEST PUSH1 0x40 MLOAD DUP1 SWAP2 SUB SWAP1 RETURN JUMPDEST CALLVALUE DUP1 ISZERO PUSH2 0xD7 JUMPI PUSH1 0x0 DUP1 REVERT JUMPDEST POP PUSH2 0xE0 PUSH2 0x1E4 JUMP JUMPDEST PUSH1 0x40 MLOAD PUSH2 0xED SWAP2 SWAP1 PUSH2 0xFA2 JUMP JUMPDEST PUSH1 0x40 MLOAD DUP1 SWAP2 SUB SWAP1 RETURN JUMPDEST PUSH2 0x110 PUSH1 0x4 DUP1 CALLDATASIZE SUB DUP2 ADD SWAP1 PUSH2 0x10B SWAP2 SWAP1 PUSH2 0xB55 JUMP JUMPDEST PUSH2 0x208 JUMP JUMPDEST STOP JUMPDEST CALLVALUE DUP1 ISZERO PUSH2 0x11E JUMPI PUSH1 0x0 DUP1 REVERT JUMPDEST POP PUSH2 0x139 PUSH1 0x4 DUP1 CALLDATASIZE SUB DUP2 ADD SWAP1 PUSH2 0x134 SWAP2 SWAP1 PUSH2 0xC10 JUMP JUMPDEST PUSH2 0x656 JUMP JUMPDEST PUSH1 0x40 MLOAD PUSH2 0x14B SWAP7 SWAP6 SWAP5 SWAP4 SWAP3 SWAP2 SWAP1 PUSH2 0x10D5 JUMP JUMPDEST PUSH1 0x40 MLOAD DUP1 SWAP2 SUB SWAP1 RETURN JUMPDEST CALLVALUE DUP1 ISZERO PUSH2 0x160 JUMPI PUSH1 0x0 DUP1 REVERT JUMPDEST POP PUSH2 0x17B PUSH1 0x4 DUP1 CALLDATASIZE SUB DUP2 ADD SWAP1 PUSH2 0x176 SWAP2 SWAP1 PUSH2 0xC62 JUMP JUMPDEST PUSH2 0x6BF JUMP JUMPDEST STOP JUMPDEST CALLVALUE DUP1 ISZERO PUSH2 0x189 JUMPI PUSH1 0x0 DUP1 REVERT JUMPDEST POP PUSH2 0x1A4 PUSH1 0x4 DUP1 CALLDATASIZE SUB DUP2 ADD SWAP1 PUSH2 0x19F SWAP2 SWAP1 PUSH2 0xC10 JUMP JUMPDEST PUSH2 0x83F JUMP JUMPDEST PUSH1 0x40 MLOAD PUSH2 0x1B1 SWAP2 SWAP1 PUSH2 0x109F JUMP JUMPDEST PUSH1 0x40 MLOAD DUP1 SWAP2 SUB SWAP1 RETURN JUMPDEST PUSH1 0x2 SLOAD DUP2 JUMP JUMPDEST PUSH1 0x0 DUP1 SLOAD SWAP1 PUSH2 0x100 EXP SWAP1 DIV PUSH20 0xFFFFFFFFFFFFFFFFFFFFFFFFFFFFFFFFFFFFFFFF AND DUP2 JUMP JUMPDEST PUSH32 0x0 DUP2 JUMP JUMPDEST PUSH1 0x0 DUP2 GT PUSH2 0x24B JUMPI PUSH1 0x40 MLOAD PUSH32 0x8C379A000000000000000000000000000000000000000000000000000000000 DUP2 MSTORE PUSH1 0x4 ADD PUSH2 0x242 SWAP1 PUSH2 0xFDF JUMP JUMPDEST PUSH1 0x40 MLOAD DUP1 SWAP2 SUB SWAP1 REVERT JUMPDEST PUSH1 0x0 CALLVALUE GT PUSH2 0x28E JUMPI PUSH1 0x40 MLOAD PUSH32 0x8C379A000000000000000000000000000000000000000000000000000000000 DUP2 MSTORE PUSH1 0x4 ADD PUSH2 0x285 SWAP1 PUSH2 0x103F JUMP JUMPDEST PUSH1 0x40 MLOAD DUP1 SWAP2 SUB SWAP1 REVERT JUMPDEST PUSH1 0x0 PUSH32 0x0 PUSH20 0xFFFFFFFFFFFFFFFFFFFFFFFFFFFFFFFFFFFFFFFF AND PUSH4 0x2F4E3FAA DUP5 PUSH1 0x40 MLOAD DUP3 PUSH4 0xFFFFFFFF AND PUSH1 0xE0 SHL DUP2 MSTORE PUSH1 0x4 ADD PUSH2 0x2E9 SWAP2 SWAP1 PUSH2 0xFBD JUMP JUMPDEST PUSH1 0x20 PUSH1 0x40 MLOAD DUP1 DUP4 SUB DUP2 DUP7 DUP1 EXTCODESIZE ISZERO DUP1 ISZERO PUSH2 0x301 JUMPI PUSH1 0x0 DUP1 REVERT JUMPDEST POP GAS STATICCALL ISZERO DUP1 ISZERO PUSH2 0x315 JUMPI RETURNDATASIZE PUSH1 0x0 DUP1 RETURNDATACOPY RETURNDATASIZE PUSH1 0x0 REVERT JUMPDEST POP POP POP POP PUSH1 0x40 MLOAD RETURNDATASIZE PUSH1 0x1F NOT PUSH1 0x1F DUP3 ADD AND DUP3 ADD DUP1 PUSH1 0x40 MSTORE POP DUP2 ADD SWAP1 PUSH2 0x339 SWAP2 SWAP1 PUSH2 0xC39 JUMP JUMPDEST SWAP1 POP PUSH1 0x0 DUP2 GT PUSH2 0x37E JUMPI PUSH1 0x40 MLOAD PUSH32 0x8C379A000000000000000000000000000000000000000000000000000000000 DUP2 MSTORE PUSH1 0x4 ADD PUSH2 0x375 SWAP1 PUSH2 0x101F JUMP JUMPDEST PUSH1 0x40 MLOAD DUP1 SWAP2 SUB SWAP1 REVERT JUMPDEST PUSH1 0x0 PUSH32 0x0 PUSH20 0xFFFFFFFFFFFFFFFFFFFFFFFFFFFFFFFFFFFFFFFF AND PUSH4 0x8BC6976E DUP4 PUSH1 0x40 MLOAD DUP3 PUSH4 0xFFFFFFFF AND PUSH1 0xE0 SHL DUP2 MSTORE PUSH1 0x4 ADD PUSH2 0x3D9 SWAP2 SWAP1 PUSH2 0x10BA JUMP JUMPDEST PUSH1 0x0 PUSH1 0x40 MLOAD DUP1 DUP4 SUB DUP2 DUP7 DUP1 EXTCODESIZE ISZERO DUP1 ISZERO PUSH2 0x3F1 JUMPI PUSH1 0x0 DUP1 REVERT JUMPDEST POP GAS STATICCALL ISZERO DUP1 ISZERO PUSH2 0x405 JUMPI RETURNDATASIZE PUSH1 0x0 DUP1 RETURNDATACOPY RETURNDATASIZE PUSH1 0x0 REVERT JUMPDEST POP POP POP POP PUSH1 0x40 MLOAD RETURNDATASIZE PUSH1 0x0 DUP3 RETURNDATACOPY RETURNDATASIZE PUSH1 0x1F NOT PUSH1 0x1F DUP3 ADD AND DUP3 ADD DUP1 PUSH1 0x40 MSTORE POP DUP2 ADD SWAP1 PUSH2 0x42E SWAP2 SWAP1 PUSH2 0xBA9 JUMP JUMPDEST SWAP3 POP POP POP PUSH1 0x0 DUP4 DUP3 PUSH2 0x440 SWAP2 SWAP1 PUSH2 0x1213 JUMP JUMPDEST SWAP1 POP DUP1 CALLVALUE LT ISZERO PUSH2 0x485 JUMPI PUSH1 0x40 MLOAD PUSH32 0x8C379A000000000000000000000000000000000000000000000000000000000 DUP2 MSTORE PUSH1 0x4 ADD PUSH2 0x47C SWAP1 PUSH2 0x105F JUMP JUMPDEST PUSH1 0x40 MLOAD DUP1 SWAP2 SUB SWAP1 REVERT JUMPDEST PUSH1 0x2 PUSH1 0x0 DUP2 SLOAD DUP1 SWAP3 SWAP2 SWAP1 PUSH2 0x498 SWAP1 PUSH2 0x1334 JUMP JUMPDEST SWAP2 SWAP1 POP SSTORE POP PUSH1 0x40 MLOAD DUP1 PUSH1 0xC0 ADD PUSH1 0x40 MSTORE DUP1 PUSH1 0x2 SLOAD DUP2 MSTORE PUSH1 0x20 ADD CALLER PUSH20 0xFFFFFFFFFFFFFFFFFFFFFFFFFFFFFFFFFFFFFFFF AND DUP2 MSTORE PUSH1 0x20 ADD DUP5 DUP2 MSTORE PUSH1 0x20 ADD DUP6 DUP2 MSTORE PUSH1 0x20 ADD DUP3 DUP2 MSTORE PUSH1 0x20 ADD PUSH1 0x0 PUSH1 0x3 DUP2 GT ISZERO PUSH2 0x518 JUMPI PUSH32 0x4E487B7100000000000000000000000000000000000000000000000000000000 PUSH1 0x0 MSTORE PUSH1 0x21 PUSH1 0x4 MSTORE PUSH1 0x24 PUSH1 0x0 REVERT JUMPDEST DUP2 MSTORE POP PUSH1 0x1 PUSH1 0x0 PUSH1 0x2 SLOAD DUP2 MSTORE PUSH1 0x20 ADD SWAP1 DUP2 MSTORE PUSH1 0x20 ADD PUSH1 0x0 KECCAK256 PUSH1 0x0 DUP3 ADD MLOAD DUP2 PUSH1 0x0 ADD SSTORE PUSH1 0x20 DUP3 ADD MLOAD DUP2 PUSH1 0x1 ADD PUSH1 0x0 PUSH2 0x100 EXP DUP2 SLOAD DUP2 PUSH20 0xFFFFFFFFFFFFFFFFFFFFFFFFFFFFFFFFFFFFFFFF MUL NOT AND SWAP1 DUP4 PUSH20 0xFFFFFFFFFFFFFFFFFFFFFFFFFFFFFFFFFFFFFFFF AND MUL OR SWAP1 SSTORE POP PUSH1 0x40 DUP3 ADD MLOAD DUP2 PUSH1 0x2 ADD SSTORE PUSH1 0x60 DUP3 ADD MLOAD DUP2 PUSH1 0x3 ADD SSTORE PUSH1 0x80 DUP3 ADD MLOAD DUP2 PUSH1 0x4 ADD SSTORE PUSH1 0xA0 DUP3 ADD MLOAD DUP2 PUSH1 0x5 ADD PUSH1 0x0 PUSH2 0x100 EXP DUP2 SLOAD DUP2 PUSH1 0xFF MUL NOT AND SWAP1 DUP4 PUSH1 0x3 DUP2 GT ISZERO PUSH2 0x5F0 JUMPI PUSH32 0x4E487B7100000000000000000000000000000000000000000000000000000000 PUSH1 0x0 MSTORE PUSH1 0x21 PUSH1 0x4 MSTORE PUSH1 0x24 PUSH1 0x0 REVERT JUMPDEST MUL OR SWAP1 SSTORE POP SWAP1 POP POP DUP3 CALLER PUSH20 0xFFFFFFFFFFFFFFFFFFFFFFFFFFFFFFFFFFFFFFFF AND PUSH1 0x2 SLOAD PUSH32 0x5CCC3386DFA567A303C53DCBE08DADFE0A9841FA5A621BC4A466A1DCAEA7911A DUP8 DUP6 PUSH1 0x0 PUSH1 0x40 MLOAD PUSH2 0x647 SWAP4 SWAP3 SWAP2 SWAP1 PUSH2 0x115F JUMP JUMPDEST PUSH1 0x40 MLOAD DUP1 SWAP2 SUB SWAP1 LOG4 POP POP POP POP POP JUMP JUMPDEST PUSH1 0x1 PUSH1 0x20 MSTORE DUP1 PUSH1 0x0 MSTORE PUSH1 0x40 PUSH1 0x0 KECCAK256 PUSH1 0x0 SWAP2 POP SWAP1 POP DUP1 PUSH1 0x0 ADD SLOAD SWAP1 DUP1 PUSH1 0x1 ADD PUSH1 0x0 SWAP1 SLOAD SWAP1 PUSH2 0x100 EXP SWAP1 DIV PUSH20 0xFFFFFFFFFFFFFFFFFFFFFFFFFFFFFFFFFFFFFFFF AND SWAP1 DUP1 PUSH1 0x2 ADD SLOAD SWAP1 DUP1 PUSH1 0x3 ADD SLOAD SWAP1 DUP1 PUSH1 0x4 ADD SLOAD SWAP1 DUP1 PUSH1 0x5 ADD PUSH1 0x0 SWAP1 SLOAD SWAP1 PUSH2 0x100 EXP SWAP1 DIV PUSH1 0xFF AND SWAP1 POP DUP7 JUMP JUMPDEST PUSH1 0x0 DUP1 SLOAD SWAP1 PUSH2 0x100 EXP SWAP1 DIV PUSH20 0xFFFFFFFFFFFFFFFFFFFFFFFFFFFFFFFFFFFFFFFF AND PUSH20 0xFFFFFFFFFFFFFFFFFFFFFFFFFFFFFFFFFFFFFFFF AND CALLER PUSH20 0xFFFFFFFFFFFFFFFFFFFFFFFFFFFFFFFFFFFFFFFF AND EQ PUSH2 0x74D JUMPI PUSH1 0x40 MLOAD PUSH32 0x8C379A000000000000000000000000000000000000000000000000000000000 DUP2 MSTORE PUSH1 0x4 ADD PUSH2 0x744 SWAP1 PUSH2 0xFFF JUMP JUMPDEST PUSH1 0x40 MLOAD DUP1 SWAP2 SUB SWAP1 REVERT JUMPDEST PUSH1 0x0 DUP3 GT DUP1 ISZERO PUSH2 0x75F JUMPI POP PUSH1 0x2 SLOAD DUP3 GT ISZERO JUMPDEST PUSH2 0x79E JUMPI PUSH1 0x40 MLOAD PUSH32 0x8C379A000000000000000000000000000000000000000000000000000000000 DUP2 MSTORE PUSH1 0x4 ADD PUSH2 0x795 SWAP1 PUSH2 0x107F JUMP JUMPDEST PUSH1 0x40 MLOAD DUP1 SWAP2 SUB SWAP1 REVERT JUMPDEST DUP1 PUSH1 0x1 PUSH1 0x0 DUP5 DUP2 MSTORE PUSH1 0x20 ADD SWAP1 DUP2 MSTORE PUSH1 0x20 ADD PUSH1 0x0 KECCAK256 PUSH1 0x5 ADD PUSH1 0x0 PUSH2 0x100 EXP DUP2 SLOAD DUP2 PUSH1 0xFF MUL NOT AND SWAP1 DUP4 PUSH1 0x3 DUP2 GT ISZERO PUSH2 0x7FD JUMPI PUSH32 0x4E487B7100000000000000000000000000000000000000000000000000000000 PUSH1 0x0 MSTORE PUSH1 0x21 PUSH1 0x4 MSTORE PUSH1 0x24 PUSH1 0x0 REVERT JUMPDEST MUL OR SWAP1 SSTORE POP PUSH32 0xD9A86B644EB5F5B43CC8A700849852481080361C7A4B00BA646D1B46C5585F95 DUP3 DUP3 PUSH1 0x40 MLOAD PUSH2 0x833 SWAP3 SWAP2 SWAP1 PUSH2 0x1136 JUMP JUMPDEST PUSH1 0x40 MLOAD DUP1 SWAP2 SUB SWAP1 LOG1 POP POP JUMP JUMPDEST PUSH2 0x847 PUSH2 0x9C2 JUMP JUMPDEST PUSH1 0x0 DUP3 GT DUP1 ISZERO PUSH2 0x859 JUMPI POP PUSH1 0x2 SLOAD DUP3 GT ISZERO JUMPDEST PUSH2 0x898 JUMPI PUSH1 0x40 MLOAD PUSH32 0x8C379A000000000000000000000000000000000000000000000000000000000 DUP2 MSTORE PUSH1 0x4 ADD PUSH2 0x88F SWAP1 PUSH2 0x107F JUMP JUMPDEST PUSH1 0x40 MLOAD DUP1 SWAP2 SUB SWAP1 REVERT JUMPDEST PUSH1 0x1 PUSH1 0x0 DUP4 DUP2 MSTORE PUSH1 0x20 ADD SWAP1 DUP2 MSTORE PUSH1 0x20 ADD PUSH1 0x0 KECCAK256 PUSH1 0x40 MLOAD DUP1 PUSH1 0xC0 ADD PUSH1 0x40 MSTORE SWAP1 DUP2 PUSH1 0x0 DUP3 ADD SLOAD DUP2 MSTORE PUSH1 0x20 ADD PUSH1 0x1 DUP3 ADD PUSH1 0x0 SWAP1 SLOAD SWAP1 PUSH2 0x100 EXP SWAP1 DIV PUSH20 0xFFFFFFFFFFFFFFFFFFFFFFFFFFFFFFFFFFFFFFFF AND PUSH20 0xFFFFFFFFFFFFFFFFFFFFFFFFFFFFFFFFFFFFFFFF AND PUSH20 0xFFFFFFFFFFFFFFFFFFFFFFFFFFFFFFFFFFFFFFFF AND DUP2 MSTORE PUSH1 0x20 ADD PUSH1 0x2 DUP3 ADD SLOAD DUP2 MSTORE PUSH1 0x20 ADD PUSH1 0x3 DUP3 ADD SLOAD DUP2 MSTORE PUSH1 0x20 ADD PUSH1 0x4 DUP3 ADD SLOAD DUP2 MSTORE PUSH1 0x20 ADD PUSH1 0x5 DUP3 ADD PUSH1 0x0 SWAP1 SLOAD SWAP1 PUSH2 0x100 EXP SWAP1 DIV PUSH1 0xFF AND PUSH1 0x3 DUP2 GT ISZERO PUSH2 0x97F JUMPI PUSH32 0x4E487B7100000000000000000000000000000000000000000000000000000000 PUSH1 0x0 MSTORE PUSH1 0x21 PUSH1 0x4 MSTORE PUSH1 0x24 PUSH1 0x0 REVERT JUMPDEST PUSH1 0x3 DUP2 GT ISZERO PUSH2 0x9B7 JUMPI PUSH32 0x4E487B7100000000000000000000000000000000000000000000000000000000 PUSH1 0x0 MSTORE PUSH1 0x21 PUSH1 0x4 MSTORE PUSH1 0x24 PUSH1 0x0 REVERT JUMPDEST DUP2 MSTORE POP POP SWAP1 POP SWAP2 SWAP1 POP JUMP JUMPDEST PUSH1 0x40 MLOAD DUP1 PUSH1 0xC0 ADD PUSH1 0x40 MSTORE DUP1 PUSH1 0x0 DUP2 MSTORE PUSH1 0x20 ADD PUSH1 0x0 PUSH20 0xFFFFFFFFFFFFFFFFFFFFFFFFFFFFFFFFFFFFFFFF AND DUP2 MSTORE PUSH1 0x20 ADD PUSH1 0x0 DUP2 MSTORE PUSH1 0x20 ADD PUSH1 0x0 DUP2 MSTORE PUSH1 0x20 ADD PUSH1 0x0 DUP2 MSTORE PUSH1 0x20 ADD PUSH1 0x0 PUSH1 0x3 DUP2 GT ISZERO PUSH2 0xA40 JUMPI PUSH32 0x4E487B7100000000000000000000000000000000000000000000000000000000 PUSH1 0x0 MSTORE PUSH1 0x21 PUSH1 0x4 MSTORE PUSH1 0x24 PUSH1 0x0 REVERT JUMPDEST DUP2 MSTORE POP SWAP1 JUMP JUMPDEST PUSH1 0x0 PUSH2 0xA59 PUSH2 0xA54 DUP5 PUSH2 0x11C7 JUMP JUMPDEST PUSH2 0x1196 JUMP JUMPDEST SWAP1 POP DUP3 DUP2 MSTORE PUSH1 0x20 DUP2 ADD DUP5 DUP5 DUP5 ADD GT ISZERO PUSH2 0xA71 JUMPI PUSH1 0x0 DUP1 REVERT JUMPDEST PUSH2 0xA7C DUP5 DUP3 DUP6 PUSH2 0x12F2 JUMP JUMPDEST POP SWAP4 SWAP3 POP POP POP JUMP JUMPDEST PUSH1 0x0 PUSH2 0xA97 PUSH2 0xA92 DUP5 PUSH2 0x11C7 JUMP JUMPDEST PUSH2 0x1196 JUMP JUMPDEST SWAP1 POP DUP3 DUP2 MSTORE PUSH1 0x20 DUP2 ADD DUP5 DUP5 DUP5 ADD GT ISZERO PUSH2 0xAAF JUMPI PUSH1 0x0 DUP1 REVERT JUMPDEST PUSH2 0xABA DUP5 DUP3 DUP6 PUSH2 0x1301 JUMP JUMPDEST POP SWAP4 SWAP3 POP POP POP JUMP JUMPDEST PUSH1 0x0 DUP2 CALLDATALOAD SWAP1 POP PUSH2 0xAD1 DUP2 PUSH2 0x142F JUMP JUMPDEST SWAP3 SWAP2 POP POP JUMP JUMPDEST PUSH1 0x0 DUP3 PUSH1 0x1F DUP4 ADD SLT PUSH2 0xAE8 JUMPI PUSH1 0x0 DUP1 REVERT JUMPDEST DUP2 CALLDATALOAD PUSH2 0xAF8 DUP5 DUP3 PUSH1 0x20 DUP7 ADD PUSH2 0xA46 JUMP JUMPDEST SWAP2 POP POP SWAP3 SWAP2 POP POP JUMP JUMPDEST PUSH1 0x0 DUP3 PUSH1 0x1F DUP4 ADD SLT PUSH2 0xB12 JUMPI PUSH1 0x0 DUP1 REVERT JUMPDEST DUP2 MLOAD PUSH2 0xB22 DUP5 DUP3 PUSH1 0x20 DUP7 ADD PUSH2 0xA84 JUMP JUMPDEST SWAP2 POP POP SWAP3 SWAP2 POP POP JUMP JUMPDEST PUSH1 0x0 DUP2 CALLDATALOAD SWAP1 POP PUSH2 0xB3A DUP2 PUSH2 0x143F JUMP JUMPDEST SWAP3 SWAP2 POP POP JUMP JUMPDEST PUSH1 0x0 DUP2 MLOAD SWAP1 POP PUSH2 0xB4F DUP2 PUSH2 0x143F JUMP JUMPDEST SWAP3 SWAP2 POP POP JUMP JUMPDEST PUSH1 0x0 DUP1 PUSH1 0x40 DUP4 DUP6 SUB SLT ISZERO PUSH2 0xB68 JUMPI PUSH1 0x0 DUP1 REVERT JUMPDEST PUSH1 0x0 DUP4 ADD CALLDATALOAD PUSH8 0xFFFFFFFFFFFFFFFF DUP2 GT ISZERO PUSH2 0xB82 JUMPI PUSH1 0x0 DUP1 REVERT JUMPDEST PUSH2 0xB8E DUP6 DUP3 DUP7 ADD PUSH2 0xAD7 JUMP JUMPDEST SWAP3 POP POP PUSH1 0x20 PUSH2 0xB9F DUP6 DUP3 DUP7 ADD PUSH2 0xB2B JUMP JUMPDEST SWAP2 POP POP SWAP3 POP SWAP3 SWAP1 POP JUMP JUMPDEST PUSH1 0x0 DUP1 PUSH1 0x0 PUSH1 0x60 DUP5 DUP7 SUB SLT ISZERO PUSH2 0xBBE JUMPI PUSH1 0x0 DUP1 REVERT JUMPDEST PUSH1 0x0 DUP5 ADD MLOAD PUSH8 0xFFFFFFFFFFFFFFFF DUP2 GT ISZERO PUSH2 0xBD8 JUMPI PUSH1 0x0 DUP1 REVERT JUMPDEST PUSH2 0xBE4 DUP7 DUP3 DUP8 ADD PUSH2 0xB01 JUMP JUMPDEST SWAP4 POP POP PUSH1 0x20 PUSH2 0xBF5 DUP7 DUP3 DUP8 ADD PUSH2 0xB40 JUMP JUMPDEST SWAP3 POP POP PUSH1 0x40 PUSH2 0xC06 DUP7 DUP3 DUP8 ADD PUSH2 0xB40 JUMP JUMPDEST SWAP2 POP POP SWAP3 POP SWAP3 POP SWAP3 JUMP JUMPDEST PUSH1 0x0 PUSH1 0x20 DUP3 DUP5 SUB SLT ISZERO PUSH2 0xC22 JUMPI PUSH1 0x0 DUP1 REVERT JUMPDEST PUSH1 0x0 PUSH2 0xC30 DUP5 DUP3 DUP6 ADD PUSH2 0xB2B JUMP JUMPDEST SWAP2 POP POP SWAP3 SWAP2 POP POP JUMP JUMPDEST PUSH1 0x0 PUSH1 0x20 DUP3 DUP5 SUB SLT ISZERO PUSH2 0xC4B JUMPI PUSH1 0x0 DUP1 REVERT JUMPDEST PUSH1 0x0 PUSH2 0xC59 DUP5 DUP3 DUP6 ADD PUSH2 0xB40 JUMP JUMPDEST SWAP2 POP POP SWAP3 SWAP2 POP POP JUMP JUMPDEST PUSH1 0x0 DUP1 PUSH1 0x40 DUP4 DUP6 SUB SLT ISZERO PUSH2 0xC75 JUMPI PUSH1 0x0 DUP1 REVERT JUMPDEST PUSH1 0x0 PUSH2 0xC83 DUP6 DUP3 DUP7 ADD PUSH2 0xB2B JUMP JUMPDEST SWAP3 POP POP PUSH1 0x20 PUSH2 0xC94 DUP6 DUP3 DUP7 ADD PUSH2 0xAC2 JUMP JUMPDEST SWAP2 POP POP SWAP3 POP SWAP3 SWAP1 POP JUMP JUMPDEST PUSH2 0xCA7 DUP2 PUSH2 0x126D JUMP JUMPDEST DUP3 MSTORE POP POP JUMP JUMPDEST PUSH2 0xCB6 DUP2 PUSH2 0x126D JUMP JUMPDEST DUP3 MSTORE POP POP JUMP JUMPDEST PUSH2 0xCC5 DUP2 PUSH2 0x12BC JUMP JUMPDEST DUP3 MSTORE POP POP JUMP JUMPDEST PUSH2 0xCD4 DUP2 PUSH2 0x12E0 JUMP JUMPDEST DUP3 MSTORE POP POP JUMP JUMPDEST PUSH2 0xCE3 DUP2 PUSH2 0x12E0 JUMP JUMPDEST DUP3 MSTORE POP POP JUMP JUMPDEST PUSH1 0x0 PUSH2 0xCF4 DUP3 PUSH2 0x11F7 JUMP JUMPDEST PUSH2 0xCFE DUP2 DUP6 PUSH2 0x1202 JUMP JUMPDEST SWAP4 POP PUSH2 0xD0E DUP2 DUP6 PUSH1 0x20 DUP7 ADD PUSH2 0x1301 JUMP JUMPDEST PUSH2 0xD17 DUP2 PUSH2 0x140A JUMP JUMPDEST DUP5 ADD SWAP2 POP POP SWAP3 SWAP2 POP POP JUMP JUMPDEST PUSH1 0x0 PUSH2 0xD2F PUSH1 0x1F DUP4 PUSH2 0x1202 JUMP JUMPDEST SWAP2 POP PUSH32 0x5175616E74697479206D7573742062652067726561746572207468616E203000 PUSH1 0x0 DUP4 ADD MSTORE PUSH1 0x20 DUP3 ADD SWAP1 POP SWAP2 SWAP1 POP JUMP JUMPDEST PUSH1 0x0 PUSH2 0xD6F PUSH1 0x25 DUP4 PUSH2 0x1202 JUMP JUMPDEST SWAP2 POP PUSH32 0x4F6E6C7920746865206F776E65722063616E2063616C6C20746869732066756E PUSH1 0x0 DUP4 ADD MSTORE PUSH32 0x6374696F6E000000000000000000000000000000000000000000000000000000 PUSH1 0x20 DUP4 ADD MSTORE PUSH1 0x40 DUP3 ADD SWAP1 POP SWAP2 SWAP1 POP JUMP JUMPDEST PUSH1 0x0 PUSH2 0xDD5 PUSH1 0x11 DUP4 PUSH2 0x1202 JUMP JUMPDEST SWAP2 POP PUSH32 0x496E76616C6964206974656D206E616D65000000000000000000000000000000 PUSH1 0x0 DUP4 ADD MSTORE PUSH1 0x20 DUP3 ADD SWAP1 POP SWAP2 SWAP1 POP JUMP JUMPDEST PUSH1 0x0 PUSH2 0xE15 PUSH1 0x23 DUP4 PUSH2 0x1202 JUMP JUMPDEST SWAP2 POP PUSH32 0x5061796D656E74206D7573742062652073656E74207769746820746865206F72 PUSH1 0x0 DUP4 ADD MSTORE PUSH32 0x6465720000000000000000000000000000000000000000000000000000000000 PUSH1 0x20 DUP4 ADD MSTORE PUSH1 0x40 DUP3 ADD SWAP1 POP SWAP2 SWAP1 POP JUMP JUMPDEST PUSH1 0x0 PUSH2 0xE7B PUSH1 0x14 DUP4 PUSH2 0x1202 JUMP JUMPDEST SWAP2 POP PUSH32 0x496E73756666696369656E74207061796D656E74000000000000000000000000 PUSH1 0x0 DUP4 ADD MSTORE PUSH1 0x20 DUP3 ADD SWAP1 POP SWAP2 SWAP1 POP JUMP JUMPDEST PUSH1 0x0 PUSH2 0xEBB PUSH1 0x10 DUP4 PUSH2 0x1202 JUMP JUMPDEST SWAP2 POP PUSH32 0x496E76616C6964206F7264657220494400000000000000000000000000000000 PUSH1 0x0 DUP4 ADD MSTORE PUSH1 0x20 DUP3 ADD SWAP1 POP SWAP2 SWAP1 POP JUMP JUMPDEST PUSH1 0xC0 DUP3 ADD PUSH1 0x0 DUP3 ADD MLOAD PUSH2 0xF04 PUSH1 0x0 DUP6 ADD DUP3 PUSH2 0xF69 JUMP JUMPDEST POP PUSH1 0x20 DUP3 ADD MLOAD PUSH2 0xF17 PUSH1 0x20 DUP6 ADD DUP3 PUSH2 0xC9E JUMP JUMPDEST POP PUSH1 0x40 DUP3 ADD MLOAD PUSH2 0xF2A PUSH1 0x40 DUP6 ADD DUP3 PUSH2 0xF69 JUMP JUMPDEST POP PUSH1 0x60 DUP3 ADD MLOAD PUSH2 0xF3D PUSH1 0x60 DUP6 ADD DUP3 PUSH2 0xF69 JUMP JUMPDEST POP PUSH1 0x80 DUP3 ADD MLOAD PUSH2 0xF50 PUSH1 0x80 DUP6 ADD DUP3 PUSH2 0xF69 JUMP JUMPDEST POP PUSH1 0xA0 DUP3 ADD MLOAD PUSH2 0xF63 PUSH1 0xA0 DUP6 ADD DUP3 PUSH2 0xCCB JUMP JUMPDEST POP POP POP POP JUMP JUMPDEST PUSH2 0xF72 DUP2 PUSH2 0x12B2 JUMP JUMPDEST DUP3 MSTORE POP POP JUMP JUMPDEST PUSH2 0xF81 DUP2 PUSH2 0x12B2 JUMP JUMPDEST DUP3 MSTORE POP POP JUMP JUMPDEST PUSH1 0x0 PUSH1 0x20 DUP3 ADD SWAP1 POP PUSH2 0xF9C PUSH1 0x0 DUP4 ADD DUP5 PUSH2 0xCAD JUMP JUMPDEST SWAP3 SWAP2 POP POP JUMP JUMPDEST PUSH1 0x0 PUSH1 0x20 DUP3 ADD SWAP1 POP PUSH2 0xFB7 PUSH1 0x0 DUP4 ADD DUP5 PUSH2 0xCBC JUMP JUMPDEST SWAP3 SWAP2 POP POP JUMP JUMPDEST PUSH1 0x0 PUSH1 0x20 DUP3 ADD SWAP1 POP DUP2 DUP2 SUB PUSH1 0x0 DUP4 ADD MSTORE PUSH2 0xFD7 DUP2 DUP5 PUSH2 0xCE9 JUMP JUMPDEST SWAP1 POP SWAP3 SWAP2 POP POP JUMP JUMPDEST PUSH1 0x0 PUSH1 0x20 DUP3 ADD SWAP1 POP DUP2 DUP2 SUB PUSH1 0x0 DUP4 ADD MSTORE PUSH2 0xFF8 DUP2 PUSH2 0xD22 JUMP JUMPDEST SWAP1 POP SWAP2 SWAP1 POP JUMP JUMPDEST PUSH1 0x0 PUSH1 0x20 DUP3 ADD SWAP1 POP DUP2 DUP2 SUB PUSH1 0x0 DUP4 ADD MSTORE PUSH2 0x1018 DUP2 PUSH2 0xD62 JUMP JUMPDEST SWAP1 POP SWAP2 SWAP1 POP JUMP JUMPDEST PUSH1 0x0 PUSH1 0x20 DUP3 ADD SWAP1 POP DUP2 DUP2 SUB PUSH1 0x0 DUP4 ADD MSTORE PUSH2 0x1038 DUP2 PUSH2 0xDC8 JUMP JUMPDEST SWAP1 POP SWAP2 SWAP1 POP JUMP JUMPDEST PUSH1 0x0 PUSH1 0x20 DUP3 ADD SWAP1 POP DUP2 DUP2 SUB PUSH1 0x0 DUP4 ADD MSTORE PUSH2 0x1058 DUP2 PUSH2 0xE08 JUMP JUMPDEST SWAP1 POP SWAP2 SWAP1 POP JUMP JUMPDEST PUSH1 0x0 PUSH1 0x20 DUP3 ADD SWAP1 POP DUP2 DUP2 SUB PUSH1 0x0 DUP4 ADD MSTORE PUSH2 0x1078 DUP2 PUSH2 0xE6E JUMP JUMPDEST SWAP1 POP SWAP2 SWAP1 POP JUMP JUMPDEST PUSH1 0x0 PUSH1 0x20 DUP3 ADD SWAP1 POP DUP2 DUP2 SUB PUSH1 0x0 DUP4 ADD MSTORE PUSH2 0x1098 DUP2 PUSH2 0xEAE JUMP JUMPDEST SWAP1 POP SWAP2 SWAP1 POP JUMP JUMPDEST PUSH1 0x0 PUSH1 0xC0 DUP3 ADD SWAP1 POP PUSH2 0x10B4 PUSH1 0x0 DUP4 ADD DUP5 PUSH2 0xEEE JUMP JUMPDEST SWAP3 SWAP2 POP POP JUMP JUMPDEST PUSH1 0x0 PUSH1 0x20 DUP3 ADD SWAP1 POP PUSH2 0x10CF PUSH1 0x0 DUP4 ADD DUP5 PUSH2 0xF78 JUMP JUMPDEST SWAP3 SWAP2 POP POP JUMP JUMPDEST PUSH1 0x0 PUSH1 0xC0 DUP3 ADD SWAP1 POP PUSH2 0x10EA PUSH1 0x0 DUP4 ADD DUP10 PUSH2 0xF78 JUMP JUMPDEST PUSH2 0x10F7 PUSH1 0x20 DUP4 ADD DUP9 PUSH2 0xCAD JUMP JUMPDEST PUSH2 0x1104 PUSH1 0x40 DUP4 ADD DUP8 PUSH2 0xF78 JUMP JUMPDEST PUSH2 0x1111 PUSH1 0x60 DUP4 ADD DUP7 PUSH2 0xF78 JUMP JUMPDEST PUSH2 0x111E PUSH1 0x80 DUP4 ADD DUP6 PUSH2 0xF78 JUMP JUMPDEST PUSH2 0x112B PUSH1 0xA0 DUP4 ADD DUP5 PUSH2 0xCDA JUMP JUMPDEST SWAP8 SWAP7 POP POP POP POP POP POP POP JUMP JUMPDEST PUSH1 0x0 PUSH1 0x40 DUP3 ADD SWAP1 POP PUSH2 0x114B PUSH1 0x0 DUP4 ADD DUP6 PUSH2 0xF78 JUMP JUMPDEST PUSH2 0x1158 PUSH1 0x20 DUP4 ADD DUP5 PUSH2 0xCDA JUMP JUMPDEST SWAP4 SWAP3 POP POP POP JUMP JUMPDEST PUSH1 0x0 PUSH1 0x60 DUP3 ADD SWAP1 POP PUSH2 0x1174 PUSH1 0x0 DUP4 ADD DUP7 PUSH2 0xF78 JUMP JUMPDEST PUSH2 0x1181 PUSH1 0x20 DUP4 ADD DUP6 PUSH2 0xF78 JUMP JUMPDEST PUSH2 0x118E PUSH1 0x40 DUP4 ADD DUP5 PUSH2 0xCDA JUMP JUMPDEST SWAP5 SWAP4 POP POP POP POP JUMP JUMPDEST PUSH1 0x0 PUSH1 0x40 MLOAD SWAP1 POP DUP2 DUP2 ADD DUP2 DUP2 LT PUSH8 0xFFFFFFFFFFFFFFFF DUP3 GT OR ISZERO PUSH2 0x11BD JUMPI PUSH2 0x11BC PUSH2 0x13DB JUMP JUMPDEST JUMPDEST DUP1 PUSH1 0x40 MSTORE POP SWAP2 SWAP1 POP JUMP JUMPDEST PUSH1 0x0 PUSH8 0xFFFFFFFFFFFFFFFF DUP3 GT ISZERO PUSH2 0x11E2 JUMPI PUSH2 0x11E1 PUSH2 0x13DB JUMP JUMPDEST JUMPDEST PUSH1 0x1F NOT PUSH1 0x1F DUP4 ADD AND SWAP1 POP PUSH1 0x20 DUP2 ADD SWAP1 POP SWAP2 SWAP1 POP JUMP JUMPDEST PUSH1 0x0 DUP2 MLOAD SWAP1 POP SWAP2 SWAP1 POP JUMP JUMPDEST PUSH1 0x0 DUP3 DUP3 MSTORE PUSH1 0x20 DUP3 ADD SWAP1 POP SWAP3 SWAP2 POP POP JUMP JUMPDEST PUSH1 0x0 PUSH2 0x121E DUP3 PUSH2 0x12B2 JUMP JUMPDEST SWAP2 POP PUSH2 0x1229 DUP4 PUSH2 0x12B2 JUMP JUMPDEST SWAP3 POP DUP2 PUSH32 0xFFFFFFFFFFFFFFFFFFFFFFFFFFFFFFFFFFFFFFFFFFFFFFFFFFFFFFFFFFFFFFFF DIV DUP4 GT DUP3 ISZERO ISZERO AND ISZERO PUSH2 0x1262 JUMPI PUSH2 0x1261 PUSH2 0x137D JUMP JUMPDEST JUMPDEST DUP3 DUP3 MUL SWAP1 POP SWAP3 SWAP2 POP POP JUMP JUMPDEST PUSH1 0x0 PUSH2 0x1278 DUP3 PUSH2 0x1292 JUMP JUMPDEST SWAP1 POP SWAP2 SWAP1 POP JUMP JUMPDEST PUSH1 0x0 DUP2 SWAP1 POP PUSH2 0x128D DUP3 PUSH2 0x141B JUMP JUMPDEST SWAP2 SWAP1 POP JUMP JUMPDEST PUSH1 0x0 PUSH20 0xFFFFFFFFFFFFFFFFFFFFFFFFFFFFFFFFFFFFFFFF DUP3 AND SWAP1 POP SWAP2 SWAP1 POP JUMP JUMPDEST PUSH1 0x0 DUP2 SWAP1 POP SWAP2 SWAP1 POP JUMP JUMPDEST PUSH1 0x0 PUSH2 0x12C7 DUP3 PUSH2 0x12CE JUMP JUMPDEST SWAP1 POP SWAP2 SWAP1 POP JUMP JUMPDEST PUSH1 0x0 PUSH2 0x12D9 DUP3 PUSH2 0x1292 JUMP JUMPDEST SWAP1 POP SWAP2 SWAP1 POP JUMP JUMPDEST PUSH1 0x0 PUSH2 0x12EB DUP3 PUSH2 0x127F JUMP JUMPDEST SWAP1 POP SWAP2 SWAP1 POP JUMP JUMPDEST DUP3 DUP2 DUP4 CALLDATACOPY PUSH1 0x0 DUP4 DUP4 ADD MSTORE POP POP POP JUMP JUMPDEST PUSH1 0x0 JUMPDEST DUP4 DUP2 LT ISZERO PUSH2 0x131F JUMPI DUP1 DUP3 ADD MLOAD DUP2 DUP5 ADD MSTORE PUSH1 0x20 DUP2 ADD SWAP1 POP PUSH2 0x1304 JUMP JUMPDEST DUP4 DUP2 GT ISZERO PUSH2 0x132E JUMPI PUSH1 0x0 DUP5 DUP5 ADD MSTORE JUMPDEST POP POP POP POP JUMP JUMPDEST PUSH1 0x0 PUSH2 0x133F DUP3 PUSH2 0x12B2 JUMP JUMPDEST SWAP2 POP PUSH32 0xFFFFFFFFFFFFFFFFFFFFFFFFFFFFFFFFFFFFFFFFFFFFFFFFFFFFFFFFFFFFFFFF DUP3 EQ ISZERO PUSH2 0x1372 JUMPI PUSH2 0x1371 PUSH2 0x137D JUMP JUMPDEST JUMPDEST PUSH1 0x1 DUP3 ADD SWAP1 POP SWAP2 SWAP1 POP JUMP JUMPDEST PUSH32 0x4E487B7100000000000000000000000000000000000000000000000000000000 PUSH1 0x0 MSTORE PUSH1 0x11 PUSH1 0x4 MSTORE PUSH1 0x24 PUSH1 0x0 REVERT JUMPDEST PUSH32 0x4E487B7100000000000000000000000000000000000000000000000000000000 PUSH1 0x0 MSTORE PUSH1 0x21 PUSH1 0x4 MSTORE PUSH1 0x24 PUSH1 0x0 REVERT JUMPDEST PUSH32 0x4E487B7100000000000000000000000000000000000000000000000000000000 PUSH1 0x0 MSTORE PUSH1 0x41 PUSH1 0x4 MSTORE PUSH1 0x24 PUSH1 0x0 REVERT JUMPDEST PUSH1 0x0 PUSH1 0x1F NOT PUSH1 0x1F DUP4 ADD AND SWAP1 POP SWAP2 SWAP1 POP JUMP JUMPDEST PUSH1 0x4 DUP2 LT PUSH2 0x142C JUMPI PUSH2 0x142B PUSH2 0x13AC JUMP JUMPDEST JUMPDEST POP JUMP JUMPDEST PUSH1 0x4 DUP2 LT PUSH2 0x143C JUMPI PUSH1 0x0 DUP1 REVERT JUMPDEST POP JUMP JUMPDEST PUSH2 0x1448 DUP2 PUSH2 0x12B2 JUMP JUMPDEST DUP2 EQ PUSH2 0x1453 JUMPI PUSH1 0x0 DUP1 REVERT JUMPDEST POP JUMP INVALID LOG2 PUSH5 0x6970667358 0x22 SLT KECCAK256 0xC5 ADDMOD CHAINID 0xAD 0xCB SSTORE PUSH10 0x54A81EBA3B370D583441 DUP4 0x25 MSIZE 0xE7 ORIGIN EXP 0xD7 0xF8 MSTORE8 0x22 0x24 0xB7 0xEC NUMBER 0xDA PUSH5 0x736F6C6343 STOP ADDMOD STOP STOP CALLER "
	},
	"Assembly": ".code\n  PUSH A0\t\t\tcontract OrderProcessor {\\n   ...\n  PUSH 40\t\t\tcontract OrderProcessor {\\n   ...\n  MSTORE \t\t\tcontract OrderProcessor {\\n   ...\n  CALLVALUE \t\t\tconstructor(address _itemRegis...\n  DUP1 \t\t\tconstructor(address _itemRegis...\n  ISZERO \t\t\tconstructor(address _itemRegis...\n  PUSH [tag] 1\t\t\tconstructor(address _itemRegis...\n  JUMPI \t\t\tconstructor(address _itemRegis...\n  PUSH 0\t\t\tconstructor(address _itemRegis...\n  DUP1 \t\t\tconstructor(address _itemRegis...\n  REVERT \t\t\tconstructor(address _itemRegis...\ntag 1\t\t\tconstructor(address _itemRegis...\n  JUMPDEST \t\t\tconstructor(address _itemRegis...\n  POP \t\t\tconstructor(address _itemRegis...\n  PUSH 40\t\t\tconstructor(address _itemRegis...\n  MLOAD \t\t\tconstructor(address _itemRegis...\n  PUSHSIZE \t\t\tconstructor(address _itemRegis...\n  CODESIZE \t\t\tconstructor(address _itemRegis...\n  SUB \t\t\tconstructor(address _itemRegis...\n  DUP1 \t\t\tconstructor(address _itemRegis...\n  PUSHSIZE \t\t\tconstructor(address _itemRegis...\n  DUP4 \t\t\tconstructor(address _itemRegis...\n  CODECOPY \t\t\tconstructor(address _itemRegis...\n  DUP2 \t\t\tconstructor(address _itemRegis...\n  DUP2 \t\t\tconstructor(address _itemRegis...\n  ADD \t\t\tconstructor(address _itemRegis...\n  PUSH 40\t\t\tconstructor(address _itemRegis...\n  MSTORE \t\t\tconstructor(address _itemRegis...\n  DUP2 \t\t\tconstructor(address _itemRegis...\n  ADD \t\t\tconstructor(address _itemRegis...\n  SWAP1 \t\t\tconstructor(address _itemRegis...\n  PUSH [tag] 2\t\t\tconstructor(address _itemRegis...\n  SWAP2 \t\t\tconstructor(address _itemRegis...\n  SWAP1 \t\t\tconstructor(address _itemRegis...\n  PUSH [tag] 3\t\t\tconstructor(address _itemRegis...\n  JUMP [in]\t\t\tconstructor(address _itemRegis...\ntag 2\t\t\tconstructor(address _itemRegis...\n  JUMPDEST \t\t\tconstructor(address _itemRegis...\n  PUSH 0\t\t\t0\n  PUSH FFFFFFFFFFFFFFFFFFFFFFFFFFFFFFFFFFFFFFFF\t\t\t_itemRegistry != address(0)\n  AND \t\t\t_itemRegistry != address(0)\n  DUP2 \t\t\t_itemRegistry\n  PUSH FFFFFFFFFFFFFFFFFFFFFFFFFFFFFFFFFFFFFFFF\t\t\t_itemRegistry != address(0)\n  AND \t\t\t_itemRegistry != address(0)\n  EQ \t\t\t_itemRegistry != address(0)\n  ISZERO \t\t\t_itemRegistry != address(0)\n  PUSH [tag] 6\t\t\trequire(_itemRegistry != addre...\n  JUMPI \t\t\trequire(_itemRegistry != addre...\n  PUSH 40\t\t\trequire(_itemRegistry != addre...\n  MLOAD \t\t\trequire(_itemRegistry != addre...\n  PUSH 8C379A000000000000000000000000000000000000000000000000000000000\t\t\trequire(_itemRegistry != addre...\n  DUP2 \t\t\trequire(_itemRegistry != addre...\n  MSTORE \t\t\trequire(_itemRegistry != addre...\n  PUSH 4\t\t\trequire(_itemRegistry != addre...\n  ADD \t\t\trequire(_itemRegistry != addre...\n  PUSH [tag] 7\t\t\trequire(_itemRegistry != addre...\n  SWAP1 \t\t\trequire(_itemRegistry != addre...\n  PUSH [tag] 8\t\t\trequire(_itemRegistry != addre...\n  JUMP [in]\t\t\trequire(_itemRegistry != addre...\ntag 7\t\t\trequire(_itemRegistry != addre...\n  JUMPDEST \t\t\trequire(_itemRegistry != addre...\n  PUSH 40\t\t\trequire(_itemRegistry != addre...\n  MLOAD \t\t\trequire(_itemRegistry != addre...\n  DUP1 \t\t\trequire(_itemRegistry != addre...\n  SWAP2 \t\t\trequire(_itemRegistry != addre...\n  SUB \t\t\trequire(_itemRegistry != addre...\n  SWAP1 \t\t\trequire(_itemRegistry != addre...\n  REVERT \t\t\trequire(_itemRegistry != addre...\ntag 6\t\t\trequire(_itemRegistry != addre...\n  JUMPDEST \t\t\trequire(_itemRegistry != addre...\n  DUP1 \t\t\t_itemRegistry\n  PUSH FFFFFFFFFFFFFFFFFFFFFFFFFFFFFFFFFFFFFFFF\t\t\titemRegistry = ItemRegistry(_i...\n  AND \t\t\titemRegistry = ItemRegistry(_i...\n  PUSH 80\t\t\titemRegistry = ItemRegistry(_i...\n  DUP2 \t\t\titemRegistry = ItemRegistry(_i...\n  PUSH FFFFFFFFFFFFFFFFFFFFFFFFFFFFFFFFFFFFFFFF\t\t\titemRegistry = ItemRegistry(_i...\n  AND \t\t\titemRegistry = ItemRegistry(_i...\n  PUSH 60\t\t\titemRegistry = ItemRegistry(_i...\n  SHL \t\t\titemRegistry = ItemRegistry(_i...\n  DUP2 \t\t\titemRegistry = ItemRegistry(_i...\n  MSTORE \t\t\titemRegistry = ItemRegistry(_i...\n  POP \t\t\titemRegistry = ItemRegistry(_i...\n  POP \t\t\titemRegistry = ItemRegistry(_i...\n  CALLER \t\t\tmsg.sender\n  PUSH 0\t\t\towner\n  DUP1 \t\t\towner\n  PUSH 100\t\t\towner = msg.sender\n  EXP \t\t\towner = msg.sender\n  DUP2 \t\t\towner = msg.sender\n  SLOAD \t\t\towner = msg.sender\n  DUP2 \t\t\towner = msg.sender\n  PUSH FFFFFFFFFFFFFFFFFFFFFFFFFFFFFFFFFFFFFFFF\t\t\towner = msg.sender\n  MUL \t\t\towner = msg.sender\n  NOT \t\t\towner = msg.sender\n  AND \t\t\towner = msg.sender\n  SWAP1 \t\t\towner = msg.sender\n  DUP4 \t\t\towner = msg.sender\n  PUSH FFFFFFFFFFFFFFFFFFFFFFFFFFFFFFFFFFFFFFFF\t\t\towner = msg.sender\n  AND \t\t\towner = msg.sender\n  MUL \t\t\towner = msg.sender\n  OR \t\t\towner = msg.sender\n  SWAP1 \t\t\towner = msg.sender\n  SSTORE \t\t\towner = msg.sender\n  POP \t\t\towner = msg.sender\n  POP \t\t\tconstructor(address _itemRegis...\n  PUSH [tag] 9\t\t\tcontract OrderProcessor {\\n   ...\n  JUMP \t\t\tcontract OrderProcessor {\\n   ...\ntag 11\t\t\t-License-Identifier: MIT\\nprag...\n  JUMPDEST \t\t\t-License-Identifier: MIT\\nprag...\n  PUSH 0\t\t\t-License-Identifier: MIT\\nprag...\n  DUP2 \t\t\t Order\n  MLOAD \t\t\tntract OrderP\n  SWAP1 \t\t\tsol\";\\n\\ncontract OrderP\n  POP \t\t\tsol\";\\n\\ncontract OrderP\n  PUSH [tag] 13\t\t\t{\\n    ItemRegistry public imm...\n  DUP2 \t\t\tmmuta\n  PUSH [tag] 14\t\t\t{\\n    ItemRegistry public imm...\n  JUMP [in]\t\t\t{\\n    ItemRegistry public imm...\ntag 13\t\t\t{\\n    ItemRegistry public imm...\n  JUMPDEST \t\t\t{\\n    ItemRegistry public imm...\n  SWAP3 \t\t\tmRegistry.sol\";\\n\\ncontract Or...\n  SWAP2 \t\t\tmRegistry.sol\";\\n\\ncontract Or...\n  POP \t\t\tmRegistry.sol\";\\n\\ncontract Or...\n  POP \t\t\tmRegistry.sol\";\\n\\ncontract Or...\n  JUMP [out]\t\t\tmRegistry.sol\";\\n\\ncontract Or...\ntag 3\t\t\ttry;\\n    address public owner...\n  JUMPDEST \t\t\ttry;\\n    address public owner...\n  PUSH 0\t\t\ttry;\\n    address public owner...\n  PUSH 20\t\t\t  \n  DUP3 \t\t\trder {\\n  \n  DUP5 \t\t\t struct\n  SUB \t\t\t\\n    struct Order {\\n   \n  SLT \t\t\ted }\\n    struct Order {\\n    ...\n  ISZERO \t\t\tce\n  PUSH [tag] 16\t\t\tce\n  JUMPI \t\t\tce\n  PUSH 0\t\t\tI\n  DUP1 \t\t\td\n  REVERT \t\t\tt256 orderId\ntag 16\t\t\tce\n  JUMPDEST \t\t\tce\n  PUSH 0\t\t\ti\n  PUSH [tag] 17\t\t\tuantity;\\n        uint256 tota...\n  DUP5 \t\t\ts statu\n  DUP3 \t\t\trderSt\n  DUP6 \t\t\t;\\n       \n  ADD \t\t\tount;\\n        OrderSta\n  PUSH [tag] 11\t\t\tuantity;\\n        uint256 tota...\n  JUMP [in]\t\t\tuantity;\\n        uint256 tota...\ntag 17\t\t\tuantity;\\n        uint256 tota...\n  JUMPDEST \t\t\tuantity;\\n        uint256 tota...\n  SWAP2 \t\t\t uint256 quantity;\\n        ui...\n  POP \t\t\t uint256 quantity;\\n        ui...\n  POP \t\t\tdress buyer;\\n        uint256 ...\n  SWAP3 \t\t\tvered, Canceled }\\n    struct ...\n  SWAP2 \t\t\tvered, Canceled }\\n    struct ...\n  POP \t\t\tvered, Canceled }\\n    struct ...\n  POP \t\t\tvered, Canceled }\\n    struct ...\n  JUMP [out]\t\t\tvered, Canceled }\\n    struct ...\ntag 18\t\t\tnt256 => Order) public orders;...\n  JUMPDEST \t\t\tnt256 => Order) public orders;...\n  PUSH 0\t\t\tnt256 => Order) public orders;...\n  PUSH [tag] 20\t\t\t6 quantity, uint256 totalAmoun...\n  PUSH 1C\t\t\tOr\n  DUP4 \t\t\tven\n  PUSH [tag] 21\t\t\t6 quantity, uint256 totalAmoun...\n  JUMP [in]\t\t\t6 quantity, uint256 totalAmoun...\ntag 20\t\t\t6 quantity, uint256 totalAmoun...\n  JUMPDEST \t\t\t6 quantity, uint256 totalAmoun...\n  SWAP2 \t\t\t uint256 quantity, uint256 tot...\n  POP \t\t\t uint256 quantity, uint256 tot...\n  PUSH 496E76616C6964204974656D5265676973747279206164647265737300000000\t\t\td, OrderStatus status);\\n\\n   ...\n  PUSH 0\t\t\td\n  DUP4 \t\t\t56 \n  ADD \t\t\tint256 orde\n  MSTORE \t\t\tdated(uint256 orderId, OrderSt...\n  PUSH 20\t\t\tis\n  DUP3 \t\t\temR\n  ADD \t\t\t _itemRegist\n  SWAP1 \t\t\taddress _itemRegist\n  POP \t\t\taddress _itemRegist\n  SWAP2 \t\t\ted itemId, uint256 quantity, u...\n  SWAP1 \t\t\ted itemId, uint256 quantity, u...\n  POP \t\t\ted itemId, uint256 quantity, u...\n  JUMP [out]\t\t\ted itemId, uint256 quantity, u...\ntag 8\t\t\t  require(_itemRegistry != add...\n  JUMPDEST \t\t\t  require(_itemRegistry != add...\n  PUSH 0\t\t\t  require(_itemRegistry != add...\n  PUSH 20\t\t\tg.\n  DUP3 \t\t\t require(\n  ADD \t\t\t     require(msg.s\n  SWAP1 \t\t\t() {\\n        require(msg.s\n  POP \t\t\t() {\\n        require(msg.s\n  DUP2 \t\t\tfunction\"\n  DUP2 \t\t\t thi\n  SUB \t\t\tcall this function\")\n  PUSH 0\t\t\tc\n  DUP4 \t\t\t the owne\n  ADD \t\t\tOnly the owner ca\n  MSTORE \t\t\twner, \"Only the owner can call...\n  PUSH [tag] 23\t\t\t\\n\\n    function placeOrder(st...\n  DUP2 \t\t\ty mu\n  PUSH [tag] 18\t\t\t\\n\\n    function placeOrder(st...\n  JUMP [in]\t\t\t\\n\\n    function placeOrder(st...\ntag 23\t\t\t\\n\\n    function placeOrder(st...\n  JUMPDEST \t\t\t\\n\\n    function placeOrder(st...\n  SWAP1 \t\t\t_;\\n    }\\n\\n    function plac...\n  POP \t\t\t_;\\n    }\\n\\n    function plac...\n  SWAP2 \t\t\t onlyOwner() {\\n        requir...\n  SWAP1 \t\t\t onlyOwner() {\\n        requir...\n  POP \t\t\t onlyOwner() {\\n        requir...\n  JUMP [out]\t\t\t onlyOwner() {\\n        requir...\ntag 21\t\t\tthan 0\");\\n        require(msg...\n  JUMPDEST \t\t\tthan 0\");\\n        require(msg...\n  PUSH 0\t\t\tthan 0\");\\n        require(msg...\n  DUP3 \t\t\ty.getI\n  DUP3 \t\t\tgis\n  MSTORE \t\t\t itemRegistry.getIt\n  PUSH 20\t\t\tquir\n  DUP3 \t\t\t   \n  ADD \t\t\t       require\n  SWAP1 \t\t\te(_itemName);\\n        require\n  POP \t\t\te(_itemName);\\n        require\n  SWAP3 \t\t\t6 itemId = itemRegistry.getIte...\n  SWAP2 \t\t\t6 itemId = itemRegistry.getIte...\n  POP \t\t\t6 itemId = itemRegistry.getIte...\n  POP \t\t\t6 itemId = itemRegistry.getIte...\n  JUMP [out]\t\t\t6 itemId = itemRegistry.getIte...\ntag 25\t\t\t \"Invalid item name\");\\n\\n    ...\n  JUMPDEST \t\t\t \"Invalid item name\");\\n\\n    ...\n  PUSH 0\t\t\t \"Invalid item name\");\\n\\n    ...\n  PUSH [tag] 27\t\t\tstry.getItemData(itemId)\n  DUP3 \t\t\ttemId\n  PUSH [tag] 28\t\t\tstry.getItemData(itemId)\n  JUMP [in]\t\t\tstry.getItemData(itemId)\ntag 27\t\t\tstry.getItemData(itemId)\n  JUMPDEST \t\t\tstry.getItemData(itemId)\n  SWAP1 \t\t\t = itemRegistry.getItemData(it...\n  POP \t\t\t = itemRegistry.getItemData(it...\n  SWAP2 \t\t\titemPrice) = itemRegistry.getI...\n  SWAP1 \t\t\titemPrice) = itemRegistry.getI...\n  POP \t\t\titemPrice) = itemRegistry.getI...\n  JUMP [out]\t\t\titemPrice) = itemRegistry.getI...\ntag 28\t\t\tnt256 totalAmount = itemPrice ...\n  JUMPDEST \t\t\tnt256 totalAmount = itemPrice ...\n  PUSH 0\t\t\tnt256 totalAmount = itemPrice ...\n  PUSH FFFFFFFFFFFFFFFFFFFFFFFFFFFFFFFFFFFFFFFF\t\t\tAmount, \"Insufficient payment\"...\n  DUP3 \t\t\t= tot\n  AND \t\t\tue >= totalAmount, \"Insufficie...\n  SWAP1 \t\t\tire(msg.value >= totalAmount, ...\n  POP \t\t\tire(msg.value >= totalAmount, ...\n  SWAP2 \t\t\t      require(msg.value >= tot...\n  SWAP1 \t\t\t      require(msg.value >= tot...\n  POP \t\t\t      require(msg.value >= tot...\n  JUMP [out]\t\t\t      require(msg.value >= tot...\ntag 14\t\t\t\\n        orders[orderCount] =...\n  JUMPDEST \t\t\t\\n        orders[orderCount] =...\n  PUSH [tag] 31\t\t\t          buyer: msg.sen\n  DUP2 \t\t\tsg.se\n  PUSH [tag] 25\t\t\t          buyer: msg.sen\n  JUMP [in]\t\t\t          buyer: msg.sen\ntag 31\t\t\t          buyer: msg.sen\n  JUMPDEST \t\t\t          buyer: msg.sen\n  DUP2 \t\t\tunt,\\n\n  EQ \t\t\trCount,\\n            buyer: ms...\n  PUSH [tag] 32\t\t\ter\n  JUMPI \t\t\ter\n  PUSH 0\t\t\t \n  DUP1 \t\t\t \n  REVERT \t\t\t            \ntag 32\t\t\ter\n  JUMPDEST \t\t\ter\n  POP \t\t\t       orderId: orderCount,\\n ...\n  JUMP [out]\t\t\t       orderId: orderCount,\\n ...\ntag 9\t\t\tcontract OrderProcessor {\\n   ...\n  JUMPDEST \t\t\tcontract OrderProcessor {\\n   ...\n  PUSH 80\t\t\tcontract OrderProcessor {\\n   ...\n  MLOAD \t\t\tcontract OrderProcessor {\\n   ...\n  PUSH 60\t\t\tcontract OrderProcessor {\\n   ...\n  SHR \t\t\tcontract OrderProcessor {\\n   ...\n  PUSH #[$] 0000000000000000000000000000000000000000000000000000000000000000\t\t\tcontract OrderProcessor {\\n   ...\n  PUSH [$] 0000000000000000000000000000000000000000000000000000000000000000\t\t\tcontract OrderProcessor {\\n   ...\n  PUSH 0\t\t\tcontract OrderProcessor {\\n   ...\n  CODECOPY \t\t\tcontract OrderProcessor {\\n   ...\n  PUSH 0\t\t\tcontract OrderProcessor {\\n   ...\n  ASSIGNIMMUTABLE 297\t\t\tcontract OrderProcessor {\\n   ...\n  PUSH #[$] 0000000000000000000000000000000000000000000000000000000000000000\t\t\tcontract OrderProcessor {\\n   ...\n  PUSH 0\t\t\tcontract OrderProcessor {\\n   ...\n  RETURN \t\t\tcontract OrderProcessor {\\n   ...\n.data\n  0:\n    .code\n      PUSH 80\t\t\tcontract OrderProcessor {\\n   ...\n      PUSH 40\t\t\tcontract OrderProcessor {\\n   ...\n      MSTORE \t\t\tcontract OrderProcessor {\\n   ...\n      PUSH 4\t\t\tcontract OrderProcessor {\\n   ...\n      CALLDATASIZE \t\t\tcontract OrderProcessor {\\n   ...\n      LT \t\t\tcontract OrderProcessor {\\n   ...\n      PUSH [tag] 1\t\t\tcontract OrderProcessor {\\n   ...\n      JUMPI \t\t\tcontract OrderProcessor {\\n   ...\n      PUSH 0\t\t\tcontract OrderProcessor {\\n   ...\n      CALLDATALOAD \t\t\tcontract OrderProcessor {\\n   ...\n      PUSH E0\t\t\tcontract OrderProcessor {\\n   ...\n      SHR \t\t\tcontract OrderProcessor {\\n   ...\n      DUP1 \t\t\tcontract OrderProcessor {\\n   ...\n      PUSH A1B6E836\t\t\tcontract OrderProcessor {\\n   ...\n      GT \t\t\tcontract OrderProcessor {\\n   ...\n      PUSH [tag] 9\t\t\tcontract OrderProcessor {\\n   ...\n      JUMPI \t\t\tcontract OrderProcessor {\\n   ...\n      DUP1 \t\t\tcontract OrderProcessor {\\n   ...\n      PUSH A1B6E836\t\t\tcontract OrderProcessor {\\n   ...\n      EQ \t\t\tcontract OrderProcessor {\\n   ...\n      PUSH [tag] 5\t\t\tcontract OrderProcessor {\\n   ...\n      JUMPI \t\t\tcontract OrderProcessor {\\n   ...\n      DUP1 \t\t\tcontract OrderProcessor {\\n   ...\n      PUSH A85C38EF\t\t\tcontract OrderProcessor {\\n   ...\n      EQ \t\t\tcontract OrderProcessor {\\n   ...\n      PUSH [tag] 6\t\t\tcontract OrderProcessor {\\n   ...\n      JUMPI \t\t\tcontract OrderProcessor {\\n   ...\n      DUP1 \t\t\tcontract OrderProcessor {\\n   ...\n      PUSH AAB3196D\t\t\tcontract OrderProcessor {\\n   ...\n      EQ \t\t\tcontract OrderProcessor {\\n   ...\n      PUSH [tag] 7\t\t\tcontract OrderProcessor {\\n   ...\n      JUMPI \t\t\tcontract OrderProcessor {\\n   ...\n      DUP1 \t\t\tcontract OrderProcessor {\\n   ...\n      PUSH D09EF241\t\t\tcontract OrderProcessor {\\n   ...\n      EQ \t\t\tcontract OrderProcessor {\\n   ...\n      PUSH [tag] 8\t\t\tcontract OrderProcessor {\\n   ...\n      JUMPI \t\t\tcontract OrderProcessor {\\n   ...\n      PUSH [tag] 1\t\t\tcontract OrderProcessor {\\n   ...\n      JUMP \t\t\tcontract OrderProcessor {\\n   ...\n    tag 9\t\t\tcontract OrderProcessor {\\n   ...\n      JUMPDEST \t\t\tcontract OrderProcessor {\\n   ...\n      DUP1 \t\t\tcontract OrderProcessor {\\n   ...\n      PUSH 2453FFA8\t\t\tcontract OrderProcessor {\\n   ...\n      EQ \t\t\tcontract OrderProcessor {\\n   ...\n      PUSH [tag] 2\t\t\tcontract OrderProcessor {\\n   ...\n      JUMPI \t\t\tcontract OrderProcessor {\\n   ...\n      DUP1 \t\t\tcontract OrderProcessor {\\n   ...\n      PUSH 8DA5CB5B\t\t\tcontract OrderProcessor {\\n   ...\n      EQ \t\t\tcontract OrderProcessor {\\n   ...\n      PUSH [tag] 3\t\t\tcontract OrderProcessor {\\n   ...\n      JUMPI \t\t\tcontract OrderProcessor {\\n   ...\n      DUP1 \t\t\tcontract OrderProcessor {\\n   ...\n      PUSH 957047F6\t\t\tcontract OrderProcessor {\\n   ...\n      EQ \t\t\tcontract OrderProcessor {\\n   ...\n      PUSH [tag] 4\t\t\tcontract OrderProcessor {\\n   ...\n      JUMPI \t\t\tcontract OrderProcessor {\\n   ...\n    tag 1\t\t\tcontract OrderProcessor {\\n   ...\n      JUMPDEST \t\t\tcontract OrderProcessor {\\n   ...\n      PUSH 0\t\t\tcontract OrderProcessor {\\n   ...\n      DUP1 \t\t\tcontract OrderProcessor {\\n   ...\n      REVERT \t\t\tcontract OrderProcessor {\\n   ...\n    tag 2\t\t\tuint256 public orderCount\n      JUMPDEST \t\t\tuint256 public orderCount\n      CALLVALUE \t\t\tuint256 public orderCount\n      DUP1 \t\t\tuint256 public orderCount\n      ISZERO \t\t\tuint256 public orderCount\n      PUSH [tag] 10\t\t\tuint256 public orderCount\n      JUMPI \t\t\tuint256 public orderCount\n      PUSH 0\t\t\tuint256 public orderCount\n      DUP1 \t\t\tuint256 public orderCount\n      REVERT \t\t\tuint256 public orderCount\n    tag 10\t\t\tuint256 public orderCount\n      JUMPDEST \t\t\tuint256 public orderCount\n      POP \t\t\tuint256 public orderCount\n      PUSH [tag] 11\t\t\tuint256 public orderCount\n      PUSH [tag] 12\t\t\tuint256 public orderCount\n      JUMP [in]\t\t\tuint256 public orderCount\n    tag 11\t\t\tuint256 public orderCount\n      JUMPDEST \t\t\tuint256 public orderCount\n      PUSH 40\t\t\tuint256 public orderCount\n      MLOAD \t\t\tuint256 public orderCount\n      PUSH [tag] 13\t\t\tuint256 public orderCount\n      SWAP2 \t\t\tuint256 public orderCount\n      SWAP1 \t\t\tuint256 public orderCount\n      PUSH [tag] 14\t\t\tuint256 public orderCount\n      JUMP [in]\t\t\tuint256 public orderCount\n    tag 13\t\t\tuint256 public orderCount\n      JUMPDEST \t\t\tuint256 public orderCount\n      PUSH 40\t\t\tuint256 public orderCount\n      MLOAD \t\t\tuint256 public orderCount\n      DUP1 \t\t\tuint256 public orderCount\n      SWAP2 \t\t\tuint256 public orderCount\n      SUB \t\t\tuint256 public orderCount\n      SWAP1 \t\t\tuint256 public orderCount\n      RETURN \t\t\tuint256 public orderCount\n    tag 3\t\t\taddress public owner\n      JUMPDEST \t\t\taddress public owner\n      CALLVALUE \t\t\taddress public owner\n      DUP1 \t\t\taddress public owner\n      ISZERO \t\t\taddress public owner\n      PUSH [tag] 15\t\t\taddress public owner\n      JUMPI \t\t\taddress public owner\n      PUSH 0\t\t\taddress public owner\n      DUP1 \t\t\taddress public owner\n      REVERT \t\t\taddress public owner\n    tag 15\t\t\taddress public owner\n      JUMPDEST \t\t\taddress public owner\n      POP \t\t\taddress public owner\n      PUSH [tag] 16\t\t\taddress public owner\n      PUSH [tag] 17\t\t\taddress public owner\n      JUMP [in]\t\t\taddress public owner\n    tag 16\t\t\taddress public owner\n      JUMPDEST \t\t\taddress public owner\n      PUSH 40\t\t\taddress public owner\n      MLOAD \t\t\taddress public owner\n      PUSH [tag] 18\t\t\taddress public owner\n      SWAP2 \t\t\taddress public owner\n      SWAP1 \t\t\taddress public owner\n      PUSH [tag] 19\t\t\taddress public owner\n      JUMP [in]\t\t\taddress public owner\n    tag 18\t\t\taddress public owner\n      JUMPDEST \t\t\taddress public owner\n      PUSH 40\t\t\taddress public owner\n      MLOAD \t\t\taddress public owner\n      DUP1 \t\t\taddress public owner\n      SWAP2 \t\t\taddress public owner\n      SUB \t\t\taddress public owner\n      SWAP1 \t\t\taddress public owner\n      RETURN \t\t\taddress public owner\n    tag 4\t\t\tItemRegistry public immutable ...\n      JUMPDEST \t\t\tItemRegistry public immutable ...\n      CALLVALUE \t\t\tItemRegistry public immutable ...\n      DUP1 \t\t\tItemRegistry public immutable ...\n      ISZERO \t\t\tItemRegistry public immutable ...\n      PUSH [tag] 20\t\t\tItemRegistry public immutable ...\n      JUMPI \t\t\tItemRegistry public immutable ...\n      PUSH 0\t\t\tItemRegistry public immutable ...\n      DUP1 \t\t\tItemRegistry public immutable ...\n      REVERT \t\t\tItemRegistry public immutable ...\n    tag 20\t\t\tItemRegistry public immutable ...\n      JUMPDEST \t\t\tItemRegistry public immutable ...\n      POP \t\t\tItemRegistry public immutable ...\n      PUSH [tag] 21\t\t\tItemRegistry public immutable ...\n      PUSH [tag] 22\t\t\tItemRegistry public immutable ...\n      JUMP [in]\t\t\tItemRegistry public immutable ...\n    tag 21\t\t\tItemRegistry public immutable ...\n      JUMPDEST \t\t\tItemRegistry public immutable ...\n      PUSH 40\t\t\tItemRegistry public immutable ...\n      MLOAD \t\t\tItemRegistry public immutable ...\n      PUSH [tag] 23\t\t\tItemRegistry public immutable ...\n      SWAP2 \t\t\tItemRegistry public immutable ...\n      SWAP1 \t\t\tItemRegistry public immutable ...\n      PUSH [tag] 24\t\t\tItemRegistry public immutable ...\n      JUMP [in]\t\t\tItemRegistry public immutable ...\n    tag 23\t\t\tItemRegistry public immutable ...\n      JUMPDEST \t\t\tItemRegistry public immutable ...\n      PUSH 40\t\t\tItemRegistry public immutable ...\n      MLOAD \t\t\tItemRegistry public immutable ...\n      DUP1 \t\t\tItemRegistry public immutable ...\n      SWAP2 \t\t\tItemRegistry public immutable ...\n      SUB \t\t\tItemRegistry public immutable ...\n      SWAP1 \t\t\tItemRegistry public immutable ...\n      RETURN \t\t\tItemRegistry public immutable ...\n    tag 5\t\t\tfunction placeOrder(string mem...\n      JUMPDEST \t\t\tfunction placeOrder(string mem...\n      PUSH [tag] 25\t\t\tfunction placeOrder(string mem...\n      PUSH 4\t\t\tfunction placeOrder(string mem...\n      DUP1 \t\t\tfunction placeOrder(string mem...\n      CALLDATASIZE \t\t\tfunction placeOrder(string mem...\n      SUB \t\t\tfunction placeOrder(string mem...\n      DUP2 \t\t\tfunction placeOrder(string mem...\n      ADD \t\t\tfunction placeOrder(string mem...\n      SWAP1 \t\t\tfunction placeOrder(string mem...\n      PUSH [tag] 26\t\t\tfunction placeOrder(string mem...\n      SWAP2 \t\t\tfunction placeOrder(string mem...\n      SWAP1 \t\t\tfunction placeOrder(string mem...\n      PUSH [tag] 27\t\t\tfunction placeOrder(string mem...\n      JUMP [in]\t\t\tfunction placeOrder(string mem...\n    tag 26\t\t\tfunction placeOrder(string mem...\n      JUMPDEST \t\t\tfunction placeOrder(string mem...\n      PUSH [tag] 28\t\t\tfunction placeOrder(string mem...\n      JUMP [in]\t\t\tfunction placeOrder(string mem...\n    tag 25\t\t\tfunction placeOrder(string mem...\n      JUMPDEST \t\t\tfunction placeOrder(string mem...\n      STOP \t\t\tfunction placeOrder(string mem...\n    tag 6\t\t\tmapping(uint256 => Order) publ...\n      JUMPDEST \t\t\tmapping(uint256 => Order) publ...\n      CALLVALUE \t\t\tmapping(uint256 => Order) publ...\n      DUP1 \t\t\tmapping(uint256 => Order) publ...\n      ISZERO \t\t\tmapping(uint256 => Order) publ...\n      PUSH [tag] 29\t\t\tmapping(uint256 => Order) publ...\n      JUMPI \t\t\tmapping(uint256 => Order) publ...\n      PUSH 0\t\t\tmapping(uint256 => Order) publ...\n      DUP1 \t\t\tmapping(uint256 => Order) publ...\n      REVERT \t\t\tmapping(uint256 => Order) publ...\n    tag 29\t\t\tmapping(uint256 => Order) publ...\n      JUMPDEST \t\t\tmapping(uint256 => Order) publ...\n      POP \t\t\tmapping(uint256 => Order) publ...\n      PUSH [tag] 30\t\t\tmapping(uint256 => Order) publ...\n      PUSH 4\t\t\tmapping(uint256 => Order) publ...\n      DUP1 \t\t\tmapping(uint256 => Order) publ...\n      CALLDATASIZE \t\t\tmapping(uint256 => Order) publ...\n      SUB \t\t\tmapping(uint256 => Order) publ...\n      DUP2 \t\t\tmapping(uint256 => Order) publ...\n      ADD \t\t\tmapping(uint256 => Order) publ...\n      SWAP1 \t\t\tmapping(uint256 => Order) publ...\n      PUSH [tag] 31\t\t\tmapping(uint256 => Order) publ...\n      SWAP2 \t\t\tmapping(uint256 => Order) publ...\n      SWAP1 \t\t\tmapping(uint256 => Order) publ...\n      PUSH [tag] 32\t\t\tmapping(uint256 => Order) publ...\n      JUMP [in]\t\t\tmapping(uint256 => Order) publ...\n    tag 31\t\t\tmapping(uint256 => Order) publ...\n      JUMPDEST \t\t\tmapping(uint256 => Order) publ...\n      PUSH [tag] 33\t\t\tmapping(uint256 => Order) publ...\n      JUMP [in]\t\t\tmapping(uint256 => Order) publ...\n    tag 30\t\t\tmapping(uint256 => Order) publ...\n      JUMPDEST \t\t\tmapping(uint256 => Order) publ...\n      PUSH 40\t\t\tmapping(uint256 => Order) publ...\n      MLOAD \t\t\tmapping(uint256 => Order) publ...\n      PUSH [tag] 34\t\t\tmapping(uint256 => Order) publ...\n      SWAP7 \t\t\tmapping(uint256 => Order) publ...\n      SWAP6 \t\t\tmapping(uint256 => Order) publ...\n      SWAP5 \t\t\tmapping(uint256 => Order) publ...\n      SWAP4 \t\t\tmapping(uint256 => Order) publ...\n      SWAP3 \t\t\tmapping(uint256 => Order) publ...\n      SWAP2 \t\t\tmapping(uint256 => Order) publ...\n      SWAP1 \t\t\tmapping(uint256 => Order) publ...\n      PUSH [tag] 35\t\t\tmapping(uint256 => Order) publ...\n      JUMP [in]\t\t\tmapping(uint256 => Order) publ...\n    tag 34\t\t\tmapping(uint256 => Order) publ...\n      JUMPDEST \t\t\tmapping(uint256 => Order) publ...\n      PUSH 40\t\t\tmapping(uint256 => Order) publ...\n      MLOAD \t\t\tmapping(uint256 => Order) publ...\n      DUP1 \t\t\tmapping(uint256 => Order) publ...\n      SWAP2 \t\t\tmapping(uint256 => Order) publ...\n      SUB \t\t\tmapping(uint256 => Order) publ...\n      SWAP1 \t\t\tmapping(uint256 => Order) publ...\n      RETURN \t\t\tmapping(uint256 => Order) publ...\n    tag 7\t\t\tfunction updateOrderStatus(uin...\n      JUMPDEST \t\t\tfunction updateOrderStatus(uin...\n      CALLVALUE \t\t\tfunction updateOrderStatus(uin...\n      DUP1 \t\t\tfunction updateOrderStatus(uin...\n      ISZERO \t\t\tfunction updateOrderStatus(uin...\n      PUSH [tag] 36\t\t\tfunction updateOrderStatus(uin...\n      JUMPI \t\t\tfunction updateOrderStatus(uin...\n      PUSH 0\t\t\tfunction updateOrderStatus(uin...\n      DUP1 \t\t\tfunction updateOrderStatus(uin...\n      REVERT \t\t\tfunction updateOrderStatus(uin...\n    tag 36\t\t\tfunction updateOrderStatus(uin...\n      JUMPDEST \t\t\tfunction updateOrderStatus(uin...\n      POP \t\t\tfunction updateOrderStatus(uin...\n      PUSH [tag] 37\t\t\tfunction updateOrderStatus(uin...\n      PUSH 4\t\t\tfunction updateOrderStatus(uin...\n      DUP1 \t\t\tfunction updateOrderStatus(uin...\n      CALLDATASIZE \t\t\tfunction updateOrderStatus(uin...\n      SUB \t\t\tfunction updateOrderStatus(uin...\n      DUP2 \t\t\tfunction updateOrderStatus(uin...\n      ADD \t\t\tfunction updateOrderStatus(uin...\n      SWAP1 \t\t\tfunction updateOrderStatus(uin...\n      PUSH [tag] 38\t\t\tfunction updateOrderStatus(uin...\n      SWAP2 \t\t\tfunction updateOrderStatus(uin...\n      SWAP1 \t\t\tfunction updateOrderStatus(uin...\n      PUSH [tag] 39\t\t\tfunction updateOrderStatus(uin...\n      JUMP [in]\t\t\tfunction updateOrderStatus(uin...\n    tag 38\t\t\tfunction updateOrderStatus(uin...\n      JUMPDEST \t\t\tfunction updateOrderStatus(uin...\n      PUSH [tag] 40\t\t\tfunction updateOrderStatus(uin...\n      JUMP [in]\t\t\tfunction updateOrderStatus(uin...\n    tag 37\t\t\tfunction updateOrderStatus(uin...\n      JUMPDEST \t\t\tfunction updateOrderStatus(uin...\n      STOP \t\t\tfunction updateOrderStatus(uin...\n    tag 8\t\t\tfunction getOrder(uint256 _ord...\n      JUMPDEST \t\t\tfunction getOrder(uint256 _ord...\n      CALLVALUE \t\t\tfunction getOrder(uint256 _ord...\n      DUP1 \t\t\tfunction getOrder(uint256 _ord...\n      ISZERO \t\t\tfunction getOrder(uint256 _ord...\n      PUSH [tag] 41\t\t\tfunction getOrder(uint256 _ord...\n      JUMPI \t\t\tfunction getOrder(uint256 _ord...\n      PUSH 0\t\t\tfunction getOrder(uint256 _ord...\n      DUP1 \t\t\tfunction getOrder(uint256 _ord...\n      REVERT \t\t\tfunction getOrder(uint256 _ord...\n    tag 41\t\t\tfunction getOrder(uint256 _ord...\n      JUMPDEST \t\t\tfunction getOrder(uint256 _ord...\n      POP \t\t\tfunction getOrder(uint256 _ord...\n      PUSH [tag] 42\t\t\tfunction getOrder(uint256 _ord...\n      PUSH 4\t\t\tfunction getOrder(uint256 _ord...\n      DUP1 \t\t\tfunction getOrder(uint256 _ord...\n      CALLDATASIZE \t\t\tfunction getOrder(uint256 _ord...\n      SUB \t\t\tfunction getOrder(uint256 _ord...\n      DUP2 \t\t\tfunction getOrder(uint256 _ord...\n      ADD \t\t\tfunction getOrder(uint256 _ord...\n      SWAP1 \t\t\tfunction getOrder(uint256 _ord...\n      PUSH [tag] 43\t\t\tfunction getOrder(uint256 _ord...\n      SWAP2 \t\t\tfunction getOrder(uint256 _ord...\n      SWAP1 \t\t\tfunction getOrder(uint256 _ord...\n      PUSH [tag] 32\t\t\tfunction getOrder(uint256 _ord...\n      JUMP [in]\t\t\tfunction getOrder(uint256 _ord...\n    tag 43\t\t\tfunction getOrder(uint256 _ord...\n      JUMPDEST \t\t\tfunction getOrder(uint256 _ord...\n      PUSH [tag] 44\t\t\tfunction getOrder(uint256 _ord...\n      JUMP [in]\t\t\tfunction getOrder(uint256 _ord...\n    tag 42\t\t\tfunction getOrder(uint256 _ord...\n      JUMPDEST \t\t\tfunction getOrder(uint256 _ord...\n      PUSH 40\t\t\tfunction getOrder(uint256 _ord...\n      MLOAD \t\t\tfunction getOrder(uint256 _ord...\n      PUSH [tag] 45\t\t\tfunction getOrder(uint256 _ord...\n      SWAP2 \t\t\tfunction getOrder(uint256 _ord...\n      SWAP1 \t\t\tfunction getOrder(uint256 _ord...\n      PUSH [tag] 46\t\t\tfunction getOrder(uint256 _ord...\n      JUMP [in]\t\t\tfunction getOrder(uint256 _ord...\n    tag 45\t\t\tfunction getOrder(uint256 _ord...\n      JUMPDEST \t\t\tfunction getOrder(uint256 _ord...\n      PUSH 40\t\t\tfunction getOrder(uint256 _ord...\n      MLOAD \t\t\tfunction getOrder(uint256 _ord...\n      DUP1 \t\t\tfunction getOrder(uint256 _ord...\n      SWAP2 \t\t\tfunction getOrder(uint256 _ord...\n      SUB \t\t\tfunction getOrder(uint256 _ord...\n      SWAP1 \t\t\tfunction getOrder(uint256 _ord...\n      RETURN \t\t\tfunction getOrder(uint256 _ord...\n    tag 12\t\t\tuint256 public orderCount\n      JUMPDEST \t\t\tuint256 public orderCount\n      PUSH 2\t\t\tuint256 public orderCount\n      SLOAD \t\t\tuint256 public orderCount\n      DUP2 \t\t\tuint256 public orderCount\n      JUMP [out]\t\t\tuint256 public orderCount\n    tag 17\t\t\taddress public owner\n      JUMPDEST \t\t\taddress public owner\n      PUSH 0\t\t\taddress public owner\n      DUP1 \t\t\taddress public owner\n      SLOAD \t\t\taddress public owner\n      SWAP1 \t\t\taddress public owner\n      PUSH 100\t\t\taddress public owner\n      EXP \t\t\taddress public owner\n      SWAP1 \t\t\taddress public owner\n      DIV \t\t\taddress public owner\n      PUSH FFFFFFFFFFFFFFFFFFFFFFFFFFFFFFFFFFFFFFFF\t\t\taddress public owner\n      AND \t\t\taddress public owner\n      DUP2 \t\t\taddress public owner\n      JUMP [out]\t\t\taddress public owner\n    tag 22\t\t\tItemRegistry public immutable ...\n      JUMPDEST \t\t\tItemRegistry public immutable ...\n      PUSHIMMUTABLE 297\t\t\tItemRegistry public immutable ...\n      DUP2 \t\t\tItemRegistry public immutable ...\n      JUMP [out]\t\t\tItemRegistry public immutable ...\n    tag 28\t\t\tfunction placeOrder(string mem...\n      JUMPDEST \t\t\tfunction placeOrder(string mem...\n      PUSH 0\t\t\t0\n      DUP2 \t\t\t_quantity\n      GT \t\t\t_quantity > 0\n      PUSH [tag] 48\t\t\trequire(_quantity > 0, \"Quanti...\n      JUMPI \t\t\trequire(_quantity > 0, \"Quanti...\n      PUSH 40\t\t\trequire(_quantity > 0, \"Quanti...\n      MLOAD \t\t\trequire(_quantity > 0, \"Quanti...\n      PUSH 8C379A000000000000000000000000000000000000000000000000000000000\t\t\trequire(_quantity > 0, \"Quanti...\n      DUP2 \t\t\trequire(_quantity > 0, \"Quanti...\n      MSTORE \t\t\trequire(_quantity > 0, \"Quanti...\n      PUSH 4\t\t\trequire(_quantity > 0, \"Quanti...\n      ADD \t\t\trequire(_quantity > 0, \"Quanti...\n      PUSH [tag] 49\t\t\trequire(_quantity > 0, \"Quanti...\n      SWAP1 \t\t\trequire(_quantity > 0, \"Quanti...\n      PUSH [tag] 50\t\t\trequire(_quantity > 0, \"Quanti...\n      JUMP [in]\t\t\trequire(_quantity > 0, \"Quanti...\n    tag 49\t\t\trequire(_quantity > 0, \"Quanti...\n      JUMPDEST \t\t\trequire(_quantity > 0, \"Quanti...\n      PUSH 40\t\t\trequire(_quantity > 0, \"Quanti...\n      MLOAD \t\t\trequire(_quantity > 0, \"Quanti...\n      DUP1 \t\t\trequire(_quantity > 0, \"Quanti...\n      SWAP2 \t\t\trequire(_quantity > 0, \"Quanti...\n      SUB \t\t\trequire(_quantity > 0, \"Quanti...\n      SWAP1 \t\t\trequire(_quantity > 0, \"Quanti...\n      REVERT \t\t\trequire(_quantity > 0, \"Quanti...\n    tag 48\t\t\trequire(_quantity > 0, \"Quanti...\n      JUMPDEST \t\t\trequire(_quantity > 0, \"Quanti...\n      PUSH 0\t\t\t0\n      CALLVALUE \t\t\tmsg.value\n      GT \t\t\tmsg.value > 0\n      PUSH [tag] 51\t\t\trequire(msg.value > 0, \"Paymen...\n      JUMPI \t\t\trequire(msg.value > 0, \"Paymen...\n      PUSH 40\t\t\trequire(msg.value > 0, \"Paymen...\n      MLOAD \t\t\trequire(msg.value > 0, \"Paymen...\n      PUSH 8C379A000000000000000000000000000000000000000000000000000000000\t\t\trequire(msg.value > 0, \"Paymen...\n      DUP2 \t\t\trequire(msg.value > 0, \"Paymen...\n      MSTORE \t\t\trequire(msg.value > 0, \"Paymen...\n      PUSH 4\t\t\trequire(msg.value > 0, \"Paymen...\n      ADD \t\t\trequire(msg.value > 0, \"Paymen...\n      PUSH [tag] 52\t\t\trequire(msg.value > 0, \"Paymen...\n      SWAP1 \t\t\trequire(msg.value > 0, \"Paymen...\n      PUSH [tag] 53\t\t\trequire(msg.value > 0, \"Paymen...\n      JUMP [in]\t\t\trequire(msg.value > 0, \"Paymen...\n    tag 52\t\t\trequire(msg.value > 0, \"Paymen...\n      JUMPDEST \t\t\trequire(msg.value > 0, \"Paymen...\n      PUSH 40\t\t\trequire(msg.value > 0, \"Paymen...\n      MLOAD \t\t\trequire(msg.value > 0, \"Paymen...\n      DUP1 \t\t\trequire(msg.value > 0, \"Paymen...\n      SWAP2 \t\t\trequire(msg.value > 0, \"Paymen...\n      SUB \t\t\trequire(msg.value > 0, \"Paymen...\n      SWAP1 \t\t\trequire(msg.value > 0, \"Paymen...\n      REVERT \t\t\trequire(msg.value > 0, \"Paymen...\n    tag 51\t\t\trequire(msg.value > 0, \"Paymen...\n      JUMPDEST \t\t\trequire(msg.value > 0, \"Paymen...\n      PUSH 0\t\t\tuint256 itemId\n      PUSHIMMUTABLE 297\t\t\titemRegistry\n      PUSH FFFFFFFFFFFFFFFFFFFFFFFFFFFFFFFFFFFFFFFF\t\t\titemRegistry.getItemIdByName\n      AND \t\t\titemRegistry.getItemIdByName\n      PUSH 2F4E3FAA\t\t\titemRegistry.getItemIdByName\n      DUP5 \t\t\t_itemName\n      PUSH 40\t\t\titemRegistry.getItemIdByName(_...\n      MLOAD \t\t\titemRegistry.getItemIdByName(_...\n      DUP3 \t\t\titemRegistry.getItemIdByName(_...\n      PUSH FFFFFFFF\t\t\titemRegistry.getItemIdByName(_...\n      AND \t\t\titemRegistry.getItemIdByName(_...\n      PUSH E0\t\t\titemRegistry.getItemIdByName(_...\n      SHL \t\t\titemRegistry.getItemIdByName(_...\n      DUP2 \t\t\titemRegistry.getItemIdByName(_...\n      MSTORE \t\t\titemRegistry.getItemIdByName(_...\n      PUSH 4\t\t\titemRegistry.getItemIdByName(_...\n      ADD \t\t\titemRegistry.getItemIdByName(_...\n      PUSH [tag] 54\t\t\titemRegistry.getItemIdByName(_...\n      SWAP2 \t\t\titemRegistry.getItemIdByName(_...\n      SWAP1 \t\t\titemRegistry.getItemIdByName(_...\n      PUSH [tag] 55\t\t\titemRegistry.getItemIdByName(_...\n      JUMP [in]\t\t\titemRegistry.getItemIdByName(_...\n    tag 54\t\t\titemRegistry.getItemIdByName(_...\n      JUMPDEST \t\t\titemRegistry.getItemIdByName(_...\n      PUSH 20\t\t\titemRegistry.getItemIdByName(_...\n      PUSH 40\t\t\titemRegistry.getItemIdByName(_...\n      MLOAD \t\t\titemRegistry.getItemIdByName(_...\n      DUP1 \t\t\titemRegistry.getItemIdByName(_...\n      DUP4 \t\t\titemRegistry.getItemIdByName(_...\n      SUB \t\t\titemRegistry.getItemIdByName(_...\n      DUP2 \t\t\titemRegistry.getItemIdByName(_...\n      DUP7 \t\t\titemRegistry.getItemIdByName(_...\n      DUP1 \t\t\titemRegistry.getItemIdByName(_...\n      EXTCODESIZE \t\t\titemRegistry.getItemIdByName(_...\n      ISZERO \t\t\titemRegistry.getItemIdByName(_...\n      DUP1 \t\t\titemRegistry.getItemIdByName(_...\n      ISZERO \t\t\titemRegistry.getItemIdByName(_...\n      PUSH [tag] 56\t\t\titemRegistry.getItemIdByName(_...\n      JUMPI \t\t\titemRegistry.getItemIdByName(_...\n      PUSH 0\t\t\titemRegistry.getItemIdByName(_...\n      DUP1 \t\t\titemRegistry.getItemIdByName(_...\n      REVERT \t\t\titemRegistry.getItemIdByName(_...\n    tag 56\t\t\titemRegistry.getItemIdByName(_...\n      JUMPDEST \t\t\titemRegistry.getItemIdByName(_...\n      POP \t\t\titemRegistry.getItemIdByName(_...\n      GAS \t\t\titemRegistry.getItemIdByName(_...\n      STATICCALL \t\t\titemRegistry.getItemIdByName(_...\n      ISZERO \t\t\titemRegistry.getItemIdByName(_...\n      DUP1 \t\t\titemRegistry.getItemIdByName(_...\n      ISZERO \t\t\titemRegistry.getItemIdByName(_...\n      PUSH [tag] 58\t\t\titemRegistry.getItemIdByName(_...\n      JUMPI \t\t\titemRegistry.getItemIdByName(_...\n      RETURNDATASIZE \t\t\titemRegistry.getItemIdByName(_...\n      PUSH 0\t\t\titemRegistry.getItemIdByName(_...\n      DUP1 \t\t\titemRegistry.getItemIdByName(_...\n      RETURNDATACOPY \t\t\titemRegistry.getItemIdByName(_...\n      RETURNDATASIZE \t\t\titemRegistry.getItemIdByName(_...\n      PUSH 0\t\t\titemRegistry.getItemIdByName(_...\n      REVERT \t\t\titemRegistry.getItemIdByName(_...\n    tag 58\t\t\titemRegistry.getItemIdByName(_...\n      JUMPDEST \t\t\titemRegistry.getItemIdByName(_...\n      POP \t\t\titemRegistry.getItemIdByName(_...\n      POP \t\t\titemRegistry.getItemIdByName(_...\n      POP \t\t\titemRegistry.getItemIdByName(_...\n      POP \t\t\titemRegistry.getItemIdByName(_...\n      PUSH 40\t\t\titemRegistry.getItemIdByName(_...\n      MLOAD \t\t\titemRegistry.getItemIdByName(_...\n      RETURNDATASIZE \t\t\titemRegistry.getItemIdByName(_...\n      PUSH 1F\t\t\titemRegistry.getItemIdByName(_...\n      NOT \t\t\titemRegistry.getItemIdByName(_...\n      PUSH 1F\t\t\titemRegistry.getItemIdByName(_...\n      DUP3 \t\t\titemRegistry.getItemIdByName(_...\n      ADD \t\t\titemRegistry.getItemIdByName(_...\n      AND \t\t\titemRegistry.getItemIdByName(_...\n      DUP3 \t\t\titemRegistry.getItemIdByName(_...\n      ADD \t\t\titemRegistry.getItemIdByName(_...\n      DUP1 \t\t\titemRegistry.getItemIdByName(_...\n      PUSH 40\t\t\titemRegistry.getItemIdByName(_...\n      MSTORE \t\t\titemRegistry.getItemIdByName(_...\n      POP \t\t\titemRegistry.getItemIdByName(_...\n      DUP2 \t\t\titemRegistry.getItemIdByName(_...\n      ADD \t\t\titemRegistry.getItemIdByName(_...\n      SWAP1 \t\t\titemRegistry.getItemIdByName(_...\n      PUSH [tag] 59\t\t\titemRegistry.getItemIdByName(_...\n      SWAP2 \t\t\titemRegistry.getItemIdByName(_...\n      SWAP1 \t\t\titemRegistry.getItemIdByName(_...\n      PUSH [tag] 60\t\t\titemRegistry.getItemIdByName(_...\n      JUMP [in]\t\t\titemRegistry.getItemIdByName(_...\n    tag 59\t\t\titemRegistry.getItemIdByName(_...\n      JUMPDEST \t\t\titemRegistry.getItemIdByName(_...\n      SWAP1 \t\t\tuint256 itemId = itemRegistry....\n      POP \t\t\tuint256 itemId = itemRegistry....\n      PUSH 0\t\t\t0\n      DUP2 \t\t\titemId\n      GT \t\t\titemId > 0\n      PUSH [tag] 61\t\t\trequire(itemId > 0, \"Invalid i...\n      JUMPI \t\t\trequire(itemId > 0, \"Invalid i...\n      PUSH 40\t\t\trequire(itemId > 0, \"Invalid i...\n      MLOAD \t\t\trequire(itemId > 0, \"Invalid i...\n      PUSH 8C379A000000000000000000000000000000000000000000000000000000000\t\t\trequire(itemId > 0, \"Invalid i...\n      DUP2 \t\t\trequire(itemId > 0, \"Invalid i...\n      MSTORE \t\t\trequire(itemId > 0, \"Invalid i...\n      PUSH 4\t\t\trequire(itemId > 0, \"Invalid i...\n      ADD \t\t\trequire(itemId > 0, \"Invalid i...\n      PUSH [tag] 62\t\t\trequire(itemId > 0, \"Invalid i...\n      SWAP1 \t\t\trequire(itemId > 0, \"Invalid i...\n      PUSH [tag] 63\t\t\trequire(itemId > 0, \"Invalid i...\n      JUMP [in]\t\t\trequire(itemId > 0, \"Invalid i...\n    tag 62\t\t\trequire(itemId > 0, \"Invalid i...\n      JUMPDEST \t\t\trequire(itemId > 0, \"Invalid i...\n      PUSH 40\t\t\trequire(itemId > 0, \"Invalid i...\n      MLOAD \t\t\trequire(itemId > 0, \"Invalid i...\n      DUP1 \t\t\trequire(itemId > 0, \"Invalid i...\n      SWAP2 \t\t\trequire(itemId > 0, \"Invalid i...\n      SUB \t\t\trequire(itemId > 0, \"Invalid i...\n      SWAP1 \t\t\trequire(itemId > 0, \"Invalid i...\n      REVERT \t\t\trequire(itemId > 0, \"Invalid i...\n    tag 61\t\t\trequire(itemId > 0, \"Invalid i...\n      JUMPDEST \t\t\trequire(itemId > 0, \"Invalid i...\n      PUSH 0\t\t\tuint256 itemPrice\n      PUSHIMMUTABLE 297\t\t\titemRegistry\n      PUSH FFFFFFFFFFFFFFFFFFFFFFFFFFFFFFFFFFFFFFFF\t\t\titemRegistry.getItemData\n      AND \t\t\titemRegistry.getItemData\n      PUSH 8BC6976E\t\t\titemRegistry.getItemData\n      DUP4 \t\t\titemId\n      PUSH 40\t\t\titemRegistry.getItemData(itemI...\n      MLOAD \t\t\titemRegistry.getItemData(itemI...\n      DUP3 \t\t\titemRegistry.getItemData(itemI...\n      PUSH FFFFFFFF\t\t\titemRegistry.getItemData(itemI...\n      AND \t\t\titemRegistry.getItemData(itemI...\n      PUSH E0\t\t\titemRegistry.getItemData(itemI...\n      SHL \t\t\titemRegistry.getItemData(itemI...\n      DUP2 \t\t\titemRegistry.getItemData(itemI...\n      MSTORE \t\t\titemRegistry.getItemData(itemI...\n      PUSH 4\t\t\titemRegistry.getItemData(itemI...\n      ADD \t\t\titemRegistry.getItemData(itemI...\n      PUSH [tag] 64\t\t\titemRegistry.getItemData(itemI...\n      SWAP2 \t\t\titemRegistry.getItemData(itemI...\n      SWAP1 \t\t\titemRegistry.getItemData(itemI...\n      PUSH [tag] 14\t\t\titemRegistry.getItemData(itemI...\n      JUMP [in]\t\t\titemRegistry.getItemData(itemI...\n    tag 64\t\t\titemRegistry.getItemData(itemI...\n      JUMPDEST \t\t\titemRegistry.getItemData(itemI...\n      PUSH 0\t\t\titemRegistry.getItemData(itemI...\n      PUSH 40\t\t\titemRegistry.getItemData(itemI...\n      MLOAD \t\t\titemRegistry.getItemData(itemI...\n      DUP1 \t\t\titemRegistry.getItemData(itemI...\n      DUP4 \t\t\titemRegistry.getItemData(itemI...\n      SUB \t\t\titemRegistry.getItemData(itemI...\n      DUP2 \t\t\titemRegistry.getItemData(itemI...\n      DUP7 \t\t\titemRegistry.getItemData(itemI...\n      DUP1 \t\t\titemRegistry.getItemData(itemI...\n      EXTCODESIZE \t\t\titemRegistry.getItemData(itemI...\n      ISZERO \t\t\titemRegistry.getItemData(itemI...\n      DUP1 \t\t\titemRegistry.getItemData(itemI...\n      ISZERO \t\t\titemRegistry.getItemData(itemI...\n      PUSH [tag] 65\t\t\titemRegistry.getItemData(itemI...\n      JUMPI \t\t\titemRegistry.getItemData(itemI...\n      PUSH 0\t\t\titemRegistry.getItemData(itemI...\n      DUP1 \t\t\titemRegistry.getItemData(itemI...\n      REVERT \t\t\titemRegistry.getItemData(itemI...\n    tag 65\t\t\titemRegistry.getItemData(itemI...\n      JUMPDEST \t\t\titemRegistry.getItemData(itemI...\n      POP \t\t\titemRegistry.getItemData(itemI...\n      GAS \t\t\titemRegistry.getItemData(itemI...\n      STATICCALL \t\t\titemRegistry.getItemData(itemI...\n      ISZERO \t\t\titemRegistry.getItemData(itemI...\n      DUP1 \t\t\titemRegistry.getItemData(itemI...\n      ISZERO \t\t\titemRegistry.getItemData(itemI...\n      PUSH [tag] 67\t\t\titemRegistry.getItemData(itemI...\n      JUMPI \t\t\titemRegistry.getItemData(itemI...\n      RETURNDATASIZE \t\t\titemRegistry.getItemData(itemI...\n      PUSH 0\t\t\titemRegistry.getItemData(itemI...\n      DUP1 \t\t\titemRegistry.getItemData(itemI...\n      RETURNDATACOPY \t\t\titemRegistry.getItemData(itemI...\n      RETURNDATASIZE \t\t\titemRegistry.getItemData(itemI...\n      PUSH 0\t\t\titemRegistry.getItemData(itemI...\n      REVERT \t\t\titemRegistry.getItemData(itemI...\n    tag 67\t\t\titemRegistry.getItemData(itemI...\n      JUMPDEST \t\t\titemRegistry.getItemData(itemI...\n      POP \t\t\titemRegistry.getItemData(itemI...\n      POP \t\t\titemRegistry.getItemData(itemI...\n      POP \t\t\titemRegistry.getItemData(itemI...\n      POP \t\t\titemRegistry.getItemData(itemI...\n      PUSH 40\t\t\titemRegistry.getItemData(itemI...\n      MLOAD \t\t\titemRegistry.getItemData(itemI...\n      RETURNDATASIZE \t\t\titemRegistry.getItemData(itemI...\n      PUSH 0\t\t\titemRegistry.getItemData(itemI...\n      DUP3 \t\t\titemRegistry.getItemData(itemI...\n      RETURNDATACOPY \t\t\titemRegistry.getItemData(itemI...\n      RETURNDATASIZE \t\t\titemRegistry.getItemData(itemI...\n      PUSH 1F\t\t\titemRegistry.getItemData(itemI...\n      NOT \t\t\titemRegistry.getItemData(itemI...\n      PUSH 1F\t\t\titemRegistry.getItemData(itemI...\n      DUP3 \t\t\titemRegistry.getItemData(itemI...\n      ADD \t\t\titemRegistry.getItemData(itemI...\n      AND \t\t\titemRegistry.getItemData(itemI...\n      DUP3 \t\t\titemRegistry.getItemData(itemI...\n      ADD \t\t\titemRegistry.getItemData(itemI...\n      DUP1 \t\t\titemRegistry.getItemData(itemI...\n      PUSH 40\t\t\titemRegistry.getItemData(itemI...\n      MSTORE \t\t\titemRegistry.getItemData(itemI...\n      POP \t\t\titemRegistry.getItemData(itemI...\n      DUP2 \t\t\titemRegistry.getItemData(itemI...\n      ADD \t\t\titemRegistry.getItemData(itemI...\n      SWAP1 \t\t\titemRegistry.getItemData(itemI...\n      PUSH [tag] 68\t\t\titemRegistry.getItemData(itemI...\n      SWAP2 \t\t\titemRegistry.getItemData(itemI...\n      SWAP1 \t\t\titemRegistry.getItemData(itemI...\n      PUSH [tag] 69\t\t\titemRegistry.getItemData(itemI...\n      JUMP [in]\t\t\titemRegistry.getItemData(itemI...\n    tag 68\t\t\titemRegistry.getItemData(itemI...\n      JUMPDEST \t\t\titemRegistry.getItemData(itemI...\n      SWAP3 \t\t\t(, , uint256 itemPrice) = item...\n      POP \t\t\t(, , uint256 itemPrice) = item...\n      POP \t\t\t(, , uint256 itemPrice) = item...\n      POP \t\t\t(, , uint256 itemPrice) = item...\n      PUSH 0\t\t\tuint256 totalAmount\n      DUP4 \t\t\t_quantity\n      DUP3 \t\t\titemPrice\n      PUSH [tag] 70\t\t\titemPrice * _quantity\n      SWAP2 \t\t\titemPrice * _quantity\n      SWAP1 \t\t\titemPrice * _quantity\n      PUSH [tag] 71\t\t\titemPrice * _quantity\n      JUMP [in]\t\t\titemPrice * _quantity\n    tag 70\t\t\titemPrice * _quantity\n      JUMPDEST \t\t\titemPrice * _quantity\n      SWAP1 \t\t\tuint256 totalAmount = itemPric...\n      POP \t\t\tuint256 totalAmount = itemPric...\n      DUP1 \t\t\ttotalAmount\n      CALLVALUE \t\t\tmsg.value\n      LT \t\t\tmsg.value >= totalAmount\n      ISZERO \t\t\tmsg.value >= totalAmount\n      PUSH [tag] 72\t\t\trequire(msg.value >= totalAmou...\n      JUMPI \t\t\trequire(msg.value >= totalAmou...\n      PUSH 40\t\t\trequire(msg.value >= totalAmou...\n      MLOAD \t\t\trequire(msg.value >= totalAmou...\n      PUSH 8C379A000000000000000000000000000000000000000000000000000000000\t\t\trequire(msg.value >= totalAmou...\n      DUP2 \t\t\trequire(msg.value >= totalAmou...\n      MSTORE \t\t\trequire(msg.value >= totalAmou...\n      PUSH 4\t\t\trequire(msg.value >= totalAmou...\n      ADD \t\t\trequire(msg.value >= totalAmou...\n      PUSH [tag] 73\t\t\trequire(msg.value >= totalAmou...\n      SWAP1 \t\t\trequire(msg.value >= totalAmou...\n      PUSH [tag] 74\t\t\trequire(msg.value >= totalAmou...\n      JUMP [in]\t\t\trequire(msg.value >= totalAmou...\n    tag 73\t\t\trequire(msg.value >= totalAmou...\n      JUMPDEST \t\t\trequire(msg.value >= totalAmou...\n      PUSH 40\t\t\trequire(msg.value >= totalAmou...\n      MLOAD \t\t\trequire(msg.value >= totalAmou...\n      DUP1 \t\t\trequire(msg.value >= totalAmou...\n      SWAP2 \t\t\trequire(msg.value >= totalAmou...\n      SUB \t\t\trequire(msg.value >= totalAmou...\n      SWAP1 \t\t\trequire(msg.value >= totalAmou...\n      REVERT \t\t\trequire(msg.value >= totalAmou...\n    tag 72\t\t\trequire(msg.value >= totalAmou...\n      JUMPDEST \t\t\trequire(msg.value >= totalAmou...\n      PUSH 2\t\t\torderCount\n      PUSH 0\t\t\torderCount\n      DUP2 \t\t\torderCount++\n      SLOAD \t\t\torderCount++\n      DUP1 \t\t\torderCount++\n      SWAP3 \t\t\torderCount++\n      SWAP2 \t\t\torderCount++\n      SWAP1 \t\t\torderCount++\n      PUSH [tag] 75\t\t\torderCount++\n      SWAP1 \t\t\torderCount++\n      PUSH [tag] 76\t\t\torderCount++\n      JUMP [in]\t\t\torderCount++\n    tag 75\t\t\torderCount++\n      JUMPDEST \t\t\torderCount++\n      SWAP2 \t\t\torderCount++\n      SWAP1 \t\t\torderCount++\n      POP \t\t\torderCount++\n      SSTORE \t\t\torderCount++\n      POP \t\t\torderCount++\n      PUSH 40\t\t\tOrder({\\n            orderId: ...\n      MLOAD \t\t\tOrder({\\n            orderId: ...\n      DUP1 \t\t\tOrder({\\n            orderId: ...\n      PUSH C0\t\t\tOrder({\\n            orderId: ...\n      ADD \t\t\tOrder({\\n            orderId: ...\n      PUSH 40\t\t\tOrder({\\n            orderId: ...\n      MSTORE \t\t\tOrder({\\n            orderId: ...\n      DUP1 \t\t\tOrder({\\n            orderId: ...\n      PUSH 2\t\t\torderCount\n      SLOAD \t\t\torderCount\n      DUP2 \t\t\tOrder({\\n            orderId: ...\n      MSTORE \t\t\tOrder({\\n            orderId: ...\n      PUSH 20\t\t\tOrder({\\n            orderId: ...\n      ADD \t\t\tOrder({\\n            orderId: ...\n      CALLER \t\t\tmsg.sender\n      PUSH FFFFFFFFFFFFFFFFFFFFFFFFFFFFFFFFFFFFFFFF\t\t\tOrder({\\n            orderId: ...\n      AND \t\t\tOrder({\\n            orderId: ...\n      DUP2 \t\t\tOrder({\\n            orderId: ...\n      MSTORE \t\t\tOrder({\\n            orderId: ...\n      PUSH 20\t\t\tOrder({\\n            orderId: ...\n      ADD \t\t\tOrder({\\n            orderId: ...\n      DUP5 \t\t\titemId\n      DUP2 \t\t\tOrder({\\n            orderId: ...\n      MSTORE \t\t\tOrder({\\n            orderId: ...\n      PUSH 20\t\t\tOrder({\\n            orderId: ...\n      ADD \t\t\tOrder({\\n            orderId: ...\n      DUP6 \t\t\t_quantity\n      DUP2 \t\t\tOrder({\\n            orderId: ...\n      MSTORE \t\t\tOrder({\\n            orderId: ...\n      PUSH 20\t\t\tOrder({\\n            orderId: ...\n      ADD \t\t\tOrder({\\n            orderId: ...\n      DUP3 \t\t\ttotalAmount\n      DUP2 \t\t\tOrder({\\n            orderId: ...\n      MSTORE \t\t\tOrder({\\n            orderId: ...\n      PUSH 20\t\t\tOrder({\\n            orderId: ...\n      ADD \t\t\tOrder({\\n            orderId: ...\n      PUSH 0\t\t\tOrderStatus.Pending\n      PUSH 3\t\t\tOrder({\\n            orderId: ...\n      DUP2 \t\t\tOrder({\\n            orderId: ...\n      GT \t\t\tOrder({\\n            orderId: ...\n      ISZERO \t\t\tOrder({\\n            orderId: ...\n      PUSH [tag] 77\t\t\tOrder({\\n            orderId: ...\n      JUMPI \t\t\tOrder({\\n            orderId: ...\n      PUSH 4E487B7100000000000000000000000000000000000000000000000000000000\t\t\tOrder({\\n            orderId: ...\n      PUSH 0\t\t\tOrder({\\n            orderId: ...\n      MSTORE \t\t\tOrder({\\n            orderId: ...\n      PUSH 21\t\t\tOrder({\\n            orderId: ...\n      PUSH 4\t\t\tOrder({\\n            orderId: ...\n      MSTORE \t\t\tOrder({\\n            orderId: ...\n      PUSH 24\t\t\tOrder({\\n            orderId: ...\n      PUSH 0\t\t\tOrder({\\n            orderId: ...\n      REVERT \t\t\tOrder({\\n            orderId: ...\n    tag 77\t\t\tOrder({\\n            orderId: ...\n      JUMPDEST \t\t\tOrder({\\n            orderId: ...\n      DUP2 \t\t\tOrder({\\n            orderId: ...\n      MSTORE \t\t\tOrder({\\n            orderId: ...\n      POP \t\t\tOrder({\\n            orderId: ...\n      PUSH 1\t\t\torders\n      PUSH 0\t\t\torders[orderCount]\n      PUSH 2\t\t\torderCount\n      SLOAD \t\t\torderCount\n      DUP2 \t\t\torders[orderCount]\n      MSTORE \t\t\torders[orderCount]\n      PUSH 20\t\t\torders[orderCount]\n      ADD \t\t\torders[orderCount]\n      SWAP1 \t\t\torders[orderCount]\n      DUP2 \t\t\torders[orderCount]\n      MSTORE \t\t\torders[orderCount]\n      PUSH 20\t\t\torders[orderCount]\n      ADD \t\t\torders[orderCount]\n      PUSH 0\t\t\torders[orderCount]\n      KECCAK256 \t\t\torders[orderCount]\n      PUSH 0\t\t\torders[orderCount] = Order({\\n...\n      DUP3 \t\t\torders[orderCount] = Order({\\n...\n      ADD \t\t\torders[orderCount] = Order({\\n...\n      MLOAD \t\t\torders[orderCount] = Order({\\n...\n      DUP2 \t\t\torders[orderCount] = Order({\\n...\n      PUSH 0\t\t\torders[orderCount] = Order({\\n...\n      ADD \t\t\torders[orderCount] = Order({\\n...\n      SSTORE \t\t\torders[orderCount] = Order({\\n...\n      PUSH 20\t\t\torders[orderCount] = Order({\\n...\n      DUP3 \t\t\torders[orderCount] = Order({\\n...\n      ADD \t\t\torders[orderCount] = Order({\\n...\n      MLOAD \t\t\torders[orderCount] = Order({\\n...\n      DUP2 \t\t\torders[orderCount] = Order({\\n...\n      PUSH 1\t\t\torders[orderCount] = Order({\\n...\n      ADD \t\t\torders[orderCount] = Order({\\n...\n      PUSH 0\t\t\torders[orderCount] = Order({\\n...\n      PUSH 100\t\t\torders[orderCount] = Order({\\n...\n      EXP \t\t\torders[orderCount] = Order({\\n...\n      DUP2 \t\t\torders[orderCount] = Order({\\n...\n      SLOAD \t\t\torders[orderCount] = Order({\\n...\n      DUP2 \t\t\torders[orderCount] = Order({\\n...\n      PUSH FFFFFFFFFFFFFFFFFFFFFFFFFFFFFFFFFFFFFFFF\t\t\torders[orderCount] = Order({\\n...\n      MUL \t\t\torders[orderCount] = Order({\\n...\n      NOT \t\t\torders[orderCount] = Order({\\n...\n      AND \t\t\torders[orderCount] = Order({\\n...\n      SWAP1 \t\t\torders[orderCount] = Order({\\n...\n      DUP4 \t\t\torders[orderCount] = Order({\\n...\n      PUSH FFFFFFFFFFFFFFFFFFFFFFFFFFFFFFFFFFFFFFFF\t\t\torders[orderCount] = Order({\\n...\n      AND \t\t\torders[orderCount] = Order({\\n...\n      MUL \t\t\torders[orderCount] = Order({\\n...\n      OR \t\t\torders[orderCount] = Order({\\n...\n      SWAP1 \t\t\torders[orderCount] = Order({\\n...\n      SSTORE \t\t\torders[orderCount] = Order({\\n...\n      POP \t\t\torders[orderCount] = Order({\\n...\n      PUSH 40\t\t\torders[orderCount] = Order({\\n...\n      DUP3 \t\t\torders[orderCount] = Order({\\n...\n      ADD \t\t\torders[orderCount] = Order({\\n...\n      MLOAD \t\t\torders[orderCount] = Order({\\n...\n      DUP2 \t\t\torders[orderCount] = Order({\\n...\n      PUSH 2\t\t\torders[orderCount] = Order({\\n...\n      ADD \t\t\torders[orderCount] = Order({\\n...\n      SSTORE \t\t\torders[orderCount] = Order({\\n...\n      PUSH 60\t\t\torders[orderCount] = Order({\\n...\n      DUP3 \t\t\torders[orderCount] = Order({\\n...\n      ADD \t\t\torders[orderCount] = Order({\\n...\n      MLOAD \t\t\torders[orderCount] = Order({\\n...\n      DUP2 \t\t\torders[orderCount] = Order({\\n...\n      PUSH 3\t\t\torders[orderCount] = Order({\\n...\n      ADD \t\t\torders[orderCount] = Order({\\n...\n      SSTORE \t\t\torders[orderCount] = Order({\\n...\n      PUSH 80\t\t\torders[orderCount] = Order({\\n...\n      DUP3 \t\t\torders[orderCount] = Order({\\n...\n      ADD \t\t\torders[orderCount] = Order({\\n...\n      MLOAD \t\t\torders[orderCount] = Order({\\n...\n      DUP2 \t\t\torders[orderCount] = Order({\\n...\n      PUSH 4\t\t\torders[orderCount] = Order({\\n...\n      ADD \t\t\torders[orderCount] = Order({\\n...\n      SSTORE \t\t\torders[orderCount] = Order({\\n...\n      PUSH A0\t\t\torders[orderCount] = Order({\\n...\n      DUP3 \t\t\torders[orderCount] = Order({\\n...\n      ADD \t\t\torders[orderCount] = Order({\\n...\n      MLOAD \t\t\torders[orderCount] = Order({\\n...\n      DUP2 \t\t\torders[orderCount] = Order({\\n...\n      PUSH 5\t\t\torders[orderCount] = Order({\\n...\n      ADD \t\t\torders[orderCount] = Order({\\n...\n      PUSH 0\t\t\torders[orderCount] = Order({\\n...\n      PUSH 100\t\t\torders[orderCount] = Order({\\n...\n      EXP \t\t\torders[orderCount] = Order({\\n...\n      DUP2 \t\t\torders[orderCount] = Order({\\n...\n      SLOAD \t\t\torders[orderCount] = Order({\\n...\n      DUP2 \t\t\torders[orderCount] = Order({\\n...\n      PUSH FF\t\t\torders[orderCount] = Order({\\n...\n      MUL \t\t\torders[orderCount] = Order({\\n...\n      NOT \t\t\torders[orderCount] = Order({\\n...\n      AND \t\t\torders[orderCount] = Order({\\n...\n      SWAP1 \t\t\torders[orderCount] = Order({\\n...\n      DUP4 \t\t\torders[orderCount] = Order({\\n...\n      PUSH 3\t\t\torders[orderCount] = Order({\\n...\n      DUP2 \t\t\torders[orderCount] = Order({\\n...\n      GT \t\t\torders[orderCount] = Order({\\n...\n      ISZERO \t\t\torders[orderCount] = Order({\\n...\n      PUSH [tag] 78\t\t\torders[orderCount] = Order({\\n...\n      JUMPI \t\t\torders[orderCount] = Order({\\n...\n      PUSH 4E487B7100000000000000000000000000000000000000000000000000000000\t\t\torders[orderCount] = Order({\\n...\n      PUSH 0\t\t\torders[orderCount] = Order({\\n...\n      MSTORE \t\t\torders[orderCount] = Order({\\n...\n      PUSH 21\t\t\torders[orderCount] = Order({\\n...\n      PUSH 4\t\t\torders[orderCount] = Order({\\n...\n      MSTORE \t\t\torders[orderCount] = Order({\\n...\n      PUSH 24\t\t\torders[orderCount] = Order({\\n...\n      PUSH 0\t\t\torders[orderCount] = Order({\\n...\n      REVERT \t\t\torders[orderCount] = Order({\\n...\n    tag 78\t\t\torders[orderCount] = Order({\\n...\n      JUMPDEST \t\t\torders[orderCount] = Order({\\n...\n      MUL \t\t\torders[orderCount] = Order({\\n...\n      OR \t\t\torders[orderCount] = Order({\\n...\n      SWAP1 \t\t\torders[orderCount] = Order({\\n...\n      SSTORE \t\t\torders[orderCount] = Order({\\n...\n      POP \t\t\torders[orderCount] = Order({\\n...\n      SWAP1 \t\t\torders[orderCount] = Order({\\n...\n      POP \t\t\torders[orderCount] = Order({\\n...\n      POP \t\t\torders[orderCount] = Order({\\n...\n      DUP3 \t\t\titemId\n      CALLER \t\t\tmsg.sender\n      PUSH FFFFFFFFFFFFFFFFFFFFFFFFFFFFFFFFFFFFFFFF\t\t\tOrderPlaced(orderCount, msg.se...\n      AND \t\t\tOrderPlaced(orderCount, msg.se...\n      PUSH 2\t\t\torderCount\n      SLOAD \t\t\torderCount\n      PUSH 5CCC3386DFA567A303C53DCBE08DADFE0A9841FA5A621BC4A466A1DCAEA7911A\t\t\tOrderPlaced(orderCount, msg.se...\n      DUP8 \t\t\t_quantity\n      DUP6 \t\t\ttotalAmount\n      PUSH 0\t\t\tOrderStatus.Pending\n      PUSH 40\t\t\tOrderPlaced(orderCount, msg.se...\n      MLOAD \t\t\tOrderPlaced(orderCount, msg.se...\n      PUSH [tag] 79\t\t\tOrderPlaced(orderCount, msg.se...\n      SWAP4 \t\t\tOrderPlaced(orderCount, msg.se...\n      SWAP3 \t\t\tOrderPlaced(orderCount, msg.se...\n      SWAP2 \t\t\tOrderPlaced(orderCount, msg.se...\n      SWAP1 \t\t\tOrderPlaced(orderCount, msg.se...\n      PUSH [tag] 80\t\t\tOrderPlaced(orderCount, msg.se...\n      JUMP [in]\t\t\tOrderPlaced(orderCount, msg.se...\n    tag 79\t\t\tOrderPlaced(orderCount, msg.se...\n      JUMPDEST \t\t\tOrderPlaced(orderCount, msg.se...\n      PUSH 40\t\t\tOrderPlaced(orderCount, msg.se...\n      MLOAD \t\t\tOrderPlaced(orderCount, msg.se...\n      DUP1 \t\t\tOrderPlaced(orderCount, msg.se...\n      SWAP2 \t\t\tOrderPlaced(orderCount, msg.se...\n      SUB \t\t\tOrderPlaced(orderCount, msg.se...\n      SWAP1 \t\t\tOrderPlaced(orderCount, msg.se...\n      LOG4 \t\t\tOrderPlaced(orderCount, msg.se...\n      POP \t\t\tfunction placeOrder(string mem...\n      POP \t\t\tfunction placeOrder(string mem...\n      POP \t\t\tfunction placeOrder(string mem...\n      POP \t\t\tfunction placeOrder(string mem...\n      POP \t\t\tfunction placeOrder(string mem...\n      JUMP [out]\t\t\tfunction placeOrder(string mem...\n    tag 33\t\t\tmapping(uint256 => Order) publ...\n      JUMPDEST \t\t\tmapping(uint256 => Order) publ...\n      PUSH 1\t\t\tmapping(uint256 => Order) publ...\n      PUSH 20\t\t\tmapping(uint256 => Order) publ...\n      MSTORE \t\t\tmapping(uint256 => Order) publ...\n      DUP1 \t\t\tmapping(uint256 => Order) publ...\n      PUSH 0\t\t\tmapping(uint256 => Order) publ...\n      MSTORE \t\t\tmapping(uint256 => Order) publ...\n      PUSH 40\t\t\tmapping(uint256 => Order) publ...\n      PUSH 0\t\t\tmapping(uint256 => Order) publ...\n      KECCAK256 \t\t\tmapping(uint256 => Order) publ...\n      PUSH 0\t\t\tmapping(uint256 => Order) publ...\n      SWAP2 \t\t\tmapping(uint256 => Order) publ...\n      POP \t\t\tmapping(uint256 => Order) publ...\n      SWAP1 \t\t\tmapping(uint256 => Order) publ...\n      POP \t\t\tmapping(uint256 => Order) publ...\n      DUP1 \t\t\tmapping(uint256 => Order) publ...\n      PUSH 0\t\t\tmapping(uint256 => Order) publ...\n      ADD \t\t\tmapping(uint256 => Order) publ...\n      SLOAD \t\t\tmapping(uint256 => Order) publ...\n      SWAP1 \t\t\tmapping(uint256 => Order) publ...\n      DUP1 \t\t\tmapping(uint256 => Order) publ...\n      PUSH 1\t\t\tmapping(uint256 => Order) publ...\n      ADD \t\t\tmapping(uint256 => Order) publ...\n      PUSH 0\t\t\tmapping(uint256 => Order) publ...\n      SWAP1 \t\t\tmapping(uint256 => Order) publ...\n      SLOAD \t\t\tmapping(uint256 => Order) publ...\n      SWAP1 \t\t\tmapping(uint256 => Order) publ...\n      PUSH 100\t\t\tmapping(uint256 => Order) publ...\n      EXP \t\t\tmapping(uint256 => Order) publ...\n      SWAP1 \t\t\tmapping(uint256 => Order) publ...\n      DIV \t\t\tmapping(uint256 => Order) publ...\n      PUSH FFFFFFFFFFFFFFFFFFFFFFFFFFFFFFFFFFFFFFFF\t\t\tmapping(uint256 => Order) publ...\n      AND \t\t\tmapping(uint256 => Order) publ...\n      SWAP1 \t\t\tmapping(uint256 => Order) publ...\n      DUP1 \t\t\tmapping(uint256 => Order) publ...\n      PUSH 2\t\t\tmapping(uint256 => Order) publ...\n      ADD \t\t\tmapping(uint256 => Order) publ...\n      SLOAD \t\t\tmapping(uint256 => Order) publ...\n      SWAP1 \t\t\tmapping(uint256 => Order) publ...\n      DUP1 \t\t\tmapping(uint256 => Order) publ...\n      PUSH 3\t\t\tmapping(uint256 => Order) publ...\n      ADD \t\t\tmapping(uint256 => Order) publ...\n      SLOAD \t\t\tmapping(uint256 => Order) publ...\n      SWAP1 \t\t\tmapping(uint256 => Order) publ...\n      DUP1 \t\t\tmapping(uint256 => Order) publ...\n      PUSH 4\t\t\tmapping(uint256 => Order) publ...\n      ADD \t\t\tmapping(uint256 => Order) publ...\n      SLOAD \t\t\tmapping(uint256 => Order) publ...\n      SWAP1 \t\t\tmapping(uint256 => Order) publ...\n      DUP1 \t\t\tmapping(uint256 => Order) publ...\n      PUSH 5\t\t\tmapping(uint256 => Order) publ...\n      ADD \t\t\tmapping(uint256 => Order) publ...\n      PUSH 0\t\t\tmapping(uint256 => Order) publ...\n      SWAP1 \t\t\tmapping(uint256 => Order) publ...\n      SLOAD \t\t\tmapping(uint256 => Order) publ...\n      SWAP1 \t\t\tmapping(uint256 => Order) publ...\n      PUSH 100\t\t\tmapping(uint256 => Order) publ...\n      EXP \t\t\tmapping(uint256 => Order) publ...\n      SWAP1 \t\t\tmapping(uint256 => Order) publ...\n      DIV \t\t\tmapping(uint256 => Order) publ...\n      PUSH FF\t\t\tmapping(uint256 => Order) publ...\n      AND \t\t\tmapping(uint256 => Order) publ...\n      SWAP1 \t\t\tmapping(uint256 => Order) publ...\n      POP \t\t\tmapping(uint256 => Order) publ...\n      DUP7 \t\t\tmapping(uint256 => Order) publ...\n      JUMP [out]\t\t\tmapping(uint256 => Order) publ...\n    tag 40\t\t\tfunction updateOrderStatus(uin...\n      JUMPDEST \t\t\tfunction updateOrderStatus(uin...\n      PUSH 0\t\t\towner\n      DUP1 \t\t\towner\n      SLOAD \t\t\towner\n      SWAP1 \t\t\towner\n      PUSH 100\t\t\towner\n      EXP \t\t\towner\n      SWAP1 \t\t\towner\n      DIV \t\t\towner\n      PUSH FFFFFFFFFFFFFFFFFFFFFFFFFFFFFFFFFFFFFFFF\t\t\towner\n      AND \t\t\towner\n      PUSH FFFFFFFFFFFFFFFFFFFFFFFFFFFFFFFFFFFFFFFF\t\t\tmsg.sender == owner\n      AND \t\t\tmsg.sender == owner\n      CALLER \t\t\tmsg.sender\n      PUSH FFFFFFFFFFFFFFFFFFFFFFFFFFFFFFFFFFFFFFFF\t\t\tmsg.sender == owner\n      AND \t\t\tmsg.sender == owner\n      EQ \t\t\tmsg.sender == owner\n      PUSH [tag] 82\t\t\trequire(msg.sender == owner, \"...\n      JUMPI \t\t\trequire(msg.sender == owner, \"...\n      PUSH 40\t\t\trequire(msg.sender == owner, \"...\n      MLOAD \t\t\trequire(msg.sender == owner, \"...\n      PUSH 8C379A000000000000000000000000000000000000000000000000000000000\t\t\trequire(msg.sender == owner, \"...\n      DUP2 \t\t\trequire(msg.sender == owner, \"...\n      MSTORE \t\t\trequire(msg.sender == owner, \"...\n      PUSH 4\t\t\trequire(msg.sender == owner, \"...\n      ADD \t\t\trequire(msg.sender == owner, \"...\n      PUSH [tag] 83\t\t\trequire(msg.sender == owner, \"...\n      SWAP1 \t\t\trequire(msg.sender == owner, \"...\n      PUSH [tag] 84\t\t\trequire(msg.sender == owner, \"...\n      JUMP [in]\t\t\trequire(msg.sender == owner, \"...\n    tag 83\t\t\trequire(msg.sender == owner, \"...\n      JUMPDEST \t\t\trequire(msg.sender == owner, \"...\n      PUSH 40\t\t\trequire(msg.sender == owner, \"...\n      MLOAD \t\t\trequire(msg.sender == owner, \"...\n      DUP1 \t\t\trequire(msg.sender == owner, \"...\n      SWAP2 \t\t\trequire(msg.sender == owner, \"...\n      SUB \t\t\trequire(msg.sender == owner, \"...\n      SWAP1 \t\t\trequire(msg.sender == owner, \"...\n      REVERT \t\t\trequire(msg.sender == owner, \"...\n    tag 82\t\t\trequire(msg.sender == owner, \"...\n      JUMPDEST \t\t\trequire(msg.sender == owner, \"...\n      PUSH 0\t\t\t0\n      DUP3 \t\t\t_orderId\n      GT \t\t\t_orderId > 0\n      DUP1 \t\t\t_orderId > 0 && _orderId <= or...\n      ISZERO \t\t\t_orderId > 0 && _orderId <= or...\n      PUSH [tag] 86\t\t\t_orderId > 0 && _orderId <= or...\n      JUMPI \t\t\t_orderId > 0 && _orderId <= or...\n      POP \t\t\t_orderId > 0 && _orderId <= or...\n      PUSH 2\t\t\torderCount\n      SLOAD \t\t\torderCount\n      DUP3 \t\t\t_orderId\n      GT \t\t\t_orderId <= orderCount\n      ISZERO \t\t\t_orderId <= orderCount\n    tag 86\t\t\t_orderId > 0 && _orderId <= or...\n      JUMPDEST \t\t\t_orderId > 0 && _orderId <= or...\n      PUSH [tag] 87\t\t\trequire(_orderId > 0 && _order...\n      JUMPI \t\t\trequire(_orderId > 0 && _order...\n      PUSH 40\t\t\trequire(_orderId > 0 && _order...\n      MLOAD \t\t\trequire(_orderId > 0 && _order...\n      PUSH 8C379A000000000000000000000000000000000000000000000000000000000\t\t\trequire(_orderId > 0 && _order...\n      DUP2 \t\t\trequire(_orderId > 0 && _order...\n      MSTORE \t\t\trequire(_orderId > 0 && _order...\n      PUSH 4\t\t\trequire(_orderId > 0 && _order...\n      ADD \t\t\trequire(_orderId > 0 && _order...\n      PUSH [tag] 88\t\t\trequire(_orderId > 0 && _order...\n      SWAP1 \t\t\trequire(_orderId > 0 && _order...\n      PUSH [tag] 89\t\t\trequire(_orderId > 0 && _order...\n      JUMP [in]\t\t\trequire(_orderId > 0 && _order...\n    tag 88\t\t\trequire(_orderId > 0 && _order...\n      JUMPDEST \t\t\trequire(_orderId > 0 && _order...\n      PUSH 40\t\t\trequire(_orderId > 0 && _order...\n      MLOAD \t\t\trequire(_orderId > 0 && _order...\n      DUP1 \t\t\trequire(_orderId > 0 && _order...\n      SWAP2 \t\t\trequire(_orderId > 0 && _order...\n      SUB \t\t\trequire(_orderId > 0 && _order...\n      SWAP1 \t\t\trequire(_orderId > 0 && _order...\n      REVERT \t\t\trequire(_orderId > 0 && _order...\n    tag 87\t\t\trequire(_orderId > 0 && _order...\n      JUMPDEST \t\t\trequire(_orderId > 0 && _order...\n      DUP1 \t\t\t_status\n      PUSH 1\t\t\torders\n      PUSH 0\t\t\torders[_orderId]\n      DUP5 \t\t\t_orderId\n      DUP2 \t\t\torders[_orderId]\n      MSTORE \t\t\torders[_orderId]\n      PUSH 20\t\t\torders[_orderId]\n      ADD \t\t\torders[_orderId]\n      SWAP1 \t\t\torders[_orderId]\n      DUP2 \t\t\torders[_orderId]\n      MSTORE \t\t\torders[_orderId]\n      PUSH 20\t\t\torders[_orderId]\n      ADD \t\t\torders[_orderId]\n      PUSH 0\t\t\torders[_orderId]\n      KECCAK256 \t\t\torders[_orderId]\n      PUSH 5\t\t\torders[_orderId].status\n      ADD \t\t\torders[_orderId].status\n      PUSH 0\t\t\torders[_orderId].status\n      PUSH 100\t\t\torders[_orderId].status = _sta...\n      EXP \t\t\torders[_orderId].status = _sta...\n      DUP2 \t\t\torders[_orderId].status = _sta...\n      SLOAD \t\t\torders[_orderId].status = _sta...\n      DUP2 \t\t\torders[_orderId].status = _sta...\n      PUSH FF\t\t\torders[_orderId].status = _sta...\n      MUL \t\t\torders[_orderId].status = _sta...\n      NOT \t\t\torders[_orderId].status = _sta...\n      AND \t\t\torders[_orderId].status = _sta...\n      SWAP1 \t\t\torders[_orderId].status = _sta...\n      DUP4 \t\t\torders[_orderId].status = _sta...\n      PUSH 3\t\t\torders[_orderId].status = _sta...\n      DUP2 \t\t\torders[_orderId].status = _sta...\n      GT \t\t\torders[_orderId].status = _sta...\n      ISZERO \t\t\torders[_orderId].status = _sta...\n      PUSH [tag] 90\t\t\torders[_orderId].status = _sta...\n      JUMPI \t\t\torders[_orderId].status = _sta...\n      PUSH 4E487B7100000000000000000000000000000000000000000000000000000000\t\t\torders[_orderId].status = _sta...\n      PUSH 0\t\t\torders[_orderId].status = _sta...\n      MSTORE \t\t\torders[_orderId].status = _sta...\n      PUSH 21\t\t\torders[_orderId].status = _sta...\n      PUSH 4\t\t\torders[_orderId].status = _sta...\n      MSTORE \t\t\torders[_orderId].status = _sta...\n      PUSH 24\t\t\torders[_orderId].status = _sta...\n      PUSH 0\t\t\torders[_orderId].status = _sta...\n      REVERT \t\t\torders[_orderId].status = _sta...\n    tag 90\t\t\torders[_orderId].status = _sta...\n      JUMPDEST \t\t\torders[_orderId].status = _sta...\n      MUL \t\t\torders[_orderId].status = _sta...\n      OR \t\t\torders[_orderId].status = _sta...\n      SWAP1 \t\t\torders[_orderId].status = _sta...\n      SSTORE \t\t\torders[_orderId].status = _sta...\n      POP \t\t\torders[_orderId].status = _sta...\n      PUSH D9A86B644EB5F5B43CC8A700849852481080361C7A4B00BA646D1B46C5585F95\t\t\tOrderStatusUpdated(_orderId, _...\n      DUP3 \t\t\t_orderId\n      DUP3 \t\t\t_status\n      PUSH 40\t\t\tOrderStatusUpdated(_orderId, _...\n      MLOAD \t\t\tOrderStatusUpdated(_orderId, _...\n      PUSH [tag] 91\t\t\tOrderStatusUpdated(_orderId, _...\n      SWAP3 \t\t\tOrderStatusUpdated(_orderId, _...\n      SWAP2 \t\t\tOrderStatusUpdated(_orderId, _...\n      SWAP1 \t\t\tOrderStatusUpdated(_orderId, _...\n      PUSH [tag] 92\t\t\tOrderStatusUpdated(_orderId, _...\n      JUMP [in]\t\t\tOrderStatusUpdated(_orderId, _...\n    tag 91\t\t\tOrderStatusUpdated(_orderId, _...\n      JUMPDEST \t\t\tOrderStatusUpdated(_orderId, _...\n      PUSH 40\t\t\tOrderStatusUpdated(_orderId, _...\n      MLOAD \t\t\tOrderStatusUpdated(_orderId, _...\n      DUP1 \t\t\tOrderStatusUpdated(_orderId, _...\n      SWAP2 \t\t\tOrderStatusUpdated(_orderId, _...\n      SUB \t\t\tOrderStatusUpdated(_orderId, _...\n      SWAP1 \t\t\tOrderStatusUpdated(_orderId, _...\n      LOG1 \t\t\tOrderStatusUpdated(_orderId, _...\n      POP \t\t\tfunction updateOrderStatus(uin...\n      POP \t\t\tfunction updateOrderStatus(uin...\n      JUMP [out]\t\t\tfunction updateOrderStatus(uin...\n    tag 44\t\t\tfunction getOrder(uint256 _ord...\n      JUMPDEST \t\t\tfunction getOrder(uint256 _ord...\n      PUSH [tag] 93\t\t\tOrder memory\n      PUSH [tag] 94\t\t\tOrder memory\n      JUMP [in]\t\t\tOrder memory\n    tag 93\t\t\tOrder memory\n      JUMPDEST \t\t\tOrder memory\n      PUSH 0\t\t\t0\n      DUP3 \t\t\t_orderId\n      GT \t\t\t_orderId > 0\n      DUP1 \t\t\t_orderId > 0 && _orderId <= or...\n      ISZERO \t\t\t_orderId > 0 && _orderId <= or...\n      PUSH [tag] 96\t\t\t_orderId > 0 && _orderId <= or...\n      JUMPI \t\t\t_orderId > 0 && _orderId <= or...\n      POP \t\t\t_orderId > 0 && _orderId <= or...\n      PUSH 2\t\t\torderCount\n      SLOAD \t\t\torderCount\n      DUP3 \t\t\t_orderId\n      GT \t\t\t_orderId <= orderCount\n      ISZERO \t\t\t_orderId <= orderCount\n    tag 96\t\t\t_orderId > 0 && _orderId <= or...\n      JUMPDEST \t\t\t_orderId > 0 && _orderId <= or...\n      PUSH [tag] 97\t\t\trequire(_orderId > 0 && _order...\n      JUMPI \t\t\trequire(_orderId > 0 && _order...\n      PUSH 40\t\t\trequire(_orderId > 0 && _order...\n      MLOAD \t\t\trequire(_orderId > 0 && _order...\n      PUSH 8C379A000000000000000000000000000000000000000000000000000000000\t\t\trequire(_orderId > 0 && _order...\n      DUP2 \t\t\trequire(_orderId > 0 && _order...\n      MSTORE \t\t\trequire(_orderId > 0 && _order...\n      PUSH 4\t\t\trequire(_orderId > 0 && _order...\n      ADD \t\t\trequire(_orderId > 0 && _order...\n      PUSH [tag] 98\t\t\trequire(_orderId > 0 && _order...\n      SWAP1 \t\t\trequire(_orderId > 0 && _order...\n      PUSH [tag] 89\t\t\trequire(_orderId > 0 && _order...\n      JUMP [in]\t\t\trequire(_orderId > 0 && _order...\n    tag 98\t\t\trequire(_orderId > 0 && _order...\n      JUMPDEST \t\t\trequire(_orderId > 0 && _order...\n      PUSH 40\t\t\trequire(_orderId > 0 && _order...\n      MLOAD \t\t\trequire(_orderId > 0 && _order...\n      DUP1 \t\t\trequire(_orderId > 0 && _order...\n      SWAP2 \t\t\trequire(_orderId > 0 && _order...\n      SUB \t\t\trequire(_orderId > 0 && _order...\n      SWAP1 \t\t\trequire(_orderId > 0 && _order...\n      REVERT \t\t\trequire(_orderId > 0 && _order...\n    tag 97\t\t\trequire(_orderId > 0 && _order...\n      JUMPDEST \t\t\trequire(_orderId > 0 && _order...\n      PUSH 1\t\t\torders\n      PUSH 0\t\t\torders[_orderId]\n      DUP4 \t\t\t_orderId\n      DUP2 \t\t\torders[_orderId]\n      MSTORE \t\t\torders[_orderId]\n      PUSH 20\t\t\torders[_orderId]\n      ADD \t\t\torders[_orderId]\n      SWAP1 \t\t\torders[_orderId]\n      DUP2 \t\t\torders[_orderId]\n      MSTORE \t\t\torders[_orderId]\n      PUSH 20\t\t\torders[_orderId]\n      ADD \t\t\torders[_orderId]\n      PUSH 0\t\t\torders[_orderId]\n      KECCAK256 \t\t\torders[_orderId]\n      PUSH 40\t\t\treturn orders[_orderId]\n      MLOAD \t\t\treturn orders[_orderId]\n      DUP1 \t\t\treturn orders[_orderId]\n      PUSH C0\t\t\treturn orders[_orderId]\n      ADD \t\t\treturn orders[_orderId]\n      PUSH 40\t\t\treturn orders[_orderId]\n      MSTORE \t\t\treturn orders[_orderId]\n      SWAP1 \t\t\treturn orders[_orderId]\n      DUP2 \t\t\treturn orders[_orderId]\n      PUSH 0\t\t\treturn orders[_orderId]\n      DUP3 \t\t\treturn orders[_orderId]\n      ADD \t\t\treturn orders[_orderId]\n      SLOAD \t\t\treturn orders[_orderId]\n      DUP2 \t\t\treturn orders[_orderId]\n      MSTORE \t\t\treturn orders[_orderId]\n      PUSH 20\t\t\treturn orders[_orderId]\n      ADD \t\t\treturn orders[_orderId]\n      PUSH 1\t\t\treturn orders[_orderId]\n      DUP3 \t\t\treturn orders[_orderId]\n      ADD \t\t\treturn orders[_orderId]\n      PUSH 0\t\t\treturn orders[_orderId]\n      SWAP1 \t\t\treturn orders[_orderId]\n      SLOAD \t\t\treturn orders[_orderId]\n      SWAP1 \t\t\treturn orders[_orderId]\n      PUSH 100\t\t\treturn orders[_orderId]\n      EXP \t\t\treturn orders[_orderId]\n      SWAP1 \t\t\treturn orders[_orderId]\n      DIV \t\t\treturn orders[_orderId]\n      PUSH FFFFFFFFFFFFFFFFFFFFFFFFFFFFFFFFFFFFFFFF\t\t\treturn orders[_orderId]\n      AND \t\t\treturn orders[_orderId]\n      PUSH FFFFFFFFFFFFFFFFFFFFFFFFFFFFFFFFFFFFFFFF\t\t\treturn orders[_orderId]\n      AND \t\t\treturn orders[_orderId]\n      PUSH FFFFFFFFFFFFFFFFFFFFFFFFFFFFFFFFFFFFFFFF\t\t\treturn orders[_orderId]\n      AND \t\t\treturn orders[_orderId]\n      DUP2 \t\t\treturn orders[_orderId]\n      MSTORE \t\t\treturn orders[_orderId]\n      PUSH 20\t\t\treturn orders[_orderId]\n      ADD \t\t\treturn orders[_orderId]\n      PUSH 2\t\t\treturn orders[_orderId]\n      DUP3 \t\t\treturn orders[_orderId]\n      ADD \t\t\treturn orders[_orderId]\n      SLOAD \t\t\treturn orders[_orderId]\n      DUP2 \t\t\treturn orders[_orderId]\n      MSTORE \t\t\treturn orders[_orderId]\n      PUSH 20\t\t\treturn orders[_orderId]\n      ADD \t\t\treturn orders[_orderId]\n      PUSH 3\t\t\treturn orders[_orderId]\n      DUP3 \t\t\treturn orders[_orderId]\n      ADD \t\t\treturn orders[_orderId]\n      SLOAD \t\t\treturn orders[_orderId]\n      DUP2 \t\t\treturn orders[_orderId]\n      MSTORE \t\t\treturn orders[_orderId]\n      PUSH 20\t\t\treturn orders[_orderId]\n      ADD \t\t\treturn orders[_orderId]\n      PUSH 4\t\t\treturn orders[_orderId]\n      DUP3 \t\t\treturn orders[_orderId]\n      ADD \t\t\treturn orders[_orderId]\n      SLOAD \t\t\treturn orders[_orderId]\n      DUP2 \t\t\treturn orders[_orderId]\n      MSTORE \t\t\treturn orders[_orderId]\n      PUSH 20\t\t\treturn orders[_orderId]\n      ADD \t\t\treturn orders[_orderId]\n      PUSH 5\t\t\treturn orders[_orderId]\n      DUP3 \t\t\treturn orders[_orderId]\n      ADD \t\t\treturn orders[_orderId]\n      PUSH 0\t\t\treturn orders[_orderId]\n      SWAP1 \t\t\treturn orders[_orderId]\n      SLOAD \t\t\treturn orders[_orderId]\n      SWAP1 \t\t\treturn orders[_orderId]\n      PUSH 100\t\t\treturn orders[_orderId]\n      EXP \t\t\treturn orders[_orderId]\n      SWAP1 \t\t\treturn orders[_orderId]\n      DIV \t\t\treturn orders[_orderId]\n      PUSH FF\t\t\treturn orders[_orderId]\n      AND \t\t\treturn orders[_orderId]\n      PUSH 3\t\t\treturn orders[_orderId]\n      DUP2 \t\t\treturn orders[_orderId]\n      GT \t\t\treturn orders[_orderId]\n      ISZERO \t\t\treturn orders[_orderId]\n      PUSH [tag] 99\t\t\treturn orders[_orderId]\n      JUMPI \t\t\treturn orders[_orderId]\n      PUSH 4E487B7100000000000000000000000000000000000000000000000000000000\t\t\treturn orders[_orderId]\n      PUSH 0\t\t\treturn orders[_orderId]\n      MSTORE \t\t\treturn orders[_orderId]\n      PUSH 21\t\t\treturn orders[_orderId]\n      PUSH 4\t\t\treturn orders[_orderId]\n      MSTORE \t\t\treturn orders[_orderId]\n      PUSH 24\t\t\treturn orders[_orderId]\n      PUSH 0\t\t\treturn orders[_orderId]\n      REVERT \t\t\treturn orders[_orderId]\n    tag 99\t\t\treturn orders[_orderId]\n      JUMPDEST \t\t\treturn orders[_orderId]\n      PUSH 3\t\t\treturn orders[_orderId]\n      DUP2 \t\t\treturn orders[_orderId]\n      GT \t\t\treturn orders[_orderId]\n      ISZERO \t\t\treturn orders[_orderId]\n      PUSH [tag] 100\t\t\treturn orders[_orderId]\n      JUMPI \t\t\treturn orders[_orderId]\n      PUSH 4E487B7100000000000000000000000000000000000000000000000000000000\t\t\treturn orders[_orderId]\n      PUSH 0\t\t\treturn orders[_orderId]\n      MSTORE \t\t\treturn orders[_orderId]\n      PUSH 21\t\t\treturn orders[_orderId]\n      PUSH 4\t\t\treturn orders[_orderId]\n      MSTORE \t\t\treturn orders[_orderId]\n      PUSH 24\t\t\treturn orders[_orderId]\n      PUSH 0\t\t\treturn orders[_orderId]\n      REVERT \t\t\treturn orders[_orderId]\n    tag 100\t\t\treturn orders[_orderId]\n      JUMPDEST \t\t\treturn orders[_orderId]\n      DUP2 \t\t\treturn orders[_orderId]\n      MSTORE \t\t\treturn orders[_orderId]\n      POP \t\t\treturn orders[_orderId]\n      POP \t\t\treturn orders[_orderId]\n      SWAP1 \t\t\treturn orders[_orderId]\n      POP \t\t\treturn orders[_orderId]\n      SWAP2 \t\t\tfunction getOrder(uint256 _ord...\n      SWAP1 \t\t\tfunction getOrder(uint256 _ord...\n      POP \t\t\tfunction getOrder(uint256 _ord...\n      JUMP [out]\t\t\tfunction getOrder(uint256 _ord...\n    tag 94\t\t\t\n      JUMPDEST \t\t\t\n      PUSH 40\t\t\t\n      MLOAD \t\t\t\n      DUP1 \t\t\t\n      PUSH C0\t\t\t\n      ADD \t\t\t\n      PUSH 40\t\t\t\n      MSTORE \t\t\t\n      DUP1 \t\t\t\n      PUSH 0\t\t\t\n      DUP2 \t\t\t\n      MSTORE \t\t\t\n      PUSH 20\t\t\t\n      ADD \t\t\t\n      PUSH 0\t\t\t\n      PUSH FFFFFFFFFFFFFFFFFFFFFFFFFFFFFFFFFFFFFFFF\t\t\t\n      AND \t\t\t\n      DUP2 \t\t\t\n      MSTORE \t\t\t\n      PUSH 20\t\t\t\n      ADD \t\t\t\n      PUSH 0\t\t\t\n      DUP2 \t\t\t\n      MSTORE \t\t\t\n      PUSH 20\t\t\t\n      ADD \t\t\t\n      PUSH 0\t\t\t\n      DUP2 \t\t\t\n      MSTORE \t\t\t\n      PUSH 20\t\t\t\n      ADD \t\t\t\n      PUSH 0\t\t\t\n      DUP2 \t\t\t\n      MSTORE \t\t\t\n      PUSH 20\t\t\t\n      ADD \t\t\t\n      PUSH 0\t\t\t\n      PUSH 3\t\t\t\n      DUP2 \t\t\t\n      GT \t\t\t\n      ISZERO \t\t\t\n      PUSH [tag] 101\t\t\t\n      JUMPI \t\t\t\n      PUSH 4E487B7100000000000000000000000000000000000000000000000000000000\t\t\t\n      PUSH 0\t\t\t\n      MSTORE \t\t\t\n      PUSH 21\t\t\t\n      PUSH 4\t\t\t\n      MSTORE \t\t\t\n      PUSH 24\t\t\t\n      PUSH 0\t\t\t\n      REVERT \t\t\t\n    tag 101\t\t\t\n      JUMPDEST \t\t\t\n      DUP2 \t\t\t\n      MSTORE \t\t\t\n      POP \t\t\t\n      SWAP1 \t\t\t\n      JUMP [out]\t\t\t\n    tag 103\t\t\t-License-Identifier: MIT\\nprag...\n      JUMPDEST \t\t\t-License-Identifier: MIT\\nprag...\n      PUSH 0\t\t\t-License-Identifier: MIT\\nprag...\n      PUSH [tag] 105\t\t\t {\\n    ItemRegistry public im...\n      PUSH [tag] 106\t\t\tstry public immutable itemRegi...\n      DUP5 \t\t\tdress \n      PUSH [tag] 107\t\t\tstry public immutable itemRegi...\n      JUMP [in]\t\t\tstry public immutable itemRegi...\n    tag 106\t\t\tstry public immutable itemRegi...\n      JUMPDEST \t\t\tstry public immutable itemRegi...\n      PUSH [tag] 108\t\t\t {\\n    ItemRegistry public im...\n      JUMP [in]\t\t\t {\\n    ItemRegistry public im...\n    tag 105\t\t\t {\\n    ItemRegistry public im...\n      JUMPDEST \t\t\t {\\n    ItemRegistry public im...\n      SWAP1 \t\t\tProcessor {\\n    ItemRegistry ...\n      POP \t\t\tProcessor {\\n    ItemRegistry ...\n      DUP3 \t\t\trderSt\n      DUP2 \t\t\t enum\n      MSTORE \t\t\tr;\\n\\n    enum OrderSta\n      PUSH 20\t\t\ted, \n      DUP2 \t\t\tDeliv\n      ADD \t\t\ted, Delivered, C\n      DUP5 \t\t\t   \n      DUP5 \t\t\ter {\\n \n      DUP5 \t\t\tt O\n      ADD \t\t\ttruct Order {\\n  \n      GT \t\t\t  struct Order {\\n        \n      ISZERO \t\t\t\\n \n      PUSH [tag] 109\t\t\t\\n \n      JUMPI \t\t\t\\n \n      PUSH 0\t\t\tI\n      DUP1 \t\t\td\n      REVERT \t\t\tt256 orderId\n    tag 109\t\t\t\\n \n      JUMPDEST \t\t\t\\n \n      PUSH [tag] 110\t\t\tddress buyer;\\n        uint256...\n      DUP5 \t\t\tId;\\n  \n      DUP3 \t\t\t it\n      DUP6 \t\t\tnt2\n      PUSH [tag] 111\t\t\tddress buyer;\\n        uint256...\n      JUMP [in]\t\t\tddress buyer;\\n        uint256...\n    tag 110\t\t\tddress buyer;\\n        uint256...\n      JUMPDEST \t\t\tddress buyer;\\n        uint256...\n      POP \t\t\tract OrderProcessor {\\n    Ite...\n      SWAP4 \t\t\tract OrderProcessor {\\n    Ite...\n      SWAP3 \t\t\tract OrderProcessor {\\n    Ite...\n      POP \t\t\tract OrderProcessor {\\n    Ite...\n      POP \t\t\tract OrderProcessor {\\n    Ite...\n      POP \t\t\tract OrderProcessor {\\n    Ite...\n      JUMP [out]\t\t\tract OrderProcessor {\\n    Ite...\n    tag 112\t\t\t quantity;\\n        uint256 to...\n      JUMPDEST \t\t\t quantity;\\n        uint256 to...\n      PUSH 0\t\t\t quantity;\\n        uint256 to...\n      PUSH [tag] 114\t\t\tders;\\n    uint256 public orde...\n      PUSH [tag] 115\t\t\t56 public orderCount;\\n\\n    e...\n      DUP5 \t\t\ted(uin\n      PUSH [tag] 107\t\t\t56 public orderCount;\\n\\n    e...\n      JUMP [in]\t\t\t56 public orderCount;\\n\\n    e...\n    tag 115\t\t\t56 public orderCount;\\n\\n    e...\n      JUMPDEST \t\t\t56 public orderCount;\\n\\n    e...\n      PUSH [tag] 108\t\t\tders;\\n    uint256 public orde...\n      JUMP [in]\t\t\tders;\\n    uint256 public orde...\n    tag 114\t\t\tders;\\n    uint256 public orde...\n      JUMPDEST \t\t\tders;\\n    uint256 public orde...\n      SWAP1 \t\t\tpublic orders;\\n    uint256 pu...\n      POP \t\t\tpublic orders;\\n    uint256 pu...\n      DUP3 \t\t\tress i\n      DUP2 \t\t\tId, a\n      MSTORE \t\t\td orderId, address in\n      PUSH 20\t\t\temId\n      DUP2 \t\t\texed \n      ADD \t\t\t indexed itemId,\n      DUP5 \t\t\tmou\n      DUP5 \t\t\t56 tot\n      DUP5 \t\t\tuin\n      ADD \t\t\tty, uint256 tota\n      GT \t\t\tntity, uint256 totalAmoun\n      ISZERO \t\t\tqu\n      PUSH [tag] 116\t\t\tqu\n      JUMPI \t\t\tqu\n      PUSH 0\t\t\ts\n      DUP1 \t\t\ta\n      REVERT \t\t\tOrderStatus \n    tag 116\t\t\tqu\n      JUMPDEST \t\t\tqu\n      PUSH [tag] 117\t\t\t  event OrderStatusUpdated(uin...\n      DUP5 \t\t\t56 ord\n      DUP3 \t\t\tuin\n      DUP6 \t\t\tate\n      PUSH [tag] 118\t\t\t  event OrderStatusUpdated(uin...\n      JUMP [in]\t\t\t  event OrderStatusUpdated(uin...\n    tag 117\t\t\t  event OrderStatusUpdated(uin...\n      JUMPDEST \t\t\t  event OrderStatusUpdated(uin...\n      POP \t\t\t=> Order) public orders;\\n    ...\n      SWAP4 \t\t\t=> Order) public orders;\\n    ...\n      SWAP3 \t\t\t=> Order) public orders;\\n    ...\n      POP \t\t\t=> Order) public orders;\\n    ...\n      POP \t\t\t=> Order) public orders;\\n    ...\n      POP \t\t\t=> Order) public orders;\\n    ...\n      JUMP [out]\t\t\t=> Order) public orders;\\n    ...\n    tag 119\t\t\tatus status);\\n\\n    construct...\n      JUMPDEST \t\t\tatus status);\\n\\n    construct...\n      PUSH 0\t\t\tatus status);\\n\\n    construct...\n      DUP2 \t\t\t, \"Inv\n      CALLDATALOAD \t\t\t!= address(0), \"Inva\n      SWAP1 \t\t\tRegistry != address(0), \"Inva\n      POP \t\t\tRegistry != address(0), \"Inva\n      PUSH [tag] 121\t\t\tegistry address\");\\n        it...\n      DUP2 \t\t\tItemR\n      PUSH [tag] 122\t\t\tegistry address\");\\n        it...\n      JUMP [in]\t\t\tegistry address\");\\n        it...\n    tag 121\t\t\tegistry address\");\\n        it...\n      JUMPDEST \t\t\tegistry address\");\\n        it...\n      SWAP3 \t\t\tuire(_itemRegistry != address(...\n      SWAP2 \t\t\tuire(_itemRegistry != address(...\n      POP \t\t\tuire(_itemRegistry != address(...\n      POP \t\t\tuire(_itemRegistry != address(...\n      JUMP [out]\t\t\tuire(_itemRegistry != address(...\n    tag 123\t\t\t     owner = msg.sender;\\n    ...\n      JUMPDEST \t\t\t     owner = msg.sender;\\n    ...\n      PUSH 0\t\t\t     owner = msg.sender;\\n    ...\n      DUP3 \t\t\t ow\n      PUSH 1F\t\t\tnly \n      DUP4 \t\t\twner, \n      ADD \t\t\t== owner, \"Only t\n      SLT \t\t\tder == owner, \"Only the own\n      PUSH [tag] 125\t\t\tre\n      JUMPI \t\t\tre\n      PUSH 0\t\t\ti\n      DUP1 \t\t\t \n      REVERT \t\t\tan call this\n    tag 125\t\t\tre\n      JUMPDEST \t\t\tre\n      DUP2 \t\t\tction \n      CALLDATALOAD \t\t\t   }\\n\\n    function p\n      PUSH [tag] 126\t\t\temory _itemName, uint256 _quan...\n      DUP5 \t\t\tity\n      DUP3 \t\t\te(_qua\n      PUSH 20\t\t\t req\n      DUP7 \t\t\t\\n     \n      ADD \t\t\tle {\\n        requ\n      PUSH [tag] 103\t\t\temory _itemName, uint256 _quan...\n      JUMP [in]\t\t\temory _itemName, uint256 _quan...\n    tag 126\t\t\temory _itemName, uint256 _quan...\n      JUMPDEST \t\t\temory _itemName, uint256 _quan...\n      SWAP2 \t\t\t(string memory _itemName, uint...\n      POP \t\t\t(string memory _itemName, uint...\n      POP \t\t\t     require(msg.sender == own...\n      SWAP3 \t\t\t     require(msg.sender == own...\n      SWAP2 \t\t\t     require(msg.sender == own...\n      POP \t\t\t     require(msg.sender == own...\n      POP \t\t\t     require(msg.sender == own...\n      JUMP [out]\t\t\t     require(msg.sender == own...\n    tag 127\t\t\tater than 0\");\\n        requir...\n      JUMPDEST \t\t\tater than 0\");\\n        requir...\n      PUSH 0\t\t\tater than 0\");\\n        requir...\n      DUP3 \t\t\tReg\n      PUSH 1F\t\t\t = i\n      DUP4 \t\t\t6 item\n      ADD \t\t\tnt256 itemId = it\n      SLT \t\t\t  uint256 itemId = itemRegi\n      PUSH [tag] 129\t\t\t);\n      JUMPI \t\t\t);\n      PUSH 0\t\t\tB\n      DUP1 \t\t\tm\n      REVERT \t\t\t.getItemIdBy\n    tag 129\t\t\t);\n      JUMPDEST \t\t\t);\n      DUP2 \t\t\te(item\n      MLOAD \t\t\trequire(itemI\n      PUSH [tag] 130\t\t\tem name\");\\n\\n        (, , uin...\n      DUP5 \t\t\t  u\n      DUP3 \t\t\t;\\n    \n      PUSH 20\t\t\titem\n      DUP7 \t\t\ttemDat\n      ADD \t\t\tgetItemData(itemI\n      PUSH [tag] 112\t\t\tem name\");\\n\\n        (, , uin...\n      JUMP [in]\t\t\tem name\");\\n\\n        (, , uin...\n    tag 130\t\t\tem name\");\\n\\n        (, , uin...\n      JUMPDEST \t\t\tem name\");\\n\\n        (, , uin...\n      SWAP2 \t\t\tnvalid item name\");\\n\\n       ...\n      POP \t\t\tnvalid item name\");\\n\\n       ...\n      POP \t\t\tthe order\");\\n\\n        uint25...\n      SWAP3 \t\t\tthe order\");\\n\\n        uint25...\n      SWAP2 \t\t\tthe order\");\\n\\n        uint25...\n      POP \t\t\tthe order\");\\n\\n        uint25...\n      POP \t\t\tthe order\");\\n\\n        uint25...\n      JUMP [out]\t\t\tthe order\");\\n\\n        uint25...\n    tag 131\t\t\tmount = itemPrice * _quantity;...\n      JUMPDEST \t\t\tmount = itemPrice * _quantity;...\n      PUSH 0\t\t\tmount = itemPrice * _quantity;...\n      DUP2 \t\t\tnt pay\n      CALLDATALOAD \t\t\t, \"Insufficient paym\n      SWAP1 \t\t\ttalAmount, \"Insufficient paym\n      POP \t\t\ttalAmount, \"Insufficient paym\n      PUSH [tag] 133\t\t\t       orderCount++;\\n        ...\n      DUP2 \t\t\t  ord\n      PUSH [tag] 134\t\t\t       orderCount++;\\n        ...\n      JUMP [in]\t\t\t       orderCount++;\\n        ...\n    tag 133\t\t\t       orderCount++;\\n        ...\n      JUMPDEST \t\t\t       orderCount++;\\n        ...\n      SWAP3 \t\t\talue >= totalAmount, \"Insuffic...\n      SWAP2 \t\t\talue >= totalAmount, \"Insuffic...\n      POP \t\t\talue >= totalAmount, \"Insuffic...\n      POP \t\t\talue >= totalAmount, \"Insuffic...\n      JUMP [out]\t\t\talue >= totalAmount, \"Insuffic...\n    tag 135\t\t\tt] = Order({\\n            orde...\n      JUMPDEST \t\t\tt] = Order({\\n            orde...\n      PUSH 0\t\t\tt] = Order({\\n            orde...\n      DUP2 \t\t\t itemI\n      MLOAD \t\t\t       itemId\n      SWAP1 \t\t\ter,\\n            itemId\n      POP \t\t\ter,\\n            itemId\n      PUSH [tag] 137\t\t\t\\n            quantity: _quant...\n      DUP2 \t\t\tntity\n      PUSH [tag] 134\t\t\t\\n            quantity: _quant...\n      JUMP [in]\t\t\t\\n            quantity: _quant...\n    tag 137\t\t\t\\n            quantity: _quant...\n      JUMPDEST \t\t\t\\n            quantity: _quant...\n      SWAP3 \t\t\t: msg.sender,\\n            ite...\n      SWAP2 \t\t\t: msg.sender,\\n            ite...\n      POP \t\t\t: msg.sender,\\n            ite...\n      POP \t\t\t: msg.sender,\\n            ite...\n      JUMP [out]\t\t\t: msg.sender,\\n            ite...\n    tag 27\t\t\t totalAmount: totalAmount,\\n  ...\n      JUMPDEST \t\t\t totalAmount: totalAmount,\\n  ...\n      PUSH 0\t\t\t totalAmount: totalAmount,\\n  ...\n      DUP1 \t\t\t totalAmount: totalAmount,\\n  ...\n      PUSH 40\t\t\t, \n      DUP4 \t\t\tnder, ite\n      DUP6 \t\t\tt, msg.\n      SUB \t\t\tCount, msg.sender, item\n      SLT \t\t\trderCount, msg.sender, itemId,...\n      ISZERO \t\t\td(\n      PUSH [tag] 139\t\t\td(\n      JUMPI \t\t\td(\n      PUSH 0\t\t\ta\n      DUP1 \t\t\tt\n      REVERT \t\t\tntity, total\n    tag 139\t\t\td(\n      JUMPDEST \t\t\td(\n      PUSH 0\t\t\ti\n      DUP4 \t\t\tderStatus\n      ADD \t\t\tteOrderStatus(uin\n      CALLDATALOAD \t\t\tfunction updateOrderStatus(uin...\n      PUSH FFFFFFFFFFFFFFFF\t\t\tstatus) public onl\n      DUP2 \t\t\tStatus\n      GT \t\t\tderStatus _status) public only\n      ISZERO \t\t\t O\n      PUSH [tag] 140\t\t\t O\n      JUMPI \t\t\t O\n      PUSH 0\t\t\t \n      DUP1 \t\t\t \n      REVERT \t\t\ter {\\n       \n    tag 140\t\t\t O\n      JUMPDEST \t\t\t O\n      PUSH [tag] 141\t\t\torderId <= orderCount, \"Invali...\n      DUP6 \t\t\ters[_or\n      DUP3 \t\t\t      \n      DUP7 \t\t\ter ID\");\\n\n      ADD \t\t\t order ID\");\\n        o\n      PUSH [tag] 123\t\t\torderId <= orderCount, \"Invali...\n      JUMP [in]\t\t\torderId <= orderCount, \"Invali...\n    tag 141\t\t\torderId <= orderCount, \"Invali...\n      JUMPDEST \t\t\torderId <= orderCount, \"Invali...\n      SWAP3 \t\t\td > 0 && _orderId <= orderCoun...\n      POP \t\t\td > 0 && _orderId <= orderCoun...\n      POP \t\t\trStatus.Pending);\\n    }\\n\\n  ...\n      PUSH 20\t\t\tpd\n      PUSH [tag] 142\t\t\t\\n    }\\n\\n    function getOrd...\n      DUP6 \t\t\td) exte\n      DUP3 \t\t\t6 _ord\n      DUP7 \t\t\trder(uint\n      ADD \t\t\tgetOrder(uint256 _orde\n      PUSH [tag] 131\t\t\t\\n    }\\n\\n    function getOrd...\n      JUMP [in]\t\t\t\\n    }\\n\\n    function getOrd...\n    tag 142\t\t\t\\n    }\\n\\n    function getOrd...\n      JUMPDEST \t\t\t\\n    }\\n\\n    function getOrd...\n      SWAP2 \t\t\t _status);\\n    }\\n\\n    funct...\n      POP \t\t\t _status);\\n    }\\n\\n    funct...\n      POP \t\t\tus;\\n        emit OrderStatusU...\n      SWAP3 \t\t\tOrderPlaced(orderCount, msg.se...\n      POP \t\t\tOrderPlaced(orderCount, msg.se...\n      SWAP3 \t\t\tOrderPlaced(orderCount, msg.se...\n      SWAP1 \t\t\tOrderPlaced(orderCount, msg.se...\n      POP \t\t\tOrderPlaced(orderCount, msg.se...\n      JUMP [out]\t\t\tOrderPlaced(orderCount, msg.se...\n    tag 69\t\t\t memory) {\\n        require(_o...\n      JUMPDEST \t\t\t memory) {\\n        require(_o...\n      PUSH 0\t\t\t memory) {\\n        require(_o...\n      DUP1 \t\t\t memory) {\\n        require(_o...\n      PUSH 0\t\t\t memory) {\\n        require(_o...\n      PUSH 60\t\t\t\n      DUP5 \t\t\t\n      DUP7 \t\t\t\n      SUB \t\t\t\n      SLT \t\t\t\n      ISZERO \t\t\t\n      PUSH [tag] 144\t\t\t\n      JUMPI \t\t\t\n      PUSH 0\t\t\t\n      DUP1 \t\t\t\n      REVERT \t\t\t\n    tag 144\t\t\t\n      JUMPDEST \t\t\t\n      PUSH 0\t\t\t\n      DUP5 \t\t\t\n      ADD \t\t\t\n      MLOAD \t\t\t\n      PUSH FFFFFFFFFFFFFFFF\t\t\t\n      DUP2 \t\t\t\n      GT \t\t\t\n      ISZERO \t\t\t\n      PUSH [tag] 145\t\t\t\n      JUMPI \t\t\t\n      PUSH 0\t\t\t\n      DUP1 \t\t\t\n      REVERT \t\t\t\n    tag 145\t\t\t\n      JUMPDEST \t\t\t\n      PUSH [tag] 146\t\t\t\n      DUP7 \t\t\t\n      DUP3 \t\t\t\n      DUP8 \t\t\t\n      ADD \t\t\t\n      PUSH [tag] 127\t\t\t\n      JUMP [in]\t\t\t\n    tag 146\t\t\t\n      JUMPDEST \t\t\t\n      SWAP4 \t\t\t\n      POP \t\t\t\n      POP \t\t\t\n      PUSH 20\t\t\t\n      PUSH [tag] 147\t\t\t\n      DUP7 \t\t\t\n      DUP3 \t\t\t\n      DUP8 \t\t\t\n      ADD \t\t\t\n      PUSH [tag] 135\t\t\t\n      JUMP [in]\t\t\t\n    tag 147\t\t\t\n      JUMPDEST \t\t\t\n      SWAP3 \t\t\t\n      POP \t\t\t\n      POP \t\t\t\n      PUSH 40\t\t\t\n      PUSH [tag] 148\t\t\t\n      DUP7 \t\t\t\n      DUP3 \t\t\t\n      DUP8 \t\t\t\n      ADD \t\t\t\n      PUSH [tag] 135\t\t\t\n      JUMP [in]\t\t\t\n    tag 148\t\t\t\n      JUMPDEST \t\t\t\n      SWAP2 \t\t\t\n      POP \t\t\t\n      POP \t\t\t\n      SWAP3 \t\t\t    }\\n}\\n\n      POP \t\t\t    }\\n}\\n\n      SWAP3 \t\t\t    }\\n}\\n\n      POP \t\t\t    }\\n}\\n\n      SWAP3 \t\t\t    }\\n}\\n\n      JUMP [out]\t\t\t    }\\n}\\n\n    tag 32\t\t\t\n      JUMPDEST \t\t\t\n      PUSH 0\t\t\t\n      PUSH 20\t\t\t\n      DUP3 \t\t\t\n      DUP5 \t\t\t\n      SUB \t\t\t\n      SLT \t\t\t\n      ISZERO \t\t\t\n      PUSH [tag] 150\t\t\t\n      JUMPI \t\t\t\n      PUSH 0\t\t\t\n      DUP1 \t\t\t\n      REVERT \t\t\t\n    tag 150\t\t\t\n      JUMPDEST \t\t\t\n      PUSH 0\t\t\t\n      PUSH [tag] 151\t\t\t\n      DUP5 \t\t\t\n      DUP3 \t\t\t\n      DUP6 \t\t\t\n      ADD \t\t\t\n      PUSH [tag] 131\t\t\t\n      JUMP [in]\t\t\t\n    tag 151\t\t\t\n      JUMPDEST \t\t\t\n      SWAP2 \t\t\t\n      POP \t\t\t\n      POP \t\t\t\n      SWAP3 \t\t\t\n      SWAP2 \t\t\t\n      POP \t\t\t\n      POP \t\t\t\n      JUMP [out]\t\t\t\n    tag 60\t\t\t\n      JUMPDEST \t\t\t\n      PUSH 0\t\t\t\n      PUSH 20\t\t\t\n      DUP3 \t\t\t\n      DUP5 \t\t\t\n      SUB \t\t\t\n      SLT \t\t\t\n      ISZERO \t\t\t\n      PUSH [tag] 153\t\t\t\n      JUMPI \t\t\t\n      PUSH 0\t\t\t\n      DUP1 \t\t\t\n      REVERT \t\t\t\n    tag 153\t\t\t\n      JUMPDEST \t\t\t\n      PUSH 0\t\t\t\n      PUSH [tag] 154\t\t\t\n      DUP5 \t\t\t\n      DUP3 \t\t\t\n      DUP6 \t\t\t\n      ADD \t\t\t\n      PUSH [tag] 135\t\t\t\n      JUMP [in]\t\t\t\n    tag 154\t\t\t\n      JUMPDEST \t\t\t\n      SWAP2 \t\t\t\n      POP \t\t\t\n      POP \t\t\t\n      SWAP3 \t\t\t\n      SWAP2 \t\t\t\n      POP \t\t\t\n      POP \t\t\t\n      JUMP [out]\t\t\t\n    tag 39\t\t\t\n      JUMPDEST \t\t\t\n      PUSH 0\t\t\t\n      DUP1 \t\t\t\n      PUSH 40\t\t\t\n      DUP4 \t\t\t\n      DUP6 \t\t\t\n      SUB \t\t\t\n      SLT \t\t\t\n      ISZERO \t\t\t\n      PUSH [tag] 156\t\t\t\n      JUMPI \t\t\t\n      PUSH 0\t\t\t\n      DUP1 \t\t\t\n      REVERT \t\t\t\n    tag 156\t\t\t\n      JUMPDEST \t\t\t\n      PUSH 0\t\t\t\n      PUSH [tag] 157\t\t\t\n      DUP6 \t\t\t\n      DUP3 \t\t\t\n      DUP7 \t\t\t\n      ADD \t\t\t\n      PUSH [tag] 131\t\t\t\n      JUMP [in]\t\t\t\n    tag 157\t\t\t\n      JUMPDEST \t\t\t\n      SWAP3 \t\t\t\n      POP \t\t\t\n      POP \t\t\t\n      PUSH 20\t\t\t\n      PUSH [tag] 158\t\t\t\n      DUP6 \t\t\t\n      DUP3 \t\t\t\n      DUP7 \t\t\t\n      ADD \t\t\t\n      PUSH [tag] 119\t\t\t\n      JUMP [in]\t\t\t\n    tag 158\t\t\t\n      JUMPDEST \t\t\t\n      SWAP2 \t\t\t\n      POP \t\t\t\n      POP \t\t\t\n      SWAP3 \t\t\t\n      POP \t\t\t\n      SWAP3 \t\t\t\n      SWAP1 \t\t\t\n      POP \t\t\t\n      JUMP [out]\t\t\t\n    tag 159\t\t\t\n      JUMPDEST \t\t\t\n      PUSH [tag] 161\t\t\t\n      DUP2 \t\t\t\n      PUSH [tag] 162\t\t\t\n      JUMP [in]\t\t\t\n    tag 161\t\t\t\n      JUMPDEST \t\t\t\n      DUP3 \t\t\t\n      MSTORE \t\t\t\n      POP \t\t\t\n      POP \t\t\t\n      JUMP [out]\t\t\t\n    tag 163\t\t\t\n      JUMPDEST \t\t\t\n      PUSH [tag] 165\t\t\t\n      DUP2 \t\t\t\n      PUSH [tag] 162\t\t\t\n      JUMP [in]\t\t\t\n    tag 165\t\t\t\n      JUMPDEST \t\t\t\n      DUP3 \t\t\t\n      MSTORE \t\t\t\n      POP \t\t\t\n      POP \t\t\t\n      JUMP [out]\t\t\t\n    tag 166\t\t\t\n      JUMPDEST \t\t\t\n      PUSH [tag] 168\t\t\t\n      DUP2 \t\t\t\n      PUSH [tag] 169\t\t\t\n      JUMP [in]\t\t\t\n    tag 168\t\t\t\n      JUMPDEST \t\t\t\n      DUP3 \t\t\t\n      MSTORE \t\t\t\n      POP \t\t\t\n      POP \t\t\t\n      JUMP [out]\t\t\t\n    tag 170\t\t\t\n      JUMPDEST \t\t\t\n      PUSH [tag] 172\t\t\t\n      DUP2 \t\t\t\n      PUSH [tag] 173\t\t\t\n      JUMP [in]\t\t\t\n    tag 172\t\t\t\n      JUMPDEST \t\t\t\n      DUP3 \t\t\t\n      MSTORE \t\t\t\n      POP \t\t\t\n      POP \t\t\t\n      JUMP [out]\t\t\t\n    tag 174\t\t\t\n      JUMPDEST \t\t\t\n      PUSH [tag] 176\t\t\t\n      DUP2 \t\t\t\n      PUSH [tag] 173\t\t\t\n      JUMP [in]\t\t\t\n    tag 176\t\t\t\n      JUMPDEST \t\t\t\n      DUP3 \t\t\t\n      MSTORE \t\t\t\n      POP \t\t\t\n      POP \t\t\t\n      JUMP [out]\t\t\t\n    tag 177\t\t\t\n      JUMPDEST \t\t\t\n      PUSH 0\t\t\t\n      PUSH [tag] 179\t\t\t\n      DUP3 \t\t\t\n      PUSH [tag] 180\t\t\t\n      JUMP [in]\t\t\t\n    tag 179\t\t\t\n      JUMPDEST \t\t\t\n      PUSH [tag] 181\t\t\t\n      DUP2 \t\t\t\n      DUP6 \t\t\t\n      PUSH [tag] 182\t\t\t\n      JUMP [in]\t\t\t\n    tag 181\t\t\t\n      JUMPDEST \t\t\t\n      SWAP4 \t\t\t\n      POP \t\t\t\n      PUSH [tag] 183\t\t\t\n      DUP2 \t\t\t\n      DUP6 \t\t\t\n      PUSH 20\t\t\t\n      DUP7 \t\t\t\n      ADD \t\t\t\n      PUSH [tag] 118\t\t\t\n      JUMP [in]\t\t\t\n    tag 183\t\t\t\n      JUMPDEST \t\t\t\n      PUSH [tag] 184\t\t\t\n      DUP2 \t\t\t\n      PUSH [tag] 185\t\t\t\n      JUMP [in]\t\t\t\n    tag 184\t\t\t\n      JUMPDEST \t\t\t\n      DUP5 \t\t\t\n      ADD \t\t\t\n      SWAP2 \t\t\t\n      POP \t\t\t\n      POP \t\t\t\n      SWAP3 \t\t\t\n      SWAP2 \t\t\t\n      POP \t\t\t\n      POP \t\t\t\n      JUMP [out]\t\t\t\n    tag 186\t\t\t\n      JUMPDEST \t\t\t\n      PUSH 0\t\t\t\n      PUSH [tag] 188\t\t\t\n      PUSH 1F\t\t\t\n      DUP4 \t\t\t\n      PUSH [tag] 182\t\t\t\n      JUMP [in]\t\t\t\n    tag 188\t\t\t\n      JUMPDEST \t\t\t\n      SWAP2 \t\t\t\n      POP \t\t\t\n      PUSH 5175616E74697479206D7573742062652067726561746572207468616E203000\t\t\t\n      PUSH 0\t\t\t\n      DUP4 \t\t\t\n      ADD \t\t\t\n      MSTORE \t\t\t\n      PUSH 20\t\t\t\n      DUP3 \t\t\t\n      ADD \t\t\t\n      SWAP1 \t\t\t\n      POP \t\t\t\n      SWAP2 \t\t\t\n      SWAP1 \t\t\t\n      POP \t\t\t\n      JUMP [out]\t\t\t\n    tag 189\t\t\t\n      JUMPDEST \t\t\t\n      PUSH 0\t\t\t\n      PUSH [tag] 191\t\t\t\n      PUSH 25\t\t\t\n      DUP4 \t\t\t\n      PUSH [tag] 182\t\t\t\n      JUMP [in]\t\t\t\n    tag 191\t\t\t\n      JUMPDEST \t\t\t\n      SWAP2 \t\t\t\n      POP \t\t\t\n      PUSH 4F6E6C7920746865206F776E65722063616E2063616C6C20746869732066756E\t\t\t\n      PUSH 0\t\t\t\n      DUP4 \t\t\t\n      ADD \t\t\t\n      MSTORE \t\t\t\n      PUSH 6374696F6E000000000000000000000000000000000000000000000000000000\t\t\t\n      PUSH 20\t\t\t\n      DUP4 \t\t\t\n      ADD \t\t\t\n      MSTORE \t\t\t\n      PUSH 40\t\t\t\n      DUP3 \t\t\t\n      ADD \t\t\t\n      SWAP1 \t\t\t\n      POP \t\t\t\n      SWAP2 \t\t\t\n      SWAP1 \t\t\t\n      POP \t\t\t\n      JUMP [out]\t\t\t\n    tag 192\t\t\t\n      JUMPDEST \t\t\t\n      PUSH 0\t\t\t\n      PUSH [tag] 194\t\t\t\n      PUSH 11\t\t\t\n      DUP4 \t\t\t\n      PUSH [tag] 182\t\t\t\n      JUMP [in]\t\t\t\n    tag 194\t\t\t\n      JUMPDEST \t\t\t\n      SWAP2 \t\t\t\n      POP \t\t\t\n      PUSH 496E76616C6964206974656D206E616D65000000000000000000000000000000\t\t\t\n      PUSH 0\t\t\t\n      DUP4 \t\t\t\n      ADD \t\t\t\n      MSTORE \t\t\t\n      PUSH 20\t\t\t\n      DUP3 \t\t\t\n      ADD \t\t\t\n      SWAP1 \t\t\t\n      POP \t\t\t\n      SWAP2 \t\t\t\n      SWAP1 \t\t\t\n      POP \t\t\t\n      JUMP [out]\t\t\t\n    tag 195\t\t\t\n      JUMPDEST \t\t\t\n      PUSH 0\t\t\t\n      PUSH [tag] 197\t\t\t\n      PUSH 23\t\t\t\n      DUP4 \t\t\t\n      PUSH [tag] 182\t\t\t\n      JUMP [in]\t\t\t\n    tag 197\t\t\t\n      JUMPDEST \t\t\t\n      SWAP2 \t\t\t\n      POP \t\t\t\n      PUSH 5061796D656E74206D7573742062652073656E74207769746820746865206F72\t\t\t\n      PUSH 0\t\t\t\n      DUP4 \t\t\t\n      ADD \t\t\t\n      MSTORE \t\t\t\n      PUSH 6465720000000000000000000000000000000000000000000000000000000000\t\t\t\n      PUSH 20\t\t\t\n      DUP4 \t\t\t\n      ADD \t\t\t\n      MSTORE \t\t\t\n      PUSH 40\t\t\t\n      DUP3 \t\t\t\n      ADD \t\t\t\n      SWAP1 \t\t\t\n      POP \t\t\t\n      SWAP2 \t\t\t\n      SWAP1 \t\t\t\n      POP \t\t\t\n      JUMP [out]\t\t\t\n    tag 198\t\t\t\n      JUMPDEST \t\t\t\n      PUSH 0\t\t\t\n      PUSH [tag] 200\t\t\t\n      PUSH 14\t\t\t\n      DUP4 \t\t\t\n      PUSH [tag] 182\t\t\t\n      JUMP [in]\t\t\t\n    tag 200\t\t\t\n      JUMPDEST \t\t\t\n      SWAP2 \t\t\t\n      POP \t\t\t\n      PUSH 496E73756666696369656E74207061796D656E74000000000000000000000000\t\t\t\n      PUSH 0\t\t\t\n      DUP4 \t\t\t\n      ADD \t\t\t\n      MSTORE \t\t\t\n      PUSH 20\t\t\t\n      DUP3 \t\t\t\n      ADD \t\t\t\n      SWAP1 \t\t\t\n      POP \t\t\t\n      SWAP2 \t\t\t\n      SWAP1 \t\t\t\n      POP \t\t\t\n      JUMP [out]\t\t\t\n    tag 201\t\t\t\n      JUMPDEST \t\t\t\n      PUSH 0\t\t\t\n      PUSH [tag] 203\t\t\t\n      PUSH 10\t\t\t\n      DUP4 \t\t\t\n      PUSH [tag] 182\t\t\t\n      JUMP [in]\t\t\t\n    tag 203\t\t\t\n      JUMPDEST \t\t\t\n      SWAP2 \t\t\t\n      POP \t\t\t\n      PUSH 496E76616C6964206F7264657220494400000000000000000000000000000000\t\t\t\n      PUSH 0\t\t\t\n      DUP4 \t\t\t\n      ADD \t\t\t\n      MSTORE \t\t\t\n      PUSH 20\t\t\t\n      DUP3 \t\t\t\n      ADD \t\t\t\n      SWAP1 \t\t\t\n      POP \t\t\t\n      SWAP2 \t\t\t\n      SWAP1 \t\t\t\n      POP \t\t\t\n      JUMP [out]\t\t\t\n    tag 204\t\t\t\n      JUMPDEST \t\t\t\n      PUSH C0\t\t\t\n      DUP3 \t\t\t\n      ADD \t\t\t\n      PUSH 0\t\t\t\n      DUP3 \t\t\t\n      ADD \t\t\t\n      MLOAD \t\t\t\n      PUSH [tag] 206\t\t\t\n      PUSH 0\t\t\t\n      DUP6 \t\t\t\n      ADD \t\t\t\n      DUP3 \t\t\t\n      PUSH [tag] 207\t\t\t\n      JUMP [in]\t\t\t\n    tag 206\t\t\t\n      JUMPDEST \t\t\t\n      POP \t\t\t\n      PUSH 20\t\t\t\n      DUP3 \t\t\t\n      ADD \t\t\t\n      MLOAD \t\t\t\n      PUSH [tag] 208\t\t\t\n      PUSH 20\t\t\t\n      DUP6 \t\t\t\n      ADD \t\t\t\n      DUP3 \t\t\t\n      PUSH [tag] 159\t\t\t\n      JUMP [in]\t\t\t\n    tag 208\t\t\t\n      JUMPDEST \t\t\t\n      POP \t\t\t\n      PUSH 40\t\t\t\n      DUP3 \t\t\t\n      ADD \t\t\t\n      MLOAD \t\t\t\n      PUSH [tag] 209\t\t\t\n      PUSH 40\t\t\t\n      DUP6 \t\t\t\n      ADD \t\t\t\n      DUP3 \t\t\t\n      PUSH [tag] 207\t\t\t\n      JUMP [in]\t\t\t\n    tag 209\t\t\t\n      JUMPDEST \t\t\t\n      POP \t\t\t\n      PUSH 60\t\t\t\n      DUP3 \t\t\t\n      ADD \t\t\t\n      MLOAD \t\t\t\n      PUSH [tag] 210\t\t\t\n      PUSH 60\t\t\t\n      DUP6 \t\t\t\n      ADD \t\t\t\n      DUP3 \t\t\t\n      PUSH [tag] 207\t\t\t\n      JUMP [in]\t\t\t\n    tag 210\t\t\t\n      JUMPDEST \t\t\t\n      POP \t\t\t\n      PUSH 80\t\t\t\n      DUP3 \t\t\t\n      ADD \t\t\t\n      MLOAD \t\t\t\n      PUSH [tag] 211\t\t\t\n      PUSH 80\t\t\t\n      DUP6 \t\t\t\n      ADD \t\t\t\n      DUP3 \t\t\t\n      PUSH [tag] 207\t\t\t\n      JUMP [in]\t\t\t\n    tag 211\t\t\t\n      JUMPDEST \t\t\t\n      POP \t\t\t\n      PUSH A0\t\t\t\n      DUP3 \t\t\t\n      ADD \t\t\t\n      MLOAD \t\t\t\n      PUSH [tag] 212\t\t\t\n      PUSH A0\t\t\t\n      DUP6 \t\t\t\n      ADD \t\t\t\n      DUP3 \t\t\t\n      PUSH [tag] 170\t\t\t\n      JUMP [in]\t\t\t\n    tag 212\t\t\t\n      JUMPDEST \t\t\t\n      POP \t\t\t\n      POP \t\t\t\n      POP \t\t\t\n      POP \t\t\t\n      JUMP [out]\t\t\t\n    tag 207\t\t\t\n      JUMPDEST \t\t\t\n      PUSH [tag] 214\t\t\t\n      DUP2 \t\t\t\n      PUSH [tag] 215\t\t\t\n      JUMP [in]\t\t\t\n    tag 214\t\t\t\n      JUMPDEST \t\t\t\n      DUP3 \t\t\t\n      MSTORE \t\t\t\n      POP \t\t\t\n      POP \t\t\t\n      JUMP [out]\t\t\t\n    tag 216\t\t\t\n      JUMPDEST \t\t\t\n      PUSH [tag] 218\t\t\t\n      DUP2 \t\t\t\n      PUSH [tag] 215\t\t\t\n      JUMP [in]\t\t\t\n    tag 218\t\t\t\n      JUMPDEST \t\t\t\n      DUP3 \t\t\t\n      MSTORE \t\t\t\n      POP \t\t\t\n      POP \t\t\t\n      JUMP [out]\t\t\t\n    tag 19\t\t\t\n      JUMPDEST \t\t\t\n      PUSH 0\t\t\t\n      PUSH 20\t\t\t\n      DUP3 \t\t\t\n      ADD \t\t\t\n      SWAP1 \t\t\t\n      POP \t\t\t\n      PUSH [tag] 220\t\t\t\n      PUSH 0\t\t\t\n      DUP4 \t\t\t\n      ADD \t\t\t\n      DUP5 \t\t\t\n      PUSH [tag] 163\t\t\t\n      JUMP [in]\t\t\t\n    tag 220\t\t\t\n      JUMPDEST \t\t\t\n      SWAP3 \t\t\t\n      SWAP2 \t\t\t\n      POP \t\t\t\n      POP \t\t\t\n      JUMP [out]\t\t\t\n    tag 24\t\t\t\n      JUMPDEST \t\t\t\n      PUSH 0\t\t\t\n      PUSH 20\t\t\t\n      DUP3 \t\t\t\n      ADD \t\t\t\n      SWAP1 \t\t\t\n      POP \t\t\t\n      PUSH [tag] 222\t\t\t\n      PUSH 0\t\t\t\n      DUP4 \t\t\t\n      ADD \t\t\t\n      DUP5 \t\t\t\n      PUSH [tag] 166\t\t\t\n      JUMP [in]\t\t\t\n    tag 222\t\t\t\n      JUMPDEST \t\t\t\n      SWAP3 \t\t\t\n      SWAP2 \t\t\t\n      POP \t\t\t\n      POP \t\t\t\n      JUMP [out]\t\t\t\n    tag 55\t\t\t\n      JUMPDEST \t\t\t\n      PUSH 0\t\t\t\n      PUSH 20\t\t\t\n      DUP3 \t\t\t\n      ADD \t\t\t\n      SWAP1 \t\t\t\n      POP \t\t\t\n      DUP2 \t\t\t\n      DUP2 \t\t\t\n      SUB \t\t\t\n      PUSH 0\t\t\t\n      DUP4 \t\t\t\n      ADD \t\t\t\n      MSTORE \t\t\t\n      PUSH [tag] 224\t\t\t\n      DUP2 \t\t\t\n      DUP5 \t\t\t\n      PUSH [tag] 177\t\t\t\n      JUMP [in]\t\t\t\n    tag 224\t\t\t\n      JUMPDEST \t\t\t\n      SWAP1 \t\t\t\n      POP \t\t\t\n      SWAP3 \t\t\t\n      SWAP2 \t\t\t\n      POP \t\t\t\n      POP \t\t\t\n      JUMP [out]\t\t\t\n    tag 50\t\t\t\n      JUMPDEST \t\t\t\n      PUSH 0\t\t\t\n      PUSH 20\t\t\t\n      DUP3 \t\t\t\n      ADD \t\t\t\n      SWAP1 \t\t\t\n      POP \t\t\t\n      DUP2 \t\t\t\n      DUP2 \t\t\t\n      SUB \t\t\t\n      PUSH 0\t\t\t\n      DUP4 \t\t\t\n      ADD \t\t\t\n      MSTORE \t\t\t\n      PUSH [tag] 226\t\t\t\n      DUP2 \t\t\t\n      PUSH [tag] 186\t\t\t\n      JUMP [in]\t\t\t\n    tag 226\t\t\t\n      JUMPDEST \t\t\t\n      SWAP1 \t\t\t\n      POP \t\t\t\n      SWAP2 \t\t\t\n      SWAP1 \t\t\t\n      POP \t\t\t\n      JUMP [out]\t\t\t\n    tag 84\t\t\t\n      JUMPDEST \t\t\t\n      PUSH 0\t\t\t\n      PUSH 20\t\t\t\n      DUP3 \t\t\t\n      ADD \t\t\t\n      SWAP1 \t\t\t\n      POP \t\t\t\n      DUP2 \t\t\t\n      DUP2 \t\t\t\n      SUB \t\t\t\n      PUSH 0\t\t\t\n      DUP4 \t\t\t\n      ADD \t\t\t\n      MSTORE \t\t\t\n      PUSH [tag] 228\t\t\t\n      DUP2 \t\t\t\n      PUSH [tag] 189\t\t\t\n      JUMP [in]\t\t\t\n    tag 228\t\t\t\n      JUMPDEST \t\t\t\n      SWAP1 \t\t\t\n      POP \t\t\t\n      SWAP2 \t\t\t\n      SWAP1 \t\t\t\n      POP \t\t\t\n      JUMP [out]\t\t\t\n    tag 63\t\t\t\n      JUMPDEST \t\t\t\n      PUSH 0\t\t\t\n      PUSH 20\t\t\t\n      DUP3 \t\t\t\n      ADD \t\t\t\n      SWAP1 \t\t\t\n      POP \t\t\t\n      DUP2 \t\t\t\n      DUP2 \t\t\t\n      SUB \t\t\t\n      PUSH 0\t\t\t\n      DUP4 \t\t\t\n      ADD \t\t\t\n      MSTORE \t\t\t\n      PUSH [tag] 230\t\t\t\n      DUP2 \t\t\t\n      PUSH [tag] 192\t\t\t\n      JUMP [in]\t\t\t\n    tag 230\t\t\t\n      JUMPDEST \t\t\t\n      SWAP1 \t\t\t\n      POP \t\t\t\n      SWAP2 \t\t\t\n      SWAP1 \t\t\t\n      POP \t\t\t\n      JUMP [out]\t\t\t\n    tag 53\t\t\t\n      JUMPDEST \t\t\t\n      PUSH 0\t\t\t\n      PUSH 20\t\t\t\n      DUP3 \t\t\t\n      ADD \t\t\t\n      SWAP1 \t\t\t\n      POP \t\t\t\n      DUP2 \t\t\t\n      DUP2 \t\t\t\n      SUB \t\t\t\n      PUSH 0\t\t\t\n      DUP4 \t\t\t\n      ADD \t\t\t\n      MSTORE \t\t\t\n      PUSH [tag] 232\t\t\t\n      DUP2 \t\t\t\n      PUSH [tag] 195\t\t\t\n      JUMP [in]\t\t\t\n    tag 232\t\t\t\n      JUMPDEST \t\t\t\n      SWAP1 \t\t\t\n      POP \t\t\t\n      SWAP2 \t\t\t\n      SWAP1 \t\t\t\n      POP \t\t\t\n      JUMP [out]\t\t\t\n    tag 74\t\t\t\n      JUMPDEST \t\t\t\n      PUSH 0\t\t\t\n      PUSH 20\t\t\t\n      DUP3 \t\t\t\n      ADD \t\t\t\n      SWAP1 \t\t\t\n      POP \t\t\t\n      DUP2 \t\t\t\n      DUP2 \t\t\t\n      SUB \t\t\t\n      PUSH 0\t\t\t\n      DUP4 \t\t\t\n      ADD \t\t\t\n      MSTORE \t\t\t\n      PUSH [tag] 234\t\t\t\n      DUP2 \t\t\t\n      PUSH [tag] 198\t\t\t\n      JUMP [in]\t\t\t\n    tag 234\t\t\t\n      JUMPDEST \t\t\t\n      SWAP1 \t\t\t\n      POP \t\t\t\n      SWAP2 \t\t\t\n      SWAP1 \t\t\t\n      POP \t\t\t\n      JUMP [out]\t\t\t\n    tag 89\t\t\t\n      JUMPDEST \t\t\t\n      PUSH 0\t\t\t\n      PUSH 20\t\t\t\n      DUP3 \t\t\t\n      ADD \t\t\t\n      SWAP1 \t\t\t\n      POP \t\t\t\n      DUP2 \t\t\t\n      DUP2 \t\t\t\n      SUB \t\t\t\n      PUSH 0\t\t\t\n      DUP4 \t\t\t\n      ADD \t\t\t\n      MSTORE \t\t\t\n      PUSH [tag] 236\t\t\t\n      DUP2 \t\t\t\n      PUSH [tag] 201\t\t\t\n      JUMP [in]\t\t\t\n    tag 236\t\t\t\n      JUMPDEST \t\t\t\n      SWAP1 \t\t\t\n      POP \t\t\t\n      SWAP2 \t\t\t\n      SWAP1 \t\t\t\n      POP \t\t\t\n      JUMP [out]\t\t\t\n    tag 46\t\t\t\n      JUMPDEST \t\t\t\n      PUSH 0\t\t\t\n      PUSH C0\t\t\t\n      DUP3 \t\t\t\n      ADD \t\t\t\n      SWAP1 \t\t\t\n      POP \t\t\t\n      PUSH [tag] 238\t\t\t\n      PUSH 0\t\t\t\n      DUP4 \t\t\t\n      ADD \t\t\t\n      DUP5 \t\t\t\n      PUSH [tag] 204\t\t\t\n      JUMP [in]\t\t\t\n    tag 238\t\t\t\n      JUMPDEST \t\t\t\n      SWAP3 \t\t\t\n      SWAP2 \t\t\t\n      POP \t\t\t\n      POP \t\t\t\n      JUMP [out]\t\t\t\n    tag 14\t\t\t\n      JUMPDEST \t\t\t\n      PUSH 0\t\t\t\n      PUSH 20\t\t\t\n      DUP3 \t\t\t\n      ADD \t\t\t\n      SWAP1 \t\t\t\n      POP \t\t\t\n      PUSH [tag] 240\t\t\t\n      PUSH 0\t\t\t\n      DUP4 \t\t\t\n      ADD \t\t\t\n      DUP5 \t\t\t\n      PUSH [tag] 216\t\t\t\n      JUMP [in]\t\t\t\n    tag 240\t\t\t\n      JUMPDEST \t\t\t\n      SWAP3 \t\t\t\n      SWAP2 \t\t\t\n      POP \t\t\t\n      POP \t\t\t\n      JUMP [out]\t\t\t\n    tag 35\t\t\t\n      JUMPDEST \t\t\t\n      PUSH 0\t\t\t\n      PUSH C0\t\t\t\n      DUP3 \t\t\t\n      ADD \t\t\t\n      SWAP1 \t\t\t\n      POP \t\t\t\n      PUSH [tag] 242\t\t\t\n      PUSH 0\t\t\t\n      DUP4 \t\t\t\n      ADD \t\t\t\n      DUP10 \t\t\t\n      PUSH [tag] 216\t\t\t\n      JUMP [in]\t\t\t\n    tag 242\t\t\t\n      JUMPDEST \t\t\t\n      PUSH [tag] 243\t\t\t\n      PUSH 20\t\t\t\n      DUP4 \t\t\t\n      ADD \t\t\t\n      DUP9 \t\t\t\n      PUSH [tag] 163\t\t\t\n      JUMP [in]\t\t\t\n    tag 243\t\t\t\n      JUMPDEST \t\t\t\n      PUSH [tag] 244\t\t\t\n      PUSH 40\t\t\t\n      DUP4 \t\t\t\n      ADD \t\t\t\n      DUP8 \t\t\t\n      PUSH [tag] 216\t\t\t\n      JUMP [in]\t\t\t\n    tag 244\t\t\t\n      JUMPDEST \t\t\t\n      PUSH [tag] 245\t\t\t\n      PUSH 60\t\t\t\n      DUP4 \t\t\t\n      ADD \t\t\t\n      DUP7 \t\t\t\n      PUSH [tag] 216\t\t\t\n      JUMP [in]\t\t\t\n    tag 245\t\t\t\n      JUMPDEST \t\t\t\n      PUSH [tag] 246\t\t\t\n      PUSH 80\t\t\t\n      DUP4 \t\t\t\n      ADD \t\t\t\n      DUP6 \t\t\t\n      PUSH [tag] 216\t\t\t\n      JUMP [in]\t\t\t\n    tag 246\t\t\t\n      JUMPDEST \t\t\t\n      PUSH [tag] 247\t\t\t\n      PUSH A0\t\t\t\n      DUP4 \t\t\t\n      ADD \t\t\t\n      DUP5 \t\t\t\n      PUSH [tag] 174\t\t\t\n      JUMP [in]\t\t\t\n    tag 247\t\t\t\n      JUMPDEST \t\t\t\n      SWAP8 \t\t\t\n      SWAP7 \t\t\t\n      POP \t\t\t\n      POP \t\t\t\n      POP \t\t\t\n      POP \t\t\t\n      POP \t\t\t\n      POP \t\t\t\n      POP \t\t\t\n      JUMP [out]\t\t\t\n    tag 92\t\t\t\n      JUMPDEST \t\t\t\n      PUSH 0\t\t\t\n      PUSH 40\t\t\t\n      DUP3 \t\t\t\n      ADD \t\t\t\n      SWAP1 \t\t\t\n      POP \t\t\t\n      PUSH [tag] 249\t\t\t\n      PUSH 0\t\t\t\n      DUP4 \t\t\t\n      ADD \t\t\t\n      DUP6 \t\t\t\n      PUSH [tag] 216\t\t\t\n      JUMP [in]\t\t\t\n    tag 249\t\t\t\n      JUMPDEST \t\t\t\n      PUSH [tag] 250\t\t\t\n      PUSH 20\t\t\t\n      DUP4 \t\t\t\n      ADD \t\t\t\n      DUP5 \t\t\t\n      PUSH [tag] 174\t\t\t\n      JUMP [in]\t\t\t\n    tag 250\t\t\t\n      JUMPDEST \t\t\t\n      SWAP4 \t\t\t\n      SWAP3 \t\t\t\n      POP \t\t\t\n      POP \t\t\t\n      POP \t\t\t\n      JUMP [out]\t\t\t\n    tag 80\t\t\t\n      JUMPDEST \t\t\t\n      PUSH 0\t\t\t\n      PUSH 60\t\t\t\n      DUP3 \t\t\t\n      ADD \t\t\t\n      SWAP1 \t\t\t\n      POP \t\t\t\n      PUSH [tag] 252\t\t\t\n      PUSH 0\t\t\t\n      DUP4 \t\t\t\n      ADD \t\t\t\n      DUP7 \t\t\t\n      PUSH [tag] 216\t\t\t\n      JUMP [in]\t\t\t\n    tag 252\t\t\t\n      JUMPDEST \t\t\t\n      PUSH [tag] 253\t\t\t\n      PUSH 20\t\t\t\n      DUP4 \t\t\t\n      ADD \t\t\t\n      DUP6 \t\t\t\n      PUSH [tag] 216\t\t\t\n      JUMP [in]\t\t\t\n    tag 253\t\t\t\n      JUMPDEST \t\t\t\n      PUSH [tag] 254\t\t\t\n      PUSH 40\t\t\t\n      DUP4 \t\t\t\n      ADD \t\t\t\n      DUP5 \t\t\t\n      PUSH [tag] 174\t\t\t\n      JUMP [in]\t\t\t\n    tag 254\t\t\t\n      JUMPDEST \t\t\t\n      SWAP5 \t\t\t\n      SWAP4 \t\t\t\n      POP \t\t\t\n      POP \t\t\t\n      POP \t\t\t\n      POP \t\t\t\n      JUMP [out]\t\t\t\n    tag 108\t\t\t\n      JUMPDEST \t\t\t\n      PUSH 0\t\t\t\n      PUSH 40\t\t\t\n      MLOAD \t\t\t\n      SWAP1 \t\t\t\n      POP \t\t\t\n      DUP2 \t\t\t\n      DUP2 \t\t\t\n      ADD \t\t\t\n      DUP2 \t\t\t\n      DUP2 \t\t\t\n      LT \t\t\t\n      PUSH FFFFFFFFFFFFFFFF\t\t\t\n      DUP3 \t\t\t\n      GT \t\t\t\n      OR \t\t\t\n      ISZERO \t\t\t\n      PUSH [tag] 256\t\t\t\n      JUMPI \t\t\t\n      PUSH [tag] 257\t\t\t\n      PUSH [tag] 258\t\t\t\n      JUMP [in]\t\t\t\n    tag 257\t\t\t\n      JUMPDEST \t\t\t\n    tag 256\t\t\t\n      JUMPDEST \t\t\t\n      DUP1 \t\t\t\n      PUSH 40\t\t\t\n      MSTORE \t\t\t\n      POP \t\t\t\n      SWAP2 \t\t\t\n      SWAP1 \t\t\t\n      POP \t\t\t\n      JUMP [out]\t\t\t\n    tag 107\t\t\t\n      JUMPDEST \t\t\t\n      PUSH 0\t\t\t\n      PUSH FFFFFFFFFFFFFFFF\t\t\t\n      DUP3 \t\t\t\n      GT \t\t\t\n      ISZERO \t\t\t\n      PUSH [tag] 260\t\t\t\n      JUMPI \t\t\t\n      PUSH [tag] 261\t\t\t\n      PUSH [tag] 258\t\t\t\n      JUMP [in]\t\t\t\n    tag 261\t\t\t\n      JUMPDEST \t\t\t\n    tag 260\t\t\t\n      JUMPDEST \t\t\t\n      PUSH 1F\t\t\t\n      NOT \t\t\t\n      PUSH 1F\t\t\t\n      DUP4 \t\t\t\n      ADD \t\t\t\n      AND \t\t\t\n      SWAP1 \t\t\t\n      POP \t\t\t\n      PUSH 20\t\t\t\n      DUP2 \t\t\t\n      ADD \t\t\t\n      SWAP1 \t\t\t\n      POP \t\t\t\n      SWAP2 \t\t\t\n      SWAP1 \t\t\t\n      POP \t\t\t\n      JUMP [out]\t\t\t\n    tag 180\t\t\t\n      JUMPDEST \t\t\t\n      PUSH 0\t\t\t\n      DUP2 \t\t\t\n      MLOAD \t\t\t\n      SWAP1 \t\t\t\n      POP \t\t\t\n      SWAP2 \t\t\t\n      SWAP1 \t\t\t\n      POP \t\t\t\n      JUMP [out]\t\t\t\n    tag 182\t\t\t\n      JUMPDEST \t\t\t\n      PUSH 0\t\t\t\n      DUP3 \t\t\t\n      DUP3 \t\t\t\n      MSTORE \t\t\t\n      PUSH 20\t\t\t\n      DUP3 \t\t\t\n      ADD \t\t\t\n      SWAP1 \t\t\t\n      POP \t\t\t\n      SWAP3 \t\t\t\n      SWAP2 \t\t\t\n      POP \t\t\t\n      POP \t\t\t\n      JUMP [out]\t\t\t\n    tag 71\t\t\t\n      JUMPDEST \t\t\t\n      PUSH 0\t\t\t\n      PUSH [tag] 265\t\t\t\n      DUP3 \t\t\t\n      PUSH [tag] 215\t\t\t\n      JUMP [in]\t\t\t\n    tag 265\t\t\t\n      JUMPDEST \t\t\t\n      SWAP2 \t\t\t\n      POP \t\t\t\n      PUSH [tag] 266\t\t\t\n      DUP4 \t\t\t\n      PUSH [tag] 215\t\t\t\n      JUMP [in]\t\t\t\n    tag 266\t\t\t\n      JUMPDEST \t\t\t\n      SWAP3 \t\t\t\n      POP \t\t\t\n      DUP2 \t\t\t\n      PUSH FFFFFFFFFFFFFFFFFFFFFFFFFFFFFFFFFFFFFFFFFFFFFFFFFFFFFFFFFFFFFFFF\t\t\t\n      DIV \t\t\t\n      DUP4 \t\t\t\n      GT \t\t\t\n      DUP3 \t\t\t\n      ISZERO \t\t\t\n      ISZERO \t\t\t\n      AND \t\t\t\n      ISZERO \t\t\t\n      PUSH [tag] 267\t\t\t\n      JUMPI \t\t\t\n      PUSH [tag] 268\t\t\t\n      PUSH [tag] 269\t\t\t\n      JUMP [in]\t\t\t\n    tag 268\t\t\t\n      JUMPDEST \t\t\t\n    tag 267\t\t\t\n      JUMPDEST \t\t\t\n      DUP3 \t\t\t\n      DUP3 \t\t\t\n      MUL \t\t\t\n      SWAP1 \t\t\t\n      POP \t\t\t\n      SWAP3 \t\t\t\n      SWAP2 \t\t\t\n      POP \t\t\t\n      POP \t\t\t\n      JUMP [out]\t\t\t\n    tag 162\t\t\t\n      JUMPDEST \t\t\t\n      PUSH 0\t\t\t\n      PUSH [tag] 271\t\t\t\n      DUP3 \t\t\t\n      PUSH [tag] 272\t\t\t\n      JUMP [in]\t\t\t\n    tag 271\t\t\t\n      JUMPDEST \t\t\t\n      SWAP1 \t\t\t\n      POP \t\t\t\n      SWAP2 \t\t\t\n      SWAP1 \t\t\t\n      POP \t\t\t\n      JUMP [out]\t\t\t\n    tag 273\t\t\t\n      JUMPDEST \t\t\t\n      PUSH 0\t\t\t\n      DUP2 \t\t\t\n      SWAP1 \t\t\t\n      POP \t\t\t\n      PUSH [tag] 275\t\t\t\n      DUP3 \t\t\t\n      PUSH [tag] 276\t\t\t\n      JUMP [in]\t\t\t\n    tag 275\t\t\t\n      JUMPDEST \t\t\t\n      SWAP2 \t\t\t\n      SWAP1 \t\t\t\n      POP \t\t\t\n      JUMP [out]\t\t\t\n    tag 272\t\t\t\n      JUMPDEST \t\t\t\n      PUSH 0\t\t\t\n      PUSH FFFFFFFFFFFFFFFFFFFFFFFFFFFFFFFFFFFFFFFF\t\t\t\n      DUP3 \t\t\t\n      AND \t\t\t\n      SWAP1 \t\t\t\n      POP \t\t\t\n      SWAP2 \t\t\t\n      SWAP1 \t\t\t\n      POP \t\t\t\n      JUMP [out]\t\t\t\n    tag 215\t\t\t\n      JUMPDEST \t\t\t\n      PUSH 0\t\t\t\n      DUP2 \t\t\t\n      SWAP1 \t\t\t\n      POP \t\t\t\n      SWAP2 \t\t\t\n      SWAP1 \t\t\t\n      POP \t\t\t\n      JUMP [out]\t\t\t\n    tag 169\t\t\t\n      JUMPDEST \t\t\t\n      PUSH 0\t\t\t\n      PUSH [tag] 280\t\t\t\n      DUP3 \t\t\t\n      PUSH [tag] 281\t\t\t\n      JUMP [in]\t\t\t\n    tag 280\t\t\t\n      JUMPDEST \t\t\t\n      SWAP1 \t\t\t\n      POP \t\t\t\n      SWAP2 \t\t\t\n      SWAP1 \t\t\t\n      POP \t\t\t\n      JUMP [out]\t\t\t\n    tag 281\t\t\t\n      JUMPDEST \t\t\t\n      PUSH 0\t\t\t\n      PUSH [tag] 283\t\t\t\n      DUP3 \t\t\t\n      PUSH [tag] 272\t\t\t\n      JUMP [in]\t\t\t\n    tag 283\t\t\t\n      JUMPDEST \t\t\t\n      SWAP1 \t\t\t\n      POP \t\t\t\n      SWAP2 \t\t\t\n      SWAP1 \t\t\t\n      POP \t\t\t\n      JUMP [out]\t\t\t\n    tag 173\t\t\t\n      JUMPDEST \t\t\t\n      PUSH 0\t\t\t\n      PUSH [tag] 285\t\t\t\n      DUP3 \t\t\t\n      PUSH [tag] 273\t\t\t\n      JUMP [in]\t\t\t\n    tag 285\t\t\t\n      JUMPDEST \t\t\t\n      SWAP1 \t\t\t\n      POP \t\t\t\n      SWAP2 \t\t\t\n      SWAP1 \t\t\t\n      POP \t\t\t\n      JUMP [out]\t\t\t\n    tag 111\t\t\t\n      JUMPDEST \t\t\t\n      DUP3 \t\t\t\n      DUP2 \t\t\t\n      DUP4 \t\t\t\n      CALLDATACOPY \t\t\t\n      PUSH 0\t\t\t\n      DUP4 \t\t\t\n      DUP4 \t\t\t\n      ADD \t\t\t\n      MSTORE \t\t\t\n      POP \t\t\t\n      POP \t\t\t\n      POP \t\t\t\n      JUMP [out]\t\t\t\n    tag 118\t\t\t\n      JUMPDEST \t\t\t\n      PUSH 0\t\t\t\n    tag 288\t\t\t\n      JUMPDEST \t\t\t\n      DUP4 \t\t\t\n      DUP2 \t\t\t\n      LT \t\t\t\n      ISZERO \t\t\t\n      PUSH [tag] 290\t\t\t\n      JUMPI \t\t\t\n      DUP1 \t\t\t\n      DUP3 \t\t\t\n      ADD \t\t\t\n      MLOAD \t\t\t\n      DUP2 \t\t\t\n      DUP5 \t\t\t\n      ADD \t\t\t\n      MSTORE \t\t\t\n      PUSH 20\t\t\t\n      DUP2 \t\t\t\n      ADD \t\t\t\n      SWAP1 \t\t\t\n      POP \t\t\t\n      PUSH [tag] 288\t\t\t\n      JUMP \t\t\t\n    tag 290\t\t\t\n      JUMPDEST \t\t\t\n      DUP4 \t\t\t\n      DUP2 \t\t\t\n      GT \t\t\t\n      ISZERO \t\t\t\n      PUSH [tag] 291\t\t\t\n      JUMPI \t\t\t\n      PUSH 0\t\t\t\n      DUP5 \t\t\t\n      DUP5 \t\t\t\n      ADD \t\t\t\n      MSTORE \t\t\t\n    tag 291\t\t\t\n      JUMPDEST \t\t\t\n      POP \t\t\t\n      POP \t\t\t\n      POP \t\t\t\n      POP \t\t\t\n      JUMP [out]\t\t\t\n    tag 76\t\t\t\n      JUMPDEST \t\t\t\n      PUSH 0\t\t\t\n      PUSH [tag] 293\t\t\t\n      DUP3 \t\t\t\n      PUSH [tag] 215\t\t\t\n      JUMP [in]\t\t\t\n    tag 293\t\t\t\n      JUMPDEST \t\t\t\n      SWAP2 \t\t\t\n      POP \t\t\t\n      PUSH FFFFFFFFFFFFFFFFFFFFFFFFFFFFFFFFFFFFFFFFFFFFFFFFFFFFFFFFFFFFFFFF\t\t\t\n      DUP3 \t\t\t\n      EQ \t\t\t\n      ISZERO \t\t\t\n      PUSH [tag] 294\t\t\t\n      JUMPI \t\t\t\n      PUSH [tag] 295\t\t\t\n      PUSH [tag] 269\t\t\t\n      JUMP [in]\t\t\t\n    tag 295\t\t\t\n      JUMPDEST \t\t\t\n    tag 294\t\t\t\n      JUMPDEST \t\t\t\n      PUSH 1\t\t\t\n      DUP3 \t\t\t\n      ADD \t\t\t\n      SWAP1 \t\t\t\n      POP \t\t\t\n      SWAP2 \t\t\t\n      SWAP1 \t\t\t\n      POP \t\t\t\n      JUMP [out]\t\t\t\n    tag 269\t\t\t\n      JUMPDEST \t\t\t\n      PUSH 4E487B7100000000000000000000000000000000000000000000000000000000\t\t\t\n      PUSH 0\t\t\t\n      MSTORE \t\t\t\n      PUSH 11\t\t\t\n      PUSH 4\t\t\t\n      MSTORE \t\t\t\n      PUSH 24\t\t\t\n      PUSH 0\t\t\t\n      REVERT \t\t\t\n    tag 297\t\t\t\n      JUMPDEST \t\t\t\n      PUSH 4E487B7100000000000000000000000000000000000000000000000000000000\t\t\t\n      PUSH 0\t\t\t\n      MSTORE \t\t\t\n      PUSH 21\t\t\t\n      PUSH 4\t\t\t\n      MSTORE \t\t\t\n      PUSH 24\t\t\t\n      PUSH 0\t\t\t\n      REVERT \t\t\t\n    tag 258\t\t\t\n      JUMPDEST \t\t\t\n      PUSH 4E487B7100000000000000000000000000000000000000000000000000000000\t\t\t\n      PUSH 0\t\t\t\n      MSTORE \t\t\t\n      PUSH 41\t\t\t\n      PUSH 4\t\t\t\n      MSTORE \t\t\t\n      PUSH 24\t\t\t\n      PUSH 0\t\t\t\n      REVERT \t\t\t\n    tag 185\t\t\t\n      JUMPDEST \t\t\t\n      PUSH 0\t\t\t\n      PUSH 1F\t\t\t\n      NOT \t\t\t\n      PUSH 1F\t\t\t\n      DUP4 \t\t\t\n      ADD \t\t\t\n      AND \t\t\t\n      SWAP1 \t\t\t\n      POP \t\t\t\n      SWAP2 \t\t\t\n      SWAP1 \t\t\t\n      POP \t\t\t\n      JUMP [out]\t\t\t\n    tag 276\t\t\t\n      JUMPDEST \t\t\t\n      PUSH 4\t\t\t\n      DUP2 \t\t\t\n      LT \t\t\t\n      PUSH [tag] 302\t\t\t\n      JUMPI \t\t\t\n      PUSH [tag] 303\t\t\t\n      PUSH [tag] 297\t\t\t\n      JUMP [in]\t\t\t\n    tag 303\t\t\t\n      JUMPDEST \t\t\t\n    tag 302\t\t\t\n      JUMPDEST \t\t\t\n      POP \t\t\t\n      JUMP [out]\t\t\t\n    tag 122\t\t\t\n      JUMPDEST \t\t\t\n      PUSH 4\t\t\t\n      DUP2 \t\t\t\n      LT \t\t\t\n      PUSH [tag] 305\t\t\t\n      JUMPI \t\t\t\n      PUSH 0\t\t\t\n      DUP1 \t\t\t\n      REVERT \t\t\t\n    tag 305\t\t\t\n      JUMPDEST \t\t\t\n      POP \t\t\t\n      JUMP [out]\t\t\t\n    tag 134\t\t\t\n      JUMPDEST \t\t\t\n      PUSH [tag] 307\t\t\t\n      DUP2 \t\t\t\n      PUSH [tag] 215\t\t\t\n      JUMP [in]\t\t\t\n    tag 307\t\t\t\n      JUMPDEST \t\t\t\n      DUP2 \t\t\t\n      EQ \t\t\t\n      PUSH [tag] 308\t\t\t\n      JUMPI \t\t\t\n      PUSH 0\t\t\t\n      DUP1 \t\t\t\n      REVERT \t\t\t\n    tag 308\t\t\t\n      JUMPDEST \t\t\t\n      POP \t\t\t\n      JUMP [out]\t\t\t\n    .data\n"
}