{
	"compilerInput": "{\"language\":\"Solidity\",\"sources\":{\"contracts/PaymentHandler.sol\":{\"content\":\"// SPDX-License-Identifier: MIT\\npragma solidity ^0.8.0;\\n\\nimport \\\"./OrderProcessor.sol\\\";\\n\\ncontract PaymentHandler {\\n    OrderProcessor public orderProcessor;\\n    address public owner;\\n\\n    event PaymentReceived(address indexed payer, uint256 orderId, uint256 amount);\\n\\n    constructor(address _orderProcessor) {\\n        require(_orderProcessor != address(0), \\\"Invalid OrderProcessor address\\\");\\n        orderProcessor = OrderProcessor(_orderProcessor);\\n        owner = msg.sender;\\n    }\\n\\n    modifier onlyOwner() {\\n        require(msg.sender == owner, \\\"Only the contract owner can call this function\\\");\\n        _;\\n    }\\n\\n    function receivePayment(uint256 _orderId) public payable {\\n        require(msg.value > 0, \\\"Payment amount must be greater than 0\\\");\\n\\n        OrderProcessor.Order memory order = orderProcessor.getOrder(_orderId);\\n        require(order.buyer == msg.sender, \\\"Only the buyer can make payments for their order\\\");\\n        require(order.status == OrderProcessor.OrderStatus.Pending, \\\"Payment can only be made for pending orders\\\");\\n\\n        require(msg.value >= order.totalAmount, \\\"Insufficient payment\\\");\\n\\n        orderProcessor.updateOrderStatus(_orderId, OrderProcessor.OrderStatus.Shipped);\\n\\n        uint256 refundAmount = msg.value - order.totalAmount;\\n\\n        (bool sent, ) = owner.call{value: order.totalAmount}(\\\"\\\");\\n        require(sent, \\\"Failed to send Ether\\\");\\n\\n        if (refundAmount > 0) {\\n            (bool refunded, ) = msg.sender.call{value: refundAmount}(\\\"\\\");\\n            require(refunded, \\\"Failed to refund Ether\\\");\\n        }\\n\\n        emit PaymentReceived(msg.sender, _orderId, order.totalAmount);\\n    }\\n}\"},\"contracts/OrderProcessor.sol\":{\"content\":\"// SPDX-License-Identifier: MIT\\npragma solidity ^0.8.0;\\n\\nimport \\\"./ItemRegistry.sol\\\";\\n\\ncontract OrderProcessor {\\n    ItemRegistry public itemRegistry;\\n    address public owner;\\n\\n    enum OrderStatus { Pending, Shipped, Delivered, Canceled }\\n    struct Order {\\n        uint256 orderId;\\n        address buyer;\\n        uint256 itemId;\\n        uint256 quantity;\\n        uint256 totalAmount;\\n        OrderStatus status;\\n    }\\n\\n    mapping(uint256 => Order) public orders;\\n    uint256 public orderCount;\\n\\n    event OrderPlaced(uint256 indexed orderId, address indexed buyer, uint256 indexed itemId, uint256 quantity, uint256 totalAmount, OrderStatus status);\\n    event OrderStatusUpdated(uint256 orderId, OrderStatus status);\\n\\n    constructor(address _itemRegistry) {\\n        require(_itemRegistry != address(0), \\\"Invalid ItemRegistry address\\\");\\n        itemRegistry = ItemRegistry(_itemRegistry);\\n        owner = msg.sender;\\n    }\\n\\n    modifier onlyOwner() {\\n        require(msg.sender == owner, \\\"Only the owner can call this function\\\");\\n        _;\\n    }\\n\\n    function placeOrder(string memory _itemName, uint256 _quantity) public payable {\\n        require(_quantity > 0, \\\"Quantity must be greater than 0\\\");\\n        require(msg.value > 0, \\\"Payment must be sent with the order\\\");\\n\\n        uint256 itemId = itemRegistry.getItemIdByName(_itemName); // Get item ID by name\\n\\n        require(itemId > 0, \\\"Invalid item name\\\");\\n\\n        (, , uint256 itemPrice) = itemRegistry.getItem(itemId); // Get item details by ID\\n\\n        uint256 totalAmount = itemPrice * _quantity;\\n\\n        require(msg.value >= totalAmount, \\\"Insufficient payment\\\");\\n\\n        orderCount++;\\n\\n        orders[orderCount] = Order({\\n            orderId: orderCount,\\n            buyer: msg.sender,\\n            itemId: itemId,\\n            quantity: _quantity,\\n            totalAmount: totalAmount,\\n            status: OrderStatus.Pending\\n        });\\n\\n        emit OrderPlaced(orderCount, msg.sender, itemId, _quantity, totalAmount, OrderStatus.Pending);\\n    }\\n    function updateOrderStatus(uint256 _orderId, OrderStatus _status) public onlyOwner {\\n        require(_orderId > 0 && _orderId <= orderCount, \\\"Invalid order ID\\\");\\n        require(_status >= OrderStatus.Pending && _status <= OrderStatus.Canceled, \\\"Invalid order status\\\");\\n\\n        orders[_orderId].status = _status;\\n        emit OrderStatusUpdated(_orderId, _status);\\n    }\\n\\n    function getOrder(uint256 _orderId) public view returns (Order memory) {\\n        require(_orderId > 0 && _orderId <= orderCount, \\\"Invalid order ID\\\");\\n        return orders[_orderId];\\n    }\\n}\\n\"},\"contracts/ItemRegistry.sol\":{\"content\":\"// SPDX-License-Identifier: MIT\\npragma solidity ^0.8.0;\\n\\ncontract ItemRegistry {\\n    struct MedicalItem {\\n        string name;       \\n        uint256 quantity;  \\n        uint256 price;     \\n    }\\n\\n    mapping(uint256 => MedicalItem) public items;\\n    mapping(string => uint256) public itemIdsByName; // Mapping from item name to item ID\\n    uint256 public itemCount;\\n\\n    event ItemAdded(uint256 itemId, string name, uint256 quantity, uint256 price);\\n\\n    // Function to add a new medical item to the inventory\\n    function addItem(string memory _name, uint256 _quantity, uint256 _price) public {\\n        require(_quantity > 0, \\\"Quantity must be greater than 0\\\");\\n        require(itemIdsByName[_name] == 0, \\\"Item with the same name already exists\\\"); // Ensure unique item names\\n        itemCount++;\\n        uint256 itemId = itemCount; // Assign a new unique item ID\\n        items[itemId] = MedicalItem(_name, _quantity, _price);\\n        itemIdsByName[_name] = itemId; // Store the mapping from name to ID\\n        emit ItemAdded(itemId, _name, _quantity, _price);\\n    }\\n\\n    // Function to get information about a specific item by its ID\\n    function getItem(uint256 _itemId)\\n        public\\n        view\\n        returns (\\n            string memory name,\\n            uint256 quantity,\\n            uint256 price\\n        )\\n    {\\n        require(_itemId > 0 && _itemId <= itemCount, \\\"Invalid item ID\\\");\\n        MedicalItem storage item = items[_itemId];\\n        return (item.name, item.quantity, item.price);\\n    }\\n\\n    // Function to get information about a specific item by its name\\n    function getItemIdByName(string memory _name)\\n        public\\n        view\\n        returns (uint256)\\n    {\\n        uint256 itemId = itemIdsByName[_name];\\n        require(itemId > 0, \\\"Item not found\\\");\\n        return itemId;\\n    }\\n}\\n\"}},\"settings\":{\"optimizer\":{\"enabled\":false,\"runs\":200},\"outputSelection\":{\"*\":{\"\":[\"ast\"],\"*\":[\"abi\",\"metadata\",\"devdoc\",\"userdoc\",\"storageLayout\",\"evm.legacyAssembly\",\"evm.bytecode\",\"evm.deployedBytecode\",\"evm.methodIdentifiers\",\"evm.gasEstimates\",\"evm.assembly\"]}}}}",
	"name": "PaymentHandler",
	"bytecode": {
		"linkReferences": {},
		"object": "60806040523480156200001157600080fd5b5060405162000f4038038062000f40833981810160405281019062000037919062000149565b600073ffffffffffffffffffffffffffffffffffffffff168173ffffffffffffffffffffffffffffffffffffffff161415620000aa576040517f08c379a0000000000000000000000000000000000000000000000000000000008152600401620000a190620001b7565b60405180910390fd5b806000806101000a81548173ffffffffffffffffffffffffffffffffffffffff021916908373ffffffffffffffffffffffffffffffffffffffff16021790555033600160006101000a81548173ffffffffffffffffffffffffffffffffffffffff021916908373ffffffffffffffffffffffffffffffffffffffff1602179055505062000238565b60008151905062000143816200021e565b92915050565b6000602082840312156200015c57600080fd5b60006200016c8482850162000132565b91505092915050565b600062000184601e83620001d9565b91507f496e76616c6964204f7264657250726f636573736f72206164647265737300006000830152602082019050919050565b60006020820190508181036000830152620001d28162000175565b9050919050565b600082825260208201905092915050565b6000620001f782620001fe565b9050919050565b600073ffffffffffffffffffffffffffffffffffffffff82169050919050565b6200022981620001ea565b81146200023557600080fd5b50565b610cf880620002486000396000f3fe6080604052600436106100345760003560e01c80638da5cb5b14610039578063d2b1527914610064578063e2eab4831461008f575b600080fd5b34801561004557600080fd5b5061004e6100ab565b60405161005b919061097a565b60405180910390f35b34801561007057600080fd5b506100796100d1565b6040516100869190610995565b60405180910390f35b6100a960048036038101906100a491906106f4565b6100f5565b005b600160009054906101000a900473ffffffffffffffffffffffffffffffffffffffff1681565b60008054906101000a900473ffffffffffffffffffffffffffffffffffffffff1681565b60003411610138576040517f08c379a000000000000000000000000000000000000000000000000000000000815260040161012f906109d0565b60405180910390fd5b60008060009054906101000a900473ffffffffffffffffffffffffffffffffffffffff1673ffffffffffffffffffffffffffffffffffffffff1663d09ef241836040518263ffffffff1660e01b81526004016101949190610a70565b60c06040518083038186803b1580156101ac57600080fd5b505afa1580156101c0573d6000803e3d6000fd5b505050506040513d601f19601f820116820180604052508101906101e491906106cb565b90503373ffffffffffffffffffffffffffffffffffffffff16816020015173ffffffffffffffffffffffffffffffffffffffff1614610258576040517f08c379a000000000000000000000000000000000000000000000000000000000815260040161024f906109f0565b60405180910390fd5b60006003811115610292577f4e487b7100000000000000000000000000000000000000000000000000000000600052602160045260246000fd5b8160a0015160038111156102cf577f4e487b7100000000000000000000000000000000000000000000000000000000600052602160045260246000fd5b1461030f576040517f08c379a000000000000000000000000000000000000000000000000000000000815260040161030690610a10565b60405180910390fd5b8060800151341015610356576040517f08c379a000000000000000000000000000000000000000000000000000000000815260040161034d90610a30565b60405180910390fd5b60008054906101000a900473ffffffffffffffffffffffffffffffffffffffff1673ffffffffffffffffffffffffffffffffffffffff1663aab3196d8360016040518363ffffffff1660e01b81526004016103b2929190610a8b565b600060405180830381600087803b1580156103cc57600080fd5b505af11580156103e0573d6000803e3d6000fd5b5050505060008160800151346103f69190610b2a565b90506000600160009054906101000a900473ffffffffffffffffffffffffffffffffffffffff1673ffffffffffffffffffffffffffffffffffffffff16836080015160405161044490610965565b60006040518083038185875af1925050503d8060008114610481576040519150601f19603f3d011682016040523d82523d6000602084013e610486565b606091505b50509050806104ca576040517f08c379a00000000000000000000000000000000000000000000000000000000081526004016104c1906109b0565b60405180910390fd5b60008211156105815760003373ffffffffffffffffffffffffffffffffffffffff16836040516104f990610965565b60006040518083038185875af1925050503d8060008114610536576040519150601f19603f3d011682016040523d82523d6000602084013e61053b565b606091505b505090508061057f576040517f08c379a000000000000000000000000000000000000000000000000000000000815260040161057690610a50565b60405180910390fd5b505b3373ffffffffffffffffffffffffffffffffffffffff167f5677b5d4cf976ac32defbd95a6a5aaf0d1fee450a11fc26f3c11aae6e6c33d068585608001516040516105cd929190610ab4565b60405180910390a250505050565b6000815190506105ea81610c84565b92915050565b6000815190506105ff81610c9b565b92915050565b600060c0828403121561061757600080fd5b61062160c0610add565b90506000610631848285016106b6565b6000830152506020610645848285016105db565b6020830152506040610659848285016106b6565b604083015250606061066d848285016106b6565b6060830152506080610681848285016106b6565b60808301525060a0610695848285016105f0565b60a08301525092915050565b6000813590506106b081610cab565b92915050565b6000815190506106c581610cab565b92915050565b600060c082840312156106dd57600080fd5b60006106eb84828501610605565b91505092915050565b60006020828403121561070657600080fd5b6000610714848285016106a1565b91505092915050565b61072681610b5e565b82525050565b61073581610bad565b82525050565b61074481610bd1565b82525050565b6000610757601483610b19565b91507f4661696c656420746f2073656e642045746865720000000000000000000000006000830152602082019050919050565b6000610797602583610b19565b91507f5061796d656e7420616d6f756e74206d7573742062652067726561746572207460008301527f68616e20300000000000000000000000000000000000000000000000000000006020830152604082019050919050565b60006107fd603083610b19565b91507f4f6e6c79207468652062757965722063616e206d616b65207061796d656e747360008301527f20666f72207468656972206f72646572000000000000000000000000000000006020830152604082019050919050565b6000610863602b83610b19565b91507f5061796d656e742063616e206f6e6c79206265206d61646520666f722070656e60008301527f64696e67206f72646572730000000000000000000000000000000000000000006020830152604082019050919050565b60006108c9601483610b19565b91507f496e73756666696369656e74207061796d656e740000000000000000000000006000830152602082019050919050565b6000610909601683610b19565b91507f4661696c656420746f20726566756e64204574686572000000000000000000006000830152602082019050919050565b6000610949600083610b0e565b9150600082019050919050565b61095f81610ba3565b82525050565b60006109708261093c565b9150819050919050565b600060208201905061098f600083018461071d565b92915050565b60006020820190506109aa600083018461072c565b92915050565b600060208201905081810360008301526109c98161074a565b9050919050565b600060208201905081810360008301526109e98161078a565b9050919050565b60006020820190508181036000830152610a09816107f0565b9050919050565b60006020820190508181036000830152610a2981610856565b9050919050565b60006020820190508181036000830152610a49816108bc565b9050919050565b60006020820190508181036000830152610a69816108fc565b9050919050565b6000602082019050610a856000830184610956565b92915050565b6000604082019050610aa06000830185610956565b610aad602083018461073b565b9392505050565b6000604082019050610ac96000830185610956565b610ad66020830184610956565b9392505050565b6000604051905081810181811067ffffffffffffffff82111715610b0457610b03610c41565b5b8060405250919050565b600081905092915050565b600082825260208201905092915050565b6000610b3582610ba3565b9150610b4083610ba3565b925082821015610b5357610b52610be3565b5b828203905092915050565b6000610b6982610b83565b9050919050565b6000819050610b7e82610c70565b919050565b600073ffffffffffffffffffffffffffffffffffffffff82169050919050565b6000819050919050565b6000610bb882610bbf565b9050919050565b6000610bca82610b83565b9050919050565b6000610bdc82610b70565b9050919050565b7f4e487b7100000000000000000000000000000000000000000000000000000000600052601160045260246000fd5b7f4e487b7100000000000000000000000000000000000000000000000000000000600052602160045260246000fd5b7f4e487b7100000000000000000000000000000000000000000000000000000000600052604160045260246000fd5b60048110610c8157610c80610c12565b5b50565b610c8d81610b5e565b8114610c9857600080fd5b50565b60048110610ca857600080fd5b50565b610cb481610ba3565b8114610cbf57600080fd5b5056fea2646970667358221220b01fd1afe21ee61b0ef8b8119538fdf471f3d9f4590aca0d869f528a7f4c30c264736f6c63430008000033",
		"opcodes": "PUSH1 0x80 PUSH1 0x40 MSTORE CALLVALUE DUP1 ISZERO PUSH3 0x11 JUMPI PUSH1 0x0 DUP1 REVERT JUMPDEST POP PUSH1 0x40 MLOAD PUSH3 0xF40 CODESIZE SUB DUP1 PUSH3 0xF40 DUP4 CODECOPY DUP2 DUP2 ADD PUSH1 0x40 MSTORE DUP2 ADD SWAP1 PUSH3 0x37 SWAP2 SWAP1 PUSH3 0x149 JUMP JUMPDEST PUSH1 0x0 PUSH20 0xFFFFFFFFFFFFFFFFFFFFFFFFFFFFFFFFFFFFFFFF AND DUP2 PUSH20 0xFFFFFFFFFFFFFFFFFFFFFFFFFFFFFFFFFFFFFFFF AND EQ ISZERO PUSH3 0xAA JUMPI PUSH1 0x40 MLOAD PUSH32 0x8C379A000000000000000000000000000000000000000000000000000000000 DUP2 MSTORE PUSH1 0x4 ADD PUSH3 0xA1 SWAP1 PUSH3 0x1B7 JUMP JUMPDEST PUSH1 0x40 MLOAD DUP1 SWAP2 SUB SWAP1 REVERT JUMPDEST DUP1 PUSH1 0x0 DUP1 PUSH2 0x100 EXP DUP2 SLOAD DUP2 PUSH20 0xFFFFFFFFFFFFFFFFFFFFFFFFFFFFFFFFFFFFFFFF MUL NOT AND SWAP1 DUP4 PUSH20 0xFFFFFFFFFFFFFFFFFFFFFFFFFFFFFFFFFFFFFFFF AND MUL OR SWAP1 SSTORE POP CALLER PUSH1 0x1 PUSH1 0x0 PUSH2 0x100 EXP DUP2 SLOAD DUP2 PUSH20 0xFFFFFFFFFFFFFFFFFFFFFFFFFFFFFFFFFFFFFFFF MUL NOT AND SWAP1 DUP4 PUSH20 0xFFFFFFFFFFFFFFFFFFFFFFFFFFFFFFFFFFFFFFFF AND MUL OR SWAP1 SSTORE POP POP PUSH3 0x238 JUMP JUMPDEST PUSH1 0x0 DUP2 MLOAD SWAP1 POP PUSH3 0x143 DUP2 PUSH3 0x21E JUMP JUMPDEST SWAP3 SWAP2 POP POP JUMP JUMPDEST PUSH1 0x0 PUSH1 0x20 DUP3 DUP5 SUB SLT ISZERO PUSH3 0x15C JUMPI PUSH1 0x0 DUP1 REVERT JUMPDEST PUSH1 0x0 PUSH3 0x16C DUP5 DUP3 DUP6 ADD PUSH3 0x132 JUMP JUMPDEST SWAP2 POP POP SWAP3 SWAP2 POP POP JUMP JUMPDEST PUSH1 0x0 PUSH3 0x184 PUSH1 0x1E DUP4 PUSH3 0x1D9 JUMP JUMPDEST SWAP2 POP PUSH32 0x496E76616C6964204F7264657250726F636573736F7220616464726573730000 PUSH1 0x0 DUP4 ADD MSTORE PUSH1 0x20 DUP3 ADD SWAP1 POP SWAP2 SWAP1 POP JUMP JUMPDEST PUSH1 0x0 PUSH1 0x20 DUP3 ADD SWAP1 POP DUP2 DUP2 SUB PUSH1 0x0 DUP4 ADD MSTORE PUSH3 0x1D2 DUP2 PUSH3 0x175 JUMP JUMPDEST SWAP1 POP SWAP2 SWAP1 POP JUMP JUMPDEST PUSH1 0x0 DUP3 DUP3 MSTORE PUSH1 0x20 DUP3 ADD SWAP1 POP SWAP3 SWAP2 POP POP JUMP JUMPDEST PUSH1 0x0 PUSH3 0x1F7 DUP3 PUSH3 0x1FE JUMP JUMPDEST SWAP1 POP SWAP2 SWAP1 POP JUMP JUMPDEST PUSH1 0x0 PUSH20 0xFFFFFFFFFFFFFFFFFFFFFFFFFFFFFFFFFFFFFFFF DUP3 AND SWAP1 POP SWAP2 SWAP1 POP JUMP JUMPDEST PUSH3 0x229 DUP2 PUSH3 0x1EA JUMP JUMPDEST DUP2 EQ PUSH3 0x235 JUMPI PUSH1 0x0 DUP1 REVERT JUMPDEST POP JUMP JUMPDEST PUSH2 0xCF8 DUP1 PUSH3 0x248 PUSH1 0x0 CODECOPY PUSH1 0x0 RETURN INVALID PUSH1 0x80 PUSH1 0x40 MSTORE PUSH1 0x4 CALLDATASIZE LT PUSH2 0x34 JUMPI PUSH1 0x0 CALLDATALOAD PUSH1 0xE0 SHR DUP1 PUSH4 0x8DA5CB5B EQ PUSH2 0x39 JUMPI DUP1 PUSH4 0xD2B15279 EQ PUSH2 0x64 JUMPI DUP1 PUSH4 0xE2EAB483 EQ PUSH2 0x8F JUMPI JUMPDEST PUSH1 0x0 DUP1 REVERT JUMPDEST CALLVALUE DUP1 ISZERO PUSH2 0x45 JUMPI PUSH1 0x0 DUP1 REVERT JUMPDEST POP PUSH2 0x4E PUSH2 0xAB JUMP JUMPDEST PUSH1 0x40 MLOAD PUSH2 0x5B SWAP2 SWAP1 PUSH2 0x97A JUMP JUMPDEST PUSH1 0x40 MLOAD DUP1 SWAP2 SUB SWAP1 RETURN JUMPDEST CALLVALUE DUP1 ISZERO PUSH2 0x70 JUMPI PUSH1 0x0 DUP1 REVERT JUMPDEST POP PUSH2 0x79 PUSH2 0xD1 JUMP JUMPDEST PUSH1 0x40 MLOAD PUSH2 0x86 SWAP2 SWAP1 PUSH2 0x995 JUMP JUMPDEST PUSH1 0x40 MLOAD DUP1 SWAP2 SUB SWAP1 RETURN JUMPDEST PUSH2 0xA9 PUSH1 0x4 DUP1 CALLDATASIZE SUB DUP2 ADD SWAP1 PUSH2 0xA4 SWAP2 SWAP1 PUSH2 0x6F4 JUMP JUMPDEST PUSH2 0xF5 JUMP JUMPDEST STOP JUMPDEST PUSH1 0x1 PUSH1 0x0 SWAP1 SLOAD SWAP1 PUSH2 0x100 EXP SWAP1 DIV PUSH20 0xFFFFFFFFFFFFFFFFFFFFFFFFFFFFFFFFFFFFFFFF AND DUP2 JUMP JUMPDEST PUSH1 0x0 DUP1 SLOAD SWAP1 PUSH2 0x100 EXP SWAP1 DIV PUSH20 0xFFFFFFFFFFFFFFFFFFFFFFFFFFFFFFFFFFFFFFFF AND DUP2 JUMP JUMPDEST PUSH1 0x0 CALLVALUE GT PUSH2 0x138 JUMPI PUSH1 0x40 MLOAD PUSH32 0x8C379A000000000000000000000000000000000000000000000000000000000 DUP2 MSTORE PUSH1 0x4 ADD PUSH2 0x12F SWAP1 PUSH2 0x9D0 JUMP JUMPDEST PUSH1 0x40 MLOAD DUP1 SWAP2 SUB SWAP1 REVERT JUMPDEST PUSH1 0x0 DUP1 PUSH1 0x0 SWAP1 SLOAD SWAP1 PUSH2 0x100 EXP SWAP1 DIV PUSH20 0xFFFFFFFFFFFFFFFFFFFFFFFFFFFFFFFFFFFFFFFF AND PUSH20 0xFFFFFFFFFFFFFFFFFFFFFFFFFFFFFFFFFFFFFFFF AND PUSH4 0xD09EF241 DUP4 PUSH1 0x40 MLOAD DUP3 PUSH4 0xFFFFFFFF AND PUSH1 0xE0 SHL DUP2 MSTORE PUSH1 0x4 ADD PUSH2 0x194 SWAP2 SWAP1 PUSH2 0xA70 JUMP JUMPDEST PUSH1 0xC0 PUSH1 0x40 MLOAD DUP1 DUP4 SUB DUP2 DUP7 DUP1 EXTCODESIZE ISZERO DUP1 ISZERO PUSH2 0x1AC JUMPI PUSH1 0x0 DUP1 REVERT JUMPDEST POP GAS STATICCALL ISZERO DUP1 ISZERO PUSH2 0x1C0 JUMPI RETURNDATASIZE PUSH1 0x0 DUP1 RETURNDATACOPY RETURNDATASIZE PUSH1 0x0 REVERT JUMPDEST POP POP POP POP PUSH1 0x40 MLOAD RETURNDATASIZE PUSH1 0x1F NOT PUSH1 0x1F DUP3 ADD AND DUP3 ADD DUP1 PUSH1 0x40 MSTORE POP DUP2 ADD SWAP1 PUSH2 0x1E4 SWAP2 SWAP1 PUSH2 0x6CB JUMP JUMPDEST SWAP1 POP CALLER PUSH20 0xFFFFFFFFFFFFFFFFFFFFFFFFFFFFFFFFFFFFFFFF AND DUP2 PUSH1 0x20 ADD MLOAD PUSH20 0xFFFFFFFFFFFFFFFFFFFFFFFFFFFFFFFFFFFFFFFF AND EQ PUSH2 0x258 JUMPI PUSH1 0x40 MLOAD PUSH32 0x8C379A000000000000000000000000000000000000000000000000000000000 DUP2 MSTORE PUSH1 0x4 ADD PUSH2 0x24F SWAP1 PUSH2 0x9F0 JUMP JUMPDEST PUSH1 0x40 MLOAD DUP1 SWAP2 SUB SWAP1 REVERT JUMPDEST PUSH1 0x0 PUSH1 0x3 DUP2 GT ISZERO PUSH2 0x292 JUMPI PUSH32 0x4E487B7100000000000000000000000000000000000000000000000000000000 PUSH1 0x0 MSTORE PUSH1 0x21 PUSH1 0x4 MSTORE PUSH1 0x24 PUSH1 0x0 REVERT JUMPDEST DUP2 PUSH1 0xA0 ADD MLOAD PUSH1 0x3 DUP2 GT ISZERO PUSH2 0x2CF JUMPI PUSH32 0x4E487B7100000000000000000000000000000000000000000000000000000000 PUSH1 0x0 MSTORE PUSH1 0x21 PUSH1 0x4 MSTORE PUSH1 0x24 PUSH1 0x0 REVERT JUMPDEST EQ PUSH2 0x30F JUMPI PUSH1 0x40 MLOAD PUSH32 0x8C379A000000000000000000000000000000000000000000000000000000000 DUP2 MSTORE PUSH1 0x4 ADD PUSH2 0x306 SWAP1 PUSH2 0xA10 JUMP JUMPDEST PUSH1 0x40 MLOAD DUP1 SWAP2 SUB SWAP1 REVERT JUMPDEST DUP1 PUSH1 0x80 ADD MLOAD CALLVALUE LT ISZERO PUSH2 0x356 JUMPI PUSH1 0x40 MLOAD PUSH32 0x8C379A000000000000000000000000000000000000000000000000000000000 DUP2 MSTORE PUSH1 0x4 ADD PUSH2 0x34D SWAP1 PUSH2 0xA30 JUMP JUMPDEST PUSH1 0x40 MLOAD DUP1 SWAP2 SUB SWAP1 REVERT JUMPDEST PUSH1 0x0 DUP1 SLOAD SWAP1 PUSH2 0x100 EXP SWAP1 DIV PUSH20 0xFFFFFFFFFFFFFFFFFFFFFFFFFFFFFFFFFFFFFFFF AND PUSH20 0xFFFFFFFFFFFFFFFFFFFFFFFFFFFFFFFFFFFFFFFF AND PUSH4 0xAAB3196D DUP4 PUSH1 0x1 PUSH1 0x40 MLOAD DUP4 PUSH4 0xFFFFFFFF AND PUSH1 0xE0 SHL DUP2 MSTORE PUSH1 0x4 ADD PUSH2 0x3B2 SWAP3 SWAP2 SWAP1 PUSH2 0xA8B JUMP JUMPDEST PUSH1 0x0 PUSH1 0x40 MLOAD DUP1 DUP4 SUB DUP2 PUSH1 0x0 DUP8 DUP1 EXTCODESIZE ISZERO DUP1 ISZERO PUSH2 0x3CC JUMPI PUSH1 0x0 DUP1 REVERT JUMPDEST POP GAS CALL ISZERO DUP1 ISZERO PUSH2 0x3E0 JUMPI RETURNDATASIZE PUSH1 0x0 DUP1 RETURNDATACOPY RETURNDATASIZE PUSH1 0x0 REVERT JUMPDEST POP POP POP POP PUSH1 0x0 DUP2 PUSH1 0x80 ADD MLOAD CALLVALUE PUSH2 0x3F6 SWAP2 SWAP1 PUSH2 0xB2A JUMP JUMPDEST SWAP1 POP PUSH1 0x0 PUSH1 0x1 PUSH1 0x0 SWAP1 SLOAD SWAP1 PUSH2 0x100 EXP SWAP1 DIV PUSH20 0xFFFFFFFFFFFFFFFFFFFFFFFFFFFFFFFFFFFFFFFF AND PUSH20 0xFFFFFFFFFFFFFFFFFFFFFFFFFFFFFFFFFFFFFFFF AND DUP4 PUSH1 0x80 ADD MLOAD PUSH1 0x40 MLOAD PUSH2 0x444 SWAP1 PUSH2 0x965 JUMP JUMPDEST PUSH1 0x0 PUSH1 0x40 MLOAD DUP1 DUP4 SUB DUP2 DUP6 DUP8 GAS CALL SWAP3 POP POP POP RETURNDATASIZE DUP1 PUSH1 0x0 DUP2 EQ PUSH2 0x481 JUMPI PUSH1 0x40 MLOAD SWAP2 POP PUSH1 0x1F NOT PUSH1 0x3F RETURNDATASIZE ADD AND DUP3 ADD PUSH1 0x40 MSTORE RETURNDATASIZE DUP3 MSTORE RETURNDATASIZE PUSH1 0x0 PUSH1 0x20 DUP5 ADD RETURNDATACOPY PUSH2 0x486 JUMP JUMPDEST PUSH1 0x60 SWAP2 POP JUMPDEST POP POP SWAP1 POP DUP1 PUSH2 0x4CA JUMPI PUSH1 0x40 MLOAD PUSH32 0x8C379A000000000000000000000000000000000000000000000000000000000 DUP2 MSTORE PUSH1 0x4 ADD PUSH2 0x4C1 SWAP1 PUSH2 0x9B0 JUMP JUMPDEST PUSH1 0x40 MLOAD DUP1 SWAP2 SUB SWAP1 REVERT JUMPDEST PUSH1 0x0 DUP3 GT ISZERO PUSH2 0x581 JUMPI PUSH1 0x0 CALLER PUSH20 0xFFFFFFFFFFFFFFFFFFFFFFFFFFFFFFFFFFFFFFFF AND DUP4 PUSH1 0x40 MLOAD PUSH2 0x4F9 SWAP1 PUSH2 0x965 JUMP JUMPDEST PUSH1 0x0 PUSH1 0x40 MLOAD DUP1 DUP4 SUB DUP2 DUP6 DUP8 GAS CALL SWAP3 POP POP POP RETURNDATASIZE DUP1 PUSH1 0x0 DUP2 EQ PUSH2 0x536 JUMPI PUSH1 0x40 MLOAD SWAP2 POP PUSH1 0x1F NOT PUSH1 0x3F RETURNDATASIZE ADD AND DUP3 ADD PUSH1 0x40 MSTORE RETURNDATASIZE DUP3 MSTORE RETURNDATASIZE PUSH1 0x0 PUSH1 0x20 DUP5 ADD RETURNDATACOPY PUSH2 0x53B JUMP JUMPDEST PUSH1 0x60 SWAP2 POP JUMPDEST POP POP SWAP1 POP DUP1 PUSH2 0x57F JUMPI PUSH1 0x40 MLOAD PUSH32 0x8C379A000000000000000000000000000000000000000000000000000000000 DUP2 MSTORE PUSH1 0x4 ADD PUSH2 0x576 SWAP1 PUSH2 0xA50 JUMP JUMPDEST PUSH1 0x40 MLOAD DUP1 SWAP2 SUB SWAP1 REVERT JUMPDEST POP JUMPDEST CALLER PUSH20 0xFFFFFFFFFFFFFFFFFFFFFFFFFFFFFFFFFFFFFFFF AND PUSH32 0x5677B5D4CF976AC32DEFBD95A6A5AAF0D1FEE450A11FC26F3C11AAE6E6C33D06 DUP6 DUP6 PUSH1 0x80 ADD MLOAD PUSH1 0x40 MLOAD PUSH2 0x5CD SWAP3 SWAP2 SWAP1 PUSH2 0xAB4 JUMP JUMPDEST PUSH1 0x40 MLOAD DUP1 SWAP2 SUB SWAP1 LOG2 POP POP POP POP JUMP JUMPDEST PUSH1 0x0 DUP2 MLOAD SWAP1 POP PUSH2 0x5EA DUP2 PUSH2 0xC84 JUMP JUMPDEST SWAP3 SWAP2 POP POP JUMP JUMPDEST PUSH1 0x0 DUP2 MLOAD SWAP1 POP PUSH2 0x5FF DUP2 PUSH2 0xC9B JUMP JUMPDEST SWAP3 SWAP2 POP POP JUMP JUMPDEST PUSH1 0x0 PUSH1 0xC0 DUP3 DUP5 SUB SLT ISZERO PUSH2 0x617 JUMPI PUSH1 0x0 DUP1 REVERT JUMPDEST PUSH2 0x621 PUSH1 0xC0 PUSH2 0xADD JUMP JUMPDEST SWAP1 POP PUSH1 0x0 PUSH2 0x631 DUP5 DUP3 DUP6 ADD PUSH2 0x6B6 JUMP JUMPDEST PUSH1 0x0 DUP4 ADD MSTORE POP PUSH1 0x20 PUSH2 0x645 DUP5 DUP3 DUP6 ADD PUSH2 0x5DB JUMP JUMPDEST PUSH1 0x20 DUP4 ADD MSTORE POP PUSH1 0x40 PUSH2 0x659 DUP5 DUP3 DUP6 ADD PUSH2 0x6B6 JUMP JUMPDEST PUSH1 0x40 DUP4 ADD MSTORE POP PUSH1 0x60 PUSH2 0x66D DUP5 DUP3 DUP6 ADD PUSH2 0x6B6 JUMP JUMPDEST PUSH1 0x60 DUP4 ADD MSTORE POP PUSH1 0x80 PUSH2 0x681 DUP5 DUP3 DUP6 ADD PUSH2 0x6B6 JUMP JUMPDEST PUSH1 0x80 DUP4 ADD MSTORE POP PUSH1 0xA0 PUSH2 0x695 DUP5 DUP3 DUP6 ADD PUSH2 0x5F0 JUMP JUMPDEST PUSH1 0xA0 DUP4 ADD MSTORE POP SWAP3 SWAP2 POP POP JUMP JUMPDEST PUSH1 0x0 DUP2 CALLDATALOAD SWAP1 POP PUSH2 0x6B0 DUP2 PUSH2 0xCAB JUMP JUMPDEST SWAP3 SWAP2 POP POP JUMP JUMPDEST PUSH1 0x0 DUP2 MLOAD SWAP1 POP PUSH2 0x6C5 DUP2 PUSH2 0xCAB JUMP JUMPDEST SWAP3 SWAP2 POP POP JUMP JUMPDEST PUSH1 0x0 PUSH1 0xC0 DUP3 DUP5 SUB SLT ISZERO PUSH2 0x6DD JUMPI PUSH1 0x0 DUP1 REVERT JUMPDEST PUSH1 0x0 PUSH2 0x6EB DUP5 DUP3 DUP6 ADD PUSH2 0x605 JUMP JUMPDEST SWAP2 POP POP SWAP3 SWAP2 POP POP JUMP JUMPDEST PUSH1 0x0 PUSH1 0x20 DUP3 DUP5 SUB SLT ISZERO PUSH2 0x706 JUMPI PUSH1 0x0 DUP1 REVERT JUMPDEST PUSH1 0x0 PUSH2 0x714 DUP5 DUP3 DUP6 ADD PUSH2 0x6A1 JUMP JUMPDEST SWAP2 POP POP SWAP3 SWAP2 POP POP JUMP JUMPDEST PUSH2 0x726 DUP2 PUSH2 0xB5E JUMP JUMPDEST DUP3 MSTORE POP POP JUMP JUMPDEST PUSH2 0x735 DUP2 PUSH2 0xBAD JUMP JUMPDEST DUP3 MSTORE POP POP JUMP JUMPDEST PUSH2 0x744 DUP2 PUSH2 0xBD1 JUMP JUMPDEST DUP3 MSTORE POP POP JUMP JUMPDEST PUSH1 0x0 PUSH2 0x757 PUSH1 0x14 DUP4 PUSH2 0xB19 JUMP JUMPDEST SWAP2 POP PUSH32 0x4661696C656420746F2073656E64204574686572000000000000000000000000 PUSH1 0x0 DUP4 ADD MSTORE PUSH1 0x20 DUP3 ADD SWAP1 POP SWAP2 SWAP1 POP JUMP JUMPDEST PUSH1 0x0 PUSH2 0x797 PUSH1 0x25 DUP4 PUSH2 0xB19 JUMP JUMPDEST SWAP2 POP PUSH32 0x5061796D656E7420616D6F756E74206D75737420626520677265617465722074 PUSH1 0x0 DUP4 ADD MSTORE PUSH32 0x68616E2030000000000000000000000000000000000000000000000000000000 PUSH1 0x20 DUP4 ADD MSTORE PUSH1 0x40 DUP3 ADD SWAP1 POP SWAP2 SWAP1 POP JUMP JUMPDEST PUSH1 0x0 PUSH2 0x7FD PUSH1 0x30 DUP4 PUSH2 0xB19 JUMP JUMPDEST SWAP2 POP PUSH32 0x4F6E6C79207468652062757965722063616E206D616B65207061796D656E7473 PUSH1 0x0 DUP4 ADD MSTORE PUSH32 0x20666F72207468656972206F7264657200000000000000000000000000000000 PUSH1 0x20 DUP4 ADD MSTORE PUSH1 0x40 DUP3 ADD SWAP1 POP SWAP2 SWAP1 POP JUMP JUMPDEST PUSH1 0x0 PUSH2 0x863 PUSH1 0x2B DUP4 PUSH2 0xB19 JUMP JUMPDEST SWAP2 POP PUSH32 0x5061796D656E742063616E206F6E6C79206265206D61646520666F722070656E PUSH1 0x0 DUP4 ADD MSTORE PUSH32 0x64696E67206F7264657273000000000000000000000000000000000000000000 PUSH1 0x20 DUP4 ADD MSTORE PUSH1 0x40 DUP3 ADD SWAP1 POP SWAP2 SWAP1 POP JUMP JUMPDEST PUSH1 0x0 PUSH2 0x8C9 PUSH1 0x14 DUP4 PUSH2 0xB19 JUMP JUMPDEST SWAP2 POP PUSH32 0x496E73756666696369656E74207061796D656E74000000000000000000000000 PUSH1 0x0 DUP4 ADD MSTORE PUSH1 0x20 DUP3 ADD SWAP1 POP SWAP2 SWAP1 POP JUMP JUMPDEST PUSH1 0x0 PUSH2 0x909 PUSH1 0x16 DUP4 PUSH2 0xB19 JUMP JUMPDEST SWAP2 POP PUSH32 0x4661696C656420746F20726566756E6420457468657200000000000000000000 PUSH1 0x0 DUP4 ADD MSTORE PUSH1 0x20 DUP3 ADD SWAP1 POP SWAP2 SWAP1 POP JUMP JUMPDEST PUSH1 0x0 PUSH2 0x949 PUSH1 0x0 DUP4 PUSH2 0xB0E JUMP JUMPDEST SWAP2 POP PUSH1 0x0 DUP3 ADD SWAP1 POP SWAP2 SWAP1 POP JUMP JUMPDEST PUSH2 0x95F DUP2 PUSH2 0xBA3 JUMP JUMPDEST DUP3 MSTORE POP POP JUMP JUMPDEST PUSH1 0x0 PUSH2 0x970 DUP3 PUSH2 0x93C JUMP JUMPDEST SWAP2 POP DUP2 SWAP1 POP SWAP2 SWAP1 POP JUMP JUMPDEST PUSH1 0x0 PUSH1 0x20 DUP3 ADD SWAP1 POP PUSH2 0x98F PUSH1 0x0 DUP4 ADD DUP5 PUSH2 0x71D JUMP JUMPDEST SWAP3 SWAP2 POP POP JUMP JUMPDEST PUSH1 0x0 PUSH1 0x20 DUP3 ADD SWAP1 POP PUSH2 0x9AA PUSH1 0x0 DUP4 ADD DUP5 PUSH2 0x72C JUMP JUMPDEST SWAP3 SWAP2 POP POP JUMP JUMPDEST PUSH1 0x0 PUSH1 0x20 DUP3 ADD SWAP1 POP DUP2 DUP2 SUB PUSH1 0x0 DUP4 ADD MSTORE PUSH2 0x9C9 DUP2 PUSH2 0x74A JUMP JUMPDEST SWAP1 POP SWAP2 SWAP1 POP JUMP JUMPDEST PUSH1 0x0 PUSH1 0x20 DUP3 ADD SWAP1 POP DUP2 DUP2 SUB PUSH1 0x0 DUP4 ADD MSTORE PUSH2 0x9E9 DUP2 PUSH2 0x78A JUMP JUMPDEST SWAP1 POP SWAP2 SWAP1 POP JUMP JUMPDEST PUSH1 0x0 PUSH1 0x20 DUP3 ADD SWAP1 POP DUP2 DUP2 SUB PUSH1 0x0 DUP4 ADD MSTORE PUSH2 0xA09 DUP2 PUSH2 0x7F0 JUMP JUMPDEST SWAP1 POP SWAP2 SWAP1 POP JUMP JUMPDEST PUSH1 0x0 PUSH1 0x20 DUP3 ADD SWAP1 POP DUP2 DUP2 SUB PUSH1 0x0 DUP4 ADD MSTORE PUSH2 0xA29 DUP2 PUSH2 0x856 JUMP JUMPDEST SWAP1 POP SWAP2 SWAP1 POP JUMP JUMPDEST PUSH1 0x0 PUSH1 0x20 DUP3 ADD SWAP1 POP DUP2 DUP2 SUB PUSH1 0x0 DUP4 ADD MSTORE PUSH2 0xA49 DUP2 PUSH2 0x8BC JUMP JUMPDEST SWAP1 POP SWAP2 SWAP1 POP JUMP JUMPDEST PUSH1 0x0 PUSH1 0x20 DUP3 ADD SWAP1 POP DUP2 DUP2 SUB PUSH1 0x0 DUP4 ADD MSTORE PUSH2 0xA69 DUP2 PUSH2 0x8FC JUMP JUMPDEST SWAP1 POP SWAP2 SWAP1 POP JUMP JUMPDEST PUSH1 0x0 PUSH1 0x20 DUP3 ADD SWAP1 POP PUSH2 0xA85 PUSH1 0x0 DUP4 ADD DUP5 PUSH2 0x956 JUMP JUMPDEST SWAP3 SWAP2 POP POP JUMP JUMPDEST PUSH1 0x0 PUSH1 0x40 DUP3 ADD SWAP1 POP PUSH2 0xAA0 PUSH1 0x0 DUP4 ADD DUP6 PUSH2 0x956 JUMP JUMPDEST PUSH2 0xAAD PUSH1 0x20 DUP4 ADD DUP5 PUSH2 0x73B JUMP JUMPDEST SWAP4 SWAP3 POP POP POP JUMP JUMPDEST PUSH1 0x0 PUSH1 0x40 DUP3 ADD SWAP1 POP PUSH2 0xAC9 PUSH1 0x0 DUP4 ADD DUP6 PUSH2 0x956 JUMP JUMPDEST PUSH2 0xAD6 PUSH1 0x20 DUP4 ADD DUP5 PUSH2 0x956 JUMP JUMPDEST SWAP4 SWAP3 POP POP POP JUMP JUMPDEST PUSH1 0x0 PUSH1 0x40 MLOAD SWAP1 POP DUP2 DUP2 ADD DUP2 DUP2 LT PUSH8 0xFFFFFFFFFFFFFFFF DUP3 GT OR ISZERO PUSH2 0xB04 JUMPI PUSH2 0xB03 PUSH2 0xC41 JUMP JUMPDEST JUMPDEST DUP1 PUSH1 0x40 MSTORE POP SWAP2 SWAP1 POP JUMP JUMPDEST PUSH1 0x0 DUP2 SWAP1 POP SWAP3 SWAP2 POP POP JUMP JUMPDEST PUSH1 0x0 DUP3 DUP3 MSTORE PUSH1 0x20 DUP3 ADD SWAP1 POP SWAP3 SWAP2 POP POP JUMP JUMPDEST PUSH1 0x0 PUSH2 0xB35 DUP3 PUSH2 0xBA3 JUMP JUMPDEST SWAP2 POP PUSH2 0xB40 DUP4 PUSH2 0xBA3 JUMP JUMPDEST SWAP3 POP DUP3 DUP3 LT ISZERO PUSH2 0xB53 JUMPI PUSH2 0xB52 PUSH2 0xBE3 JUMP JUMPDEST JUMPDEST DUP3 DUP3 SUB SWAP1 POP SWAP3 SWAP2 POP POP JUMP JUMPDEST PUSH1 0x0 PUSH2 0xB69 DUP3 PUSH2 0xB83 JUMP JUMPDEST SWAP1 POP SWAP2 SWAP1 POP JUMP JUMPDEST PUSH1 0x0 DUP2 SWAP1 POP PUSH2 0xB7E DUP3 PUSH2 0xC70 JUMP JUMPDEST SWAP2 SWAP1 POP JUMP JUMPDEST PUSH1 0x0 PUSH20 0xFFFFFFFFFFFFFFFFFFFFFFFFFFFFFFFFFFFFFFFF DUP3 AND SWAP1 POP SWAP2 SWAP1 POP JUMP JUMPDEST PUSH1 0x0 DUP2 SWAP1 POP SWAP2 SWAP1 POP JUMP JUMPDEST PUSH1 0x0 PUSH2 0xBB8 DUP3 PUSH2 0xBBF JUMP JUMPDEST SWAP1 POP SWAP2 SWAP1 POP JUMP JUMPDEST PUSH1 0x0 PUSH2 0xBCA DUP3 PUSH2 0xB83 JUMP JUMPDEST SWAP1 POP SWAP2 SWAP1 POP JUMP JUMPDEST PUSH1 0x0 PUSH2 0xBDC DUP3 PUSH2 0xB70 JUMP JUMPDEST SWAP1 POP SWAP2 SWAP1 POP JUMP JUMPDEST PUSH32 0x4E487B7100000000000000000000000000000000000000000000000000000000 PUSH1 0x0 MSTORE PUSH1 0x11 PUSH1 0x4 MSTORE PUSH1 0x24 PUSH1 0x0 REVERT JUMPDEST PUSH32 0x4E487B7100000000000000000000000000000000000000000000000000000000 PUSH1 0x0 MSTORE PUSH1 0x21 PUSH1 0x4 MSTORE PUSH1 0x24 PUSH1 0x0 REVERT JUMPDEST PUSH32 0x4E487B7100000000000000000000000000000000000000000000000000000000 PUSH1 0x0 MSTORE PUSH1 0x41 PUSH1 0x4 MSTORE PUSH1 0x24 PUSH1 0x0 REVERT JUMPDEST PUSH1 0x4 DUP2 LT PUSH2 0xC81 JUMPI PUSH2 0xC80 PUSH2 0xC12 JUMP JUMPDEST JUMPDEST POP JUMP JUMPDEST PUSH2 0xC8D DUP2 PUSH2 0xB5E JUMP JUMPDEST DUP2 EQ PUSH2 0xC98 JUMPI PUSH1 0x0 DUP1 REVERT JUMPDEST POP JUMP JUMPDEST PUSH1 0x4 DUP2 LT PUSH2 0xCA8 JUMPI PUSH1 0x0 DUP1 REVERT JUMPDEST POP JUMP JUMPDEST PUSH2 0xCB4 DUP2 PUSH2 0xBA3 JUMP JUMPDEST DUP2 EQ PUSH2 0xCBF JUMPI PUSH1 0x0 DUP1 REVERT JUMPDEST POP JUMP INVALID LOG2 PUSH5 0x6970667358 0x22 SLT KECCAK256 0xB0 0x1F 0xD1 0xAF 0xE2 0x1E 0xE6 SHL 0xE 0xF8 0xB8 GT SWAP6 CODESIZE REVERT DELEGATECALL PUSH18 0xF3D9F4590ACA0D869F528A7F4C30C264736F PUSH13 0x63430008000033000000000000 "
	},
	"abi": [
		{
			"anonymous": false,
			"inputs": [
				{
					"indexed": true,
					"internalType": "address",
					"name": "payer",
					"type": "address"
				},
				{
					"indexed": false,
					"internalType": "uint256",
					"name": "orderId",
					"type": "uint256"
				},
				{
					"indexed": false,
					"internalType": "uint256",
					"name": "amount",
					"type": "uint256"
				}
			],
			"name": "PaymentReceived",
			"type": "event"
		},
		{
			"inputs": [
				{
					"internalType": "uint256",
					"name": "_orderId",
					"type": "uint256"
				}
			],
			"name": "receivePayment",
			"outputs": [],
			"stateMutability": "payable",
			"type": "function"
		},
		{
			"inputs": [
				{
					"internalType": "address",
					"name": "_orderProcessor",
					"type": "address"
				}
			],
			"stateMutability": "nonpayable",
			"type": "constructor"
		},
		{
			"inputs": [],
			"name": "orderProcessor",
			"outputs": [
				{
					"internalType": "contract OrderProcessor",
					"name": "",
					"type": "address"
				}
			],
			"stateMutability": "view",
			"type": "function"
		},
		{
			"inputs": [],
			"name": "owner",
			"outputs": [
				{
					"internalType": "address",
					"name": "",
					"type": "address"
				}
			],
			"stateMutability": "view",
			"type": "function"
		}
	],
	"storageLayout": {
		"storage": [
			{
				"astId": 407,
				"contract": "contracts/PaymentHandler.sol:PaymentHandler",
				"label": "orderProcessor",
				"offset": 0,
				"slot": "0",
				"type": "t_contract(OrderProcessor)401"
			},
			{
				"astId": 409,
				"contract": "contracts/PaymentHandler.sol:PaymentHandler",
				"label": "owner",
				"offset": 0,
				"slot": "1",
				"type": "t_address"
			}
		],
		"types": {
			"t_address": {
				"encoding": "inplace",
				"label": "address",
				"numberOfBytes": "20"
			},
			"t_contract(OrderProcessor)401": {
				"encoding": "inplace",
				"label": "contract OrderProcessor",
				"numberOfBytes": "20"
			}
		}
	},
	"web3Deploy": "var _orderProcessor = /* var of type address here */ ;\nvar paymenthandlerContract = new web3.eth.Contract([{\"inputs\":[{\"internalType\":\"address\",\"name\":\"_orderProcessor\",\"type\":\"address\"}],\"stateMutability\":\"nonpayable\",\"type\":\"constructor\"},{\"anonymous\":false,\"inputs\":[{\"indexed\":true,\"internalType\":\"address\",\"name\":\"payer\",\"type\":\"address\"},{\"indexed\":false,\"internalType\":\"uint256\",\"name\":\"orderId\",\"type\":\"uint256\"},{\"indexed\":false,\"internalType\":\"uint256\",\"name\":\"amount\",\"type\":\"uint256\"}],\"name\":\"PaymentReceived\",\"type\":\"event\"},{\"inputs\":[],\"name\":\"orderProcessor\",\"outputs\":[{\"internalType\":\"contract OrderProcessor\",\"name\":\"\",\"type\":\"address\"}],\"stateMutability\":\"view\",\"type\":\"function\"},{\"inputs\":[],\"name\":\"owner\",\"outputs\":[{\"internalType\":\"address\",\"name\":\"\",\"type\":\"address\"}],\"stateMutability\":\"view\",\"type\":\"function\"},{\"inputs\":[{\"internalType\":\"uint256\",\"name\":\"_orderId\",\"type\":\"uint256\"}],\"name\":\"receivePayment\",\"outputs\":[],\"stateMutability\":\"payable\",\"type\":\"function\"}]);\nvar paymenthandler = paymenthandlerContract.deploy({\n     data: '0x60806040523480156200001157600080fd5b5060405162000f4038038062000f40833981810160405281019062000037919062000149565b600073ffffffffffffffffffffffffffffffffffffffff168173ffffffffffffffffffffffffffffffffffffffff161415620000aa576040517f08c379a0000000000000000000000000000000000000000000000000000000008152600401620000a190620001b7565b60405180910390fd5b806000806101000a81548173ffffffffffffffffffffffffffffffffffffffff021916908373ffffffffffffffffffffffffffffffffffffffff16021790555033600160006101000a81548173ffffffffffffffffffffffffffffffffffffffff021916908373ffffffffffffffffffffffffffffffffffffffff1602179055505062000238565b60008151905062000143816200021e565b92915050565b6000602082840312156200015c57600080fd5b60006200016c8482850162000132565b91505092915050565b600062000184601e83620001d9565b91507f496e76616c6964204f7264657250726f636573736f72206164647265737300006000830152602082019050919050565b60006020820190508181036000830152620001d28162000175565b9050919050565b600082825260208201905092915050565b6000620001f782620001fe565b9050919050565b600073ffffffffffffffffffffffffffffffffffffffff82169050919050565b6200022981620001ea565b81146200023557600080fd5b50565b610cf880620002486000396000f3fe6080604052600436106100345760003560e01c80638da5cb5b14610039578063d2b1527914610064578063e2eab4831461008f575b600080fd5b34801561004557600080fd5b5061004e6100ab565b60405161005b919061097a565b60405180910390f35b34801561007057600080fd5b506100796100d1565b6040516100869190610995565b60405180910390f35b6100a960048036038101906100a491906106f4565b6100f5565b005b600160009054906101000a900473ffffffffffffffffffffffffffffffffffffffff1681565b60008054906101000a900473ffffffffffffffffffffffffffffffffffffffff1681565b60003411610138576040517f08c379a000000000000000000000000000000000000000000000000000000000815260040161012f906109d0565b60405180910390fd5b60008060009054906101000a900473ffffffffffffffffffffffffffffffffffffffff1673ffffffffffffffffffffffffffffffffffffffff1663d09ef241836040518263ffffffff1660e01b81526004016101949190610a70565b60c06040518083038186803b1580156101ac57600080fd5b505afa1580156101c0573d6000803e3d6000fd5b505050506040513d601f19601f820116820180604052508101906101e491906106cb565b90503373ffffffffffffffffffffffffffffffffffffffff16816020015173ffffffffffffffffffffffffffffffffffffffff1614610258576040517f08c379a000000000000000000000000000000000000000000000000000000000815260040161024f906109f0565b60405180910390fd5b60006003811115610292577f4e487b7100000000000000000000000000000000000000000000000000000000600052602160045260246000fd5b8160a0015160038111156102cf577f4e487b7100000000000000000000000000000000000000000000000000000000600052602160045260246000fd5b1461030f576040517f08c379a000000000000000000000000000000000000000000000000000000000815260040161030690610a10565b60405180910390fd5b8060800151341015610356576040517f08c379a000000000000000000000000000000000000000000000000000000000815260040161034d90610a30565b60405180910390fd5b60008054906101000a900473ffffffffffffffffffffffffffffffffffffffff1673ffffffffffffffffffffffffffffffffffffffff1663aab3196d8360016040518363ffffffff1660e01b81526004016103b2929190610a8b565b600060405180830381600087803b1580156103cc57600080fd5b505af11580156103e0573d6000803e3d6000fd5b5050505060008160800151346103f69190610b2a565b90506000600160009054906101000a900473ffffffffffffffffffffffffffffffffffffffff1673ffffffffffffffffffffffffffffffffffffffff16836080015160405161044490610965565b60006040518083038185875af1925050503d8060008114610481576040519150601f19603f3d011682016040523d82523d6000602084013e610486565b606091505b50509050806104ca576040517f08c379a00000000000000000000000000000000000000000000000000000000081526004016104c1906109b0565b60405180910390fd5b60008211156105815760003373ffffffffffffffffffffffffffffffffffffffff16836040516104f990610965565b60006040518083038185875af1925050503d8060008114610536576040519150601f19603f3d011682016040523d82523d6000602084013e61053b565b606091505b505090508061057f576040517f08c379a000000000000000000000000000000000000000000000000000000000815260040161057690610a50565b60405180910390fd5b505b3373ffffffffffffffffffffffffffffffffffffffff167f5677b5d4cf976ac32defbd95a6a5aaf0d1fee450a11fc26f3c11aae6e6c33d068585608001516040516105cd929190610ab4565b60405180910390a250505050565b6000815190506105ea81610c84565b92915050565b6000815190506105ff81610c9b565b92915050565b600060c0828403121561061757600080fd5b61062160c0610add565b90506000610631848285016106b6565b6000830152506020610645848285016105db565b6020830152506040610659848285016106b6565b604083015250606061066d848285016106b6565b6060830152506080610681848285016106b6565b60808301525060a0610695848285016105f0565b60a08301525092915050565b6000813590506106b081610cab565b92915050565b6000815190506106c581610cab565b92915050565b600060c082840312156106dd57600080fd5b60006106eb84828501610605565b91505092915050565b60006020828403121561070657600080fd5b6000610714848285016106a1565b91505092915050565b61072681610b5e565b82525050565b61073581610bad565b82525050565b61074481610bd1565b82525050565b6000610757601483610b19565b91507f4661696c656420746f2073656e642045746865720000000000000000000000006000830152602082019050919050565b6000610797602583610b19565b91507f5061796d656e7420616d6f756e74206d7573742062652067726561746572207460008301527f68616e20300000000000000000000000000000000000000000000000000000006020830152604082019050919050565b60006107fd603083610b19565b91507f4f6e6c79207468652062757965722063616e206d616b65207061796d656e747360008301527f20666f72207468656972206f72646572000000000000000000000000000000006020830152604082019050919050565b6000610863602b83610b19565b91507f5061796d656e742063616e206f6e6c79206265206d61646520666f722070656e60008301527f64696e67206f72646572730000000000000000000000000000000000000000006020830152604082019050919050565b60006108c9601483610b19565b91507f496e73756666696369656e74207061796d656e740000000000000000000000006000830152602082019050919050565b6000610909601683610b19565b91507f4661696c656420746f20726566756e64204574686572000000000000000000006000830152602082019050919050565b6000610949600083610b0e565b9150600082019050919050565b61095f81610ba3565b82525050565b60006109708261093c565b9150819050919050565b600060208201905061098f600083018461071d565b92915050565b60006020820190506109aa600083018461072c565b92915050565b600060208201905081810360008301526109c98161074a565b9050919050565b600060208201905081810360008301526109e98161078a565b9050919050565b60006020820190508181036000830152610a09816107f0565b9050919050565b60006020820190508181036000830152610a2981610856565b9050919050565b60006020820190508181036000830152610a49816108bc565b9050919050565b60006020820190508181036000830152610a69816108fc565b9050919050565b6000602082019050610a856000830184610956565b92915050565b6000604082019050610aa06000830185610956565b610aad602083018461073b565b9392505050565b6000604082019050610ac96000830185610956565b610ad66020830184610956565b9392505050565b6000604051905081810181811067ffffffffffffffff82111715610b0457610b03610c41565b5b8060405250919050565b600081905092915050565b600082825260208201905092915050565b6000610b3582610ba3565b9150610b4083610ba3565b925082821015610b5357610b52610be3565b5b828203905092915050565b6000610b6982610b83565b9050919050565b6000819050610b7e82610c70565b919050565b600073ffffffffffffffffffffffffffffffffffffffff82169050919050565b6000819050919050565b6000610bb882610bbf565b9050919050565b6000610bca82610b83565b9050919050565b6000610bdc82610b70565b9050919050565b7f4e487b7100000000000000000000000000000000000000000000000000000000600052601160045260246000fd5b7f4e487b7100000000000000000000000000000000000000000000000000000000600052602160045260246000fd5b7f4e487b7100000000000000000000000000000000000000000000000000000000600052604160045260246000fd5b60048110610c8157610c80610c12565b5b50565b610c8d81610b5e565b8114610c9857600080fd5b50565b60048110610ca857600080fd5b50565b610cb481610ba3565b8114610cbf57600080fd5b5056fea2646970667358221220b01fd1afe21ee61b0ef8b8119538fdf471f3d9f4590aca0d869f528a7f4c30c264736f6c63430008000033', \n     arguments: [\n          _orderProcessor,\n     ]\n}).send({\n     from: web3.eth.accounts[0], \n     gas: '4700000'\n   }, function (e, contract){\n    console.log(e, contract);\n    if (typeof contract.address !== 'undefined') {\n         console.log('Contract mined! address: ' + contract.address + ' transactionHash: ' + contract.transactionHash);\n    }\n })",
	"functionHashes": {
		"d2b15279": "orderProcessor()",
		"8da5cb5b": "owner()",
		"e2eab483": "receivePayment(uint256)"
	},
	"gasEstimates": {
		"Creation": {
			"codeDepositCost": "664000",
			"executionCost": "infinite",
			"totalCost": "infinite"
		},
		"External": {
			"orderProcessor()": "1254",
			"owner()": "1192",
			"receivePayment(uint256)": "infinite"
		}
	},
	"devdoc": {
		"kind": "dev",
		"methods": {},
		"version": 1
	},
	"userdoc": {
		"kind": "user",
		"methods": {},
		"version": 1
	},
	"Runtime Bytecode": {
		"immutableReferences": {},
		"linkReferences": {},
		"object": "6080604052600436106100345760003560e01c80638da5cb5b14610039578063d2b1527914610064578063e2eab4831461008f575b600080fd5b34801561004557600080fd5b5061004e6100ab565b60405161005b919061097a565b60405180910390f35b34801561007057600080fd5b506100796100d1565b6040516100869190610995565b60405180910390f35b6100a960048036038101906100a491906106f4565b6100f5565b005b600160009054906101000a900473ffffffffffffffffffffffffffffffffffffffff1681565b60008054906101000a900473ffffffffffffffffffffffffffffffffffffffff1681565b60003411610138576040517f08c379a000000000000000000000000000000000000000000000000000000000815260040161012f906109d0565b60405180910390fd5b60008060009054906101000a900473ffffffffffffffffffffffffffffffffffffffff1673ffffffffffffffffffffffffffffffffffffffff1663d09ef241836040518263ffffffff1660e01b81526004016101949190610a70565b60c06040518083038186803b1580156101ac57600080fd5b505afa1580156101c0573d6000803e3d6000fd5b505050506040513d601f19601f820116820180604052508101906101e491906106cb565b90503373ffffffffffffffffffffffffffffffffffffffff16816020015173ffffffffffffffffffffffffffffffffffffffff1614610258576040517f08c379a000000000000000000000000000000000000000000000000000000000815260040161024f906109f0565b60405180910390fd5b60006003811115610292577f4e487b7100000000000000000000000000000000000000000000000000000000600052602160045260246000fd5b8160a0015160038111156102cf577f4e487b7100000000000000000000000000000000000000000000000000000000600052602160045260246000fd5b1461030f576040517f08c379a000000000000000000000000000000000000000000000000000000000815260040161030690610a10565b60405180910390fd5b8060800151341015610356576040517f08c379a000000000000000000000000000000000000000000000000000000000815260040161034d90610a30565b60405180910390fd5b60008054906101000a900473ffffffffffffffffffffffffffffffffffffffff1673ffffffffffffffffffffffffffffffffffffffff1663aab3196d8360016040518363ffffffff1660e01b81526004016103b2929190610a8b565b600060405180830381600087803b1580156103cc57600080fd5b505af11580156103e0573d6000803e3d6000fd5b5050505060008160800151346103f69190610b2a565b90506000600160009054906101000a900473ffffffffffffffffffffffffffffffffffffffff1673ffffffffffffffffffffffffffffffffffffffff16836080015160405161044490610965565b60006040518083038185875af1925050503d8060008114610481576040519150601f19603f3d011682016040523d82523d6000602084013e610486565b606091505b50509050806104ca576040517f08c379a00000000000000000000000000000000000000000000000000000000081526004016104c1906109b0565b60405180910390fd5b60008211156105815760003373ffffffffffffffffffffffffffffffffffffffff16836040516104f990610965565b60006040518083038185875af1925050503d8060008114610536576040519150601f19603f3d011682016040523d82523d6000602084013e61053b565b606091505b505090508061057f576040517f08c379a000000000000000000000000000000000000000000000000000000000815260040161057690610a50565b60405180910390fd5b505b3373ffffffffffffffffffffffffffffffffffffffff167f5677b5d4cf976ac32defbd95a6a5aaf0d1fee450a11fc26f3c11aae6e6c33d068585608001516040516105cd929190610ab4565b60405180910390a250505050565b6000815190506105ea81610c84565b92915050565b6000815190506105ff81610c9b565b92915050565b600060c0828403121561061757600080fd5b61062160c0610add565b90506000610631848285016106b6565b6000830152506020610645848285016105db565b6020830152506040610659848285016106b6565b604083015250606061066d848285016106b6565b6060830152506080610681848285016106b6565b60808301525060a0610695848285016105f0565b60a08301525092915050565b6000813590506106b081610cab565b92915050565b6000815190506106c581610cab565b92915050565b600060c082840312156106dd57600080fd5b60006106eb84828501610605565b91505092915050565b60006020828403121561070657600080fd5b6000610714848285016106a1565b91505092915050565b61072681610b5e565b82525050565b61073581610bad565b82525050565b61074481610bd1565b82525050565b6000610757601483610b19565b91507f4661696c656420746f2073656e642045746865720000000000000000000000006000830152602082019050919050565b6000610797602583610b19565b91507f5061796d656e7420616d6f756e74206d7573742062652067726561746572207460008301527f68616e20300000000000000000000000000000000000000000000000000000006020830152604082019050919050565b60006107fd603083610b19565b91507f4f6e6c79207468652062757965722063616e206d616b65207061796d656e747360008301527f20666f72207468656972206f72646572000000000000000000000000000000006020830152604082019050919050565b6000610863602b83610b19565b91507f5061796d656e742063616e206f6e6c79206265206d61646520666f722070656e60008301527f64696e67206f72646572730000000000000000000000000000000000000000006020830152604082019050919050565b60006108c9601483610b19565b91507f496e73756666696369656e74207061796d656e740000000000000000000000006000830152602082019050919050565b6000610909601683610b19565b91507f4661696c656420746f20726566756e64204574686572000000000000000000006000830152602082019050919050565b6000610949600083610b0e565b9150600082019050919050565b61095f81610ba3565b82525050565b60006109708261093c565b9150819050919050565b600060208201905061098f600083018461071d565b92915050565b60006020820190506109aa600083018461072c565b92915050565b600060208201905081810360008301526109c98161074a565b9050919050565b600060208201905081810360008301526109e98161078a565b9050919050565b60006020820190508181036000830152610a09816107f0565b9050919050565b60006020820190508181036000830152610a2981610856565b9050919050565b60006020820190508181036000830152610a49816108bc565b9050919050565b60006020820190508181036000830152610a69816108fc565b9050919050565b6000602082019050610a856000830184610956565b92915050565b6000604082019050610aa06000830185610956565b610aad602083018461073b565b9392505050565b6000604082019050610ac96000830185610956565b610ad66020830184610956565b9392505050565b6000604051905081810181811067ffffffffffffffff82111715610b0457610b03610c41565b5b8060405250919050565b600081905092915050565b600082825260208201905092915050565b6000610b3582610ba3565b9150610b4083610ba3565b925082821015610b5357610b52610be3565b5b828203905092915050565b6000610b6982610b83565b9050919050565b6000819050610b7e82610c70565b919050565b600073ffffffffffffffffffffffffffffffffffffffff82169050919050565b6000819050919050565b6000610bb882610bbf565b9050919050565b6000610bca82610b83565b9050919050565b6000610bdc82610b70565b9050919050565b7f4e487b7100000000000000000000000000000000000000000000000000000000600052601160045260246000fd5b7f4e487b7100000000000000000000000000000000000000000000000000000000600052602160045260246000fd5b7f4e487b7100000000000000000000000000000000000000000000000000000000600052604160045260246000fd5b60048110610c8157610c80610c12565b5b50565b610c8d81610b5e565b8114610c9857600080fd5b50565b60048110610ca857600080fd5b50565b610cb481610ba3565b8114610cbf57600080fd5b5056fea2646970667358221220b01fd1afe21ee61b0ef8b8119538fdf471f3d9f4590aca0d869f528a7f4c30c264736f6c63430008000033",
		"opcodes": "PUSH1 0x80 PUSH1 0x40 MSTORE PUSH1 0x4 CALLDATASIZE LT PUSH2 0x34 JUMPI PUSH1 0x0 CALLDATALOAD PUSH1 0xE0 SHR DUP1 PUSH4 0x8DA5CB5B EQ PUSH2 0x39 JUMPI DUP1 PUSH4 0xD2B15279 EQ PUSH2 0x64 JUMPI DUP1 PUSH4 0xE2EAB483 EQ PUSH2 0x8F JUMPI JUMPDEST PUSH1 0x0 DUP1 REVERT JUMPDEST CALLVALUE DUP1 ISZERO PUSH2 0x45 JUMPI PUSH1 0x0 DUP1 REVERT JUMPDEST POP PUSH2 0x4E PUSH2 0xAB JUMP JUMPDEST PUSH1 0x40 MLOAD PUSH2 0x5B SWAP2 SWAP1 PUSH2 0x97A JUMP JUMPDEST PUSH1 0x40 MLOAD DUP1 SWAP2 SUB SWAP1 RETURN JUMPDEST CALLVALUE DUP1 ISZERO PUSH2 0x70 JUMPI PUSH1 0x0 DUP1 REVERT JUMPDEST POP PUSH2 0x79 PUSH2 0xD1 JUMP JUMPDEST PUSH1 0x40 MLOAD PUSH2 0x86 SWAP2 SWAP1 PUSH2 0x995 JUMP JUMPDEST PUSH1 0x40 MLOAD DUP1 SWAP2 SUB SWAP1 RETURN JUMPDEST PUSH2 0xA9 PUSH1 0x4 DUP1 CALLDATASIZE SUB DUP2 ADD SWAP1 PUSH2 0xA4 SWAP2 SWAP1 PUSH2 0x6F4 JUMP JUMPDEST PUSH2 0xF5 JUMP JUMPDEST STOP JUMPDEST PUSH1 0x1 PUSH1 0x0 SWAP1 SLOAD SWAP1 PUSH2 0x100 EXP SWAP1 DIV PUSH20 0xFFFFFFFFFFFFFFFFFFFFFFFFFFFFFFFFFFFFFFFF AND DUP2 JUMP JUMPDEST PUSH1 0x0 DUP1 SLOAD SWAP1 PUSH2 0x100 EXP SWAP1 DIV PUSH20 0xFFFFFFFFFFFFFFFFFFFFFFFFFFFFFFFFFFFFFFFF AND DUP2 JUMP JUMPDEST PUSH1 0x0 CALLVALUE GT PUSH2 0x138 JUMPI PUSH1 0x40 MLOAD PUSH32 0x8C379A000000000000000000000000000000000000000000000000000000000 DUP2 MSTORE PUSH1 0x4 ADD PUSH2 0x12F SWAP1 PUSH2 0x9D0 JUMP JUMPDEST PUSH1 0x40 MLOAD DUP1 SWAP2 SUB SWAP1 REVERT JUMPDEST PUSH1 0x0 DUP1 PUSH1 0x0 SWAP1 SLOAD SWAP1 PUSH2 0x100 EXP SWAP1 DIV PUSH20 0xFFFFFFFFFFFFFFFFFFFFFFFFFFFFFFFFFFFFFFFF AND PUSH20 0xFFFFFFFFFFFFFFFFFFFFFFFFFFFFFFFFFFFFFFFF AND PUSH4 0xD09EF241 DUP4 PUSH1 0x40 MLOAD DUP3 PUSH4 0xFFFFFFFF AND PUSH1 0xE0 SHL DUP2 MSTORE PUSH1 0x4 ADD PUSH2 0x194 SWAP2 SWAP1 PUSH2 0xA70 JUMP JUMPDEST PUSH1 0xC0 PUSH1 0x40 MLOAD DUP1 DUP4 SUB DUP2 DUP7 DUP1 EXTCODESIZE ISZERO DUP1 ISZERO PUSH2 0x1AC JUMPI PUSH1 0x0 DUP1 REVERT JUMPDEST POP GAS STATICCALL ISZERO DUP1 ISZERO PUSH2 0x1C0 JUMPI RETURNDATASIZE PUSH1 0x0 DUP1 RETURNDATACOPY RETURNDATASIZE PUSH1 0x0 REVERT JUMPDEST POP POP POP POP PUSH1 0x40 MLOAD RETURNDATASIZE PUSH1 0x1F NOT PUSH1 0x1F DUP3 ADD AND DUP3 ADD DUP1 PUSH1 0x40 MSTORE POP DUP2 ADD SWAP1 PUSH2 0x1E4 SWAP2 SWAP1 PUSH2 0x6CB JUMP JUMPDEST SWAP1 POP CALLER PUSH20 0xFFFFFFFFFFFFFFFFFFFFFFFFFFFFFFFFFFFFFFFF AND DUP2 PUSH1 0x20 ADD MLOAD PUSH20 0xFFFFFFFFFFFFFFFFFFFFFFFFFFFFFFFFFFFFFFFF AND EQ PUSH2 0x258 JUMPI PUSH1 0x40 MLOAD PUSH32 0x8C379A000000000000000000000000000000000000000000000000000000000 DUP2 MSTORE PUSH1 0x4 ADD PUSH2 0x24F SWAP1 PUSH2 0x9F0 JUMP JUMPDEST PUSH1 0x40 MLOAD DUP1 SWAP2 SUB SWAP1 REVERT JUMPDEST PUSH1 0x0 PUSH1 0x3 DUP2 GT ISZERO PUSH2 0x292 JUMPI PUSH32 0x4E487B7100000000000000000000000000000000000000000000000000000000 PUSH1 0x0 MSTORE PUSH1 0x21 PUSH1 0x4 MSTORE PUSH1 0x24 PUSH1 0x0 REVERT JUMPDEST DUP2 PUSH1 0xA0 ADD MLOAD PUSH1 0x3 DUP2 GT ISZERO PUSH2 0x2CF JUMPI PUSH32 0x4E487B7100000000000000000000000000000000000000000000000000000000 PUSH1 0x0 MSTORE PUSH1 0x21 PUSH1 0x4 MSTORE PUSH1 0x24 PUSH1 0x0 REVERT JUMPDEST EQ PUSH2 0x30F JUMPI PUSH1 0x40 MLOAD PUSH32 0x8C379A000000000000000000000000000000000000000000000000000000000 DUP2 MSTORE PUSH1 0x4 ADD PUSH2 0x306 SWAP1 PUSH2 0xA10 JUMP JUMPDEST PUSH1 0x40 MLOAD DUP1 SWAP2 SUB SWAP1 REVERT JUMPDEST DUP1 PUSH1 0x80 ADD MLOAD CALLVALUE LT ISZERO PUSH2 0x356 JUMPI PUSH1 0x40 MLOAD PUSH32 0x8C379A000000000000000000000000000000000000000000000000000000000 DUP2 MSTORE PUSH1 0x4 ADD PUSH2 0x34D SWAP1 PUSH2 0xA30 JUMP JUMPDEST PUSH1 0x40 MLOAD DUP1 SWAP2 SUB SWAP1 REVERT JUMPDEST PUSH1 0x0 DUP1 SLOAD SWAP1 PUSH2 0x100 EXP SWAP1 DIV PUSH20 0xFFFFFFFFFFFFFFFFFFFFFFFFFFFFFFFFFFFFFFFF AND PUSH20 0xFFFFFFFFFFFFFFFFFFFFFFFFFFFFFFFFFFFFFFFF AND PUSH4 0xAAB3196D DUP4 PUSH1 0x1 PUSH1 0x40 MLOAD DUP4 PUSH4 0xFFFFFFFF AND PUSH1 0xE0 SHL DUP2 MSTORE PUSH1 0x4 ADD PUSH2 0x3B2 SWAP3 SWAP2 SWAP1 PUSH2 0xA8B JUMP JUMPDEST PUSH1 0x0 PUSH1 0x40 MLOAD DUP1 DUP4 SUB DUP2 PUSH1 0x0 DUP8 DUP1 EXTCODESIZE ISZERO DUP1 ISZERO PUSH2 0x3CC JUMPI PUSH1 0x0 DUP1 REVERT JUMPDEST POP GAS CALL ISZERO DUP1 ISZERO PUSH2 0x3E0 JUMPI RETURNDATASIZE PUSH1 0x0 DUP1 RETURNDATACOPY RETURNDATASIZE PUSH1 0x0 REVERT JUMPDEST POP POP POP POP PUSH1 0x0 DUP2 PUSH1 0x80 ADD MLOAD CALLVALUE PUSH2 0x3F6 SWAP2 SWAP1 PUSH2 0xB2A JUMP JUMPDEST SWAP1 POP PUSH1 0x0 PUSH1 0x1 PUSH1 0x0 SWAP1 SLOAD SWAP1 PUSH2 0x100 EXP SWAP1 DIV PUSH20 0xFFFFFFFFFFFFFFFFFFFFFFFFFFFFFFFFFFFFFFFF AND PUSH20 0xFFFFFFFFFFFFFFFFFFFFFFFFFFFFFFFFFFFFFFFF AND DUP4 PUSH1 0x80 ADD MLOAD PUSH1 0x40 MLOAD PUSH2 0x444 SWAP1 PUSH2 0x965 JUMP JUMPDEST PUSH1 0x0 PUSH1 0x40 MLOAD DUP1 DUP4 SUB DUP2 DUP6 DUP8 GAS CALL SWAP3 POP POP POP RETURNDATASIZE DUP1 PUSH1 0x0 DUP2 EQ PUSH2 0x481 JUMPI PUSH1 0x40 MLOAD SWAP2 POP PUSH1 0x1F NOT PUSH1 0x3F RETURNDATASIZE ADD AND DUP3 ADD PUSH1 0x40 MSTORE RETURNDATASIZE DUP3 MSTORE RETURNDATASIZE PUSH1 0x0 PUSH1 0x20 DUP5 ADD RETURNDATACOPY PUSH2 0x486 JUMP JUMPDEST PUSH1 0x60 SWAP2 POP JUMPDEST POP POP SWAP1 POP DUP1 PUSH2 0x4CA JUMPI PUSH1 0x40 MLOAD PUSH32 0x8C379A000000000000000000000000000000000000000000000000000000000 DUP2 MSTORE PUSH1 0x4 ADD PUSH2 0x4C1 SWAP1 PUSH2 0x9B0 JUMP JUMPDEST PUSH1 0x40 MLOAD DUP1 SWAP2 SUB SWAP1 REVERT JUMPDEST PUSH1 0x0 DUP3 GT ISZERO PUSH2 0x581 JUMPI PUSH1 0x0 CALLER PUSH20 0xFFFFFFFFFFFFFFFFFFFFFFFFFFFFFFFFFFFFFFFF AND DUP4 PUSH1 0x40 MLOAD PUSH2 0x4F9 SWAP1 PUSH2 0x965 JUMP JUMPDEST PUSH1 0x0 PUSH1 0x40 MLOAD DUP1 DUP4 SUB DUP2 DUP6 DUP8 GAS CALL SWAP3 POP POP POP RETURNDATASIZE DUP1 PUSH1 0x0 DUP2 EQ PUSH2 0x536 JUMPI PUSH1 0x40 MLOAD SWAP2 POP PUSH1 0x1F NOT PUSH1 0x3F RETURNDATASIZE ADD AND DUP3 ADD PUSH1 0x40 MSTORE RETURNDATASIZE DUP3 MSTORE RETURNDATASIZE PUSH1 0x0 PUSH1 0x20 DUP5 ADD RETURNDATACOPY PUSH2 0x53B JUMP JUMPDEST PUSH1 0x60 SWAP2 POP JUMPDEST POP POP SWAP1 POP DUP1 PUSH2 0x57F JUMPI PUSH1 0x40 MLOAD PUSH32 0x8C379A000000000000000000000000000000000000000000000000000000000 DUP2 MSTORE PUSH1 0x4 ADD PUSH2 0x576 SWAP1 PUSH2 0xA50 JUMP JUMPDEST PUSH1 0x40 MLOAD DUP1 SWAP2 SUB SWAP1 REVERT JUMPDEST POP JUMPDEST CALLER PUSH20 0xFFFFFFFFFFFFFFFFFFFFFFFFFFFFFFFFFFFFFFFF AND PUSH32 0x5677B5D4CF976AC32DEFBD95A6A5AAF0D1FEE450A11FC26F3C11AAE6E6C33D06 DUP6 DUP6 PUSH1 0x80 ADD MLOAD PUSH1 0x40 MLOAD PUSH2 0x5CD SWAP3 SWAP2 SWAP1 PUSH2 0xAB4 JUMP JUMPDEST PUSH1 0x40 MLOAD DUP1 SWAP2 SUB SWAP1 LOG2 POP POP POP POP JUMP JUMPDEST PUSH1 0x0 DUP2 MLOAD SWAP1 POP PUSH2 0x5EA DUP2 PUSH2 0xC84 JUMP JUMPDEST SWAP3 SWAP2 POP POP JUMP JUMPDEST PUSH1 0x0 DUP2 MLOAD SWAP1 POP PUSH2 0x5FF DUP2 PUSH2 0xC9B JUMP JUMPDEST SWAP3 SWAP2 POP POP JUMP JUMPDEST PUSH1 0x0 PUSH1 0xC0 DUP3 DUP5 SUB SLT ISZERO PUSH2 0x617 JUMPI PUSH1 0x0 DUP1 REVERT JUMPDEST PUSH2 0x621 PUSH1 0xC0 PUSH2 0xADD JUMP JUMPDEST SWAP1 POP PUSH1 0x0 PUSH2 0x631 DUP5 DUP3 DUP6 ADD PUSH2 0x6B6 JUMP JUMPDEST PUSH1 0x0 DUP4 ADD MSTORE POP PUSH1 0x20 PUSH2 0x645 DUP5 DUP3 DUP6 ADD PUSH2 0x5DB JUMP JUMPDEST PUSH1 0x20 DUP4 ADD MSTORE POP PUSH1 0x40 PUSH2 0x659 DUP5 DUP3 DUP6 ADD PUSH2 0x6B6 JUMP JUMPDEST PUSH1 0x40 DUP4 ADD MSTORE POP PUSH1 0x60 PUSH2 0x66D DUP5 DUP3 DUP6 ADD PUSH2 0x6B6 JUMP JUMPDEST PUSH1 0x60 DUP4 ADD MSTORE POP PUSH1 0x80 PUSH2 0x681 DUP5 DUP3 DUP6 ADD PUSH2 0x6B6 JUMP JUMPDEST PUSH1 0x80 DUP4 ADD MSTORE POP PUSH1 0xA0 PUSH2 0x695 DUP5 DUP3 DUP6 ADD PUSH2 0x5F0 JUMP JUMPDEST PUSH1 0xA0 DUP4 ADD MSTORE POP SWAP3 SWAP2 POP POP JUMP JUMPDEST PUSH1 0x0 DUP2 CALLDATALOAD SWAP1 POP PUSH2 0x6B0 DUP2 PUSH2 0xCAB JUMP JUMPDEST SWAP3 SWAP2 POP POP JUMP JUMPDEST PUSH1 0x0 DUP2 MLOAD SWAP1 POP PUSH2 0x6C5 DUP2 PUSH2 0xCAB JUMP JUMPDEST SWAP3 SWAP2 POP POP JUMP JUMPDEST PUSH1 0x0 PUSH1 0xC0 DUP3 DUP5 SUB SLT ISZERO PUSH2 0x6DD JUMPI PUSH1 0x0 DUP1 REVERT JUMPDEST PUSH1 0x0 PUSH2 0x6EB DUP5 DUP3 DUP6 ADD PUSH2 0x605 JUMP JUMPDEST SWAP2 POP POP SWAP3 SWAP2 POP POP JUMP JUMPDEST PUSH1 0x0 PUSH1 0x20 DUP3 DUP5 SUB SLT ISZERO PUSH2 0x706 JUMPI PUSH1 0x0 DUP1 REVERT JUMPDEST PUSH1 0x0 PUSH2 0x714 DUP5 DUP3 DUP6 ADD PUSH2 0x6A1 JUMP JUMPDEST SWAP2 POP POP SWAP3 SWAP2 POP POP JUMP JUMPDEST PUSH2 0x726 DUP2 PUSH2 0xB5E JUMP JUMPDEST DUP3 MSTORE POP POP JUMP JUMPDEST PUSH2 0x735 DUP2 PUSH2 0xBAD JUMP JUMPDEST DUP3 MSTORE POP POP JUMP JUMPDEST PUSH2 0x744 DUP2 PUSH2 0xBD1 JUMP JUMPDEST DUP3 MSTORE POP POP JUMP JUMPDEST PUSH1 0x0 PUSH2 0x757 PUSH1 0x14 DUP4 PUSH2 0xB19 JUMP JUMPDEST SWAP2 POP PUSH32 0x4661696C656420746F2073656E64204574686572000000000000000000000000 PUSH1 0x0 DUP4 ADD MSTORE PUSH1 0x20 DUP3 ADD SWAP1 POP SWAP2 SWAP1 POP JUMP JUMPDEST PUSH1 0x0 PUSH2 0x797 PUSH1 0x25 DUP4 PUSH2 0xB19 JUMP JUMPDEST SWAP2 POP PUSH32 0x5061796D656E7420616D6F756E74206D75737420626520677265617465722074 PUSH1 0x0 DUP4 ADD MSTORE PUSH32 0x68616E2030000000000000000000000000000000000000000000000000000000 PUSH1 0x20 DUP4 ADD MSTORE PUSH1 0x40 DUP3 ADD SWAP1 POP SWAP2 SWAP1 POP JUMP JUMPDEST PUSH1 0x0 PUSH2 0x7FD PUSH1 0x30 DUP4 PUSH2 0xB19 JUMP JUMPDEST SWAP2 POP PUSH32 0x4F6E6C79207468652062757965722063616E206D616B65207061796D656E7473 PUSH1 0x0 DUP4 ADD MSTORE PUSH32 0x20666F72207468656972206F7264657200000000000000000000000000000000 PUSH1 0x20 DUP4 ADD MSTORE PUSH1 0x40 DUP3 ADD SWAP1 POP SWAP2 SWAP1 POP JUMP JUMPDEST PUSH1 0x0 PUSH2 0x863 PUSH1 0x2B DUP4 PUSH2 0xB19 JUMP JUMPDEST SWAP2 POP PUSH32 0x5061796D656E742063616E206F6E6C79206265206D61646520666F722070656E PUSH1 0x0 DUP4 ADD MSTORE PUSH32 0x64696E67206F7264657273000000000000000000000000000000000000000000 PUSH1 0x20 DUP4 ADD MSTORE PUSH1 0x40 DUP3 ADD SWAP1 POP SWAP2 SWAP1 POP JUMP JUMPDEST PUSH1 0x0 PUSH2 0x8C9 PUSH1 0x14 DUP4 PUSH2 0xB19 JUMP JUMPDEST SWAP2 POP PUSH32 0x496E73756666696369656E74207061796D656E74000000000000000000000000 PUSH1 0x0 DUP4 ADD MSTORE PUSH1 0x20 DUP3 ADD SWAP1 POP SWAP2 SWAP1 POP JUMP JUMPDEST PUSH1 0x0 PUSH2 0x909 PUSH1 0x16 DUP4 PUSH2 0xB19 JUMP JUMPDEST SWAP2 POP PUSH32 0x4661696C656420746F20726566756E6420457468657200000000000000000000 PUSH1 0x0 DUP4 ADD MSTORE PUSH1 0x20 DUP3 ADD SWAP1 POP SWAP2 SWAP1 POP JUMP JUMPDEST PUSH1 0x0 PUSH2 0x949 PUSH1 0x0 DUP4 PUSH2 0xB0E JUMP JUMPDEST SWAP2 POP PUSH1 0x0 DUP3 ADD SWAP1 POP SWAP2 SWAP1 POP JUMP JUMPDEST PUSH2 0x95F DUP2 PUSH2 0xBA3 JUMP JUMPDEST DUP3 MSTORE POP POP JUMP JUMPDEST PUSH1 0x0 PUSH2 0x970 DUP3 PUSH2 0x93C JUMP JUMPDEST SWAP2 POP DUP2 SWAP1 POP SWAP2 SWAP1 POP JUMP JUMPDEST PUSH1 0x0 PUSH1 0x20 DUP3 ADD SWAP1 POP PUSH2 0x98F PUSH1 0x0 DUP4 ADD DUP5 PUSH2 0x71D JUMP JUMPDEST SWAP3 SWAP2 POP POP JUMP JUMPDEST PUSH1 0x0 PUSH1 0x20 DUP3 ADD SWAP1 POP PUSH2 0x9AA PUSH1 0x0 DUP4 ADD DUP5 PUSH2 0x72C JUMP JUMPDEST SWAP3 SWAP2 POP POP JUMP JUMPDEST PUSH1 0x0 PUSH1 0x20 DUP3 ADD SWAP1 POP DUP2 DUP2 SUB PUSH1 0x0 DUP4 ADD MSTORE PUSH2 0x9C9 DUP2 PUSH2 0x74A JUMP JUMPDEST SWAP1 POP SWAP2 SWAP1 POP JUMP JUMPDEST PUSH1 0x0 PUSH1 0x20 DUP3 ADD SWAP1 POP DUP2 DUP2 SUB PUSH1 0x0 DUP4 ADD MSTORE PUSH2 0x9E9 DUP2 PUSH2 0x78A JUMP JUMPDEST SWAP1 POP SWAP2 SWAP1 POP JUMP JUMPDEST PUSH1 0x0 PUSH1 0x20 DUP3 ADD SWAP1 POP DUP2 DUP2 SUB PUSH1 0x0 DUP4 ADD MSTORE PUSH2 0xA09 DUP2 PUSH2 0x7F0 JUMP JUMPDEST SWAP1 POP SWAP2 SWAP1 POP JUMP JUMPDEST PUSH1 0x0 PUSH1 0x20 DUP3 ADD SWAP1 POP DUP2 DUP2 SUB PUSH1 0x0 DUP4 ADD MSTORE PUSH2 0xA29 DUP2 PUSH2 0x856 JUMP JUMPDEST SWAP1 POP SWAP2 SWAP1 POP JUMP JUMPDEST PUSH1 0x0 PUSH1 0x20 DUP3 ADD SWAP1 POP DUP2 DUP2 SUB PUSH1 0x0 DUP4 ADD MSTORE PUSH2 0xA49 DUP2 PUSH2 0x8BC JUMP JUMPDEST SWAP1 POP SWAP2 SWAP1 POP JUMP JUMPDEST PUSH1 0x0 PUSH1 0x20 DUP3 ADD SWAP1 POP DUP2 DUP2 SUB PUSH1 0x0 DUP4 ADD MSTORE PUSH2 0xA69 DUP2 PUSH2 0x8FC JUMP JUMPDEST SWAP1 POP SWAP2 SWAP1 POP JUMP JUMPDEST PUSH1 0x0 PUSH1 0x20 DUP3 ADD SWAP1 POP PUSH2 0xA85 PUSH1 0x0 DUP4 ADD DUP5 PUSH2 0x956 JUMP JUMPDEST SWAP3 SWAP2 POP POP JUMP JUMPDEST PUSH1 0x0 PUSH1 0x40 DUP3 ADD SWAP1 POP PUSH2 0xAA0 PUSH1 0x0 DUP4 ADD DUP6 PUSH2 0x956 JUMP JUMPDEST PUSH2 0xAAD PUSH1 0x20 DUP4 ADD DUP5 PUSH2 0x73B JUMP JUMPDEST SWAP4 SWAP3 POP POP POP JUMP JUMPDEST PUSH1 0x0 PUSH1 0x40 DUP3 ADD SWAP1 POP PUSH2 0xAC9 PUSH1 0x0 DUP4 ADD DUP6 PUSH2 0x956 JUMP JUMPDEST PUSH2 0xAD6 PUSH1 0x20 DUP4 ADD DUP5 PUSH2 0x956 JUMP JUMPDEST SWAP4 SWAP3 POP POP POP JUMP JUMPDEST PUSH1 0x0 PUSH1 0x40 MLOAD SWAP1 POP DUP2 DUP2 ADD DUP2 DUP2 LT PUSH8 0xFFFFFFFFFFFFFFFF DUP3 GT OR ISZERO PUSH2 0xB04 JUMPI PUSH2 0xB03 PUSH2 0xC41 JUMP JUMPDEST JUMPDEST DUP1 PUSH1 0x40 MSTORE POP SWAP2 SWAP1 POP JUMP JUMPDEST PUSH1 0x0 DUP2 SWAP1 POP SWAP3 SWAP2 POP POP JUMP JUMPDEST PUSH1 0x0 DUP3 DUP3 MSTORE PUSH1 0x20 DUP3 ADD SWAP1 POP SWAP3 SWAP2 POP POP JUMP JUMPDEST PUSH1 0x0 PUSH2 0xB35 DUP3 PUSH2 0xBA3 JUMP JUMPDEST SWAP2 POP PUSH2 0xB40 DUP4 PUSH2 0xBA3 JUMP JUMPDEST SWAP3 POP DUP3 DUP3 LT ISZERO PUSH2 0xB53 JUMPI PUSH2 0xB52 PUSH2 0xBE3 JUMP JUMPDEST JUMPDEST DUP3 DUP3 SUB SWAP1 POP SWAP3 SWAP2 POP POP JUMP JUMPDEST PUSH1 0x0 PUSH2 0xB69 DUP3 PUSH2 0xB83 JUMP JUMPDEST SWAP1 POP SWAP2 SWAP1 POP JUMP JUMPDEST PUSH1 0x0 DUP2 SWAP1 POP PUSH2 0xB7E DUP3 PUSH2 0xC70 JUMP JUMPDEST SWAP2 SWAP1 POP JUMP JUMPDEST PUSH1 0x0 PUSH20 0xFFFFFFFFFFFFFFFFFFFFFFFFFFFFFFFFFFFFFFFF DUP3 AND SWAP1 POP SWAP2 SWAP1 POP JUMP JUMPDEST PUSH1 0x0 DUP2 SWAP1 POP SWAP2 SWAP1 POP JUMP JUMPDEST PUSH1 0x0 PUSH2 0xBB8 DUP3 PUSH2 0xBBF JUMP JUMPDEST SWAP1 POP SWAP2 SWAP1 POP JUMP JUMPDEST PUSH1 0x0 PUSH2 0xBCA DUP3 PUSH2 0xB83 JUMP JUMPDEST SWAP1 POP SWAP2 SWAP1 POP JUMP JUMPDEST PUSH1 0x0 PUSH2 0xBDC DUP3 PUSH2 0xB70 JUMP JUMPDEST SWAP1 POP SWAP2 SWAP1 POP JUMP JUMPDEST PUSH32 0x4E487B7100000000000000000000000000000000000000000000000000000000 PUSH1 0x0 MSTORE PUSH1 0x11 PUSH1 0x4 MSTORE PUSH1 0x24 PUSH1 0x0 REVERT JUMPDEST PUSH32 0x4E487B7100000000000000000000000000000000000000000000000000000000 PUSH1 0x0 MSTORE PUSH1 0x21 PUSH1 0x4 MSTORE PUSH1 0x24 PUSH1 0x0 REVERT JUMPDEST PUSH32 0x4E487B7100000000000000000000000000000000000000000000000000000000 PUSH1 0x0 MSTORE PUSH1 0x41 PUSH1 0x4 MSTORE PUSH1 0x24 PUSH1 0x0 REVERT JUMPDEST PUSH1 0x4 DUP2 LT PUSH2 0xC81 JUMPI PUSH2 0xC80 PUSH2 0xC12 JUMP JUMPDEST JUMPDEST POP JUMP JUMPDEST PUSH2 0xC8D DUP2 PUSH2 0xB5E JUMP JUMPDEST DUP2 EQ PUSH2 0xC98 JUMPI PUSH1 0x0 DUP1 REVERT JUMPDEST POP JUMP JUMPDEST PUSH1 0x4 DUP2 LT PUSH2 0xCA8 JUMPI PUSH1 0x0 DUP1 REVERT JUMPDEST POP JUMP JUMPDEST PUSH2 0xCB4 DUP2 PUSH2 0xBA3 JUMP JUMPDEST DUP2 EQ PUSH2 0xCBF JUMPI PUSH1 0x0 DUP1 REVERT JUMPDEST POP JUMP INVALID LOG2 PUSH5 0x6970667358 0x22 SLT KECCAK256 0xB0 0x1F 0xD1 0xAF 0xE2 0x1E 0xE6 SHL 0xE 0xF8 0xB8 GT SWAP6 CODESIZE REVERT DELEGATECALL PUSH18 0xF3D9F4590ACA0D869F528A7F4C30C264736F PUSH13 0x63430008000033000000000000 "
	},
	"Assembly": ".code\n  PUSH 80\t\t\tcontract PaymentHandler {\\n   ...\n  PUSH 40\t\t\tcontract PaymentHandler {\\n   ...\n  MSTORE \t\t\tcontract PaymentHandler {\\n   ...\n  CALLVALUE \t\t\tconstructor(address _orderProc...\n  DUP1 \t\t\tconstructor(address _orderProc...\n  ISZERO \t\t\tconstructor(address _orderProc...\n  PUSH [tag] 1\t\t\tconstructor(address _orderProc...\n  JUMPI \t\t\tconstructor(address _orderProc...\n  PUSH 0\t\t\tconstructor(address _orderProc...\n  DUP1 \t\t\tconstructor(address _orderProc...\n  REVERT \t\t\tconstructor(address _orderProc...\ntag 1\t\t\tconstructor(address _orderProc...\n  JUMPDEST \t\t\tconstructor(address _orderProc...\n  POP \t\t\tconstructor(address _orderProc...\n  PUSH 40\t\t\tconstructor(address _orderProc...\n  MLOAD \t\t\tconstructor(address _orderProc...\n  PUSHSIZE \t\t\tconstructor(address _orderProc...\n  CODESIZE \t\t\tconstructor(address _orderProc...\n  SUB \t\t\tconstructor(address _orderProc...\n  DUP1 \t\t\tconstructor(address _orderProc...\n  PUSHSIZE \t\t\tconstructor(address _orderProc...\n  DUP4 \t\t\tconstructor(address _orderProc...\n  CODECOPY \t\t\tconstructor(address _orderProc...\n  DUP2 \t\t\tconstructor(address _orderProc...\n  DUP2 \t\t\tconstructor(address _orderProc...\n  ADD \t\t\tconstructor(address _orderProc...\n  PUSH 40\t\t\tconstructor(address _orderProc...\n  MSTORE \t\t\tconstructor(address _orderProc...\n  DUP2 \t\t\tconstructor(address _orderProc...\n  ADD \t\t\tconstructor(address _orderProc...\n  SWAP1 \t\t\tconstructor(address _orderProc...\n  PUSH [tag] 2\t\t\tconstructor(address _orderProc...\n  SWAP2 \t\t\tconstructor(address _orderProc...\n  SWAP1 \t\t\tconstructor(address _orderProc...\n  PUSH [tag] 3\t\t\tconstructor(address _orderProc...\n  JUMP [in]\t\t\tconstructor(address _orderProc...\ntag 2\t\t\tconstructor(address _orderProc...\n  JUMPDEST \t\t\tconstructor(address _orderProc...\n  PUSH 0\t\t\t0\n  PUSH FFFFFFFFFFFFFFFFFFFFFFFFFFFFFFFFFFFFFFFF\t\t\t_orderProcessor != address(0)\n  AND \t\t\t_orderProcessor != address(0)\n  DUP2 \t\t\t_orderProcessor\n  PUSH FFFFFFFFFFFFFFFFFFFFFFFFFFFFFFFFFFFFFFFF\t\t\t_orderProcessor != address(0)\n  AND \t\t\t_orderProcessor != address(0)\n  EQ \t\t\t_orderProcessor != address(0)\n  ISZERO \t\t\t_orderProcessor != address(0)\n  PUSH [tag] 6\t\t\trequire(_orderProcessor != add...\n  JUMPI \t\t\trequire(_orderProcessor != add...\n  PUSH 40\t\t\trequire(_orderProcessor != add...\n  MLOAD \t\t\trequire(_orderProcessor != add...\n  PUSH 8C379A000000000000000000000000000000000000000000000000000000000\t\t\trequire(_orderProcessor != add...\n  DUP2 \t\t\trequire(_orderProcessor != add...\n  MSTORE \t\t\trequire(_orderProcessor != add...\n  PUSH 4\t\t\trequire(_orderProcessor != add...\n  ADD \t\t\trequire(_orderProcessor != add...\n  PUSH [tag] 7\t\t\trequire(_orderProcessor != add...\n  SWAP1 \t\t\trequire(_orderProcessor != add...\n  PUSH [tag] 8\t\t\trequire(_orderProcessor != add...\n  JUMP [in]\t\t\trequire(_orderProcessor != add...\ntag 7\t\t\trequire(_orderProcessor != add...\n  JUMPDEST \t\t\trequire(_orderProcessor != add...\n  PUSH 40\t\t\trequire(_orderProcessor != add...\n  MLOAD \t\t\trequire(_orderProcessor != add...\n  DUP1 \t\t\trequire(_orderProcessor != add...\n  SWAP2 \t\t\trequire(_orderProcessor != add...\n  SUB \t\t\trequire(_orderProcessor != add...\n  SWAP1 \t\t\trequire(_orderProcessor != add...\n  REVERT \t\t\trequire(_orderProcessor != add...\ntag 6\t\t\trequire(_orderProcessor != add...\n  JUMPDEST \t\t\trequire(_orderProcessor != add...\n  DUP1 \t\t\t_orderProcessor\n  PUSH 0\t\t\torderProcessor\n  DUP1 \t\t\torderProcessor\n  PUSH 100\t\t\torderProcessor = OrderProcesso...\n  EXP \t\t\torderProcessor = OrderProcesso...\n  DUP2 \t\t\torderProcessor = OrderProcesso...\n  SLOAD \t\t\torderProcessor = OrderProcesso...\n  DUP2 \t\t\torderProcessor = OrderProcesso...\n  PUSH FFFFFFFFFFFFFFFFFFFFFFFFFFFFFFFFFFFFFFFF\t\t\torderProcessor = OrderProcesso...\n  MUL \t\t\torderProcessor = OrderProcesso...\n  NOT \t\t\torderProcessor = OrderProcesso...\n  AND \t\t\torderProcessor = OrderProcesso...\n  SWAP1 \t\t\torderProcessor = OrderProcesso...\n  DUP4 \t\t\torderProcessor = OrderProcesso...\n  PUSH FFFFFFFFFFFFFFFFFFFFFFFFFFFFFFFFFFFFFFFF\t\t\torderProcessor = OrderProcesso...\n  AND \t\t\torderProcessor = OrderProcesso...\n  MUL \t\t\torderProcessor = OrderProcesso...\n  OR \t\t\torderProcessor = OrderProcesso...\n  SWAP1 \t\t\torderProcessor = OrderProcesso...\n  SSTORE \t\t\torderProcessor = OrderProcesso...\n  POP \t\t\torderProcessor = OrderProcesso...\n  CALLER \t\t\tmsg.sender\n  PUSH 1\t\t\towner\n  PUSH 0\t\t\towner\n  PUSH 100\t\t\towner = msg.sender\n  EXP \t\t\towner = msg.sender\n  DUP2 \t\t\towner = msg.sender\n  SLOAD \t\t\towner = msg.sender\n  DUP2 \t\t\towner = msg.sender\n  PUSH FFFFFFFFFFFFFFFFFFFFFFFFFFFFFFFFFFFFFFFF\t\t\towner = msg.sender\n  MUL \t\t\towner = msg.sender\n  NOT \t\t\towner = msg.sender\n  AND \t\t\towner = msg.sender\n  SWAP1 \t\t\towner = msg.sender\n  DUP4 \t\t\towner = msg.sender\n  PUSH FFFFFFFFFFFFFFFFFFFFFFFFFFFFFFFFFFFFFFFF\t\t\towner = msg.sender\n  AND \t\t\towner = msg.sender\n  MUL \t\t\towner = msg.sender\n  OR \t\t\towner = msg.sender\n  SWAP1 \t\t\towner = msg.sender\n  SSTORE \t\t\towner = msg.sender\n  POP \t\t\towner = msg.sender\n  POP \t\t\tconstructor(address _orderProc...\n  PUSH [tag] 9\t\t\tcontract PaymentHandler {\\n   ...\n  JUMP \t\t\tcontract PaymentHandler {\\n   ...\ntag 11\t\t\t-License-Identifier: MIT\\nprag...\n  JUMPDEST \t\t\t-License-Identifier: MIT\\nprag...\n  PUSH 0\t\t\t-License-Identifier: MIT\\nprag...\n  DUP2 \t\t\tct Pay\n  MLOAD \t\t\tcontract Paym\n  SWAP1 \t\t\tr.sol\";\\n\\ncontract Paym\n  POP \t\t\tr.sol\";\\n\\ncontract Paym\n  PUSH [tag] 13\t\t\tr {\\n    OrderProcessor public...\n  DUP2 \t\t\tic or\n  PUSH [tag] 14\t\t\tr {\\n    OrderProcessor public...\n  JUMP [in]\t\t\tr {\\n    OrderProcessor public...\ntag 13\t\t\tr {\\n    OrderProcessor public...\n  JUMPDEST \t\t\tr {\\n    OrderProcessor public...\n  SWAP3 \t\t\terProcessor.sol\";\\n\\ncontract ...\n  SWAP2 \t\t\terProcessor.sol\";\\n\\ncontract ...\n  POP \t\t\terProcessor.sol\";\\n\\ncontract ...\n  POP \t\t\terProcessor.sol\";\\n\\ncontract ...\n  JUMP [out]\t\t\terProcessor.sol\";\\n\\ncontract ...\ntag 3\t\t\t\\n    address public owner;\\n\\...\n  JUMPDEST \t\t\t\\n    address public owner;\\n\\...\n  PUSH 0\t\t\t\\n    address public owner;\\n\\...\n  PUSH 20\t\t\tst\n  DUP3 \t\t\tt);\\n\\n    \n  DUP5 \t\t\t256 amo\n  SUB \t\t\tuint256 amount);\\n\\n    c\n  SLT \t\t\tId, uint256 amount);\\n\\n    co...\n  ISZERO \t\t\tde\n  PUSH [tag] 16\t\t\tde\n  JUMPI \t\t\tde\n  PUSH 0\t\t\t \n  DUP1 \t\t\te\n  REVERT \t\t\tor(address _\ntag 16\t\t\tde\n  JUMPDEST \t\t\tde\n  PUSH 0\t\t\tr\n  PUSH [tag] 17\t\t\tInvalid OrderProcessor address...\n  DUP5 \t\t\t = Orde\n  DUP3 \t\t\tProces\n  DUP6 \t\t\t      ord\n  ADD \t\t\t;\\n        orderProcess\n  PUSH [tag] 11\t\t\tInvalid OrderProcessor address...\n  JUMP [in]\t\t\tInvalid OrderProcessor address...\ntag 17\t\t\tInvalid OrderProcessor address...\n  JUMPDEST \t\t\tInvalid OrderProcessor address...\n  SWAP2 \t\t\tress(0), \"Invalid OrderProcess...\n  POP \t\t\tress(0), \"Invalid OrderProcess...\n  POP \t\t\tor) {\\n        require(_orderP...\n  SWAP3 \t\t\tuint256 orderId, uint256 amoun...\n  SWAP2 \t\t\tuint256 orderId, uint256 amoun...\n  POP \t\t\tuint256 orderId, uint256 amoun...\n  POP \t\t\tuint256 orderId, uint256 amoun...\n  JUMP [out]\t\t\tuint256 orderId, uint256 amoun...\ntag 18\t\t\tor);\\n        owner = msg.send...\n  JUMPDEST \t\t\tor);\\n        owner = msg.send...\n  PUSH 0\t\t\tor);\\n        owner = msg.send...\n  PUSH [tag] 20\t\t\t_;\\n    }\\n\\n    function rece...\n  PUSH 1E\t\t\tay\n  DUP4 \t\t\tlic\n  PUSH [tag] 21\t\t\t_;\\n    }\\n\\n    function rece...\n  JUMP [in]\t\t\t_;\\n    }\\n\\n    function rece...\ntag 20\t\t\t_;\\n    }\\n\\n    function rece...\n  JUMPDEST \t\t\t_;\\n    }\\n\\n    function rece...\n  SWAP2 \t\t\t       _;\\n    }\\n\\n    functi...\n  POP \t\t\t       _;\\n    }\\n\\n    functi...\n  PUSH 496E76616C6964204F7264657250726F636573736F7220616464726573730000\t\t\te > 0, \"Payment amount must be...\n  PUSH 0\t\t\tv\n  DUP4 \t\t\t(ms\n  ADD \t\t\tuire(msg.va\n  MSTORE \t\t\t    require(msg.value > 0, \"Pa...\n  PUSH 20\t\t\trd\n  DUP3 \t\t\t   \n  ADD \t\t\t        Orde\n  SWAP1 \t\t\t 0\");\\n\\n        Orde\n  POP \t\t\t 0\");\\n\\n        Orde\n  SWAP2 \t\t\tction\");\\n        _;\\n    }\\n\\...\n  SWAP1 \t\t\tction\");\\n        _;\\n    }\\n\\...\n  POP \t\t\tction\");\\n        _;\\n    }\\n\\...\n  JUMP [out]\t\t\tction\");\\n        _;\\n    }\\n\\...\ntag 8\t\t\trder memory order = orderProce...\n  JUMPDEST \t\t\trder memory order = orderProce...\n  PUSH 0\t\t\trder memory order = orderProce...\n  PUSH 20\t\t\tta\n  DUP3 \t\t\tssor.Orde\n  ADD \t\t\trocessor.OrderStat\n  SWAP1 \t\t\t= OrderProcessor.OrderStat\n  POP \t\t\t= OrderProcessor.OrderStat\n  DUP2 \t\t\ting order\n  DUP2 \t\t\tr pe\n  SUB \t\t\te for pending orders\n  PUSH 0\t\t\t \n  DUP4 \t\t\tcan only \n  ADD \t\t\tent can only be m\n  MSTORE \t\t\t, \"Payment can only be made fo...\n  PUSH [tag] 23\t\t\tre(msg.value >= order.totalAmo...\n  DUP2 \t\t\t.Ord\n  PUSH [tag] 18\t\t\tre(msg.value >= order.totalAmo...\n  JUMP [in]\t\t\tre(msg.value >= order.totalAmo...\ntag 23\t\t\tre(msg.value >= order.totalAmo...\n  JUMPDEST \t\t\tre(msg.value >= order.totalAmo...\n  SWAP1 \t\t\t   require(msg.value >= order....\n  POP \t\t\t   require(msg.value >= order....\n  SWAP2 \t\t\tr.status == OrderProcessor.Ord...\n  SWAP1 \t\t\tr.status == OrderProcessor.Ord...\n  POP \t\t\tr.status == OrderProcessor.Ord...\n  JUMP [out]\t\t\tr.status == OrderProcessor.Ord...\ntag 21\t\t\ted);\\n\\n        uint256 refund...\n  JUMPDEST \t\t\ted);\\n\\n        uint256 refund...\n  PUSH 0\t\t\ted);\\n\\n        uint256 refund...\n  DUP3 \t\t\totalAm\n  DUP3 \t\t\tder\n  MSTORE \t\t\tlue: order.totalAmo\n  PUSH 20\t\t\tFail\n  DUP3 \t\t\tnt,\n  ADD \t\t\te(sent, \"Faile\n  SWAP1 \t\t\t\\n        require(sent, \"Faile\n  POP \t\t\t\\n        require(sent, \"Faile\n  SWAP3 \t\t\ter.call{value: order.totalAmou...\n  SWAP2 \t\t\ter.call{value: order.totalAmou...\n  POP \t\t\ter.call{value: order.totalAmou...\n  POP \t\t\ter.call{value: order.totalAmou...\n  JUMP [out]\t\t\ter.call{value: order.totalAmou...\ntag 25\t\t\ther\");\\n\\n        if (refundAm...\n  JUMPDEST \t\t\ther\");\\n\\n        if (refundAm...\n  PUSH 0\t\t\ther\");\\n\\n        if (refundAm...\n  PUSH [tag] 27\t\t\t, ) = msg.sender.call{va\n  DUP3 \t\t\tall{v\n  PUSH [tag] 28\t\t\t, ) = msg.sender.call{va\n  JUMP [in]\t\t\t, ) = msg.sender.call{va\ntag 27\t\t\t, ) = msg.sender.call{va\n  JUMPDEST \t\t\t, ) = msg.sender.call{va\n  SWAP1 \t\t\tol refunded, ) = msg.sender.ca...\n  POP \t\t\tol refunded, ) = msg.sender.ca...\n  SWAP2 \t\t\t       (bool refunded, ) = msg...\n  SWAP1 \t\t\t       (bool refunded, ) = msg...\n  POP \t\t\t       (bool refunded, ) = msg...\n  JUMP [out]\t\t\t       (bool refunded, ) = msg...\ntag 28\t\t\tmount}(\"\");\\n            requi...\n  JUMPDEST \t\t\tmount}(\"\");\\n            requi...\n  PUSH 0\t\t\tmount}(\"\");\\n            requi...\n  PUSH FFFFFFFFFFFFFFFFFFFFFFFFFFFFFFFFFFFFFFFF\t\t\t}\\n\\n        emit PaymentRecei...\n  DUP3 \t\t\t     \n  AND \t\t\t);\\n        }\\n\\n        emit ...\n  SWAP1 \t\t\tfund Ether\");\\n        }\\n\\n  ...\n  POP \t\t\tfund Ether\");\\n        }\\n\\n  ...\n  SWAP2 \t\t\tiled to refund Ether\");\\n     ...\n  SWAP1 \t\t\tiled to refund Ether\");\\n     ...\n  POP \t\t\tiled to refund Ether\");\\n     ...\n  JUMP [out]\t\t\tiled to refund Ether\");\\n     ...\ntag 14\t\t\trder.totalAmount);\\n    }\\n}\n  JUMPDEST \t\t\trder.totalAmount);\\n    }\\n}\n  PUSH [tag] 31\t\t\t\n  DUP2 \t\t\t\n  PUSH [tag] 25\t\t\t\n  JUMP [in]\t\t\t\ntag 31\t\t\t\n  JUMPDEST \t\t\t\n  DUP2 \t\t\t\n  EQ \t\t\t\n  PUSH [tag] 32\t\t\t\n  JUMPI \t\t\t\n  PUSH 0\t\t\t\n  DUP1 \t\t\t\n  REVERT \t\t\t\ntag 32\t\t\t\n  JUMPDEST \t\t\t\n  POP \t\t\t\n  JUMP [out]\t\t\t\ntag 9\t\t\tcontract PaymentHandler {\\n   ...\n  JUMPDEST \t\t\tcontract PaymentHandler {\\n   ...\n  PUSH #[$] 0000000000000000000000000000000000000000000000000000000000000000\t\t\tcontract PaymentHandler {\\n   ...\n  DUP1 \t\t\tcontract PaymentHandler {\\n   ...\n  PUSH [$] 0000000000000000000000000000000000000000000000000000000000000000\t\t\tcontract PaymentHandler {\\n   ...\n  PUSH 0\t\t\tcontract PaymentHandler {\\n   ...\n  CODECOPY \t\t\tcontract PaymentHandler {\\n   ...\n  PUSH 0\t\t\tcontract PaymentHandler {\\n   ...\n  RETURN \t\t\tcontract PaymentHandler {\\n   ...\n.data\n  0:\n    .code\n      PUSH 80\t\t\tcontract PaymentHandler {\\n   ...\n      PUSH 40\t\t\tcontract PaymentHandler {\\n   ...\n      MSTORE \t\t\tcontract PaymentHandler {\\n   ...\n      PUSH 4\t\t\tcontract PaymentHandler {\\n   ...\n      CALLDATASIZE \t\t\tcontract PaymentHandler {\\n   ...\n      LT \t\t\tcontract PaymentHandler {\\n   ...\n      PUSH [tag] 1\t\t\tcontract PaymentHandler {\\n   ...\n      JUMPI \t\t\tcontract PaymentHandler {\\n   ...\n      PUSH 0\t\t\tcontract PaymentHandler {\\n   ...\n      CALLDATALOAD \t\t\tcontract PaymentHandler {\\n   ...\n      PUSH E0\t\t\tcontract PaymentHandler {\\n   ...\n      SHR \t\t\tcontract PaymentHandler {\\n   ...\n      DUP1 \t\t\tcontract PaymentHandler {\\n   ...\n      PUSH 8DA5CB5B\t\t\tcontract PaymentHandler {\\n   ...\n      EQ \t\t\tcontract PaymentHandler {\\n   ...\n      PUSH [tag] 2\t\t\tcontract PaymentHandler {\\n   ...\n      JUMPI \t\t\tcontract PaymentHandler {\\n   ...\n      DUP1 \t\t\tcontract PaymentHandler {\\n   ...\n      PUSH D2B15279\t\t\tcontract PaymentHandler {\\n   ...\n      EQ \t\t\tcontract PaymentHandler {\\n   ...\n      PUSH [tag] 3\t\t\tcontract PaymentHandler {\\n   ...\n      JUMPI \t\t\tcontract PaymentHandler {\\n   ...\n      DUP1 \t\t\tcontract PaymentHandler {\\n   ...\n      PUSH E2EAB483\t\t\tcontract PaymentHandler {\\n   ...\n      EQ \t\t\tcontract PaymentHandler {\\n   ...\n      PUSH [tag] 4\t\t\tcontract PaymentHandler {\\n   ...\n      JUMPI \t\t\tcontract PaymentHandler {\\n   ...\n    tag 1\t\t\tcontract PaymentHandler {\\n   ...\n      JUMPDEST \t\t\tcontract PaymentHandler {\\n   ...\n      PUSH 0\t\t\tcontract PaymentHandler {\\n   ...\n      DUP1 \t\t\tcontract PaymentHandler {\\n   ...\n      REVERT \t\t\tcontract PaymentHandler {\\n   ...\n    tag 2\t\t\taddress public owner\n      JUMPDEST \t\t\taddress public owner\n      CALLVALUE \t\t\taddress public owner\n      DUP1 \t\t\taddress public owner\n      ISZERO \t\t\taddress public owner\n      PUSH [tag] 5\t\t\taddress public owner\n      JUMPI \t\t\taddress public owner\n      PUSH 0\t\t\taddress public owner\n      DUP1 \t\t\taddress public owner\n      REVERT \t\t\taddress public owner\n    tag 5\t\t\taddress public owner\n      JUMPDEST \t\t\taddress public owner\n      POP \t\t\taddress public owner\n      PUSH [tag] 6\t\t\taddress public owner\n      PUSH [tag] 7\t\t\taddress public owner\n      JUMP [in]\t\t\taddress public owner\n    tag 6\t\t\taddress public owner\n      JUMPDEST \t\t\taddress public owner\n      PUSH 40\t\t\taddress public owner\n      MLOAD \t\t\taddress public owner\n      PUSH [tag] 8\t\t\taddress public owner\n      SWAP2 \t\t\taddress public owner\n      SWAP1 \t\t\taddress public owner\n      PUSH [tag] 9\t\t\taddress public owner\n      JUMP [in]\t\t\taddress public owner\n    tag 8\t\t\taddress public owner\n      JUMPDEST \t\t\taddress public owner\n      PUSH 40\t\t\taddress public owner\n      MLOAD \t\t\taddress public owner\n      DUP1 \t\t\taddress public owner\n      SWAP2 \t\t\taddress public owner\n      SUB \t\t\taddress public owner\n      SWAP1 \t\t\taddress public owner\n      RETURN \t\t\taddress public owner\n    tag 3\t\t\tOrderProcessor public orderPro...\n      JUMPDEST \t\t\tOrderProcessor public orderPro...\n      CALLVALUE \t\t\tOrderProcessor public orderPro...\n      DUP1 \t\t\tOrderProcessor public orderPro...\n      ISZERO \t\t\tOrderProcessor public orderPro...\n      PUSH [tag] 10\t\t\tOrderProcessor public orderPro...\n      JUMPI \t\t\tOrderProcessor public orderPro...\n      PUSH 0\t\t\tOrderProcessor public orderPro...\n      DUP1 \t\t\tOrderProcessor public orderPro...\n      REVERT \t\t\tOrderProcessor public orderPro...\n    tag 10\t\t\tOrderProcessor public orderPro...\n      JUMPDEST \t\t\tOrderProcessor public orderPro...\n      POP \t\t\tOrderProcessor public orderPro...\n      PUSH [tag] 11\t\t\tOrderProcessor public orderPro...\n      PUSH [tag] 12\t\t\tOrderProcessor public orderPro...\n      JUMP [in]\t\t\tOrderProcessor public orderPro...\n    tag 11\t\t\tOrderProcessor public orderPro...\n      JUMPDEST \t\t\tOrderProcessor public orderPro...\n      PUSH 40\t\t\tOrderProcessor public orderPro...\n      MLOAD \t\t\tOrderProcessor public orderPro...\n      PUSH [tag] 13\t\t\tOrderProcessor public orderPro...\n      SWAP2 \t\t\tOrderProcessor public orderPro...\n      SWAP1 \t\t\tOrderProcessor public orderPro...\n      PUSH [tag] 14\t\t\tOrderProcessor public orderPro...\n      JUMP [in]\t\t\tOrderProcessor public orderPro...\n    tag 13\t\t\tOrderProcessor public orderPro...\n      JUMPDEST \t\t\tOrderProcessor public orderPro...\n      PUSH 40\t\t\tOrderProcessor public orderPro...\n      MLOAD \t\t\tOrderProcessor public orderPro...\n      DUP1 \t\t\tOrderProcessor public orderPro...\n      SWAP2 \t\t\tOrderProcessor public orderPro...\n      SUB \t\t\tOrderProcessor public orderPro...\n      SWAP1 \t\t\tOrderProcessor public orderPro...\n      RETURN \t\t\tOrderProcessor public orderPro...\n    tag 4\t\t\tfunction receivePayment(uint25...\n      JUMPDEST \t\t\tfunction receivePayment(uint25...\n      PUSH [tag] 15\t\t\tfunction receivePayment(uint25...\n      PUSH 4\t\t\tfunction receivePayment(uint25...\n      DUP1 \t\t\tfunction receivePayment(uint25...\n      CALLDATASIZE \t\t\tfunction receivePayment(uint25...\n      SUB \t\t\tfunction receivePayment(uint25...\n      DUP2 \t\t\tfunction receivePayment(uint25...\n      ADD \t\t\tfunction receivePayment(uint25...\n      SWAP1 \t\t\tfunction receivePayment(uint25...\n      PUSH [tag] 16\t\t\tfunction receivePayment(uint25...\n      SWAP2 \t\t\tfunction receivePayment(uint25...\n      SWAP1 \t\t\tfunction receivePayment(uint25...\n      PUSH [tag] 17\t\t\tfunction receivePayment(uint25...\n      JUMP [in]\t\t\tfunction receivePayment(uint25...\n    tag 16\t\t\tfunction receivePayment(uint25...\n      JUMPDEST \t\t\tfunction receivePayment(uint25...\n      PUSH [tag] 18\t\t\tfunction receivePayment(uint25...\n      JUMP [in]\t\t\tfunction receivePayment(uint25...\n    tag 15\t\t\tfunction receivePayment(uint25...\n      JUMPDEST \t\t\tfunction receivePayment(uint25...\n      STOP \t\t\tfunction receivePayment(uint25...\n    tag 7\t\t\taddress public owner\n      JUMPDEST \t\t\taddress public owner\n      PUSH 1\t\t\taddress public owner\n      PUSH 0\t\t\taddress public owner\n      SWAP1 \t\t\taddress public owner\n      SLOAD \t\t\taddress public owner\n      SWAP1 \t\t\taddress public owner\n      PUSH 100\t\t\taddress public owner\n      EXP \t\t\taddress public owner\n      SWAP1 \t\t\taddress public owner\n      DIV \t\t\taddress public owner\n      PUSH FFFFFFFFFFFFFFFFFFFFFFFFFFFFFFFFFFFFFFFF\t\t\taddress public owner\n      AND \t\t\taddress public owner\n      DUP2 \t\t\taddress public owner\n      JUMP [out]\t\t\taddress public owner\n    tag 12\t\t\tOrderProcessor public orderPro...\n      JUMPDEST \t\t\tOrderProcessor public orderPro...\n      PUSH 0\t\t\tOrderProcessor public orderPro...\n      DUP1 \t\t\tOrderProcessor public orderPro...\n      SLOAD \t\t\tOrderProcessor public orderPro...\n      SWAP1 \t\t\tOrderProcessor public orderPro...\n      PUSH 100\t\t\tOrderProcessor public orderPro...\n      EXP \t\t\tOrderProcessor public orderPro...\n      SWAP1 \t\t\tOrderProcessor public orderPro...\n      DIV \t\t\tOrderProcessor public orderPro...\n      PUSH FFFFFFFFFFFFFFFFFFFFFFFFFFFFFFFFFFFFFFFF\t\t\tOrderProcessor public orderPro...\n      AND \t\t\tOrderProcessor public orderPro...\n      DUP2 \t\t\tOrderProcessor public orderPro...\n      JUMP [out]\t\t\tOrderProcessor public orderPro...\n    tag 18\t\t\tfunction receivePayment(uint25...\n      JUMPDEST \t\t\tfunction receivePayment(uint25...\n      PUSH 0\t\t\t0\n      CALLVALUE \t\t\tmsg.value\n      GT \t\t\tmsg.value > 0\n      PUSH [tag] 20\t\t\trequire(msg.value > 0, \"Paymen...\n      JUMPI \t\t\trequire(msg.value > 0, \"Paymen...\n      PUSH 40\t\t\trequire(msg.value > 0, \"Paymen...\n      MLOAD \t\t\trequire(msg.value > 0, \"Paymen...\n      PUSH 8C379A000000000000000000000000000000000000000000000000000000000\t\t\trequire(msg.value > 0, \"Paymen...\n      DUP2 \t\t\trequire(msg.value > 0, \"Paymen...\n      MSTORE \t\t\trequire(msg.value > 0, \"Paymen...\n      PUSH 4\t\t\trequire(msg.value > 0, \"Paymen...\n      ADD \t\t\trequire(msg.value > 0, \"Paymen...\n      PUSH [tag] 21\t\t\trequire(msg.value > 0, \"Paymen...\n      SWAP1 \t\t\trequire(msg.value > 0, \"Paymen...\n      PUSH [tag] 22\t\t\trequire(msg.value > 0, \"Paymen...\n      JUMP [in]\t\t\trequire(msg.value > 0, \"Paymen...\n    tag 21\t\t\trequire(msg.value > 0, \"Paymen...\n      JUMPDEST \t\t\trequire(msg.value > 0, \"Paymen...\n      PUSH 40\t\t\trequire(msg.value > 0, \"Paymen...\n      MLOAD \t\t\trequire(msg.value > 0, \"Paymen...\n      DUP1 \t\t\trequire(msg.value > 0, \"Paymen...\n      SWAP2 \t\t\trequire(msg.value > 0, \"Paymen...\n      SUB \t\t\trequire(msg.value > 0, \"Paymen...\n      SWAP1 \t\t\trequire(msg.value > 0, \"Paymen...\n      REVERT \t\t\trequire(msg.value > 0, \"Paymen...\n    tag 20\t\t\trequire(msg.value > 0, \"Paymen...\n      JUMPDEST \t\t\trequire(msg.value > 0, \"Paymen...\n      PUSH 0\t\t\tOrderProcessor.Order memory or...\n      DUP1 \t\t\torderProcessor\n      PUSH 0\t\t\torderProcessor\n      SWAP1 \t\t\torderProcessor\n      SLOAD \t\t\torderProcessor\n      SWAP1 \t\t\torderProcessor\n      PUSH 100\t\t\torderProcessor\n      EXP \t\t\torderProcessor\n      SWAP1 \t\t\torderProcessor\n      DIV \t\t\torderProcessor\n      PUSH FFFFFFFFFFFFFFFFFFFFFFFFFFFFFFFFFFFFFFFF\t\t\torderProcessor\n      AND \t\t\torderProcessor\n      PUSH FFFFFFFFFFFFFFFFFFFFFFFFFFFFFFFFFFFFFFFF\t\t\torderProcessor.getOrder\n      AND \t\t\torderProcessor.getOrder\n      PUSH D09EF241\t\t\torderProcessor.getOrder\n      DUP4 \t\t\t_orderId\n      PUSH 40\t\t\torderProcessor.getOrder(_order...\n      MLOAD \t\t\torderProcessor.getOrder(_order...\n      DUP3 \t\t\torderProcessor.getOrder(_order...\n      PUSH FFFFFFFF\t\t\torderProcessor.getOrder(_order...\n      AND \t\t\torderProcessor.getOrder(_order...\n      PUSH E0\t\t\torderProcessor.getOrder(_order...\n      SHL \t\t\torderProcessor.getOrder(_order...\n      DUP2 \t\t\torderProcessor.getOrder(_order...\n      MSTORE \t\t\torderProcessor.getOrder(_order...\n      PUSH 4\t\t\torderProcessor.getOrder(_order...\n      ADD \t\t\torderProcessor.getOrder(_order...\n      PUSH [tag] 23\t\t\torderProcessor.getOrder(_order...\n      SWAP2 \t\t\torderProcessor.getOrder(_order...\n      SWAP1 \t\t\torderProcessor.getOrder(_order...\n      PUSH [tag] 24\t\t\torderProcessor.getOrder(_order...\n      JUMP [in]\t\t\torderProcessor.getOrder(_order...\n    tag 23\t\t\torderProcessor.getOrder(_order...\n      JUMPDEST \t\t\torderProcessor.getOrder(_order...\n      PUSH C0\t\t\torderProcessor.getOrder(_order...\n      PUSH 40\t\t\torderProcessor.getOrder(_order...\n      MLOAD \t\t\torderProcessor.getOrder(_order...\n      DUP1 \t\t\torderProcessor.getOrder(_order...\n      DUP4 \t\t\torderProcessor.getOrder(_order...\n      SUB \t\t\torderProcessor.getOrder(_order...\n      DUP2 \t\t\torderProcessor.getOrder(_order...\n      DUP7 \t\t\torderProcessor.getOrder(_order...\n      DUP1 \t\t\torderProcessor.getOrder(_order...\n      EXTCODESIZE \t\t\torderProcessor.getOrder(_order...\n      ISZERO \t\t\torderProcessor.getOrder(_order...\n      DUP1 \t\t\torderProcessor.getOrder(_order...\n      ISZERO \t\t\torderProcessor.getOrder(_order...\n      PUSH [tag] 25\t\t\torderProcessor.getOrder(_order...\n      JUMPI \t\t\torderProcessor.getOrder(_order...\n      PUSH 0\t\t\torderProcessor.getOrder(_order...\n      DUP1 \t\t\torderProcessor.getOrder(_order...\n      REVERT \t\t\torderProcessor.getOrder(_order...\n    tag 25\t\t\torderProcessor.getOrder(_order...\n      JUMPDEST \t\t\torderProcessor.getOrder(_order...\n      POP \t\t\torderProcessor.getOrder(_order...\n      GAS \t\t\torderProcessor.getOrder(_order...\n      STATICCALL \t\t\torderProcessor.getOrder(_order...\n      ISZERO \t\t\torderProcessor.getOrder(_order...\n      DUP1 \t\t\torderProcessor.getOrder(_order...\n      ISZERO \t\t\torderProcessor.getOrder(_order...\n      PUSH [tag] 27\t\t\torderProcessor.getOrder(_order...\n      JUMPI \t\t\torderProcessor.getOrder(_order...\n      RETURNDATASIZE \t\t\torderProcessor.getOrder(_order...\n      PUSH 0\t\t\torderProcessor.getOrder(_order...\n      DUP1 \t\t\torderProcessor.getOrder(_order...\n      RETURNDATACOPY \t\t\torderProcessor.getOrder(_order...\n      RETURNDATASIZE \t\t\torderProcessor.getOrder(_order...\n      PUSH 0\t\t\torderProcessor.getOrder(_order...\n      REVERT \t\t\torderProcessor.getOrder(_order...\n    tag 27\t\t\torderProcessor.getOrder(_order...\n      JUMPDEST \t\t\torderProcessor.getOrder(_order...\n      POP \t\t\torderProcessor.getOrder(_order...\n      POP \t\t\torderProcessor.getOrder(_order...\n      POP \t\t\torderProcessor.getOrder(_order...\n      POP \t\t\torderProcessor.getOrder(_order...\n      PUSH 40\t\t\torderProcessor.getOrder(_order...\n      MLOAD \t\t\torderProcessor.getOrder(_order...\n      RETURNDATASIZE \t\t\torderProcessor.getOrder(_order...\n      PUSH 1F\t\t\torderProcessor.getOrder(_order...\n      NOT \t\t\torderProcessor.getOrder(_order...\n      PUSH 1F\t\t\torderProcessor.getOrder(_order...\n      DUP3 \t\t\torderProcessor.getOrder(_order...\n      ADD \t\t\torderProcessor.getOrder(_order...\n      AND \t\t\torderProcessor.getOrder(_order...\n      DUP3 \t\t\torderProcessor.getOrder(_order...\n      ADD \t\t\torderProcessor.getOrder(_order...\n      DUP1 \t\t\torderProcessor.getOrder(_order...\n      PUSH 40\t\t\torderProcessor.getOrder(_order...\n      MSTORE \t\t\torderProcessor.getOrder(_order...\n      POP \t\t\torderProcessor.getOrder(_order...\n      DUP2 \t\t\torderProcessor.getOrder(_order...\n      ADD \t\t\torderProcessor.getOrder(_order...\n      SWAP1 \t\t\torderProcessor.getOrder(_order...\n      PUSH [tag] 28\t\t\torderProcessor.getOrder(_order...\n      SWAP2 \t\t\torderProcessor.getOrder(_order...\n      SWAP1 \t\t\torderProcessor.getOrder(_order...\n      PUSH [tag] 29\t\t\torderProcessor.getOrder(_order...\n      JUMP [in]\t\t\torderProcessor.getOrder(_order...\n    tag 28\t\t\torderProcessor.getOrder(_order...\n      JUMPDEST \t\t\torderProcessor.getOrder(_order...\n      SWAP1 \t\t\tOrderProcessor.Order memory or...\n      POP \t\t\tOrderProcessor.Order memory or...\n      CALLER \t\t\tmsg.sender\n      PUSH FFFFFFFFFFFFFFFFFFFFFFFFFFFFFFFFFFFFFFFF\t\t\torder.buyer == msg.sender\n      AND \t\t\torder.buyer == msg.sender\n      DUP2 \t\t\torder\n      PUSH 20\t\t\torder.buyer\n      ADD \t\t\torder.buyer\n      MLOAD \t\t\torder.buyer\n      PUSH FFFFFFFFFFFFFFFFFFFFFFFFFFFFFFFFFFFFFFFF\t\t\torder.buyer == msg.sender\n      AND \t\t\torder.buyer == msg.sender\n      EQ \t\t\torder.buyer == msg.sender\n      PUSH [tag] 30\t\t\trequire(order.buyer == msg.sen...\n      JUMPI \t\t\trequire(order.buyer == msg.sen...\n      PUSH 40\t\t\trequire(order.buyer == msg.sen...\n      MLOAD \t\t\trequire(order.buyer == msg.sen...\n      PUSH 8C379A000000000000000000000000000000000000000000000000000000000\t\t\trequire(order.buyer == msg.sen...\n      DUP2 \t\t\trequire(order.buyer == msg.sen...\n      MSTORE \t\t\trequire(order.buyer == msg.sen...\n      PUSH 4\t\t\trequire(order.buyer == msg.sen...\n      ADD \t\t\trequire(order.buyer == msg.sen...\n      PUSH [tag] 31\t\t\trequire(order.buyer == msg.sen...\n      SWAP1 \t\t\trequire(order.buyer == msg.sen...\n      PUSH [tag] 32\t\t\trequire(order.buyer == msg.sen...\n      JUMP [in]\t\t\trequire(order.buyer == msg.sen...\n    tag 31\t\t\trequire(order.buyer == msg.sen...\n      JUMPDEST \t\t\trequire(order.buyer == msg.sen...\n      PUSH 40\t\t\trequire(order.buyer == msg.sen...\n      MLOAD \t\t\trequire(order.buyer == msg.sen...\n      DUP1 \t\t\trequire(order.buyer == msg.sen...\n      SWAP2 \t\t\trequire(order.buyer == msg.sen...\n      SUB \t\t\trequire(order.buyer == msg.sen...\n      SWAP1 \t\t\trequire(order.buyer == msg.sen...\n      REVERT \t\t\trequire(order.buyer == msg.sen...\n    tag 30\t\t\trequire(order.buyer == msg.sen...\n      JUMPDEST \t\t\trequire(order.buyer == msg.sen...\n      PUSH 0\t\t\tOrderProcessor.OrderStatus.Pen...\n      PUSH 3\t\t\torder.status == OrderProcessor...\n      DUP2 \t\t\torder.status == OrderProcessor...\n      GT \t\t\torder.status == OrderProcessor...\n      ISZERO \t\t\torder.status == OrderProcessor...\n      PUSH [tag] 33\t\t\torder.status == OrderProcessor...\n      JUMPI \t\t\torder.status == OrderProcessor...\n      PUSH 4E487B7100000000000000000000000000000000000000000000000000000000\t\t\torder.status == OrderProcessor...\n      PUSH 0\t\t\torder.status == OrderProcessor...\n      MSTORE \t\t\torder.status == OrderProcessor...\n      PUSH 21\t\t\torder.status == OrderProcessor...\n      PUSH 4\t\t\torder.status == OrderProcessor...\n      MSTORE \t\t\torder.status == OrderProcessor...\n      PUSH 24\t\t\torder.status == OrderProcessor...\n      PUSH 0\t\t\torder.status == OrderProcessor...\n      REVERT \t\t\torder.status == OrderProcessor...\n    tag 33\t\t\torder.status == OrderProcessor...\n      JUMPDEST \t\t\torder.status == OrderProcessor...\n      DUP2 \t\t\torder\n      PUSH A0\t\t\torder.status\n      ADD \t\t\torder.status\n      MLOAD \t\t\torder.status\n      PUSH 3\t\t\torder.status == OrderProcessor...\n      DUP2 \t\t\torder.status == OrderProcessor...\n      GT \t\t\torder.status == OrderProcessor...\n      ISZERO \t\t\torder.status == OrderProcessor...\n      PUSH [tag] 34\t\t\torder.status == OrderProcessor...\n      JUMPI \t\t\torder.status == OrderProcessor...\n      PUSH 4E487B7100000000000000000000000000000000000000000000000000000000\t\t\torder.status == OrderProcessor...\n      PUSH 0\t\t\torder.status == OrderProcessor...\n      MSTORE \t\t\torder.status == OrderProcessor...\n      PUSH 21\t\t\torder.status == OrderProcessor...\n      PUSH 4\t\t\torder.status == OrderProcessor...\n      MSTORE \t\t\torder.status == OrderProcessor...\n      PUSH 24\t\t\torder.status == OrderProcessor...\n      PUSH 0\t\t\torder.status == OrderProcessor...\n      REVERT \t\t\torder.status == OrderProcessor...\n    tag 34\t\t\torder.status == OrderProcessor...\n      JUMPDEST \t\t\torder.status == OrderProcessor...\n      EQ \t\t\torder.status == OrderProcessor...\n      PUSH [tag] 35\t\t\trequire(order.status == OrderP...\n      JUMPI \t\t\trequire(order.status == OrderP...\n      PUSH 40\t\t\trequire(order.status == OrderP...\n      MLOAD \t\t\trequire(order.status == OrderP...\n      PUSH 8C379A000000000000000000000000000000000000000000000000000000000\t\t\trequire(order.status == OrderP...\n      DUP2 \t\t\trequire(order.status == OrderP...\n      MSTORE \t\t\trequire(order.status == OrderP...\n      PUSH 4\t\t\trequire(order.status == OrderP...\n      ADD \t\t\trequire(order.status == OrderP...\n      PUSH [tag] 36\t\t\trequire(order.status == OrderP...\n      SWAP1 \t\t\trequire(order.status == OrderP...\n      PUSH [tag] 37\t\t\trequire(order.status == OrderP...\n      JUMP [in]\t\t\trequire(order.status == OrderP...\n    tag 36\t\t\trequire(order.status == OrderP...\n      JUMPDEST \t\t\trequire(order.status == OrderP...\n      PUSH 40\t\t\trequire(order.status == OrderP...\n      MLOAD \t\t\trequire(order.status == OrderP...\n      DUP1 \t\t\trequire(order.status == OrderP...\n      SWAP2 \t\t\trequire(order.status == OrderP...\n      SUB \t\t\trequire(order.status == OrderP...\n      SWAP1 \t\t\trequire(order.status == OrderP...\n      REVERT \t\t\trequire(order.status == OrderP...\n    tag 35\t\t\trequire(order.status == OrderP...\n      JUMPDEST \t\t\trequire(order.status == OrderP...\n      DUP1 \t\t\torder\n      PUSH 80\t\t\torder.totalAmount\n      ADD \t\t\torder.totalAmount\n      MLOAD \t\t\torder.totalAmount\n      CALLVALUE \t\t\tmsg.value\n      LT \t\t\tmsg.value >= order.totalAmount\n      ISZERO \t\t\tmsg.value >= order.totalAmount\n      PUSH [tag] 38\t\t\trequire(msg.value >= order.tot...\n      JUMPI \t\t\trequire(msg.value >= order.tot...\n      PUSH 40\t\t\trequire(msg.value >= order.tot...\n      MLOAD \t\t\trequire(msg.value >= order.tot...\n      PUSH 8C379A000000000000000000000000000000000000000000000000000000000\t\t\trequire(msg.value >= order.tot...\n      DUP2 \t\t\trequire(msg.value >= order.tot...\n      MSTORE \t\t\trequire(msg.value >= order.tot...\n      PUSH 4\t\t\trequire(msg.value >= order.tot...\n      ADD \t\t\trequire(msg.value >= order.tot...\n      PUSH [tag] 39\t\t\trequire(msg.value >= order.tot...\n      SWAP1 \t\t\trequire(msg.value >= order.tot...\n      PUSH [tag] 40\t\t\trequire(msg.value >= order.tot...\n      JUMP [in]\t\t\trequire(msg.value >= order.tot...\n    tag 39\t\t\trequire(msg.value >= order.tot...\n      JUMPDEST \t\t\trequire(msg.value >= order.tot...\n      PUSH 40\t\t\trequire(msg.value >= order.tot...\n      MLOAD \t\t\trequire(msg.value >= order.tot...\n      DUP1 \t\t\trequire(msg.value >= order.tot...\n      SWAP2 \t\t\trequire(msg.value >= order.tot...\n      SUB \t\t\trequire(msg.value >= order.tot...\n      SWAP1 \t\t\trequire(msg.value >= order.tot...\n      REVERT \t\t\trequire(msg.value >= order.tot...\n    tag 38\t\t\trequire(msg.value >= order.tot...\n      JUMPDEST \t\t\trequire(msg.value >= order.tot...\n      PUSH 0\t\t\torderProcessor\n      DUP1 \t\t\torderProcessor\n      SLOAD \t\t\torderProcessor\n      SWAP1 \t\t\torderProcessor\n      PUSH 100\t\t\torderProcessor\n      EXP \t\t\torderProcessor\n      SWAP1 \t\t\torderProcessor\n      DIV \t\t\torderProcessor\n      PUSH FFFFFFFFFFFFFFFFFFFFFFFFFFFFFFFFFFFFFFFF\t\t\torderProcessor\n      AND \t\t\torderProcessor\n      PUSH FFFFFFFFFFFFFFFFFFFFFFFFFFFFFFFFFFFFFFFF\t\t\torderProcessor.updateOrderStat...\n      AND \t\t\torderProcessor.updateOrderStat...\n      PUSH AAB3196D\t\t\torderProcessor.updateOrderStat...\n      DUP4 \t\t\t_orderId\n      PUSH 1\t\t\tOrderProcessor.OrderStatus.Shi...\n      PUSH 40\t\t\torderProcessor.updateOrderStat...\n      MLOAD \t\t\torderProcessor.updateOrderStat...\n      DUP4 \t\t\torderProcessor.updateOrderStat...\n      PUSH FFFFFFFF\t\t\torderProcessor.updateOrderStat...\n      AND \t\t\torderProcessor.updateOrderStat...\n      PUSH E0\t\t\torderProcessor.updateOrderStat...\n      SHL \t\t\torderProcessor.updateOrderStat...\n      DUP2 \t\t\torderProcessor.updateOrderStat...\n      MSTORE \t\t\torderProcessor.updateOrderStat...\n      PUSH 4\t\t\torderProcessor.updateOrderStat...\n      ADD \t\t\torderProcessor.updateOrderStat...\n      PUSH [tag] 41\t\t\torderProcessor.updateOrderStat...\n      SWAP3 \t\t\torderProcessor.updateOrderStat...\n      SWAP2 \t\t\torderProcessor.updateOrderStat...\n      SWAP1 \t\t\torderProcessor.updateOrderStat...\n      PUSH [tag] 42\t\t\torderProcessor.updateOrderStat...\n      JUMP [in]\t\t\torderProcessor.updateOrderStat...\n    tag 41\t\t\torderProcessor.updateOrderStat...\n      JUMPDEST \t\t\torderProcessor.updateOrderStat...\n      PUSH 0\t\t\torderProcessor.updateOrderStat...\n      PUSH 40\t\t\torderProcessor.updateOrderStat...\n      MLOAD \t\t\torderProcessor.updateOrderStat...\n      DUP1 \t\t\torderProcessor.updateOrderStat...\n      DUP4 \t\t\torderProcessor.updateOrderStat...\n      SUB \t\t\torderProcessor.updateOrderStat...\n      DUP2 \t\t\torderProcessor.updateOrderStat...\n      PUSH 0\t\t\torderProcessor.updateOrderStat...\n      DUP8 \t\t\torderProcessor.updateOrderStat...\n      DUP1 \t\t\torderProcessor.updateOrderStat...\n      EXTCODESIZE \t\t\torderProcessor.updateOrderStat...\n      ISZERO \t\t\torderProcessor.updateOrderStat...\n      DUP1 \t\t\torderProcessor.updateOrderStat...\n      ISZERO \t\t\torderProcessor.updateOrderStat...\n      PUSH [tag] 43\t\t\torderProcessor.updateOrderStat...\n      JUMPI \t\t\torderProcessor.updateOrderStat...\n      PUSH 0\t\t\torderProcessor.updateOrderStat...\n      DUP1 \t\t\torderProcessor.updateOrderStat...\n      REVERT \t\t\torderProcessor.updateOrderStat...\n    tag 43\t\t\torderProcessor.updateOrderStat...\n      JUMPDEST \t\t\torderProcessor.updateOrderStat...\n      POP \t\t\torderProcessor.updateOrderStat...\n      GAS \t\t\torderProcessor.updateOrderStat...\n      CALL \t\t\torderProcessor.updateOrderStat...\n      ISZERO \t\t\torderProcessor.updateOrderStat...\n      DUP1 \t\t\torderProcessor.updateOrderStat...\n      ISZERO \t\t\torderProcessor.updateOrderStat...\n      PUSH [tag] 45\t\t\torderProcessor.updateOrderStat...\n      JUMPI \t\t\torderProcessor.updateOrderStat...\n      RETURNDATASIZE \t\t\torderProcessor.updateOrderStat...\n      PUSH 0\t\t\torderProcessor.updateOrderStat...\n      DUP1 \t\t\torderProcessor.updateOrderStat...\n      RETURNDATACOPY \t\t\torderProcessor.updateOrderStat...\n      RETURNDATASIZE \t\t\torderProcessor.updateOrderStat...\n      PUSH 0\t\t\torderProcessor.updateOrderStat...\n      REVERT \t\t\torderProcessor.updateOrderStat...\n    tag 45\t\t\torderProcessor.updateOrderStat...\n      JUMPDEST \t\t\torderProcessor.updateOrderStat...\n      POP \t\t\torderProcessor.updateOrderStat...\n      POP \t\t\torderProcessor.updateOrderStat...\n      POP \t\t\torderProcessor.updateOrderStat...\n      POP \t\t\torderProcessor.updateOrderStat...\n      PUSH 0\t\t\tuint256 refundAmount\n      DUP2 \t\t\torder\n      PUSH 80\t\t\torder.totalAmount\n      ADD \t\t\torder.totalAmount\n      MLOAD \t\t\torder.totalAmount\n      CALLVALUE \t\t\tmsg.value\n      PUSH [tag] 46\t\t\tmsg.value - order.totalAmount\n      SWAP2 \t\t\tmsg.value - order.totalAmount\n      SWAP1 \t\t\tmsg.value - order.totalAmount\n      PUSH [tag] 47\t\t\tmsg.value - order.totalAmount\n      JUMP [in]\t\t\tmsg.value - order.totalAmount\n    tag 46\t\t\tmsg.value - order.totalAmount\n      JUMPDEST \t\t\tmsg.value - order.totalAmount\n      SWAP1 \t\t\tuint256 refundAmount = msg.val...\n      POP \t\t\tuint256 refundAmount = msg.val...\n      PUSH 0\t\t\tbool sent\n      PUSH 1\t\t\towner\n      PUSH 0\t\t\towner\n      SWAP1 \t\t\towner\n      SLOAD \t\t\towner\n      SWAP1 \t\t\towner\n      PUSH 100\t\t\towner\n      EXP \t\t\towner\n      SWAP1 \t\t\towner\n      DIV \t\t\towner\n      PUSH FFFFFFFFFFFFFFFFFFFFFFFFFFFFFFFFFFFFFFFF\t\t\towner\n      AND \t\t\towner\n      PUSH FFFFFFFFFFFFFFFFFFFFFFFFFFFFFFFFFFFFFFFF\t\t\towner.call\n      AND \t\t\towner.call\n      DUP4 \t\t\torder\n      PUSH 80\t\t\torder.totalAmount\n      ADD \t\t\torder.totalAmount\n      MLOAD \t\t\torder.totalAmount\n      PUSH 40\t\t\towner.call{value: order.totalA...\n      MLOAD \t\t\towner.call{value: order.totalA...\n      PUSH [tag] 48\t\t\towner.call{value: order.totalA...\n      SWAP1 \t\t\towner.call{value: order.totalA...\n      PUSH [tag] 49\t\t\towner.call{value: order.totalA...\n      JUMP [in]\t\t\towner.call{value: order.totalA...\n    tag 48\t\t\towner.call{value: order.totalA...\n      JUMPDEST \t\t\towner.call{value: order.totalA...\n      PUSH 0\t\t\towner.call{value: order.totalA...\n      PUSH 40\t\t\towner.call{value: order.totalA...\n      MLOAD \t\t\towner.call{value: order.totalA...\n      DUP1 \t\t\towner.call{value: order.totalA...\n      DUP4 \t\t\towner.call{value: order.totalA...\n      SUB \t\t\towner.call{value: order.totalA...\n      DUP2 \t\t\towner.call{value: order.totalA...\n      DUP6 \t\t\towner.call{value: order.totalA...\n      DUP8 \t\t\towner.call{value: order.totalA...\n      GAS \t\t\towner.call{value: order.totalA...\n      CALL \t\t\towner.call{value: order.totalA...\n      SWAP3 \t\t\towner.call{value: order.totalA...\n      POP \t\t\towner.call{value: order.totalA...\n      POP \t\t\towner.call{value: order.totalA...\n      POP \t\t\towner.call{value: order.totalA...\n      RETURNDATASIZE \t\t\towner.call{value: order.totalA...\n      DUP1 \t\t\towner.call{value: order.totalA...\n      PUSH 0\t\t\towner.call{value: order.totalA...\n      DUP2 \t\t\towner.call{value: order.totalA...\n      EQ \t\t\towner.call{value: order.totalA...\n      PUSH [tag] 52\t\t\towner.call{value: order.totalA...\n      JUMPI \t\t\towner.call{value: order.totalA...\n      PUSH 40\t\t\towner.call{value: order.totalA...\n      MLOAD \t\t\towner.call{value: order.totalA...\n      SWAP2 \t\t\towner.call{value: order.totalA...\n      POP \t\t\towner.call{value: order.totalA...\n      PUSH 1F\t\t\towner.call{value: order.totalA...\n      NOT \t\t\towner.call{value: order.totalA...\n      PUSH 3F\t\t\towner.call{value: order.totalA...\n      RETURNDATASIZE \t\t\towner.call{value: order.totalA...\n      ADD \t\t\towner.call{value: order.totalA...\n      AND \t\t\towner.call{value: order.totalA...\n      DUP3 \t\t\towner.call{value: order.totalA...\n      ADD \t\t\towner.call{value: order.totalA...\n      PUSH 40\t\t\towner.call{value: order.totalA...\n      MSTORE \t\t\towner.call{value: order.totalA...\n      RETURNDATASIZE \t\t\towner.call{value: order.totalA...\n      DUP3 \t\t\towner.call{value: order.totalA...\n      MSTORE \t\t\towner.call{value: order.totalA...\n      RETURNDATASIZE \t\t\towner.call{value: order.totalA...\n      PUSH 0\t\t\towner.call{value: order.totalA...\n      PUSH 20\t\t\towner.call{value: order.totalA...\n      DUP5 \t\t\towner.call{value: order.totalA...\n      ADD \t\t\towner.call{value: order.totalA...\n      RETURNDATACOPY \t\t\towner.call{value: order.totalA...\n      PUSH [tag] 51\t\t\towner.call{value: order.totalA...\n      JUMP \t\t\towner.call{value: order.totalA...\n    tag 52\t\t\towner.call{value: order.totalA...\n      JUMPDEST \t\t\towner.call{value: order.totalA...\n      PUSH 60\t\t\towner.call{value: order.totalA...\n      SWAP2 \t\t\towner.call{value: order.totalA...\n      POP \t\t\towner.call{value: order.totalA...\n    tag 51\t\t\towner.call{value: order.totalA...\n      JUMPDEST \t\t\towner.call{value: order.totalA...\n      POP \t\t\towner.call{value: order.totalA...\n      POP \t\t\t(bool sent, ) = owner.call{val...\n      SWAP1 \t\t\t(bool sent, ) = owner.call{val...\n      POP \t\t\t(bool sent, ) = owner.call{val...\n      DUP1 \t\t\tsent\n      PUSH [tag] 53\t\t\trequire(sent, \"Failed to send ...\n      JUMPI \t\t\trequire(sent, \"Failed to send ...\n      PUSH 40\t\t\trequire(sent, \"Failed to send ...\n      MLOAD \t\t\trequire(sent, \"Failed to send ...\n      PUSH 8C379A000000000000000000000000000000000000000000000000000000000\t\t\trequire(sent, \"Failed to send ...\n      DUP2 \t\t\trequire(sent, \"Failed to send ...\n      MSTORE \t\t\trequire(sent, \"Failed to send ...\n      PUSH 4\t\t\trequire(sent, \"Failed to send ...\n      ADD \t\t\trequire(sent, \"Failed to send ...\n      PUSH [tag] 54\t\t\trequire(sent, \"Failed to send ...\n      SWAP1 \t\t\trequire(sent, \"Failed to send ...\n      PUSH [tag] 55\t\t\trequire(sent, \"Failed to send ...\n      JUMP [in]\t\t\trequire(sent, \"Failed to send ...\n    tag 54\t\t\trequire(sent, \"Failed to send ...\n      JUMPDEST \t\t\trequire(sent, \"Failed to send ...\n      PUSH 40\t\t\trequire(sent, \"Failed to send ...\n      MLOAD \t\t\trequire(sent, \"Failed to send ...\n      DUP1 \t\t\trequire(sent, \"Failed to send ...\n      SWAP2 \t\t\trequire(sent, \"Failed to send ...\n      SUB \t\t\trequire(sent, \"Failed to send ...\n      SWAP1 \t\t\trequire(sent, \"Failed to send ...\n      REVERT \t\t\trequire(sent, \"Failed to send ...\n    tag 53\t\t\trequire(sent, \"Failed to send ...\n      JUMPDEST \t\t\trequire(sent, \"Failed to send ...\n      PUSH 0\t\t\t0\n      DUP3 \t\t\trefundAmount\n      GT \t\t\trefundAmount > 0\n      ISZERO \t\t\tif (refundAmount > 0) {\\n     ...\n      PUSH [tag] 56\t\t\tif (refundAmount > 0) {\\n     ...\n      JUMPI \t\t\tif (refundAmount > 0) {\\n     ...\n      PUSH 0\t\t\tbool refunded\n      CALLER \t\t\tmsg.sender\n      PUSH FFFFFFFFFFFFFFFFFFFFFFFFFFFFFFFFFFFFFFFF\t\t\tmsg.sender.call\n      AND \t\t\tmsg.sender.call\n      DUP4 \t\t\trefundAmount\n      PUSH 40\t\t\tmsg.sender.call{value: refundA...\n      MLOAD \t\t\tmsg.sender.call{value: refundA...\n      PUSH [tag] 57\t\t\tmsg.sender.call{value: refundA...\n      SWAP1 \t\t\tmsg.sender.call{value: refundA...\n      PUSH [tag] 49\t\t\tmsg.sender.call{value: refundA...\n      JUMP [in]\t\t\tmsg.sender.call{value: refundA...\n    tag 57\t\t\tmsg.sender.call{value: refundA...\n      JUMPDEST \t\t\tmsg.sender.call{value: refundA...\n      PUSH 0\t\t\tmsg.sender.call{value: refundA...\n      PUSH 40\t\t\tmsg.sender.call{value: refundA...\n      MLOAD \t\t\tmsg.sender.call{value: refundA...\n      DUP1 \t\t\tmsg.sender.call{value: refundA...\n      DUP4 \t\t\tmsg.sender.call{value: refundA...\n      SUB \t\t\tmsg.sender.call{value: refundA...\n      DUP2 \t\t\tmsg.sender.call{value: refundA...\n      DUP6 \t\t\tmsg.sender.call{value: refundA...\n      DUP8 \t\t\tmsg.sender.call{value: refundA...\n      GAS \t\t\tmsg.sender.call{value: refundA...\n      CALL \t\t\tmsg.sender.call{value: refundA...\n      SWAP3 \t\t\tmsg.sender.call{value: refundA...\n      POP \t\t\tmsg.sender.call{value: refundA...\n      POP \t\t\tmsg.sender.call{value: refundA...\n      POP \t\t\tmsg.sender.call{value: refundA...\n      RETURNDATASIZE \t\t\tmsg.sender.call{value: refundA...\n      DUP1 \t\t\tmsg.sender.call{value: refundA...\n      PUSH 0\t\t\tmsg.sender.call{value: refundA...\n      DUP2 \t\t\tmsg.sender.call{value: refundA...\n      EQ \t\t\tmsg.sender.call{value: refundA...\n      PUSH [tag] 60\t\t\tmsg.sender.call{value: refundA...\n      JUMPI \t\t\tmsg.sender.call{value: refundA...\n      PUSH 40\t\t\tmsg.sender.call{value: refundA...\n      MLOAD \t\t\tmsg.sender.call{value: refundA...\n      SWAP2 \t\t\tmsg.sender.call{value: refundA...\n      POP \t\t\tmsg.sender.call{value: refundA...\n      PUSH 1F\t\t\tmsg.sender.call{value: refundA...\n      NOT \t\t\tmsg.sender.call{value: refundA...\n      PUSH 3F\t\t\tmsg.sender.call{value: refundA...\n      RETURNDATASIZE \t\t\tmsg.sender.call{value: refundA...\n      ADD \t\t\tmsg.sender.call{value: refundA...\n      AND \t\t\tmsg.sender.call{value: refundA...\n      DUP3 \t\t\tmsg.sender.call{value: refundA...\n      ADD \t\t\tmsg.sender.call{value: refundA...\n      PUSH 40\t\t\tmsg.sender.call{value: refundA...\n      MSTORE \t\t\tmsg.sender.call{value: refundA...\n      RETURNDATASIZE \t\t\tmsg.sender.call{value: refundA...\n      DUP3 \t\t\tmsg.sender.call{value: refundA...\n      MSTORE \t\t\tmsg.sender.call{value: refundA...\n      RETURNDATASIZE \t\t\tmsg.sender.call{value: refundA...\n      PUSH 0\t\t\tmsg.sender.call{value: refundA...\n      PUSH 20\t\t\tmsg.sender.call{value: refundA...\n      DUP5 \t\t\tmsg.sender.call{value: refundA...\n      ADD \t\t\tmsg.sender.call{value: refundA...\n      RETURNDATACOPY \t\t\tmsg.sender.call{value: refundA...\n      PUSH [tag] 59\t\t\tmsg.sender.call{value: refundA...\n      JUMP \t\t\tmsg.sender.call{value: refundA...\n    tag 60\t\t\tmsg.sender.call{value: refundA...\n      JUMPDEST \t\t\tmsg.sender.call{value: refundA...\n      PUSH 60\t\t\tmsg.sender.call{value: refundA...\n      SWAP2 \t\t\tmsg.sender.call{value: refundA...\n      POP \t\t\tmsg.sender.call{value: refundA...\n    tag 59\t\t\tmsg.sender.call{value: refundA...\n      JUMPDEST \t\t\tmsg.sender.call{value: refundA...\n      POP \t\t\tmsg.sender.call{value: refundA...\n      POP \t\t\t(bool refunded, ) = msg.sender...\n      SWAP1 \t\t\t(bool refunded, ) = msg.sender...\n      POP \t\t\t(bool refunded, ) = msg.sender...\n      DUP1 \t\t\trefunded\n      PUSH [tag] 61\t\t\trequire(refunded, \"Failed to r...\n      JUMPI \t\t\trequire(refunded, \"Failed to r...\n      PUSH 40\t\t\trequire(refunded, \"Failed to r...\n      MLOAD \t\t\trequire(refunded, \"Failed to r...\n      PUSH 8C379A000000000000000000000000000000000000000000000000000000000\t\t\trequire(refunded, \"Failed to r...\n      DUP2 \t\t\trequire(refunded, \"Failed to r...\n      MSTORE \t\t\trequire(refunded, \"Failed to r...\n      PUSH 4\t\t\trequire(refunded, \"Failed to r...\n      ADD \t\t\trequire(refunded, \"Failed to r...\n      PUSH [tag] 62\t\t\trequire(refunded, \"Failed to r...\n      SWAP1 \t\t\trequire(refunded, \"Failed to r...\n      PUSH [tag] 63\t\t\trequire(refunded, \"Failed to r...\n      JUMP [in]\t\t\trequire(refunded, \"Failed to r...\n    tag 62\t\t\trequire(refunded, \"Failed to r...\n      JUMPDEST \t\t\trequire(refunded, \"Failed to r...\n      PUSH 40\t\t\trequire(refunded, \"Failed to r...\n      MLOAD \t\t\trequire(refunded, \"Failed to r...\n      DUP1 \t\t\trequire(refunded, \"Failed to r...\n      SWAP2 \t\t\trequire(refunded, \"Failed to r...\n      SUB \t\t\trequire(refunded, \"Failed to r...\n      SWAP1 \t\t\trequire(refunded, \"Failed to r...\n      REVERT \t\t\trequire(refunded, \"Failed to r...\n    tag 61\t\t\trequire(refunded, \"Failed to r...\n      JUMPDEST \t\t\trequire(refunded, \"Failed to r...\n      POP \t\t\tif (refundAmount > 0) {\\n     ...\n    tag 56\t\t\tif (refundAmount > 0) {\\n     ...\n      JUMPDEST \t\t\tif (refundAmount > 0) {\\n     ...\n      CALLER \t\t\tmsg.sender\n      PUSH FFFFFFFFFFFFFFFFFFFFFFFFFFFFFFFFFFFFFFFF\t\t\tPaymentReceived(msg.sender, _o...\n      AND \t\t\tPaymentReceived(msg.sender, _o...\n      PUSH 5677B5D4CF976AC32DEFBD95A6A5AAF0D1FEE450A11FC26F3C11AAE6E6C33D06\t\t\tPaymentReceived(msg.sender, _o...\n      DUP6 \t\t\t_orderId\n      DUP6 \t\t\torder\n      PUSH 80\t\t\torder.totalAmount\n      ADD \t\t\torder.totalAmount\n      MLOAD \t\t\torder.totalAmount\n      PUSH 40\t\t\tPaymentReceived(msg.sender, _o...\n      MLOAD \t\t\tPaymentReceived(msg.sender, _o...\n      PUSH [tag] 64\t\t\tPaymentReceived(msg.sender, _o...\n      SWAP3 \t\t\tPaymentReceived(msg.sender, _o...\n      SWAP2 \t\t\tPaymentReceived(msg.sender, _o...\n      SWAP1 \t\t\tPaymentReceived(msg.sender, _o...\n      PUSH [tag] 65\t\t\tPaymentReceived(msg.sender, _o...\n      JUMP [in]\t\t\tPaymentReceived(msg.sender, _o...\n    tag 64\t\t\tPaymentReceived(msg.sender, _o...\n      JUMPDEST \t\t\tPaymentReceived(msg.sender, _o...\n      PUSH 40\t\t\tPaymentReceived(msg.sender, _o...\n      MLOAD \t\t\tPaymentReceived(msg.sender, _o...\n      DUP1 \t\t\tPaymentReceived(msg.sender, _o...\n      SWAP2 \t\t\tPaymentReceived(msg.sender, _o...\n      SUB \t\t\tPaymentReceived(msg.sender, _o...\n      SWAP1 \t\t\tPaymentReceived(msg.sender, _o...\n      LOG2 \t\t\tPaymentReceived(msg.sender, _o...\n      POP \t\t\tfunction receivePayment(uint25...\n      POP \t\t\tfunction receivePayment(uint25...\n      POP \t\t\tfunction receivePayment(uint25...\n      POP \t\t\tfunction receivePayment(uint25...\n      JUMP [out]\t\t\tfunction receivePayment(uint25...\n    tag 67\t\t\t-License-Identifier: MIT\\nprag...\n      JUMPDEST \t\t\t-License-Identifier: MIT\\nprag...\n      PUSH 0\t\t\t-License-Identifier: MIT\\nprag...\n      DUP2 \t\t\tct Pay\n      MLOAD \t\t\tcontract Paym\n      SWAP1 \t\t\tr.sol\";\\n\\ncontract Paym\n      POP \t\t\tr.sol\";\\n\\ncontract Paym\n      PUSH [tag] 69\t\t\tr {\\n    OrderProcessor public...\n      DUP2 \t\t\tic or\n      PUSH [tag] 70\t\t\tr {\\n    OrderProcessor public...\n      JUMP [in]\t\t\tr {\\n    OrderProcessor public...\n    tag 69\t\t\tr {\\n    OrderProcessor public...\n      JUMPDEST \t\t\tr {\\n    OrderProcessor public...\n      SWAP3 \t\t\terProcessor.sol\";\\n\\ncontract ...\n      SWAP2 \t\t\terProcessor.sol\";\\n\\ncontract ...\n      POP \t\t\terProcessor.sol\";\\n\\ncontract ...\n      POP \t\t\terProcessor.sol\";\\n\\ncontract ...\n      JUMP [out]\t\t\terProcessor.sol\";\\n\\ncontract ...\n    tag 71\t\t\t\\n    address public owner;\\n\\...\n      JUMPDEST \t\t\t\\n    address public owner;\\n\\...\n      PUSH 0\t\t\t\\n    address public owner;\\n\\...\n      DUP2 \t\t\tmount)\n      MLOAD \t\t\tt256 amount);\n      SWAP1 \t\t\terId, uint256 amount);\n      POP \t\t\terId, uint256 amount);\n      PUSH [tag] 73\t\t\tstructor(address _orderProcess...\n      DUP2 \t\t\t  req\n      PUSH [tag] 74\t\t\tstructor(address _orderProcess...\n      JUMP [in]\t\t\tstructor(address _orderProcess...\n    tag 73\t\t\tstructor(address _orderProcess...\n      JUMPDEST \t\t\tstructor(address _orderProcess...\n      SWAP3 \t\t\tint256 orderId, uint256 amount...\n      SWAP2 \t\t\tint256 orderId, uint256 amount...\n      POP \t\t\tint256 orderId, uint256 amount...\n      POP \t\t\tint256 orderId, uint256 amount...\n      JUMP [out]\t\t\tint256 orderId, uint256 amount...\n    tag 75\t\t\terProcessor address\");\\n      ...\n      JUMPDEST \t\t\terProcessor address\");\\n      ...\n      PUSH 0\t\t\terProcessor address\");\\n      ...\n      PUSH C0\t\t\ter o\n      DUP3 \t\t\t\\n\\n    mod\n      DUP5 \t\t\t   \n      SUB \t\t\ter;\\n    }\\n\\n    modi\n      SLT \t\t\tsender;\\n    }\\n\\n    modifier...\n      ISZERO \t\t\tsg\n      PUSH [tag] 77\t\t\tsg\n      JUMPI \t\t\tsg\n      PUSH 0\t\t\t \n      DUP1 \t\t\t{\n      REVERT \t\t\twner() {\\n   \n    tag 77\t\t\tsg\n      JUMPDEST \t\t\tsg\n      PUSH [tag] 78\t\t\tder == owner, \"Only \n      PUSH C0\t\t\tOnly\n      PUSH [tag] 79\t\t\tder == owner, \"Only \n      JUMP [in]\t\t\tder == owner, \"Only \n    tag 78\t\t\tder == owner, \"Only \n      JUMPDEST \t\t\tder == owner, \"Only \n      SWAP1 \t\t\te(msg.sender == owner, \"Only \n      POP \t\t\te(msg.sender == owner, \"Only \n      PUSH 0\t\t\t\\n\n      PUSH [tag] 80\t\t\tderId) public payable {\\n     ...\n      DUP5 \t\t\tPay\n      DUP3 \t\t\tue > 0\n      DUP6 \t\t\tire(msg.v\n      ADD \t\t\trequire(msg.value > 0,\n      PUSH [tag] 81\t\t\tderId) public payable {\\n     ...\n      JUMP [in]\t\t\tderId) public payable {\\n     ...\n    tag 80\t\t\tderId) public payable {\\n     ...\n      JUMPDEST \t\t\tderId) public payable {\\n     ...\n      PUSH 0\t\t\t256 \n      DUP4 \t\t\tnt(ui\n      ADD \t\t\tayment(uint256 _\n      MSTORE \t\t\teceivePayment(uint256 _orderId...\n      POP \t\t\tct owner can call this functio...\n      PUSH 20\t\t\ty \n      PUSH [tag] 82\t\t\td);\\n        require(order.buy...\n      DUP5 \t\t\t bu\n      DUP3 \t\t\t\"Only \n      DUP6 \t\t\tsg.sender\n      ADD \t\t\t== msg.sender, \"Only t\n      PUSH [tag] 67\t\t\td);\\n        require(order.buy...\n      JUMP [in]\t\t\td);\\n        require(order.buy...\n    tag 82\t\t\td);\\n        require(order.buy...\n      JUMPDEST \t\t\td);\\n        require(order.buy...\n      PUSH 20\t\t\t_ord\n      DUP4 \t\t\ttOrde\n      ADD \t\t\tr.getOrder(_orde\n      MSTORE \t\t\trocessor.getOrder(_orderId);\\n...\n      POP \t\t\tater than 0\");\\n\\n        Orde...\n      PUSH 40\t\t\trd\n      PUSH [tag] 83\t\t\tnt can only be made for pendin...\n      DUP5 \t\t\tre(\n      DUP3 \t\t\t    re\n      DUP6 \t\t\trs\");\\n\\n  \n      ADD \t\t\torders\");\\n\\n        req\n      PUSH [tag] 81\t\t\tnt can only be made for pendin...\n      JUMP [in]\t\t\tnt can only be made for pendin...\n    tag 83\t\t\tnt can only be made for pendin...\n      JUMPDEST \t\t\tnt can only be made for pendin...\n      PUSH 40\t\t\t \"Pa\n      DUP4 \t\t\tendin\n      ADD \t\t\tus.Pending, \"Pay\n      MSTORE \t\t\tderStatus.Pending, \"Payment ca...\n      POP \t\t\tor their order\");\\n        req...\n      PUSH 60\t\t\tss\n      PUSH [tag] 84\t\t\tcessor.OrderStatus.Shipped);\\n...\n      DUP5 \t\t\tnt \n      DUP3 \t\t\tefundA\n      DUP6 \t\t\t  uint256\n      ADD \t\t\t      uint256 refundAm\n      PUSH [tag] 81\t\t\tcessor.OrderStatus.Shipped);\\n...\n      JUMP [in]\t\t\tcessor.OrderStatus.Shipped);\\n...\n    tag 84\t\t\tcessor.OrderStatus.Shipped);\\n...\n      JUMPDEST \t\t\tcessor.OrderStatus.Shipped);\\n...\n      PUSH 60\t\t\trder\n      DUP4 \t\t\terId,\n      ADD \t\t\t_orderId, OrderP\n      MSTORE \t\t\tStatus(_orderId, OrderProcesso...\n      POP \t\t\tlAmount, \"Insufficient payment...\n      PUSH 80\t\t\ter.\n      PUSH [tag] 85\t\t\t \"Failed to send Ether\");\\n\\n ...\n      DUP5 \t\t\t {\\n\n      DUP3 \t\t\tount >\n      DUP6 \t\t\tf (refund\n      ADD \t\t\t   if (refundAmount > \n      PUSH [tag] 81\t\t\t \"Failed to send Ether\");\\n\\n ...\n      JUMP [in]\t\t\t \"Failed to send Ether\");\\n\\n ...\n    tag 85\t\t\t \"Failed to send Ether\");\\n\\n ...\n      JUMPDEST \t\t\t \"Failed to send Ether\");\\n\\n ...\n      PUSH 80\t\t\te(se\n      DUP4 \t\t\t requ\n      ADD \t\t\t     require(sen\n      MSTORE \t\t\t\");\\n        require(sent, \"Fa...\n      POP \t\t\talAmount;\\n\\n        (bool sen...\n      PUSH A0\t\t\t   \n      PUSH [tag] 86\t\t\tefund Ether\");\\n        }\\n\\n ...\n      DUP5 \t\t\terI\n      DUP3 \t\t\tder, _\n      DUP6 \t\t\tved(msg.s\n      ADD \t\t\teceived(msg.sender, _o\n      PUSH [tag] 71\t\t\tefund Ether\");\\n        }\\n\\n ...\n      JUMP [in]\t\t\tefund Ether\");\\n        }\\n\\n ...\n    tag 86\t\t\tefund Ether\");\\n        }\\n\\n ...\n      JUMPDEST \t\t\tefund Ether\");\\n        }\\n\\n ...\n      PUSH A0\t\t\ted t\n      DUP4 \t\t\t, \"Fa\n      ADD \t\t\tnded, \"Failed to\n      MSTORE \t\t\tre(refunded, \"Failed to refund...\n      POP \t\t\tded, ) = msg.sender.call{value...\n      SWAP3 \t\t\t owner = msg.sender;\\n    }\\n\\...\n      SWAP2 \t\t\t owner = msg.sender;\\n    }\\n\\...\n      POP \t\t\t owner = msg.sender;\\n    }\\n\\...\n      POP \t\t\t owner = msg.sender;\\n    }\\n\\...\n      JUMP [out]\t\t\t owner = msg.sender;\\n    }\\n\\...\n    tag 87\t\t\t }\\n}\n      JUMPDEST \t\t\t }\\n}\n      PUSH 0\t\t\t }\\n}\n      DUP2 \t\t\t\n      CALLDATALOAD \t\t\t\n      SWAP1 \t\t\t\n      POP \t\t\t\n      PUSH [tag] 89\t\t\t\n      DUP2 \t\t\t\n      PUSH [tag] 90\t\t\t\n      JUMP [in]\t\t\t\n    tag 89\t\t\t\n      JUMPDEST \t\t\t\n      SWAP3 \t\t\t\n      SWAP2 \t\t\t\n      POP \t\t\t\n      POP \t\t\t\n      JUMP [out]\t\t\t\n    tag 81\t\t\t\n      JUMPDEST \t\t\t\n      PUSH 0\t\t\t\n      DUP2 \t\t\t\n      MLOAD \t\t\t\n      SWAP1 \t\t\t\n      POP \t\t\t\n      PUSH [tag] 92\t\t\t\n      DUP2 \t\t\t\n      PUSH [tag] 90\t\t\t\n      JUMP [in]\t\t\t\n    tag 92\t\t\t\n      JUMPDEST \t\t\t\n      SWAP3 \t\t\t\n      SWAP2 \t\t\t\n      POP \t\t\t\n      POP \t\t\t\n      JUMP [out]\t\t\t\n    tag 29\t\t\t\n      JUMPDEST \t\t\t\n      PUSH 0\t\t\t\n      PUSH C0\t\t\t\n      DUP3 \t\t\t\n      DUP5 \t\t\t\n      SUB \t\t\t\n      SLT \t\t\t\n      ISZERO \t\t\t\n      PUSH [tag] 94\t\t\t\n      JUMPI \t\t\t\n      PUSH 0\t\t\t\n      DUP1 \t\t\t\n      REVERT \t\t\t\n    tag 94\t\t\t\n      JUMPDEST \t\t\t\n      PUSH 0\t\t\t\n      PUSH [tag] 95\t\t\t\n      DUP5 \t\t\t\n      DUP3 \t\t\t\n      DUP6 \t\t\t\n      ADD \t\t\t\n      PUSH [tag] 75\t\t\t\n      JUMP [in]\t\t\t\n    tag 95\t\t\t\n      JUMPDEST \t\t\t\n      SWAP2 \t\t\t\n      POP \t\t\t\n      POP \t\t\t\n      SWAP3 \t\t\t\n      SWAP2 \t\t\t\n      POP \t\t\t\n      POP \t\t\t\n      JUMP [out]\t\t\t\n    tag 17\t\t\t\n      JUMPDEST \t\t\t\n      PUSH 0\t\t\t\n      PUSH 20\t\t\t\n      DUP3 \t\t\t\n      DUP5 \t\t\t\n      SUB \t\t\t\n      SLT \t\t\t\n      ISZERO \t\t\t\n      PUSH [tag] 97\t\t\t\n      JUMPI \t\t\t\n      PUSH 0\t\t\t\n      DUP1 \t\t\t\n      REVERT \t\t\t\n    tag 97\t\t\t\n      JUMPDEST \t\t\t\n      PUSH 0\t\t\t\n      PUSH [tag] 98\t\t\t\n      DUP5 \t\t\t\n      DUP3 \t\t\t\n      DUP6 \t\t\t\n      ADD \t\t\t\n      PUSH [tag] 87\t\t\t\n      JUMP [in]\t\t\t\n    tag 98\t\t\t\n      JUMPDEST \t\t\t\n      SWAP2 \t\t\t\n      POP \t\t\t\n      POP \t\t\t\n      SWAP3 \t\t\t\n      SWAP2 \t\t\t\n      POP \t\t\t\n      POP \t\t\t\n      JUMP [out]\t\t\t\n    tag 99\t\t\t\n      JUMPDEST \t\t\t\n      PUSH [tag] 101\t\t\t\n      DUP2 \t\t\t\n      PUSH [tag] 102\t\t\t\n      JUMP [in]\t\t\t\n    tag 101\t\t\t\n      JUMPDEST \t\t\t\n      DUP3 \t\t\t\n      MSTORE \t\t\t\n      POP \t\t\t\n      POP \t\t\t\n      JUMP [out]\t\t\t\n    tag 103\t\t\t\n      JUMPDEST \t\t\t\n      PUSH [tag] 105\t\t\t\n      DUP2 \t\t\t\n      PUSH [tag] 106\t\t\t\n      JUMP [in]\t\t\t\n    tag 105\t\t\t\n      JUMPDEST \t\t\t\n      DUP3 \t\t\t\n      MSTORE \t\t\t\n      POP \t\t\t\n      POP \t\t\t\n      JUMP [out]\t\t\t\n    tag 107\t\t\t\n      JUMPDEST \t\t\t\n      PUSH [tag] 109\t\t\t\n      DUP2 \t\t\t\n      PUSH [tag] 110\t\t\t\n      JUMP [in]\t\t\t\n    tag 109\t\t\t\n      JUMPDEST \t\t\t\n      DUP3 \t\t\t\n      MSTORE \t\t\t\n      POP \t\t\t\n      POP \t\t\t\n      JUMP [out]\t\t\t\n    tag 111\t\t\t\n      JUMPDEST \t\t\t\n      PUSH 0\t\t\t\n      PUSH [tag] 113\t\t\t\n      PUSH 14\t\t\t\n      DUP4 \t\t\t\n      PUSH [tag] 114\t\t\t\n      JUMP [in]\t\t\t\n    tag 113\t\t\t\n      JUMPDEST \t\t\t\n      SWAP2 \t\t\t\n      POP \t\t\t\n      PUSH 4661696C656420746F2073656E64204574686572000000000000000000000000\t\t\t\n      PUSH 0\t\t\t\n      DUP4 \t\t\t\n      ADD \t\t\t\n      MSTORE \t\t\t\n      PUSH 20\t\t\t\n      DUP3 \t\t\t\n      ADD \t\t\t\n      SWAP1 \t\t\t\n      POP \t\t\t\n      SWAP2 \t\t\t\n      SWAP1 \t\t\t\n      POP \t\t\t\n      JUMP [out]\t\t\t\n    tag 115\t\t\t\n      JUMPDEST \t\t\t\n      PUSH 0\t\t\t\n      PUSH [tag] 117\t\t\t\n      PUSH 25\t\t\t\n      DUP4 \t\t\t\n      PUSH [tag] 114\t\t\t\n      JUMP [in]\t\t\t\n    tag 117\t\t\t\n      JUMPDEST \t\t\t\n      SWAP2 \t\t\t\n      POP \t\t\t\n      PUSH 5061796D656E7420616D6F756E74206D75737420626520677265617465722074\t\t\t\n      PUSH 0\t\t\t\n      DUP4 \t\t\t\n      ADD \t\t\t\n      MSTORE \t\t\t\n      PUSH 68616E2030000000000000000000000000000000000000000000000000000000\t\t\t\n      PUSH 20\t\t\t\n      DUP4 \t\t\t\n      ADD \t\t\t\n      MSTORE \t\t\t\n      PUSH 40\t\t\t\n      DUP3 \t\t\t\n      ADD \t\t\t\n      SWAP1 \t\t\t\n      POP \t\t\t\n      SWAP2 \t\t\t\n      SWAP1 \t\t\t\n      POP \t\t\t\n      JUMP [out]\t\t\t\n    tag 118\t\t\t\n      JUMPDEST \t\t\t\n      PUSH 0\t\t\t\n      PUSH [tag] 120\t\t\t\n      PUSH 30\t\t\t\n      DUP4 \t\t\t\n      PUSH [tag] 114\t\t\t\n      JUMP [in]\t\t\t\n    tag 120\t\t\t\n      JUMPDEST \t\t\t\n      SWAP2 \t\t\t\n      POP \t\t\t\n      PUSH 4F6E6C79207468652062757965722063616E206D616B65207061796D656E7473\t\t\t\n      PUSH 0\t\t\t\n      DUP4 \t\t\t\n      ADD \t\t\t\n      MSTORE \t\t\t\n      PUSH 20666F72207468656972206F7264657200000000000000000000000000000000\t\t\t\n      PUSH 20\t\t\t\n      DUP4 \t\t\t\n      ADD \t\t\t\n      MSTORE \t\t\t\n      PUSH 40\t\t\t\n      DUP3 \t\t\t\n      ADD \t\t\t\n      SWAP1 \t\t\t\n      POP \t\t\t\n      SWAP2 \t\t\t\n      SWAP1 \t\t\t\n      POP \t\t\t\n      JUMP [out]\t\t\t\n    tag 121\t\t\t\n      JUMPDEST \t\t\t\n      PUSH 0\t\t\t\n      PUSH [tag] 123\t\t\t\n      PUSH 2B\t\t\t\n      DUP4 \t\t\t\n      PUSH [tag] 114\t\t\t\n      JUMP [in]\t\t\t\n    tag 123\t\t\t\n      JUMPDEST \t\t\t\n      SWAP2 \t\t\t\n      POP \t\t\t\n      PUSH 5061796D656E742063616E206F6E6C79206265206D61646520666F722070656E\t\t\t\n      PUSH 0\t\t\t\n      DUP4 \t\t\t\n      ADD \t\t\t\n      MSTORE \t\t\t\n      PUSH 64696E67206F7264657273000000000000000000000000000000000000000000\t\t\t\n      PUSH 20\t\t\t\n      DUP4 \t\t\t\n      ADD \t\t\t\n      MSTORE \t\t\t\n      PUSH 40\t\t\t\n      DUP3 \t\t\t\n      ADD \t\t\t\n      SWAP1 \t\t\t\n      POP \t\t\t\n      SWAP2 \t\t\t\n      SWAP1 \t\t\t\n      POP \t\t\t\n      JUMP [out]\t\t\t\n    tag 124\t\t\t\n      JUMPDEST \t\t\t\n      PUSH 0\t\t\t\n      PUSH [tag] 126\t\t\t\n      PUSH 14\t\t\t\n      DUP4 \t\t\t\n      PUSH [tag] 114\t\t\t\n      JUMP [in]\t\t\t\n    tag 126\t\t\t\n      JUMPDEST \t\t\t\n      SWAP2 \t\t\t\n      POP \t\t\t\n      PUSH 496E73756666696369656E74207061796D656E74000000000000000000000000\t\t\t\n      PUSH 0\t\t\t\n      DUP4 \t\t\t\n      ADD \t\t\t\n      MSTORE \t\t\t\n      PUSH 20\t\t\t\n      DUP3 \t\t\t\n      ADD \t\t\t\n      SWAP1 \t\t\t\n      POP \t\t\t\n      SWAP2 \t\t\t\n      SWAP1 \t\t\t\n      POP \t\t\t\n      JUMP [out]\t\t\t\n    tag 127\t\t\t\n      JUMPDEST \t\t\t\n      PUSH 0\t\t\t\n      PUSH [tag] 129\t\t\t\n      PUSH 16\t\t\t\n      DUP4 \t\t\t\n      PUSH [tag] 114\t\t\t\n      JUMP [in]\t\t\t\n    tag 129\t\t\t\n      JUMPDEST \t\t\t\n      SWAP2 \t\t\t\n      POP \t\t\t\n      PUSH 4661696C656420746F20726566756E6420457468657200000000000000000000\t\t\t\n      PUSH 0\t\t\t\n      DUP4 \t\t\t\n      ADD \t\t\t\n      MSTORE \t\t\t\n      PUSH 20\t\t\t\n      DUP3 \t\t\t\n      ADD \t\t\t\n      SWAP1 \t\t\t\n      POP \t\t\t\n      SWAP2 \t\t\t\n      SWAP1 \t\t\t\n      POP \t\t\t\n      JUMP [out]\t\t\t\n    tag 130\t\t\t\n      JUMPDEST \t\t\t\n      PUSH 0\t\t\t\n      PUSH [tag] 132\t\t\t\n      PUSH 0\t\t\t\n      DUP4 \t\t\t\n      PUSH [tag] 133\t\t\t\n      JUMP [in]\t\t\t\n    tag 132\t\t\t\n      JUMPDEST \t\t\t\n      SWAP2 \t\t\t\n      POP \t\t\t\n      PUSH 0\t\t\t\n      DUP3 \t\t\t\n      ADD \t\t\t\n      SWAP1 \t\t\t\n      POP \t\t\t\n      SWAP2 \t\t\t\n      SWAP1 \t\t\t\n      POP \t\t\t\n      JUMP [out]\t\t\t\n    tag 134\t\t\t\n      JUMPDEST \t\t\t\n      PUSH [tag] 136\t\t\t\n      DUP2 \t\t\t\n      PUSH [tag] 137\t\t\t\n      JUMP [in]\t\t\t\n    tag 136\t\t\t\n      JUMPDEST \t\t\t\n      DUP3 \t\t\t\n      MSTORE \t\t\t\n      POP \t\t\t\n      POP \t\t\t\n      JUMP [out]\t\t\t\n    tag 49\t\t\t\n      JUMPDEST \t\t\t\n      PUSH 0\t\t\t\n      PUSH [tag] 139\t\t\t\n      DUP3 \t\t\t\n      PUSH [tag] 130\t\t\t\n      JUMP [in]\t\t\t\n    tag 139\t\t\t\n      JUMPDEST \t\t\t\n      SWAP2 \t\t\t\n      POP \t\t\t\n      DUP2 \t\t\t\n      SWAP1 \t\t\t\n      POP \t\t\t\n      SWAP2 \t\t\t\n      SWAP1 \t\t\t\n      POP \t\t\t\n      JUMP [out]\t\t\t\n    tag 9\t\t\t\n      JUMPDEST \t\t\t\n      PUSH 0\t\t\t\n      PUSH 20\t\t\t\n      DUP3 \t\t\t\n      ADD \t\t\t\n      SWAP1 \t\t\t\n      POP \t\t\t\n      PUSH [tag] 141\t\t\t\n      PUSH 0\t\t\t\n      DUP4 \t\t\t\n      ADD \t\t\t\n      DUP5 \t\t\t\n      PUSH [tag] 99\t\t\t\n      JUMP [in]\t\t\t\n    tag 141\t\t\t\n      JUMPDEST \t\t\t\n      SWAP3 \t\t\t\n      SWAP2 \t\t\t\n      POP \t\t\t\n      POP \t\t\t\n      JUMP [out]\t\t\t\n    tag 14\t\t\t\n      JUMPDEST \t\t\t\n      PUSH 0\t\t\t\n      PUSH 20\t\t\t\n      DUP3 \t\t\t\n      ADD \t\t\t\n      SWAP1 \t\t\t\n      POP \t\t\t\n      PUSH [tag] 143\t\t\t\n      PUSH 0\t\t\t\n      DUP4 \t\t\t\n      ADD \t\t\t\n      DUP5 \t\t\t\n      PUSH [tag] 103\t\t\t\n      JUMP [in]\t\t\t\n    tag 143\t\t\t\n      JUMPDEST \t\t\t\n      SWAP3 \t\t\t\n      SWAP2 \t\t\t\n      POP \t\t\t\n      POP \t\t\t\n      JUMP [out]\t\t\t\n    tag 55\t\t\t\n      JUMPDEST \t\t\t\n      PUSH 0\t\t\t\n      PUSH 20\t\t\t\n      DUP3 \t\t\t\n      ADD \t\t\t\n      SWAP1 \t\t\t\n      POP \t\t\t\n      DUP2 \t\t\t\n      DUP2 \t\t\t\n      SUB \t\t\t\n      PUSH 0\t\t\t\n      DUP4 \t\t\t\n      ADD \t\t\t\n      MSTORE \t\t\t\n      PUSH [tag] 145\t\t\t\n      DUP2 \t\t\t\n      PUSH [tag] 111\t\t\t\n      JUMP [in]\t\t\t\n    tag 145\t\t\t\n      JUMPDEST \t\t\t\n      SWAP1 \t\t\t\n      POP \t\t\t\n      SWAP2 \t\t\t\n      SWAP1 \t\t\t\n      POP \t\t\t\n      JUMP [out]\t\t\t\n    tag 22\t\t\t\n      JUMPDEST \t\t\t\n      PUSH 0\t\t\t\n      PUSH 20\t\t\t\n      DUP3 \t\t\t\n      ADD \t\t\t\n      SWAP1 \t\t\t\n      POP \t\t\t\n      DUP2 \t\t\t\n      DUP2 \t\t\t\n      SUB \t\t\t\n      PUSH 0\t\t\t\n      DUP4 \t\t\t\n      ADD \t\t\t\n      MSTORE \t\t\t\n      PUSH [tag] 147\t\t\t\n      DUP2 \t\t\t\n      PUSH [tag] 115\t\t\t\n      JUMP [in]\t\t\t\n    tag 147\t\t\t\n      JUMPDEST \t\t\t\n      SWAP1 \t\t\t\n      POP \t\t\t\n      SWAP2 \t\t\t\n      SWAP1 \t\t\t\n      POP \t\t\t\n      JUMP [out]\t\t\t\n    tag 32\t\t\t\n      JUMPDEST \t\t\t\n      PUSH 0\t\t\t\n      PUSH 20\t\t\t\n      DUP3 \t\t\t\n      ADD \t\t\t\n      SWAP1 \t\t\t\n      POP \t\t\t\n      DUP2 \t\t\t\n      DUP2 \t\t\t\n      SUB \t\t\t\n      PUSH 0\t\t\t\n      DUP4 \t\t\t\n      ADD \t\t\t\n      MSTORE \t\t\t\n      PUSH [tag] 149\t\t\t\n      DUP2 \t\t\t\n      PUSH [tag] 118\t\t\t\n      JUMP [in]\t\t\t\n    tag 149\t\t\t\n      JUMPDEST \t\t\t\n      SWAP1 \t\t\t\n      POP \t\t\t\n      SWAP2 \t\t\t\n      SWAP1 \t\t\t\n      POP \t\t\t\n      JUMP [out]\t\t\t\n    tag 37\t\t\t\n      JUMPDEST \t\t\t\n      PUSH 0\t\t\t\n      PUSH 20\t\t\t\n      DUP3 \t\t\t\n      ADD \t\t\t\n      SWAP1 \t\t\t\n      POP \t\t\t\n      DUP2 \t\t\t\n      DUP2 \t\t\t\n      SUB \t\t\t\n      PUSH 0\t\t\t\n      DUP4 \t\t\t\n      ADD \t\t\t\n      MSTORE \t\t\t\n      PUSH [tag] 151\t\t\t\n      DUP2 \t\t\t\n      PUSH [tag] 121\t\t\t\n      JUMP [in]\t\t\t\n    tag 151\t\t\t\n      JUMPDEST \t\t\t\n      SWAP1 \t\t\t\n      POP \t\t\t\n      SWAP2 \t\t\t\n      SWAP1 \t\t\t\n      POP \t\t\t\n      JUMP [out]\t\t\t\n    tag 40\t\t\t\n      JUMPDEST \t\t\t\n      PUSH 0\t\t\t\n      PUSH 20\t\t\t\n      DUP3 \t\t\t\n      ADD \t\t\t\n      SWAP1 \t\t\t\n      POP \t\t\t\n      DUP2 \t\t\t\n      DUP2 \t\t\t\n      SUB \t\t\t\n      PUSH 0\t\t\t\n      DUP4 \t\t\t\n      ADD \t\t\t\n      MSTORE \t\t\t\n      PUSH [tag] 153\t\t\t\n      DUP2 \t\t\t\n      PUSH [tag] 124\t\t\t\n      JUMP [in]\t\t\t\n    tag 153\t\t\t\n      JUMPDEST \t\t\t\n      SWAP1 \t\t\t\n      POP \t\t\t\n      SWAP2 \t\t\t\n      SWAP1 \t\t\t\n      POP \t\t\t\n      JUMP [out]\t\t\t\n    tag 63\t\t\t\n      JUMPDEST \t\t\t\n      PUSH 0\t\t\t\n      PUSH 20\t\t\t\n      DUP3 \t\t\t\n      ADD \t\t\t\n      SWAP1 \t\t\t\n      POP \t\t\t\n      DUP2 \t\t\t\n      DUP2 \t\t\t\n      SUB \t\t\t\n      PUSH 0\t\t\t\n      DUP4 \t\t\t\n      ADD \t\t\t\n      MSTORE \t\t\t\n      PUSH [tag] 155\t\t\t\n      DUP2 \t\t\t\n      PUSH [tag] 127\t\t\t\n      JUMP [in]\t\t\t\n    tag 155\t\t\t\n      JUMPDEST \t\t\t\n      SWAP1 \t\t\t\n      POP \t\t\t\n      SWAP2 \t\t\t\n      SWAP1 \t\t\t\n      POP \t\t\t\n      JUMP [out]\t\t\t\n    tag 24\t\t\t\n      JUMPDEST \t\t\t\n      PUSH 0\t\t\t\n      PUSH 20\t\t\t\n      DUP3 \t\t\t\n      ADD \t\t\t\n      SWAP1 \t\t\t\n      POP \t\t\t\n      PUSH [tag] 157\t\t\t\n      PUSH 0\t\t\t\n      DUP4 \t\t\t\n      ADD \t\t\t\n      DUP5 \t\t\t\n      PUSH [tag] 134\t\t\t\n      JUMP [in]\t\t\t\n    tag 157\t\t\t\n      JUMPDEST \t\t\t\n      SWAP3 \t\t\t\n      SWAP2 \t\t\t\n      POP \t\t\t\n      POP \t\t\t\n      JUMP [out]\t\t\t\n    tag 42\t\t\t\n      JUMPDEST \t\t\t\n      PUSH 0\t\t\t\n      PUSH 40\t\t\t\n      DUP3 \t\t\t\n      ADD \t\t\t\n      SWAP1 \t\t\t\n      POP \t\t\t\n      PUSH [tag] 159\t\t\t\n      PUSH 0\t\t\t\n      DUP4 \t\t\t\n      ADD \t\t\t\n      DUP6 \t\t\t\n      PUSH [tag] 134\t\t\t\n      JUMP [in]\t\t\t\n    tag 159\t\t\t\n      JUMPDEST \t\t\t\n      PUSH [tag] 160\t\t\t\n      PUSH 20\t\t\t\n      DUP4 \t\t\t\n      ADD \t\t\t\n      DUP5 \t\t\t\n      PUSH [tag] 107\t\t\t\n      JUMP [in]\t\t\t\n    tag 160\t\t\t\n      JUMPDEST \t\t\t\n      SWAP4 \t\t\t\n      SWAP3 \t\t\t\n      POP \t\t\t\n      POP \t\t\t\n      POP \t\t\t\n      JUMP [out]\t\t\t\n    tag 65\t\t\t\n      JUMPDEST \t\t\t\n      PUSH 0\t\t\t\n      PUSH 40\t\t\t\n      DUP3 \t\t\t\n      ADD \t\t\t\n      SWAP1 \t\t\t\n      POP \t\t\t\n      PUSH [tag] 162\t\t\t\n      PUSH 0\t\t\t\n      DUP4 \t\t\t\n      ADD \t\t\t\n      DUP6 \t\t\t\n      PUSH [tag] 134\t\t\t\n      JUMP [in]\t\t\t\n    tag 162\t\t\t\n      JUMPDEST \t\t\t\n      PUSH [tag] 163\t\t\t\n      PUSH 20\t\t\t\n      DUP4 \t\t\t\n      ADD \t\t\t\n      DUP5 \t\t\t\n      PUSH [tag] 134\t\t\t\n      JUMP [in]\t\t\t\n    tag 163\t\t\t\n      JUMPDEST \t\t\t\n      SWAP4 \t\t\t\n      SWAP3 \t\t\t\n      POP \t\t\t\n      POP \t\t\t\n      POP \t\t\t\n      JUMP [out]\t\t\t\n    tag 79\t\t\t\n      JUMPDEST \t\t\t\n      PUSH 0\t\t\t\n      PUSH 40\t\t\t\n      MLOAD \t\t\t\n      SWAP1 \t\t\t\n      POP \t\t\t\n      DUP2 \t\t\t\n      DUP2 \t\t\t\n      ADD \t\t\t\n      DUP2 \t\t\t\n      DUP2 \t\t\t\n      LT \t\t\t\n      PUSH FFFFFFFFFFFFFFFF\t\t\t\n      DUP3 \t\t\t\n      GT \t\t\t\n      OR \t\t\t\n      ISZERO \t\t\t\n      PUSH [tag] 165\t\t\t\n      JUMPI \t\t\t\n      PUSH [tag] 166\t\t\t\n      PUSH [tag] 167\t\t\t\n      JUMP [in]\t\t\t\n    tag 166\t\t\t\n      JUMPDEST \t\t\t\n    tag 165\t\t\t\n      JUMPDEST \t\t\t\n      DUP1 \t\t\t\n      PUSH 40\t\t\t\n      MSTORE \t\t\t\n      POP \t\t\t\n      SWAP2 \t\t\t\n      SWAP1 \t\t\t\n      POP \t\t\t\n      JUMP [out]\t\t\t\n    tag 133\t\t\t\n      JUMPDEST \t\t\t\n      PUSH 0\t\t\t\n      DUP2 \t\t\t\n      SWAP1 \t\t\t\n      POP \t\t\t\n      SWAP3 \t\t\t\n      SWAP2 \t\t\t\n      POP \t\t\t\n      POP \t\t\t\n      JUMP [out]\t\t\t\n    tag 114\t\t\t\n      JUMPDEST \t\t\t\n      PUSH 0\t\t\t\n      DUP3 \t\t\t\n      DUP3 \t\t\t\n      MSTORE \t\t\t\n      PUSH 20\t\t\t\n      DUP3 \t\t\t\n      ADD \t\t\t\n      SWAP1 \t\t\t\n      POP \t\t\t\n      SWAP3 \t\t\t\n      SWAP2 \t\t\t\n      POP \t\t\t\n      POP \t\t\t\n      JUMP [out]\t\t\t\n    tag 47\t\t\t\n      JUMPDEST \t\t\t\n      PUSH 0\t\t\t\n      PUSH [tag] 171\t\t\t\n      DUP3 \t\t\t\n      PUSH [tag] 137\t\t\t\n      JUMP [in]\t\t\t\n    tag 171\t\t\t\n      JUMPDEST \t\t\t\n      SWAP2 \t\t\t\n      POP \t\t\t\n      PUSH [tag] 172\t\t\t\n      DUP4 \t\t\t\n      PUSH [tag] 137\t\t\t\n      JUMP [in]\t\t\t\n    tag 172\t\t\t\n      JUMPDEST \t\t\t\n      SWAP3 \t\t\t\n      POP \t\t\t\n      DUP3 \t\t\t\n      DUP3 \t\t\t\n      LT \t\t\t\n      ISZERO \t\t\t\n      PUSH [tag] 173\t\t\t\n      JUMPI \t\t\t\n      PUSH [tag] 174\t\t\t\n      PUSH [tag] 175\t\t\t\n      JUMP [in]\t\t\t\n    tag 174\t\t\t\n      JUMPDEST \t\t\t\n    tag 173\t\t\t\n      JUMPDEST \t\t\t\n      DUP3 \t\t\t\n      DUP3 \t\t\t\n      SUB \t\t\t\n      SWAP1 \t\t\t\n      POP \t\t\t\n      SWAP3 \t\t\t\n      SWAP2 \t\t\t\n      POP \t\t\t\n      POP \t\t\t\n      JUMP [out]\t\t\t\n    tag 102\t\t\t\n      JUMPDEST \t\t\t\n      PUSH 0\t\t\t\n      PUSH [tag] 177\t\t\t\n      DUP3 \t\t\t\n      PUSH [tag] 178\t\t\t\n      JUMP [in]\t\t\t\n    tag 177\t\t\t\n      JUMPDEST \t\t\t\n      SWAP1 \t\t\t\n      POP \t\t\t\n      SWAP2 \t\t\t\n      SWAP1 \t\t\t\n      POP \t\t\t\n      JUMP [out]\t\t\t\n    tag 179\t\t\t\n      JUMPDEST \t\t\t\n      PUSH 0\t\t\t\n      DUP2 \t\t\t\n      SWAP1 \t\t\t\n      POP \t\t\t\n      PUSH [tag] 181\t\t\t\n      DUP3 \t\t\t\n      PUSH [tag] 182\t\t\t\n      JUMP [in]\t\t\t\n    tag 181\t\t\t\n      JUMPDEST \t\t\t\n      SWAP2 \t\t\t\n      SWAP1 \t\t\t\n      POP \t\t\t\n      JUMP [out]\t\t\t\n    tag 178\t\t\t\n      JUMPDEST \t\t\t\n      PUSH 0\t\t\t\n      PUSH FFFFFFFFFFFFFFFFFFFFFFFFFFFFFFFFFFFFFFFF\t\t\t\n      DUP3 \t\t\t\n      AND \t\t\t\n      SWAP1 \t\t\t\n      POP \t\t\t\n      SWAP2 \t\t\t\n      SWAP1 \t\t\t\n      POP \t\t\t\n      JUMP [out]\t\t\t\n    tag 137\t\t\t\n      JUMPDEST \t\t\t\n      PUSH 0\t\t\t\n      DUP2 \t\t\t\n      SWAP1 \t\t\t\n      POP \t\t\t\n      SWAP2 \t\t\t\n      SWAP1 \t\t\t\n      POP \t\t\t\n      JUMP [out]\t\t\t\n    tag 106\t\t\t\n      JUMPDEST \t\t\t\n      PUSH 0\t\t\t\n      PUSH [tag] 186\t\t\t\n      DUP3 \t\t\t\n      PUSH [tag] 187\t\t\t\n      JUMP [in]\t\t\t\n    tag 186\t\t\t\n      JUMPDEST \t\t\t\n      SWAP1 \t\t\t\n      POP \t\t\t\n      SWAP2 \t\t\t\n      SWAP1 \t\t\t\n      POP \t\t\t\n      JUMP [out]\t\t\t\n    tag 187\t\t\t\n      JUMPDEST \t\t\t\n      PUSH 0\t\t\t\n      PUSH [tag] 189\t\t\t\n      DUP3 \t\t\t\n      PUSH [tag] 178\t\t\t\n      JUMP [in]\t\t\t\n    tag 189\t\t\t\n      JUMPDEST \t\t\t\n      SWAP1 \t\t\t\n      POP \t\t\t\n      SWAP2 \t\t\t\n      SWAP1 \t\t\t\n      POP \t\t\t\n      JUMP [out]\t\t\t\n    tag 110\t\t\t\n      JUMPDEST \t\t\t\n      PUSH 0\t\t\t\n      PUSH [tag] 191\t\t\t\n      DUP3 \t\t\t\n      PUSH [tag] 179\t\t\t\n      JUMP [in]\t\t\t\n    tag 191\t\t\t\n      JUMPDEST \t\t\t\n      SWAP1 \t\t\t\n      POP \t\t\t\n      SWAP2 \t\t\t\n      SWAP1 \t\t\t\n      POP \t\t\t\n      JUMP [out]\t\t\t\n    tag 175\t\t\t\n      JUMPDEST \t\t\t\n      PUSH 4E487B7100000000000000000000000000000000000000000000000000000000\t\t\t\n      PUSH 0\t\t\t\n      MSTORE \t\t\t\n      PUSH 11\t\t\t\n      PUSH 4\t\t\t\n      MSTORE \t\t\t\n      PUSH 24\t\t\t\n      PUSH 0\t\t\t\n      REVERT \t\t\t\n    tag 193\t\t\t\n      JUMPDEST \t\t\t\n      PUSH 4E487B7100000000000000000000000000000000000000000000000000000000\t\t\t\n      PUSH 0\t\t\t\n      MSTORE \t\t\t\n      PUSH 21\t\t\t\n      PUSH 4\t\t\t\n      MSTORE \t\t\t\n      PUSH 24\t\t\t\n      PUSH 0\t\t\t\n      REVERT \t\t\t\n    tag 167\t\t\t\n      JUMPDEST \t\t\t\n      PUSH 4E487B7100000000000000000000000000000000000000000000000000000000\t\t\t\n      PUSH 0\t\t\t\n      MSTORE \t\t\t\n      PUSH 41\t\t\t\n      PUSH 4\t\t\t\n      MSTORE \t\t\t\n      PUSH 24\t\t\t\n      PUSH 0\t\t\t\n      REVERT \t\t\t\n    tag 182\t\t\t\n      JUMPDEST \t\t\t\n      PUSH 4\t\t\t\n      DUP2 \t\t\t\n      LT \t\t\t\n      PUSH [tag] 197\t\t\t\n      JUMPI \t\t\t\n      PUSH [tag] 198\t\t\t\n      PUSH [tag] 193\t\t\t\n      JUMP [in]\t\t\t\n    tag 198\t\t\t\n      JUMPDEST \t\t\t\n    tag 197\t\t\t\n      JUMPDEST \t\t\t\n      POP \t\t\t\n      JUMP [out]\t\t\t\n    tag 70\t\t\t\n      JUMPDEST \t\t\t\n      PUSH [tag] 200\t\t\t\n      DUP2 \t\t\t\n      PUSH [tag] 102\t\t\t\n      JUMP [in]\t\t\t\n    tag 200\t\t\t\n      JUMPDEST \t\t\t\n      DUP2 \t\t\t\n      EQ \t\t\t\n      PUSH [tag] 201\t\t\t\n      JUMPI \t\t\t\n      PUSH 0\t\t\t\n      DUP1 \t\t\t\n      REVERT \t\t\t\n    tag 201\t\t\t\n      JUMPDEST \t\t\t\n      POP \t\t\t\n      JUMP [out]\t\t\t\n    tag 74\t\t\t\n      JUMPDEST \t\t\t\n      PUSH 4\t\t\t\n      DUP2 \t\t\t\n      LT \t\t\t\n      PUSH [tag] 203\t\t\t\n      JUMPI \t\t\t\n      PUSH 0\t\t\t\n      DUP1 \t\t\t\n      REVERT \t\t\t\n    tag 203\t\t\t\n      JUMPDEST \t\t\t\n      POP \t\t\t\n      JUMP [out]\t\t\t\n    tag 90\t\t\t\n      JUMPDEST \t\t\t\n      PUSH [tag] 205\t\t\t\n      DUP2 \t\t\t\n      PUSH [tag] 137\t\t\t\n      JUMP [in]\t\t\t\n    tag 205\t\t\t\n      JUMPDEST \t\t\t\n      DUP2 \t\t\t\n      EQ \t\t\t\n      PUSH [tag] 206\t\t\t\n      JUMPI \t\t\t\n      PUSH 0\t\t\t\n      DUP1 \t\t\t\n      REVERT \t\t\t\n    tag 206\t\t\t\n      JUMPDEST \t\t\t\n      POP \t\t\t\n      JUMP [out]\t\t\t\n    .data\n"
}